{
  "contractName": "ONFT1155MOCK",
  "abi": [
    {
      "anonymous": false,
      "inputs": [
        {
          "indexed": true,
          "internalType": "uint16",
          "name": "_srcChainId",
          "type": "uint16"
        },
        {
          "indexed": true,
          "internalType": "bytes",
          "name": "_srcAddress",
          "type": "bytes"
        },
        {
          "indexed": true,
          "internalType": "address",
          "name": "_toAddress",
          "type": "address"
        },
        {
          "indexed": false,
          "internalType": "uint256[]",
          "name": "_tokenIds",
          "type": "uint256[]"
        },
        {
          "indexed": false,
          "internalType": "uint256[]",
          "name": "_amounts",
          "type": "uint256[]"
        }
      ],
      "name": "ReceiveBatchFromChain",
      "type": "event"
    },
    {
      "anonymous": false,
      "inputs": [
        {
          "indexed": true,
          "internalType": "uint16",
          "name": "_srcChainId",
          "type": "uint16"
        },
        {
          "indexed": true,
          "internalType": "bytes",
          "name": "_srcAddress",
          "type": "bytes"
        },
        {
          "indexed": true,
          "internalType": "address",
          "name": "_toAddress",
          "type": "address"
        },
        {
          "indexed": false,
          "internalType": "uint256",
          "name": "_tokenId",
          "type": "uint256"
        },
        {
          "indexed": false,
          "internalType": "uint256",
          "name": "_amount",
          "type": "uint256"
        }
      ],
      "name": "ReceiveFromChain",
      "type": "event"
    },
    {
      "anonymous": false,
      "inputs": [
        {
          "indexed": true,
          "internalType": "uint16",
          "name": "_dstChainId",
          "type": "uint16"
        },
        {
          "indexed": true,
          "internalType": "address",
          "name": "_from",
          "type": "address"
        },
        {
          "indexed": true,
          "internalType": "bytes",
          "name": "_toAddress",
          "type": "bytes"
        },
        {
          "indexed": false,
          "internalType": "uint256[]",
          "name": "_tokenIds",
          "type": "uint256[]"
        },
        {
          "indexed": false,
          "internalType": "uint256[]",
          "name": "_amounts",
          "type": "uint256[]"
        }
      ],
      "name": "SendBatchToChain",
      "type": "event"
    },
    {
      "anonymous": false,
      "inputs": [
        {
          "indexed": true,
          "internalType": "uint16",
          "name": "_dstChainId",
          "type": "uint16"
        },
        {
          "indexed": true,
          "internalType": "address",
          "name": "_from",
          "type": "address"
        },
        {
          "indexed": true,
          "internalType": "bytes",
          "name": "_toAddress",
          "type": "bytes"
        },
        {
          "indexed": false,
          "internalType": "uint256",
          "name": "_tokenId",
          "type": "uint256"
        },
        {
          "indexed": false,
          "internalType": "uint256",
          "name": "_amount",
          "type": "uint256"
        }
      ],
      "name": "SendToChain",
      "type": "event"
    },
    {
      "inputs": [
        {
          "internalType": "address",
          "name": "_from",
          "type": "address"
        },
        {
          "internalType": "uint16",
          "name": "_dstChainId",
          "type": "uint16"
        },
        {
          "internalType": "bytes",
          "name": "_toAddress",
          "type": "bytes"
        },
        {
          "internalType": "uint256",
          "name": "_tokenId",
          "type": "uint256"
        },
        {
          "internalType": "uint256",
          "name": "_amount",
          "type": "uint256"
        },
        {
          "internalType": "address payable",
          "name": "_refundAddress",
          "type": "address"
        },
        {
          "internalType": "address",
          "name": "_zroPaymentAddress",
          "type": "address"
        },
        {
          "internalType": "bytes",
          "name": "_adapterParams",
          "type": "bytes"
        }
      ],
      "name": "sendFrom",
      "outputs": [],
      "stateMutability": "payable",
      "type": "function"
    },
    {
      "inputs": [
        {
          "internalType": "address",
          "name": "_from",
          "type": "address"
        },
        {
          "internalType": "uint16",
          "name": "_dstChainId",
          "type": "uint16"
        },
        {
          "internalType": "bytes",
          "name": "_toAddress",
          "type": "bytes"
        },
        {
          "internalType": "uint256[]",
          "name": "_tokenIds",
          "type": "uint256[]"
        },
        {
          "internalType": "uint256[]",
          "name": "_amounts",
          "type": "uint256[]"
        },
        {
          "internalType": "address payable",
          "name": "_refundAddress",
          "type": "address"
        },
        {
          "internalType": "address",
          "name": "_zroPaymentAddress",
          "type": "address"
        },
        {
          "internalType": "bytes",
          "name": "_adapterParams",
          "type": "bytes"
        }
      ],
      "name": "sendBatchFrom",
      "outputs": [],
      "stateMutability": "payable",
      "type": "function"
    },
    {
      "inputs": [
        {
          "internalType": "uint16",
          "name": "_dstChainId",
          "type": "uint16"
        },
        {
          "internalType": "bytes",
          "name": "_toAddress",
          "type": "bytes"
        },
        {
          "internalType": "uint256",
          "name": "_tokenId",
          "type": "uint256"
        },
        {
          "internalType": "uint256",
          "name": "_amount",
          "type": "uint256"
        },
        {
          "internalType": "bool",
          "name": "_useZro",
          "type": "bool"
        },
        {
          "internalType": "bytes",
          "name": "_adapterParams",
          "type": "bytes"
        }
      ],
      "name": "estimateSendFee",
      "outputs": [
        {
          "internalType": "uint256",
          "name": "nativeFee",
          "type": "uint256"
        },
        {
          "internalType": "uint256",
          "name": "zroFee",
          "type": "uint256"
        }
      ],
      "stateMutability": "view",
      "type": "function"
    },
    {
      "inputs": [
        {
          "internalType": "uint16",
          "name": "_dstChainId",
          "type": "uint16"
        },
        {
          "internalType": "bytes",
          "name": "_toAddress",
          "type": "bytes"
        },
        {
          "internalType": "uint256[]",
          "name": "_tokenIds",
          "type": "uint256[]"
        },
        {
          "internalType": "uint256[]",
          "name": "_amounts",
          "type": "uint256[]"
        },
        {
          "internalType": "bool",
          "name": "_useZro",
          "type": "bool"
        },
        {
          "internalType": "bytes",
          "name": "_adapterParams",
          "type": "bytes"
        }
      ],
      "name": "estimateSendBatchFee",
      "outputs": [
        {
          "internalType": "uint256",
          "name": "nativeFee",
          "type": "uint256"
        },
        {
          "internalType": "uint256",
          "name": "zroFee",
          "type": "uint256"
        }
      ],
      "stateMutability": "view",
      "type": "function"
    },
    {
      "inputs": [
        {
          "internalType": "bytes4",
          "name": "interfaceId",
          "type": "bytes4"
        }
      ],
      "name": "supportsInterface",
      "outputs": [
        {
          "internalType": "bool",
          "name": "",
          "type": "bool"
        }
      ],
      "stateMutability": "pure",
      "type": "function"
    },
    {
      "inputs": [],
      "name": "getTypeId",
      "outputs": [
        {
          "internalType": "bytes4",
          "name": "",
          "type": "bytes4"
        }
      ],
      "stateMutability": "pure",
      "type": "function"
    },
    {
      "inputs": [
        {
          "internalType": "uint16",
          "name": "_dstChainId",
          "type": "uint16"
        },
        {
          "internalType": "address",
          "name": "_from",
          "type": "address"
        },
        {
          "internalType": "bytes",
          "name": "_toAddress",
          "type": "bytes"
        },
        {
          "internalType": "uint256",
          "name": "_tokenId",
          "type": "uint256"
        },
        {
          "internalType": "uint256",
          "name": "_amount",
          "type": "uint256"
        }
      ],
      "name": "emit_SendToChain",
      "outputs": [],
      "stateMutability": "nonpayable",
      "type": "function"
    },
    {
      "inputs": [
        {
          "internalType": "uint16",
          "name": "_srcChainId",
          "type": "uint16"
        },
        {
          "internalType": "bytes",
          "name": "_srcAddress",
          "type": "bytes"
        },
        {
          "internalType": "address",
          "name": "_toAddress",
          "type": "address"
        },
        {
          "internalType": "uint256",
          "name": "_tokenId",
          "type": "uint256"
        },
        {
          "internalType": "uint256",
          "name": "_amount",
          "type": "uint256"
        }
      ],
      "name": "emit_ReceiveFromChain",
      "outputs": [],
      "stateMutability": "nonpayable",
      "type": "function"
    },
    {
      "inputs": [
        {
          "internalType": "uint16",
          "name": "_dstChainId",
          "type": "uint16"
        },
        {
          "internalType": "address",
          "name": "_from",
          "type": "address"
        },
        {
          "internalType": "bytes",
          "name": "_toAddress",
          "type": "bytes"
        },
        {
          "internalType": "uint256[]",
          "name": "_tokenIds",
          "type": "uint256[]"
        },
        {
          "internalType": "uint256[]",
          "name": "_amounts",
          "type": "uint256[]"
        }
      ],
      "name": "emit_SendBatchToChain",
      "outputs": [],
      "stateMutability": "nonpayable",
      "type": "function"
    },
    {
      "inputs": [
        {
          "internalType": "uint16",
          "name": "_srcChainId",
          "type": "uint16"
        },
        {
          "internalType": "bytes",
          "name": "_srcAddress",
          "type": "bytes"
        },
        {
          "internalType": "address",
          "name": "_toAddress",
          "type": "address"
        },
        {
          "internalType": "uint256[]",
          "name": "_tokenIds",
          "type": "uint256[]"
        },
        {
          "internalType": "uint256[]",
          "name": "_amounts",
          "type": "uint256[]"
        }
      ],
      "name": "emit_ReceiveBatchFromChain",
      "outputs": [],
      "stateMutability": "nonpayable",
      "type": "function"
    }
  ],
  "bytecode": "0x608060405234801561001057600080fd5b50610f4b806100206000396000f3fe6080604052600436106100915760003560e01c8063911e3f4611610059578063911e3f4614610640578063b253566314610672578063e11bbac2146107ee578063e5f75396146109bc578063f4e6d83f14610a8c57610091565b806301ffc9a71461009657806328525bb3146100de5780634ab4e687146102b15780634db8226a146104425780638608e5f81461053d575b600080fd5b3480156100a257600080fd5b506100ca600480360360208110156100b957600080fd5b50356001600160e01b031916610b5b565b604080519115158252519081900360200190f35b3480156100ea57600080fd5b506102af600480360360a081101561010157600080fd5b61ffff8235169190810190604081016020820135600160201b81111561012657600080fd5b82018360208201111561013857600080fd5b803590602001918460018302840111600160201b8311171561015957600080fd5b91908080601f01602080910402602001604051908101604052809392919081815260200183838082843760009201919091525092956001600160a01b03853516959094909350604081019250602001359050600160201b8111156101bc57600080fd5b8201836020820111156101ce57600080fd5b803590602001918460208302840111600160201b831117156101ef57600080fd5b9190808060200260200160405190810160405280939291908181526020018383602002808284376000920191909152509295949360208101935035915050600160201b81111561023e57600080fd5b82018360208201111561025057600080fd5b803590602001918460208302840111600160201b8311171561027157600080fd5b919080806020026020016040519081016040528093929190818152602001838360200280828437600092019190915250929550610b7b945050505050565b005b6102af60048036036101008110156102c857600080fd5b6001600160a01b038235169161ffff60208201351691810190606081016040820135600160201b8111156102fb57600080fd5b82018360208201111561030d57600080fd5b803590602001918460018302840111600160201b8311171561032e57600080fd5b919390929091602081019035600160201b81111561034b57600080fd5b82018360208201111561035d57600080fd5b803590602001918460208302840111600160201b8311171561037e57600080fd5b919390929091602081019035600160201b81111561039b57600080fd5b8201836020820111156103ad57600080fd5b803590602001918460208302840111600160201b831117156103ce57600080fd5b919390926001600160a01b0383358116936020810135909116929190606081019060400135600160201b81111561040457600080fd5b82018360208201111561041657600080fd5b803590602001918460018302840111600160201b8311171561043757600080fd5b509092509050610ca9565b6102af600480360361010081101561045957600080fd5b6001600160a01b038235169161ffff60208201351691810190606081016040820135600160201b81111561048c57600080fd5b82018360208201111561049e57600080fd5b803590602001918460018302840111600160201b831117156104bf57600080fd5b919390928235926020810135926001600160a01b03604083013581169360608401359091169260a081019060800135600160201b8111156104ff57600080fd5b82018360208201111561051157600080fd5b803590602001918460018302840111600160201b8311171561053257600080fd5b509092509050610cb7565b34801561054957600080fd5b50610627600480360360c081101561056057600080fd5b61ffff8235169190810190604081016020820135600160201b81111561058557600080fd5b82018360208201111561059757600080fd5b803590602001918460018302840111600160201b831117156105b857600080fd5b9193909282359260208101359260408201351515929091608081019060600135600160201b8111156105e957600080fd5b8201836020820111156105fb57600080fd5b803590602001918460018302840111600160201b8311171561061c57600080fd5b509092509050610cc3565b6040805192835260208301919091528051918290030190f35b34801561064c57600080fd5b50610655610cd3565b604080516001600160e01b03199092168252519081900360200190f35b34801561067e57600080fd5b50610627600480360360c081101561069557600080fd5b61ffff8235169190810190604081016020820135600160201b8111156106ba57600080fd5b8201836020820111156106cc57600080fd5b803590602001918460018302840111600160201b831117156106ed57600080fd5b919390929091602081019035600160201b81111561070a57600080fd5b82018360208201111561071c57600080fd5b803590602001918460208302840111600160201b8311171561073d57600080fd5b919390929091602081019035600160201b81111561075a57600080fd5b82018360208201111561076c57600080fd5b803590602001918460208302840111600160201b8311171561078d57600080fd5b919390928235151592604081019060200135600160201b8111156107b057600080fd5b8201836020820111156107c257600080fd5b803590602001918460018302840111600160201b831117156107e357600080fd5b509092509050610cde565b3480156107fa57600080fd5b506102af600480360360a081101561081157600080fd5b61ffff823516916001600160a01b0360208201351691810190606081016040820135600160201b81111561084457600080fd5b82018360208201111561085657600080fd5b803590602001918460018302840111600160201b8311171561087757600080fd5b91908080601f0160208091040260200160405190810160405280939291908181526020018383808284376000920191909152509295949360208101935035915050600160201b8111156108c957600080fd5b8201836020820111156108db57600080fd5b803590602001918460208302840111600160201b831117156108fc57600080fd5b9190808060200260200160405190810160405280939291908181526020018383602002808284376000920191909152509295949360208101935035915050600160201b81111561094b57600080fd5b82018360208201111561095d57600080fd5b803590602001918460208302840111600160201b8311171561097e57600080fd5b919080806020026020016040519081016040528093929190818152602001838360200280828437600092019190915250929550610cf0945050505050565b3480156109c857600080fd5b506102af600480360360a08110156109df57600080fd5b61ffff8235169190810190604081016020820135600160201b811115610a0457600080fd5b820183602082011115610a1657600080fd5b803590602001918460018302840111600160201b83111715610a3757600080fd5b91908080601f016020809104026020016040519081016040528093929190818152602001838380828437600092019190915250929550506001600160a01b038335169350505060208101359060400135610dc2565b348015610a9857600080fd5b506102af600480360360a0811015610aaf57600080fd5b61ffff823516916001600160a01b0360208201351691810190606081016040820135600160201b811115610ae257600080fd5b820183602082011115610af457600080fd5b803590602001918460018302840111600160201b83111715610b1557600080fd5b91908080601f0160208091040260200160405190810160405280939291908181526020018383808284376000920191909152509295505082359350505060200135610e6b565b6000610b65610cd3565b6001600160e01b03198381169116149050919050565b826001600160a01b0316846040518082805190602001908083835b60208310610bb55780518252601f199092019160209182019101610b96565b6001836020036101000a03801982511681845116808217855250505050505090500191505060405180910390208661ffff167f1ae08edbbcd7baa8d064835de8593ce16b313414525ac89534e349f4da7926e48585604051808060200180602001838103835285818151815260200191508051906020019060200280838360005b83811015610c4e578181015183820152602001610c36565b50505050905001838103825284818151815260200191508051906020019060200280838360005b83811015610c8d578181015183820152602001610c75565b5050505090500194505050505060405180910390a45050505050565b505050505050505050505050565b50505050505050505050565b6000809850989650505050505050565b6319abbbbb60e11b90565b6000809a509a98505050505050505050565b826040518082805190602001908083835b60208310610d205780518252601f199092019160209182019101610d01565b6001836020036101000a0380198251168184511680821785525050505050509050019150506040518091039020846001600160a01b03168661ffff167fddd15f7cfbd674ac2096d598f1650367f8a8bd72b4e3abd85591099ea3b57e3385856040518080602001806020018381038352858181518152602001915080519060200190602002808383600083811015610c4e578181015183820152602001610c36565b826001600160a01b0316846040518082805190602001908083835b60208310610dfc5780518252601f199092019160209182019101610ddd565b51815160209384036101000a600019018019909216911617905260408051929094018290038220898352908201889052835190955061ffff8c1694507f1bf64e58d19fc43de4c44b3d1bb1fae313979af831a7a39f3297564294329f0f93918190039091019150a45050505050565b826040518082805190602001908083835b60208310610e9b5780518252601f199092019160209182019101610e7c565b51815160209384036101000a60001901801990921691161790526040805192909401829003822088835290820187905283519095506001600160a01b038a16945061ffff8b16937f968b0d61ebcf43e5d76ed87bd2c4ee2f22b4969b9f4ca49e3373c025eddd5eeb93509181900390910190a4505050505056fea264697066735822122016a236d575b9ee41ed8da85bfa142ed87368e67c4112489ebd7f4a3525191bd964736f6c63430007060033",
  "immutableReferences": {},
  "source": "// SPDX-License-Identifier: MIT\n\npragma solidity ^0.7.6;\n\n/**\n * @dev Interface of the ERC165 standard, as defined in the\n * https://eips.ethereum.org/EIPS/eip-165[EIP].\n *\n * Implementers can declare support of contract interfaces, which can then be\n * queried by others ({ERC165Checker}).\n *\n * For an implementation, see {ERC165}.\n */\ninterface IERC165 {\n    /**\n     * @dev Returns true if this contract implements the interface defined by\n     * `interfaceId`. See the corresponding\n     * https://eips.ethereum.org/EIPS/eip-165#how-interfaces-are-identified[EIP section]\n     * to learn more about how these ids are created.\n     *\n     * This function call must use less than 30 000 gas.\n     */\n    function supportsInterface(bytes4 interfaceId) external view returns (bool);\n}\n/**\n * @dev Interface of the ONFT Core standard\n */\ninterface IONFT1155Core is IERC165 {\n    event SendToChain(uint16 indexed _dstChainId, address indexed _from, bytes indexed _toAddress, uint _tokenId, uint _amount);\n    event SendBatchToChain(uint16 indexed _dstChainId, address indexed _from, bytes indexed _toAddress, uint[] _tokenIds, uint[] _amounts);\n    event ReceiveFromChain(uint16 indexed _srcChainId, bytes indexed _srcAddress, address indexed _toAddress, uint _tokenId, uint _amount);\n    event ReceiveBatchFromChain(\n        uint16 indexed _srcChainId,\n        bytes indexed _srcAddress,\n        address indexed _toAddress,\n        uint[] _tokenIds,\n        uint[] _amounts\n    );\n\n    // _from - address where tokens should be deducted from on behalf of\n    // _dstChainId - L0 defined chain id to send tokens too\n    // _toAddress - dynamic bytes array which contains the address to whom you are sending tokens to on the dstChain\n    // _tokenId - token Id to transfer\n    // _amount - amount of the tokens to transfer\n    // _refundAddress - address on src that will receive refund for any overpayment of L0 fees\n    // _zroPaymentAddress - if paying in zro, pass the address to use. using 0x0 indicates not paying fees in zro\n    // _adapterParams - flexible bytes array to indicate messaging adapter services in L0\n    function sendFrom(\n        address _from,\n        uint16 _dstChainId,\n        bytes calldata _toAddress,\n        uint _tokenId,\n        uint _amount,\n        address payable _refundAddress,\n        address _zroPaymentAddress,\n        bytes calldata _adapterParams\n    ) external payable;\n\n    // _from - address where tokens should be deducted from on behalf of\n    // _dstChainId - L0 defined chain id to send tokens too\n    // _toAddress - dynamic bytes array which contains the address to whom you are sending tokens to on the dstChain\n    // _tokenIds - token Ids to transfer\n    // _amounts - amounts of the tokens to transfer\n    // _refundAddress - address on src that will receive refund for any overpayment of L0 fees\n    // _zroPaymentAddress - if paying in zro, pass the address to use. using 0x0 indicates not paying fees in zro\n    // _adapterParams - flexible bytes array to indicate messaging adapter services in L0\n    function sendBatchFrom(\n        address _from,\n        uint16 _dstChainId,\n        bytes calldata _toAddress,\n        uint[] calldata _tokenIds,\n        uint[] calldata _amounts,\n        address payable _refundAddress,\n        address _zroPaymentAddress,\n        bytes calldata _adapterParams\n    ) external payable;\n\n    // _dstChainId - L0 defined chain id to send tokens too\n    // _toAddress - dynamic bytes array which contains the address to whom you are sending tokens to on the dstChain\n    // _tokenId - token Id to transfer\n    // _amount - amount of the tokens to transfer\n    // _useZro - indicates to use zro to pay L0 fees\n    // _adapterParams - flexible bytes array to indicate messaging adapter services in L0\n    function estimateSendFee(\n        uint16 _dstChainId,\n        bytes calldata _toAddress,\n        uint _tokenId,\n        uint _amount,\n        bool _useZro,\n        bytes calldata _adapterParams\n    ) external view returns (uint nativeFee, uint zroFee);\n\n    // _dstChainId - L0 defined chain id to send tokens too\n    // _toAddress - dynamic bytes array which contains the address to whom you are sending tokens to on the dstChain\n    // _tokenIds - tokens Id to transfer\n    // _amounts - amounts of the tokens to transfer\n    // _useZro - indicates to use zro to pay L0 fees\n    // _adapterParams - flexible bytes array to indicate messaging adapter services in L0\n    function estimateSendBatchFee(\n        uint16 _dstChainId,\n        bytes calldata _toAddress,\n        uint[] calldata _tokenIds,\n        uint[] calldata _amounts,\n        bool _useZro,\n        bytes calldata _adapterParams\n    ) external view returns (uint nativeFee, uint zroFee);\n}\n\ncontract oNFT1155MOCK is IONFT1155Core {\n  function sendFrom(\n        address _from,\n        uint16 _dstChainId,\n        bytes calldata _toAddress,\n        uint _tokenId,\n        uint _amount,\n        address payable _refundAddress,\n        address _zroPaymentAddress,\n        bytes calldata _adapterParams\n    ) external override payable {\n\n    }\n\n    function sendBatchFrom(\n        address _from,\n        uint16 _dstChainId,\n        bytes calldata _toAddress,\n        uint[] calldata _tokenIds,\n        uint[] calldata _amounts,\n        address payable _refundAddress,\n        address _zroPaymentAddress,\n        bytes calldata _adapterParams\n    ) external override payable {\n\n    }\n\n    function estimateSendFee(\n        uint16 _dstChainId,\n        bytes calldata _toAddress,\n        uint _tokenId,\n        uint _amount,\n        bool _useZro,\n        bytes calldata _adapterParams\n    ) external override view returns (uint nativeFee, uint zroFee) {\n\n    }\n\n    function estimateSendBatchFee(\n        uint16 _dstChainId,\n        bytes calldata _toAddress,\n        uint[] calldata _tokenIds,\n        uint[] calldata _amounts,\n        bool _useZro,\n        bytes calldata _adapterParams\n    ) external override view returns (uint nativeFee, uint zroFee) {\n\n    }\n\n    function supportsInterface(bytes4 interfaceId) external pure override returns (bool) {\n        return (interfaceId == getTypeId());\n    } \n\n    function getTypeId() public pure returns(bytes4) {\n        return type(IONFT1155Core).interfaceId;\n    }\n\n    function emit_SendToChain(uint16 _dstChainId, address _from, bytes memory _toAddress, uint _tokenId, uint _amount) external {\n        emit SendToChain(_dstChainId, _from, _toAddress, _tokenId, _amount);\n    }\n\n    function emit_ReceiveFromChain(uint16 _srcChainId, bytes memory _srcAddress, address _toAddress, uint _tokenId, uint _amount) external {\n        emit ReceiveFromChain(_srcChainId, _srcAddress, _toAddress, _tokenId, _amount);\n    }\n\n    function emit_SendBatchToChain(uint16 _dstChainId, address _from, bytes memory _toAddress, uint[] memory _tokenIds, uint[] memory _amounts) external {\n        emit SendBatchToChain(_dstChainId, _from, _toAddress, _tokenIds, _amounts);\n    }\n\n    function emit_ReceiveBatchFromChain(\n        uint16 _srcChainId,\n        bytes memory _srcAddress,\n        address _toAddress,\n        uint[] memory _tokenIds,\n        uint[] memory _amounts\n    ) external {\n        emit ReceiveBatchFromChain(_srcChainId, _srcAddress, _toAddress, _tokenIds, _amounts);\n    }\n\n\n}\n",
  "sourcePath": "/Users/ds/Documents/rarible/protocol-contracts/projects/deploy/contracts/oNFT1155MOCK.sol",
  "compiler": {
    "name": "solc",
    "version": "0.7.6+commit.7338295f.Emscripten.clang"
  },
  "schemaVersion": "3.4.16",
  "updatedAt": "2024-03-12T11:39:25.743Z",
  "devdoc": {
    "kind": "dev",
    "methods": {
      "supportsInterface(bytes4)": {
        "details": "Returns true if this contract implements the interface defined by `interfaceId`. See the corresponding https://eips.ethereum.org/EIPS/eip-165#how-interfaces-are-identified[EIP section] to learn more about how these ids are created. This function call must use less than 30 000 gas."
      }
    },
    "version": 1
  },
  "userdoc": {
    "kind": "user",
    "methods": {},
    "version": 1
  }
}