{
  "contractName": "ONFT721MOCK",
  "abi": [
    {
      "anonymous": false,
      "inputs": [
        {
          "indexed": false,
          "internalType": "bytes32",
          "name": "_hashedPayload",
          "type": "bytes32"
        }
      ],
      "name": "CreditCleared",
      "type": "event"
    },
    {
      "anonymous": false,
      "inputs": [
        {
          "indexed": false,
          "internalType": "bytes32",
          "name": "_hashedPayload",
          "type": "bytes32"
        },
        {
          "indexed": false,
          "internalType": "bytes",
          "name": "_payload",
          "type": "bytes"
        }
      ],
      "name": "CreditStored",
      "type": "event"
    },
    {
      "anonymous": false,
      "inputs": [
        {
          "indexed": true,
          "internalType": "uint16",
          "name": "_srcChainId",
          "type": "uint16"
        },
        {
          "indexed": true,
          "internalType": "bytes",
          "name": "_srcAddress",
          "type": "bytes"
        },
        {
          "indexed": true,
          "internalType": "address",
          "name": "_toAddress",
          "type": "address"
        },
        {
          "indexed": false,
          "internalType": "uint256[]",
          "name": "_tokenIds",
          "type": "uint256[]"
        }
      ],
      "name": "ReceiveFromChain",
      "type": "event"
    },
    {
      "anonymous": false,
      "inputs": [
        {
          "indexed": true,
          "internalType": "uint16",
          "name": "_dstChainId",
          "type": "uint16"
        },
        {
          "indexed": true,
          "internalType": "address",
          "name": "_from",
          "type": "address"
        },
        {
          "indexed": true,
          "internalType": "bytes",
          "name": "_toAddress",
          "type": "bytes"
        },
        {
          "indexed": false,
          "internalType": "uint256[]",
          "name": "_tokenIds",
          "type": "uint256[]"
        }
      ],
      "name": "SendToChain",
      "type": "event"
    },
    {
      "anonymous": false,
      "inputs": [
        {
          "indexed": false,
          "internalType": "uint16",
          "name": "_dstChainId",
          "type": "uint16"
        },
        {
          "indexed": false,
          "internalType": "uint256",
          "name": "_dstChainIdToBatchLimit",
          "type": "uint256"
        }
      ],
      "name": "SetDstChainIdToBatchLimit",
      "type": "event"
    },
    {
      "anonymous": false,
      "inputs": [
        {
          "indexed": false,
          "internalType": "uint16",
          "name": "_dstChainId",
          "type": "uint16"
        },
        {
          "indexed": false,
          "internalType": "uint256",
          "name": "_dstChainIdToTransferGas",
          "type": "uint256"
        }
      ],
      "name": "SetDstChainIdToTransferGas",
      "type": "event"
    },
    {
      "anonymous": false,
      "inputs": [
        {
          "indexed": false,
          "internalType": "uint256",
          "name": "_minGasToTransferAndStore",
          "type": "uint256"
        }
      ],
      "name": "SetMinGasToTransferAndStore",
      "type": "event"
    },
    {
      "inputs": [
        {
          "internalType": "address",
          "name": "_from",
          "type": "address"
        },
        {
          "internalType": "uint16",
          "name": "_dstChainId",
          "type": "uint16"
        },
        {
          "internalType": "bytes",
          "name": "_toAddress",
          "type": "bytes"
        },
        {
          "internalType": "uint256",
          "name": "_tokenId",
          "type": "uint256"
        },
        {
          "internalType": "address payable",
          "name": "_refundAddress",
          "type": "address"
        },
        {
          "internalType": "address",
          "name": "_zroPaymentAddress",
          "type": "address"
        },
        {
          "internalType": "bytes",
          "name": "_adapterParams",
          "type": "bytes"
        }
      ],
      "name": "sendFrom",
      "outputs": [],
      "stateMutability": "payable",
      "type": "function"
    },
    {
      "inputs": [
        {
          "internalType": "address",
          "name": "_from",
          "type": "address"
        },
        {
          "internalType": "uint16",
          "name": "_dstChainId",
          "type": "uint16"
        },
        {
          "internalType": "bytes",
          "name": "_toAddress",
          "type": "bytes"
        },
        {
          "internalType": "uint256[]",
          "name": "_tokenIds",
          "type": "uint256[]"
        },
        {
          "internalType": "address payable",
          "name": "_refundAddress",
          "type": "address"
        },
        {
          "internalType": "address",
          "name": "_zroPaymentAddress",
          "type": "address"
        },
        {
          "internalType": "bytes",
          "name": "_adapterParams",
          "type": "bytes"
        }
      ],
      "name": "sendBatchFrom",
      "outputs": [],
      "stateMutability": "payable",
      "type": "function"
    },
    {
      "inputs": [
        {
          "internalType": "uint16",
          "name": "_dstChainId",
          "type": "uint16"
        },
        {
          "internalType": "bytes",
          "name": "_toAddress",
          "type": "bytes"
        },
        {
          "internalType": "uint256",
          "name": "_tokenId",
          "type": "uint256"
        },
        {
          "internalType": "bool",
          "name": "_useZro",
          "type": "bool"
        },
        {
          "internalType": "bytes",
          "name": "_adapterParams",
          "type": "bytes"
        }
      ],
      "name": "estimateSendFee",
      "outputs": [
        {
          "internalType": "uint256",
          "name": "nativeFee",
          "type": "uint256"
        },
        {
          "internalType": "uint256",
          "name": "zroFee",
          "type": "uint256"
        }
      ],
      "stateMutability": "view",
      "type": "function"
    },
    {
      "inputs": [
        {
          "internalType": "uint16",
          "name": "_dstChainId",
          "type": "uint16"
        },
        {
          "internalType": "bytes",
          "name": "_toAddress",
          "type": "bytes"
        },
        {
          "internalType": "uint256[]",
          "name": "_tokenIds",
          "type": "uint256[]"
        },
        {
          "internalType": "bool",
          "name": "_useZro",
          "type": "bool"
        },
        {
          "internalType": "bytes",
          "name": "_adapterParams",
          "type": "bytes"
        }
      ],
      "name": "estimateSendBatchFee",
      "outputs": [
        {
          "internalType": "uint256",
          "name": "nativeFee",
          "type": "uint256"
        },
        {
          "internalType": "uint256",
          "name": "zroFee",
          "type": "uint256"
        }
      ],
      "stateMutability": "view",
      "type": "function"
    },
    {
      "inputs": [
        {
          "internalType": "bytes4",
          "name": "interfaceId",
          "type": "bytes4"
        }
      ],
      "name": "supportsInterface",
      "outputs": [
        {
          "internalType": "bool",
          "name": "",
          "type": "bool"
        }
      ],
      "stateMutability": "pure",
      "type": "function"
    },
    {
      "inputs": [],
      "name": "getTypeId",
      "outputs": [
        {
          "internalType": "bytes4",
          "name": "",
          "type": "bytes4"
        }
      ],
      "stateMutability": "pure",
      "type": "function"
    },
    {
      "inputs": [
        {
          "internalType": "uint16",
          "name": "_dstChainId",
          "type": "uint16"
        },
        {
          "internalType": "address",
          "name": "_from",
          "type": "address"
        },
        {
          "internalType": "bytes",
          "name": "_toAddress",
          "type": "bytes"
        },
        {
          "internalType": "uint256[]",
          "name": "_tokenIds",
          "type": "uint256[]"
        }
      ],
      "name": "emit_SendToChain",
      "outputs": [],
      "stateMutability": "nonpayable",
      "type": "function"
    },
    {
      "inputs": [
        {
          "internalType": "uint16",
          "name": "_srcChainId",
          "type": "uint16"
        },
        {
          "internalType": "bytes",
          "name": "_srcAddress",
          "type": "bytes"
        },
        {
          "internalType": "address",
          "name": "_toAddress",
          "type": "address"
        },
        {
          "internalType": "uint256[]",
          "name": "_tokenIds",
          "type": "uint256[]"
        }
      ],
      "name": "emit_ReceiveFromChain",
      "outputs": [],
      "stateMutability": "nonpayable",
      "type": "function"
    },
    {
      "inputs": [
        {
          "internalType": "uint256",
          "name": "_minGasToTransferAndStore",
          "type": "uint256"
        }
      ],
      "name": "emit_SetMinGasToTransferAndStore",
      "outputs": [],
      "stateMutability": "nonpayable",
      "type": "function"
    },
    {
      "inputs": [
        {
          "internalType": "uint16",
          "name": "_dstChainId",
          "type": "uint16"
        },
        {
          "internalType": "uint256",
          "name": "_dstChainIdToTransferGas",
          "type": "uint256"
        }
      ],
      "name": "emit_SetDstChainIdToTransferGas",
      "outputs": [],
      "stateMutability": "nonpayable",
      "type": "function"
    },
    {
      "inputs": [
        {
          "internalType": "uint16",
          "name": "_dstChainId",
          "type": "uint16"
        },
        {
          "internalType": "uint256",
          "name": "_dstChainIdToBatchLimit",
          "type": "uint256"
        }
      ],
      "name": "emit_SetDstChainIdToBatchLimit",
      "outputs": [],
      "stateMutability": "nonpayable",
      "type": "function"
    },
    {
      "inputs": [
        {
          "internalType": "bytes32",
          "name": "_hashedPayload",
          "type": "bytes32"
        },
        {
          "internalType": "bytes",
          "name": "_payload",
          "type": "bytes"
        }
      ],
      "name": "emit_CreditStored",
      "outputs": [],
      "stateMutability": "nonpayable",
      "type": "function"
    },
    {
      "inputs": [
        {
          "internalType": "bytes32",
          "name": "_hashedPayload",
          "type": "bytes32"
        }
      ],
      "name": "emit_CreditCleared",
      "outputs": [],
      "stateMutability": "nonpayable",
      "type": "function"
    }
  ],
  "bytecode": "0x608060405234801561001057600080fd5b50610d7f806100206000396000f3fe6080604052600436106100c25760003560e01c8063ab3ffb931161007f578063d94e626311610059578063d94e62631461064a578063e8e52e0914610702578063f18e810714610736578063f235364114610885576100c2565b8063ab3ffb93146104b6578063bc25d99e146105f6578063bdf4d31f14610620576100c2565b806301ffc9a7146100c75780630503c7ce1461010f5780632a205e3d1461014557806351905636146102425780638a7c1eb014610338578063911e3f4614610484575b600080fd5b3480156100d357600080fd5b506100fb600480360360208110156100ea57600080fd5b50356001600160e01b0319166109b1565b604080519115158252519081900360200190f35b34801561011b57600080fd5b506101436004803603604081101561013257600080fd5b5061ffff81351690602001356109d1565b005b34801561015157600080fd5b50610229600480360360a081101561016857600080fd5b61ffff8235169190810190604081016020820135600160201b81111561018d57600080fd5b82018360208201111561019f57600080fd5b803590602001918460018302840111600160201b831117156101c057600080fd5b9193909282359260208101351515929190606081019060400135600160201b8111156101eb57600080fd5b8201836020820111156101fd57600080fd5b803590602001918460018302840111600160201b8311171561021e57600080fd5b509092509050610a14565b6040805192835260208301919091528051918290030190f35b610143600480360360e081101561025857600080fd5b6001600160a01b038235169161ffff60208201351691810190606081016040820135600160201b81111561028b57600080fd5b82018360208201111561029d57600080fd5b803590602001918460018302840111600160201b831117156102be57600080fd5b919390928235926001600160a01b0360208201358116936040830135909116929091608081019060600135600160201b8111156102fa57600080fd5b82018360208201111561030c57600080fd5b803590602001918460018302840111600160201b8311171561032d57600080fd5b509092509050610a23565b34801561034457600080fd5b506101436004803603608081101561035b57600080fd5b61ffff823516916001600160a01b0360208201351691810190606081016040820135600160201b81111561038e57600080fd5b8201836020820111156103a057600080fd5b803590602001918460018302840111600160201b831117156103c157600080fd5b91908080601f0160208091040260200160405190810160405280939291908181526020018383808284376000920191909152509295949360208101935035915050600160201b81111561041357600080fd5b82018360208201111561042557600080fd5b803590602001918460208302840111600160201b8311171561044657600080fd5b919080806020026020016040519081016040528093929190818152602001838360200280828437600092019190915250929550610a2e945050505050565b34801561049057600080fd5b50610499610b0d565b604080516001600160e01b03199092168252519081900360200190f35b610143600480360360e08110156104cc57600080fd5b6001600160a01b038235169161ffff60208201351691810190606081016040820135600160201b8111156104ff57600080fd5b82018360208201111561051157600080fd5b803590602001918460018302840111600160201b8311171561053257600080fd5b919390929091602081019035600160201b81111561054f57600080fd5b82018360208201111561056157600080fd5b803590602001918460208302840111600160201b8311171561058257600080fd5b919390926001600160a01b0383358116936020810135909116929190606081019060400135600160201b8111156105b857600080fd5b8201836020820111156105ca57600080fd5b803590602001918460018302840111600160201b831117156105eb57600080fd5b509092509050610b18565b34801561060257600080fd5b506101436004803603602081101561061957600080fd5b5035610b24565b34801561062c57600080fd5b506101436004803603602081101561064357600080fd5b5035610b5a565b34801561065657600080fd5b506101436004803603604081101561066d57600080fd5b81359190810190604081016020820135600160201b81111561068e57600080fd5b8201836020820111156106a057600080fd5b803590602001918460018302840111600160201b831117156106c157600080fd5b91908080601f016020809104026020016040519081016040528093929190818152602001838380828437600092019190915250929550610b90945050505050565b34801561070e57600080fd5b506101436004803603604081101561072557600080fd5b5061ffff8135169060200135610c35565b34801561074257600080fd5b506101436004803603608081101561075957600080fd5b61ffff8235169190810190604081016020820135600160201b81111561077e57600080fd5b82018360208201111561079057600080fd5b803590602001918460018302840111600160201b831117156107b157600080fd5b91908080601f01602080910402602001604051908101604052809392919081815260200183838082843760009201919091525092956001600160a01b03853516959094909350604081019250602001359050600160201b81111561081457600080fd5b82018360208201111561082657600080fd5b803590602001918460208302840111600160201b8311171561084757600080fd5b919080806020026020016040519081016040528093929190818152602001838360200280828437600092019190915250929550610c78945050505050565b34801561089157600080fd5b50610229600480360360a08110156108a857600080fd5b61ffff8235169190810190604081016020820135600160201b8111156108cd57600080fd5b8201836020820111156108df57600080fd5b803590602001918460018302840111600160201b8311171561090057600080fd5b919390929091602081019035600160201b81111561091d57600080fd5b82018360208201111561092f57600080fd5b803590602001918460208302840111600160201b8311171561095057600080fd5b919390928235151592604081019060200135600160201b81111561097357600080fd5b82018360208201111561098557600080fd5b803590602001918460018302840111600160201b831117156109a657600080fd5b509092509050610d39565b60006109bb610b0d565b6001600160e01b03198381169116149050919050565b6040805161ffff841681526020810183905281517f7315f7654d594ead24a30160ed9ba2d23247f543016b918343591e93d7afdb6d929181900390910190a15050565b60008097509795505050505050565b505050505050505050565b816040518082805190602001908083835b60208310610a5e5780518252601f199092019160209182019101610a3f565b51815160209384036101000a60001901801990921691161790526040805192909401829003822081835287518383015287519096506001600160a01b038a16955061ffff8b16947fe1b87c47fdeb4f9cbadbca9df3af7aba453bb6e501075d0440d88125b711522a9450889392839291830191858201910280838360005b83811015610af4578181015183820152602001610adc565b505050509050019250505060405180910390a450505050565b6322bac5d960e01b90565b50505050505050505050565b6040805182815290517fd7be02b8dd0d27bd0517a9cb4d7469ce27df4313821ae5ec1ff69acc594ba2339181900360200190a150565b6040805182815290517ffebbc4f8bb9ec2313950c718d43123124b15778efda4c1f1d529de2995b4f34d9181900360200190a150565b7f10e0b70d256bccc84b7027506978bd8b68984a870788b93b479def144c839ad782826040518083815260200180602001828103825283818151815260200191508051906020019080838360005b83811015610bf6578181015183820152602001610bde565b50505050905090810190601f168015610c235780820380516001836020036101000a031916815260200191505b50935050505060405180910390a15050565b6040805161ffff841681526020810183905281517fc46df2983228ac2d9754e94a0d565e6671665dc8ad38602bc8e544f0685a29fb929181900390910190a15050565b816001600160a01b0316836040518082805190602001908083835b60208310610cb25780518252601f199092019160209182019101610c93565b51815160209384036101000a600019018019909216911617905260408051929094018290038220818352885183830152885190965061ffff8c1695507f5b821db8a46f8ecbe1941ba2f51cfeea9643268b56631f70d45e2a745d99026594899450839290830191858201910280838360008315610af4578181015183820152602001610adc565b600080985098965050505050505056fea2646970667358221220f87ed40e05a9f02193a02509f12917f106fd6c0f50f26aad3b5f96b90c3bc78e64736f6c63430007060033",
  "immutableReferences": {},
  "source": "// SPDX-License-Identifier: MIT\n\npragma solidity ^0.7.6;\n\n/**\n * @dev Interface of the ERC165 standard, as defined in the\n * https://eips.ethereum.org/EIPS/eip-165[EIP].\n *\n * Implementers can declare support of contract interfaces, which can then be\n * queried by others ({ERC165Checker}).\n *\n * For an implementation, see {ERC165}.\n */\ninterface IERC165 {\n    /**\n     * @dev Returns true if this contract implements the interface defined by\n     * `interfaceId`. See the corresponding\n     * https://eips.ethereum.org/EIPS/eip-165#how-interfaces-are-identified[EIP section]\n     * to learn more about how these ids are created.\n     *\n     * This function call must use less than 30 000 gas.\n     */\n    function supportsInterface(bytes4 interfaceId) external view returns (bool);\n}\n/**\n * @dev Interface of the ONFT Core standard\n */\ninterface IONFT721Core is IERC165 {\n    /**\n     * @dev Emitted when `_tokenIds[]` are moved from the `_sender` to (`_dstChainId`, `_toAddress`)\n     * `_nonce` is the outbound nonce from\n     */\n    event SendToChain(uint16 indexed _dstChainId, address indexed _from, bytes indexed _toAddress, uint[] _tokenIds);\n    \n    event ReceiveFromChain(uint16 indexed _srcChainId, bytes indexed _srcAddress, address indexed _toAddress, uint[] _tokenIds);\n    event SetMinGasToTransferAndStore(uint _minGasToTransferAndStore);\n    event SetDstChainIdToTransferGas(uint16 _dstChainId, uint _dstChainIdToTransferGas);\n    event SetDstChainIdToBatchLimit(uint16 _dstChainId, uint _dstChainIdToBatchLimit);\n\n    /**\n     * @dev Emitted when `_payload` was received from lz, but not enough gas to deliver all tokenIds\n     */\n    event CreditStored(bytes32 _hashedPayload, bytes _payload);\n    /**\n     * @dev Emitted when `_hashedPayload` has been completely delivered\n     */\n    event CreditCleared(bytes32 _hashedPayload);\n\n    /**\n     * @dev send token `_tokenId` to (`_dstChainId`, `_toAddress`) from `_from`\n     * `_toAddress` can be any size depending on the `dstChainId`.\n     * `_zroPaymentAddress` set to address(0x0) if not paying in ZRO (LayerZero Token)\n     * `_adapterParams` is a flexible bytes array to indicate messaging adapter services\n     */\n    function sendFrom(\n        address _from,\n        uint16 _dstChainId,\n        bytes calldata _toAddress,\n        uint _tokenId,\n        address payable _refundAddress,\n        address _zroPaymentAddress,\n        bytes calldata _adapterParams\n    ) external payable;\n\n    /**\n     * @dev send tokens `_tokenIds[]` to (`_dstChainId`, `_toAddress`) from `_from`\n     * `_toAddress` can be any size depending on the `dstChainId`.\n     * `_zroPaymentAddress` set to address(0x0) if not paying in ZRO (LayerZero Token)\n     * `_adapterParams` is a flexible bytes array to indicate messaging adapter services\n     */\n    function sendBatchFrom(\n        address _from,\n        uint16 _dstChainId,\n        bytes calldata _toAddress,\n        uint[] calldata _tokenIds,\n        address payable _refundAddress,\n        address _zroPaymentAddress,\n        bytes calldata _adapterParams\n    ) external payable;\n\n    /**\n     * @dev estimate send token `_tokenId` to (`_dstChainId`, `_toAddress`)\n     * _dstChainId - L0 defined chain id to send tokens too\n     * _toAddress - dynamic bytes array which contains the address to whom you are sending tokens to on the dstChain\n     * _tokenId - token Id to transfer\n     * _useZro - indicates to use zro to pay L0 fees\n     * _adapterParams - flexible bytes array to indicate messaging adapter services in L0\n     */\n    function estimateSendFee(\n        uint16 _dstChainId,\n        bytes calldata _toAddress,\n        uint _tokenId,\n        bool _useZro,\n        bytes calldata _adapterParams\n    ) external view returns (uint nativeFee, uint zroFee);\n\n    /**\n     * @dev estimate send token `_tokenId` to (`_dstChainId`, `_toAddress`)\n     * _dstChainId - L0 defined chain id to send tokens too\n     * _toAddress - dynamic bytes array which contains the address to whom you are sending tokens to on the dstChain\n     * _tokenIds[] - token Ids to transfer\n     * _useZro - indicates to use zro to pay L0 fees\n     * _adapterParams - flexible bytes array to indicate messaging adapter services in L0\n     */\n    function estimateSendBatchFee(\n        uint16 _dstChainId,\n        bytes calldata _toAddress,\n        uint[] calldata _tokenIds,\n        bool _useZro,\n        bytes calldata _adapterParams\n    ) external view returns (uint nativeFee, uint zroFee);\n}\n\ncontract oNFT721MOCK is IONFT721Core {\n  function sendFrom(\n        address _from,\n        uint16 _dstChainId,\n        bytes calldata _toAddress,\n        uint _tokenId,\n        address payable _refundAddress,\n        address _zroPaymentAddress,\n        bytes calldata _adapterParams\n    ) external override payable {\n\n    }\n\n    function sendBatchFrom(\n        address _from,\n        uint16 _dstChainId,\n        bytes calldata _toAddress,\n        uint[] calldata _tokenIds,\n        address payable _refundAddress,\n        address _zroPaymentAddress,\n        bytes calldata _adapterParams\n    ) external override payable {\n\n    }\n\n    function estimateSendFee(\n        uint16 _dstChainId,\n        bytes calldata _toAddress,\n        uint _tokenId,\n        bool _useZro,\n        bytes calldata _adapterParams\n    ) external override view returns (uint nativeFee, uint zroFee) {\n\n    }\n\n    function estimateSendBatchFee(\n        uint16 _dstChainId,\n        bytes calldata _toAddress,\n        uint[] calldata _tokenIds,\n        bool _useZro,\n        bytes calldata _adapterParams\n    ) external override view returns (uint nativeFee, uint zroFee) {\n\n    }\n\n    function supportsInterface(bytes4 interfaceId) external pure override returns (bool) {\n        return (interfaceId == getTypeId());\n    } \n\n    function getTypeId() public pure returns(bytes4) {\n        return type(IONFT721Core).interfaceId;\n    }\n\n    function emit_SendToChain(uint16 _dstChainId, address _from, bytes memory _toAddress, uint[] memory _tokenIds) external {\n        emit SendToChain(_dstChainId, _from, _toAddress, _tokenIds);\n    }\n\n    function emit_ReceiveFromChain(uint16 _srcChainId, bytes memory _srcAddress, address _toAddress, uint[] memory _tokenIds) external {\n        emit ReceiveFromChain(_srcChainId, _srcAddress, _toAddress, _tokenIds);\n    }\n\n    function emit_SetMinGasToTransferAndStore(uint _minGasToTransferAndStore) external {\n        emit SetMinGasToTransferAndStore(_minGasToTransferAndStore);\n    }\n\n    function emit_SetDstChainIdToTransferGas(uint16 _dstChainId, uint _dstChainIdToTransferGas) external {\n        emit SetDstChainIdToTransferGas(_dstChainId, _dstChainIdToTransferGas);\n    }\n\n    function emit_SetDstChainIdToBatchLimit(uint16 _dstChainId, uint _dstChainIdToBatchLimit) external {\n        emit SetDstChainIdToBatchLimit(_dstChainId, _dstChainIdToBatchLimit);\n    }\n\n    function emit_CreditStored(bytes32 _hashedPayload, bytes memory _payload) external {\n        emit CreditStored(_hashedPayload, _payload);\n    }\n\n    function emit_CreditCleared(bytes32 _hashedPayload) external {\n        emit CreditCleared(_hashedPayload);\n    }\n\n\n}\n",
  "sourcePath": "/Users/ds/Documents/rarible/protocol-contracts/projects/deploy/contracts/oNFT721MOCK.sol",
  "compiler": {
    "name": "solc",
    "version": "0.7.6+commit.7338295f.Emscripten.clang"
  },
  "schemaVersion": "3.4.16",
  "updatedAt": "2024-03-12T11:27:46.106Z",
  "devdoc": {
    "kind": "dev",
    "methods": {
      "estimateSendBatchFee(uint16,bytes,uint256[],bool,bytes)": {
        "details": "estimate send token `_tokenId` to (`_dstChainId`, `_toAddress`) _dstChainId - L0 defined chain id to send tokens too _toAddress - dynamic bytes array which contains the address to whom you are sending tokens to on the dstChain _tokenIds[] - token Ids to transfer _useZro - indicates to use zro to pay L0 fees _adapterParams - flexible bytes array to indicate messaging adapter services in L0"
      },
      "estimateSendFee(uint16,bytes,uint256,bool,bytes)": {
        "details": "estimate send token `_tokenId` to (`_dstChainId`, `_toAddress`) _dstChainId - L0 defined chain id to send tokens too _toAddress - dynamic bytes array which contains the address to whom you are sending tokens to on the dstChain _tokenId - token Id to transfer _useZro - indicates to use zro to pay L0 fees _adapterParams - flexible bytes array to indicate messaging adapter services in L0"
      },
      "sendBatchFrom(address,uint16,bytes,uint256[],address,address,bytes)": {
        "details": "send tokens `_tokenIds[]` to (`_dstChainId`, `_toAddress`) from `_from` `_toAddress` can be any size depending on the `dstChainId`. `_zroPaymentAddress` set to address(0x0) if not paying in ZRO (LayerZero Token) `_adapterParams` is a flexible bytes array to indicate messaging adapter services"
      },
      "sendFrom(address,uint16,bytes,uint256,address,address,bytes)": {
        "details": "send token `_tokenId` to (`_dstChainId`, `_toAddress`) from `_from` `_toAddress` can be any size depending on the `dstChainId`. `_zroPaymentAddress` set to address(0x0) if not paying in ZRO (LayerZero Token) `_adapterParams` is a flexible bytes array to indicate messaging adapter services"
      },
      "supportsInterface(bytes4)": {
        "details": "Returns true if this contract implements the interface defined by `interfaceId`. See the corresponding https://eips.ethereum.org/EIPS/eip-165#how-interfaces-are-identified[EIP section] to learn more about how these ids are created. This function call must use less than 30 000 gas."
      }
    },
    "version": 1
  },
  "userdoc": {
    "kind": "user",
    "methods": {},
    "version": 1
  }
}