{
  "contractName": "AuctionHouse721",
  "abi": [
    {
      "anonymous": false,
      "inputs": [
        {
          "indexed": true,
          "internalType": "uint256",
          "name": "auctionId",
          "type": "uint256"
        },
        {
          "indexed": false,
          "internalType": "address",
          "name": "buyer",
          "type": "address"
        }
      ],
      "name": "AuctionBuyOut",
      "type": "event"
    },
    {
      "anonymous": false,
      "inputs": [
        {
          "indexed": true,
          "internalType": "uint256",
          "name": "auctionId",
          "type": "uint256"
        }
      ],
      "name": "AuctionCancelled",
      "type": "event"
    },
    {
      "anonymous": false,
      "inputs": [
        {
          "indexed": true,
          "internalType": "uint256",
          "name": "auctionId",
          "type": "uint256"
        },
        {
          "indexed": false,
          "internalType": "address",
          "name": "seller",
          "type": "address"
        },
        {
          "indexed": false,
          "internalType": "uint128",
          "name": "endTime",
          "type": "uint128"
        }
      ],
      "name": "AuctionCreated",
      "type": "event"
    },
    {
      "anonymous": false,
      "inputs": [
        {
          "indexed": true,
          "internalType": "uint256",
          "name": "auctionId",
          "type": "uint256"
        }
      ],
      "name": "AuctionFinished",
      "type": "event"
    },
    {
      "anonymous": false,
      "inputs": [
        {
          "indexed": true,
          "internalType": "address",
          "name": "owner",
          "type": "address"
        },
        {
          "indexed": false,
          "internalType": "uint256",
          "name": "added",
          "type": "uint256"
        },
        {
          "indexed": false,
          "internalType": "uint256",
          "name": "total",
          "type": "uint256"
        }
      ],
      "name": "AvailableToWithdraw",
      "type": "event"
    },
    {
      "anonymous": false,
      "inputs": [
        {
          "indexed": true,
          "internalType": "uint256",
          "name": "auctionId",
          "type": "uint256"
        },
        {
          "indexed": false,
          "internalType": "address",
          "name": "buyer",
          "type": "address"
        },
        {
          "indexed": false,
          "internalType": "uint256",
          "name": "endTime",
          "type": "uint256"
        }
      ],
      "name": "BidPlaced",
      "type": "event"
    },
    {
      "anonymous": false,
      "inputs": [
        {
          "indexed": false,
          "internalType": "uint256",
          "name": "oldValue",
          "type": "uint256"
        },
        {
          "indexed": false,
          "internalType": "uint256",
          "name": "newValue",
          "type": "uint256"
        }
      ],
      "name": "MinimalDurationChanged",
      "type": "event"
    },
    {
      "anonymous": false,
      "inputs": [
        {
          "indexed": false,
          "internalType": "uint256",
          "name": "oldValue",
          "type": "uint256"
        },
        {
          "indexed": false,
          "internalType": "uint256",
          "name": "newValue",
          "type": "uint256"
        }
      ],
      "name": "MinimalStepChanged",
      "type": "event"
    },
    {
      "anonymous": false,
      "inputs": [
        {
          "indexed": true,
          "internalType": "address",
          "name": "previousOwner",
          "type": "address"
        },
        {
          "indexed": true,
          "internalType": "address",
          "name": "newOwner",
          "type": "address"
        }
      ],
      "name": "OwnershipTransferred",
      "type": "event"
    },
    {
      "anonymous": false,
      "inputs": [
        {
          "indexed": false,
          "internalType": "uint256",
          "name": "oldValue",
          "type": "uint256"
        },
        {
          "indexed": false,
          "internalType": "uint256",
          "name": "newValue",
          "type": "uint256"
        }
      ],
      "name": "ProtocolFeeChanged",
      "type": "event"
    },
    {
      "anonymous": false,
      "inputs": [
        {
          "indexed": true,
          "internalType": "bytes4",
          "name": "assetType",
          "type": "bytes4"
        },
        {
          "indexed": false,
          "internalType": "address",
          "name": "proxy",
          "type": "address"
        }
      ],
      "name": "ProxyChange",
      "type": "event"
    },
    {
      "inputs": [],
      "name": "auctionId",
      "outputs": [
        {
          "internalType": "uint256",
          "name": "",
          "type": "uint256"
        }
      ],
      "stateMutability": "view",
      "type": "function"
    },
    {
      "inputs": [
        {
          "internalType": "uint96",
          "name": "newValue",
          "type": "uint96"
        }
      ],
      "name": "changeMinimalDuration",
      "outputs": [],
      "stateMutability": "nonpayable",
      "type": "function"
    },
    {
      "inputs": [
        {
          "internalType": "uint96",
          "name": "newValue",
          "type": "uint96"
        }
      ],
      "name": "changeMinimalStep",
      "outputs": [],
      "stateMutability": "nonpayable",
      "type": "function"
    },
    {
      "inputs": [],
      "name": "defaultFeeReceiver",
      "outputs": [
        {
          "internalType": "address",
          "name": "",
          "type": "address"
        }
      ],
      "stateMutability": "view",
      "type": "function"
    },
    {
      "inputs": [
        {
          "internalType": "address",
          "name": "",
          "type": "address"
        }
      ],
      "name": "feeReceivers",
      "outputs": [
        {
          "internalType": "address",
          "name": "",
          "type": "address"
        }
      ],
      "stateMutability": "view",
      "type": "function"
    },
    {
      "inputs": [
        {
          "internalType": "address",
          "name": "_collection",
          "type": "address"
        },
        {
          "internalType": "uint256",
          "name": "tokenId",
          "type": "uint256"
        }
      ],
      "name": "getAuctionByToken",
      "outputs": [
        {
          "internalType": "uint256",
          "name": "",
          "type": "uint256"
        }
      ],
      "stateMutability": "view",
      "type": "function"
    },
    {
      "inputs": [],
      "name": "minimalDuration",
      "outputs": [
        {
          "internalType": "uint96",
          "name": "",
          "type": "uint96"
        }
      ],
      "stateMutability": "view",
      "type": "function"
    },
    {
      "inputs": [],
      "name": "minimalStepBasePoint",
      "outputs": [
        {
          "internalType": "uint96",
          "name": "",
          "type": "uint96"
        }
      ],
      "stateMutability": "view",
      "type": "function"
    },
    {
      "inputs": [
        {
          "internalType": "address",
          "name": "",
          "type": "address"
        },
        {
          "internalType": "address",
          "name": "",
          "type": "address"
        },
        {
          "internalType": "uint256",
          "name": "",
          "type": "uint256"
        },
        {
          "internalType": "bytes",
          "name": "",
          "type": "bytes"
        }
      ],
      "name": "onERC721Received",
      "outputs": [
        {
          "internalType": "bytes4",
          "name": "",
          "type": "bytes4"
        }
      ],
      "stateMutability": "nonpayable",
      "type": "function"
    },
    {
      "inputs": [],
      "name": "owner",
      "outputs": [
        {
          "internalType": "address",
          "name": "",
          "type": "address"
        }
      ],
      "stateMutability": "view",
      "type": "function"
    },
    {
      "inputs": [],
      "name": "protocolFee",
      "outputs": [
        {
          "internalType": "uint256",
          "name": "",
          "type": "uint256"
        }
      ],
      "stateMutability": "view",
      "type": "function"
    },
    {
      "inputs": [],
      "name": "renounceOwnership",
      "outputs": [],
      "stateMutability": "nonpayable",
      "type": "function"
    },
    {
      "inputs": [],
      "name": "royaltiesRegistry",
      "outputs": [
        {
          "internalType": "contract IRoyaltiesProvider",
          "name": "",
          "type": "address"
        }
      ],
      "stateMutability": "view",
      "type": "function"
    },
    {
      "inputs": [
        {
          "internalType": "address payable",
          "name": "newDefaultFeeReceiver",
          "type": "address"
        }
      ],
      "name": "setDefaultFeeReceiver",
      "outputs": [],
      "stateMutability": "nonpayable",
      "type": "function"
    },
    {
      "inputs": [
        {
          "internalType": "address",
          "name": "token",
          "type": "address"
        },
        {
          "internalType": "address",
          "name": "wallet",
          "type": "address"
        }
      ],
      "name": "setFeeReceiver",
      "outputs": [],
      "stateMutability": "nonpayable",
      "type": "function"
    },
    {
      "inputs": [
        {
          "internalType": "uint64",
          "name": "_protocolFee",
          "type": "uint64"
        }
      ],
      "name": "setProtocolFee",
      "outputs": [],
      "stateMutability": "nonpayable",
      "type": "function"
    },
    {
      "inputs": [
        {
          "internalType": "contract IRoyaltiesProvider",
          "name": "newRoyaltiesRegistry",
          "type": "address"
        }
      ],
      "name": "setRoyaltiesRegistry",
      "outputs": [],
      "stateMutability": "nonpayable",
      "type": "function"
    },
    {
      "inputs": [
        {
          "internalType": "bytes4",
          "name": "assetType",
          "type": "bytes4"
        },
        {
          "internalType": "address",
          "name": "proxy",
          "type": "address"
        }
      ],
      "name": "setTransferProxy",
      "outputs": [],
      "stateMutability": "nonpayable",
      "type": "function"
    },
    {
      "inputs": [
        {
          "internalType": "address",
          "name": "newOwner",
          "type": "address"
        }
      ],
      "name": "transferOwnership",
      "outputs": [],
      "stateMutability": "nonpayable",
      "type": "function"
    },
    {
      "inputs": [
        {
          "internalType": "address",
          "name": "newDefaultFeeReceiver",
          "type": "address"
        },
        {
          "internalType": "contract IRoyaltiesProvider",
          "name": "newRoyaltiesProvider",
          "type": "address"
        },
        {
          "internalType": "address",
          "name": "_transferProxy",
          "type": "address"
        },
        {
          "internalType": "address",
          "name": "_erc20TransferProxy",
          "type": "address"
        },
        {
          "internalType": "uint64",
          "name": "newProtocolFee",
          "type": "uint64"
        },
        {
          "internalType": "uint96",
          "name": "_minimalStepBasePoint",
          "type": "uint96"
        }
      ],
      "name": "__AuctionHouse721_init",
      "outputs": [],
      "stateMutability": "nonpayable",
      "type": "function"
    },
    {
      "inputs": [
        {
          "internalType": "address",
          "name": "_sellToken",
          "type": "address"
        },
        {
          "internalType": "uint256",
          "name": "_sellTokenId",
          "type": "uint256"
        },
        {
          "internalType": "address",
          "name": "_buyAsset",
          "type": "address"
        },
        {
          "internalType": "uint96",
          "name": "minimalPrice",
          "type": "uint96"
        },
        {
          "internalType": "bytes4",
          "name": "dataType",
          "type": "bytes4"
        },
        {
          "internalType": "bytes",
          "name": "data",
          "type": "bytes"
        }
      ],
      "name": "startAuction",
      "outputs": [],
      "stateMutability": "nonpayable",
      "type": "function"
    },
    {
      "inputs": [
        {
          "internalType": "uint256",
          "name": "_auctionId",
          "type": "uint256"
        },
        {
          "components": [
            {
              "internalType": "uint256",
              "name": "amount",
              "type": "uint256"
            },
            {
              "internalType": "bytes4",
              "name": "dataType",
              "type": "bytes4"
            },
            {
              "internalType": "bytes",
              "name": "data",
              "type": "bytes"
            }
          ],
          "internalType": "struct AuctionHouseStruct721.Bid",
          "name": "bid",
          "type": "tuple"
        }
      ],
      "name": "putBid",
      "outputs": [],
      "stateMutability": "payable",
      "type": "function"
    },
    {
      "inputs": [
        {
          "internalType": "uint256",
          "name": "_auctionId",
          "type": "uint256"
        }
      ],
      "name": "getMinimalNextBid",
      "outputs": [
        {
          "internalType": "uint256",
          "name": "minBid",
          "type": "uint256"
        }
      ],
      "stateMutability": "view",
      "type": "function"
    },
    {
      "inputs": [
        {
          "internalType": "uint256",
          "name": "_auctionId",
          "type": "uint256"
        }
      ],
      "name": "checkAuctionExistence",
      "outputs": [
        {
          "internalType": "bool",
          "name": "",
          "type": "bool"
        }
      ],
      "stateMutability": "view",
      "type": "function"
    },
    {
      "inputs": [
        {
          "internalType": "uint256",
          "name": "_auctionId",
          "type": "uint256"
        }
      ],
      "name": "finishAuction",
      "outputs": [],
      "stateMutability": "nonpayable",
      "type": "function"
    },
    {
      "inputs": [
        {
          "internalType": "uint256",
          "name": "_auctionId",
          "type": "uint256"
        }
      ],
      "name": "checkAuctionRangeTime",
      "outputs": [
        {
          "internalType": "bool",
          "name": "",
          "type": "bool"
        }
      ],
      "stateMutability": "view",
      "type": "function"
    },
    {
      "inputs": [
        {
          "internalType": "uint256",
          "name": "_auctionId",
          "type": "uint256"
        }
      ],
      "name": "cancel",
      "outputs": [],
      "stateMutability": "nonpayable",
      "type": "function"
    },
    {
      "inputs": [
        {
          "internalType": "uint256",
          "name": "_auctionId",
          "type": "uint256"
        },
        {
          "components": [
            {
              "internalType": "uint256",
              "name": "amount",
              "type": "uint256"
            },
            {
              "internalType": "bytes4",
              "name": "dataType",
              "type": "bytes4"
            },
            {
              "internalType": "bytes",
              "name": "data",
              "type": "bytes"
            }
          ],
          "internalType": "struct AuctionHouseStruct721.Bid",
          "name": "bid",
          "type": "tuple"
        }
      ],
      "name": "buyOut",
      "outputs": [],
      "stateMutability": "payable",
      "type": "function"
    },
    {
      "inputs": [
        {
          "internalType": "uint256",
          "name": "_auctionId",
          "type": "uint256"
        }
      ],
      "name": "getCurrentBuyer",
      "outputs": [
        {
          "internalType": "address",
          "name": "",
          "type": "address"
        }
      ],
      "stateMutability": "view",
      "type": "function"
    },
    {
      "inputs": [
        {
          "internalType": "uint256",
          "name": "_auctionId",
          "type": "uint256"
        }
      ],
      "name": "putBidWrapper",
      "outputs": [],
      "stateMutability": "payable",
      "type": "function"
    },
    {
      "inputs": [
        {
          "internalType": "address",
          "name": "_to",
          "type": "address"
        }
      ],
      "name": "withdrawFaultyBid",
      "outputs": [],
      "stateMutability": "nonpayable",
      "type": "function"
    }
  ],
  "bytecode": "0x608060405234801561001057600080fd5b506156a280620000216000396000f3fe6080604052600436106101d85760003560e01c80635f4a436e11610102578063b0e21e8a11610095578063ec57834811610064578063ec5783481461050a578063eeffbfaf1461052a578063efa0598a1461054a578063f2fde38b1461056a576101d8565b8063b0e21e8a14610495578063bd9d21bd146104aa578063cf266ed0146104ca578063e66db25e146104ea576101d8565b80638da5cb5b116100d15780638da5cb5b1461042b578063914bf5f914610440578063a2a106b814610455578063a6f4a3e014610482576101d8565b80635f4a436e146103c15780636d8f0694146103e15780636eeb69db146103f6578063715018a614610416576101d8565b80632f5723361161017a5780633be89922116101495780633be899221461034e57806340e58ee51461036e57806343bc42d31461038e578063506a90e7146103ae576101d8565b80632f572336146102d757806330c642f1146102f957806336318815146103195780633abf6fd414610339576101d8565b8063150b7a02116101b6578063150b7a0214610255578063152b2c0a146102825780631cdfe3d8146102a25780632a6bf6a8146102c4576101d8565b806302097ab1146101dd5780630d6079641461021357806310782f8f14610240575b600080fd5b3480156101e957600080fd5b506101fd6101f83660046148b2565b61058a565b60405161020a9190614ef0565b60405180910390f35b34801561021f57600080fd5b5061023361022e366004614e00565b6105a6565b60405161020a9190615484565b34801561024c57600080fd5b506102336107d9565b34801561026157600080fd5b50610275610270366004614b3f565b6107e0565b60405161020a9190614fa6565b34801561028e57600080fd5b5061023361029d366004614c27565b6107f0565b3480156102ae57600080fd5b506102c26102bd3660046148b2565b61081b565b005b6102c26102d2366004614e00565b61089f565b3480156102e357600080fd5b506102ec610940565b60405161020a91906154b2565b34801561030557600080fd5b506102c2610314366004614d37565b610950565b34801561032557600080fd5b506102c2610334366004614ed1565b610a21565b34801561034557600080fd5b506101fd610af3565b34801561035a57600080fd5b506102c26103693660046148b2565b610b02565b34801561037a57600080fd5b506102c2610389366004614e00565b610b86565b34801561039a57600080fd5b506102c26103a9366004614eb7565b610eed565b6102c26103bc366004614e18565b610f98565b3480156103cd57600080fd5b506102c26103dc366004614ed1565b611570565b3480156103ed57600080fd5b506101fd611653565b34801561040257600080fd5b506101fd610411366004614e00565b611662565b34801561042257600080fd5b506102c2611680565b34801561043757600080fd5b506101fd61172c565b34801561044c57600080fd5b506102ec61173b565b34801561046157600080fd5b50610475610470366004614e00565b611752565b60405161020a9190614f9b565b6102c2610490366004614e18565b611772565b3480156104a157600080fd5b50610233611aaf565b3480156104b657600080fd5b506102c26104c53660046148b2565b611ab5565b3480156104d657600080fd5b506102c26104e5366004614e00565b611b25565b3480156104f657600080fd5b506102c2610505366004614b07565b611f82565b34801561051657600080fd5b50610475610525366004614e00565b612013565b34801561053657600080fd5b506102c2610545366004614ba8565b61215e565b34801561055657600080fd5b506102c2610565366004614c52565b612255565b34801561057657600080fd5b506102c26105853660046148b2565b612634565b610100602052600090815260409020546001600160a01b031681565b600081815260666020908152604080832081516101608101835281546001600160a01b0390811682526001808401548387015260028085015492831684870152600160a01b9092046001600160601b0316606080850191909152855190810186526003850180548252600486015460e01b6001600160e01b0319168289015260058601805488516101009582161595909502600019011694909404601f810189900489028401890188528084528998959760808901969395929490860193909291908301828280156106b95780601f1061068e576101008083540402835291602001916106b9565b820191906000526020600020905b81548152906001019060200180831161069c57829003601f168201915b50505091909252505050815260068201546001600160a01b03808216602080850191909152600160a01b928390046001600160601b0316604080860191909152600786015492831660608601529282046001600160401b03166080850152600160e01b90910460e01b6001600160e01b03191660a0840152600884018054835160026101006001841615026000190190921691909104601f810184900484028201840190945283815260c0909401939290918301828280156107bc5780601f10610791576101008083540402835291602001916107bc565b820191906000526020600020905b81548152906001019060200180831161079f57829003601f168201915b50505050508152505090506107d081612737565b9150505b919050565b6101625481565b630a85bd0160e11b949350505050565b6001600160a01b03821660009081526033602090815260408083208484529091529020545b92915050565b610823612794565b6001600160a01b031661083461172c565b6001600160a01b03161461087d576040805162461bcd60e51b8152602060048201819052602482015260008051602061564d833981519152604482015290519081900360640190fd5b60ff80546001600160a01b0319166001600160a01b0392909216919091179055565b6000818152606660205260409020600201546001600160a01b0316156108e05760405162461bcd60e51b81526004016108d790615028565b60405180910390fd5b61093d8160405180606001604052803481526020017f4c23426613a5dc69e08fbd2787e6210aa679d4522e95a89d4dd88c4fd13a22836001600160e01b031916815260200160405180602001604052806000815250815250610f98565b50565b610163546001600160601b031681565b610958612794565b6001600160a01b031661096961172c565b6001600160a01b0316146109b2576040805162461bcd60e51b8152602060048201819052602482015260008051602061564d833981519152604482015290519081900360640190fd5b6001600160e01b03198216600081815261012f60205260409081902080546001600160a01b0319166001600160a01b038516179055517f4b5aced933c0c9a88aeac3f0b3b72c5aaf75df8ebaf53225773248c4c315359390610a15908490614ef0565b60405180910390a25050565b610a29612794565b6001600160a01b0316610a3a61172c565b6001600160a01b031614610a83576040805162461bcd60e51b8152602060048201819052602482015260008051602061564d833981519152604482015290519081900360640190fd5b610163546040517fa13d21133118bfdffd1e4dc724faaadc5860dcb38ac5836e06f183ac5306b27991610ac3916001600160601b039091169084906154c6565b60405180910390a161016380546bffffffffffffffffffffffff19166001600160601b0392909216919091179055565b60ff546001600160a01b031681565b610b0a612794565b6001600160a01b0316610b1b61172c565b6001600160a01b031614610b64576040805162461bcd60e51b8152602060048201819052602482015260008051602061564d833981519152604482015290519081900360640190fd5b60fe80546001600160a01b0319166001600160a01b0392909216919091179055565b600260cb541415610bcc576040805162461bcd60e51b815260206004820152601f6024820152600080516020615598833981519152604482015290519081900360640190fd5b600260cb819055600082815260666020908152604080832081516101608101835281546001600160a01b039081168252600180840154838701528388015491821683860152600160a01b9091046001600160601b0316606080840191909152845190810185526003840180548252600485015460e01b6001600160e01b0319168288015260058501805487516101009582161595909502600019011699909904601f8101889004880284018801875280845297989397949660808901969295919492860193929190830182828015610ce55780601f10610cba57610100808354040283529160200191610ce5565b820191906000526020600020905b815481529060010190602001808311610cc857829003601f168201915b50505091909252505050815260068201546001600160a01b03808216602080850191909152600160a01b928390046001600160601b0316604080860191909152600786015492831660608601529282046001600160401b03166080850152600160e01b90910460e01b6001600160e01b03191660a0840152600884018054835160026101006001841615026000190190921691909104601f810184900484028201840190945283815260c090940193929091830182828015610de85780601f10610dbd57610100808354040283529160200191610de8565b820191906000526020600020905b815481529060010190602001808311610dcb57829003601f168201915b5050505050815250509050610dfc81612798565b610e185760405162461bcd60e51b81526004016108d79061508e565b60a0810151610e25612794565b6001600160a01b0316816001600160a01b031614610e555760405162461bcd60e51b81526004016108d790615158565b60e08201516001600160a01b031615610e805760405162461bcd60e51b81526004016108d790615267565b610ea58260000151836020015160016000805160206155de83398151915230866127aa565b610eb883836000015184602001516127ee565b60405183907f2809c7e17bf978fbc7194c0a694b638c4215e9140cacc6c38ca36010b45697df90600090a25050600160cb5550565b610ef5612794565b6001600160a01b0316610f0661172c565b6001600160a01b031614610f4f576040805162461bcd60e51b8152602060048201819052602482015260008051602061564d833981519152604482015290519081900360640190fd5b7fb51bef650ff5ad43303dbe2e500a74d4fd1bdc9ae05f046bece330e82ae0ba8760fd5482604051610f8292919061549b565b60405180910390a16001600160401b031660fd55565b600260cb541415610fde576040805162461bcd60e51b815260206004820152601f6024820152600080516020615598833981519152604482015290519081900360640190fd5b600260cb556000610fed612794565b8251600085815260666020908152604080832081516101608101835281546001600160a01b0390811682526001808401548387015260028085015492831684870152600160a01b9092046001600160601b0316606080850191909152855190810186526003850180548252600486015460e01b6001600160e01b0319168289015260058601805488516101009582161595909502600019011694909404601f810189900489028401890188528084529a9b509899979893979496608089019691959186019391908301828280156111055780601f106110da57610100808354040283529160200191611105565b820191906000526020600020905b8154815290600101906020018083116110e857829003601f168201915b50505091909252505050815260068201546001600160a01b03808216602080850191909152600160a01b928390046001600160601b0316604080860191909152600786015492831660608601529282046001600160401b03166080850152600160e01b90910460e01b6001600160e01b03191660a0840152600884018054835160026101006001841615026000190190921691909104601f810184900484028201840190945283815260c0909401939290918301828280156112085780601f106111dd57610100808354040283529160200191611208565b820191906000526020600020905b8154815290600101906020018083116111eb57829003601f168201915b5050505050815250509050600081606001519050600061123283610140015184610120015161289b565b90506000611248876040015188602001516128f7565b600001519050600061127588600001518661010001516001600160401b03166112708561294b565b6129e8565b60408601519091506001600160a01b0316611294576112948188612a5b565b61129e8584612aa9565b6112a88387612afd565b156112c8576112bc8589858c86868d612b3e565b50505050505050611567565b60e085015142906001600160a01b03166113765760608601516001600160601b0316611344576020840151611307906001600160601b03831690612cfc565b60008b815260666020526040902060020180546001600160a01b0316600160a01b6001600160601b03841690810291909117909155606088015294505b8560c001516001600160601b03168710156113715760405162461bcd60e51b81526004016108d79061518f565b6113db565b876001600160a01b03168660e001516001600160a01b031614156113ac5760405162461bcd60e51b81526004016108d79061529e565b60006113b787612737565b9050808810156113d95760405162461bcd60e51b81526004016108d7906150c3565b505b60006113ea8760400151612d69565b905061141587604001518861010001516001600160401b03168960e001518c8b608001518689612dbd565b60008b8152606660209081526040918290208c51600382019081558d83015160048301805463ffffffff191660e09290921c919091179055928d015180518e94936114659360050192019061454e565b50505060008b815260666020526040812060070180546001600160a01b0319166001600160a01b038c16179055610163546001600160601b03169061038482106114b1576103846114b3565b815b90506001600160601b03808216906114cd908a1686612dd7565b6001600160601b03161015611521576114ef6001600160601b03851682612cfc565b60008e815260666020526040902060020180546001600160a01b0316600160a01b6001600160601b0384160217905597505b8c7f0e54eff26401bf69b81b26f60bd85ef47f5d85275c1d268d84f68d6897431c478c8a604051611553929190614f04565b60405180910390a250505050505050505050505b5050600160cb55565b611578612794565b6001600160a01b031661158961172c565b6001600160a01b0316146115d2576040805162461bcd60e51b8152602060048201819052602482015260008051602061564d833981519152604482015290519081900360640190fd5b7f30bd79db520376a437e44c44c2b3ec63f6730f4df0a95f56ea39765f1420cab7610163600c9054906101000a90046001600160601b0316826040516116199291906154c6565b60405180910390a161016380546001600160601b03909216600160601b026bffffffffffffffffffffffff60601b19909216919091179055565b60fe546001600160a01b031681565b6000908152606660205260409020600701546001600160a01b031690565b611688612794565b6001600160a01b031661169961172c565b6001600160a01b0316146116e2576040805162461bcd60e51b8152602060048201819052602482015260008051602061564d833981519152604482015290519081900360640190fd5b6099546040516000916001600160a01b0316907f8be0079c531659141344cd1fd0a4f28419497f9722a3daafe3b4186f6b6457e0908390a3609980546001600160a01b0319169055565b6099546001600160a01b031690565b61016354600160601b90046001600160601b031681565b6000908152606660205260409020600601546001600160a01b0316151590565b600260cb5414156117b8576040805162461bcd60e51b815260206004820152601f6024820152600080516020615598833981519152604482015290519081900360640190fd5b600260cb819055600083815260666020908152604080832081516101608101835281546001600160a01b039081168252600180840154838701528388015491821683860152600160a01b9091046001600160601b0316606080840191909152845190810185526003840180548252600485015460e01b6001600160e01b0319168288015260058501805487516101009582161595909502600019011699909904601f81018890048802840188018752808452979893979496608089019692959194928601939291908301828280156118d15780601f106118a6576101008083540402835291602001916118d1565b820191906000526020600020905b8154815290600101906020018083116118b457829003601f168201915b50505091909252505050815260068201546001600160a01b03808216602080850191909152600160a01b928390046001600160601b0316604080860191909152600786015492831660608601529282046001600160401b03166080850152600160e01b90910460e01b6001600160e01b03191660a0840152600884018054835160026101006001841615026000190190921691909104601f810184900484028201840190945283815260c0909401939290918301828280156119d45780601f106119a9576101008083540402835291602001916119d4565b820191906000526020600020905b8154815290600101906020018083116119b757829003601f168201915b505050505081525050905060006119f582610140015183610120015161289b565b9050611a018282612aa9565b611a0f818460000151612afd565b611a2b5760405162461bcd60e51b81526004016108d790615238565b6000611a3f846040015185602001516128f7565b6000015190506000611a6785600001518561010001516001600160401b03166112708561294b565b90506000611a73612794565b60408601519091506001600160a01b0316611a9257611a928282612a5b565b611aa18587868a878787612b3e565b5050600160cb555050505050565b60fd5481565b6000611abf612794565b6001600160a01b0381166000908152610161602052604090205490915080611af95760405162461bcd60e51b81526004016108d79061532f565b6001600160a01b0380831660009081526101616020526040812055611b2090841682612e46565b505050565b600260cb541415611b6b576040805162461bcd60e51b815260206004820152601f6024820152600080516020615598833981519152604482015290519081900360640190fd5b600260cb819055600082815260666020908152604080832081516101608101835281546001600160a01b039081168252600180840154838701528388015491821683860152600160a01b9091046001600160601b0316606080840191909152845190810185526003840180548252600485015460e01b6001600160e01b0319168288015260058501805487516101009582161595909502600019011699909904601f8101889004880284018801875280845297989397949660808901969295919492860193929190830182828015611c845780601f10611c5957610100808354040283529160200191611c84565b820191906000526020600020905b815481529060010190602001808311611c6757829003601f168201915b50505091909252505050815260068201546001600160a01b03808216602080850191909152600160a01b928390046001600160601b0316604080860191909152600786015492831660608601529282046001600160401b03166080850152600160e01b90910460e01b6001600160e01b03191660a0840152600884018054835160026101006001841615026000190190921691909104601f810184900484028201840190945283815260c090940193929091830182828015611d875780601f10611d5c57610100808354040283529160200191611d87565b820191906000526020600020905b815481529060010190602001808311611d6a57829003601f168201915b5050505050815250509050611d9b81612798565b611db75760405162461bcd60e51b81526004016108d79061508e565b6000611dcd82610140015183610120015161289b565b9050611df382606001516001600160601b031682604001516001600160601b0316612ede565b158015611e0c575060e08201516001600160a01b031615155b611e285760405162461bcd60e51b81526004016108d79061538c565b6000611e448360800151604001518460800151602001516128f7565b600001519050611f626040518060a00160405280611e7b8660000151876020015160016000805160206155de833981519152612f27565b8152602001611e8d8660a00151612f75565b8152602001611e9f856000015161294b565b81526339d690a360e11b60005261012f60209081527fc28c43c4aa23029674dbba16a7ffa001d28e4b6c821f1ad56ff5b62cd474fc2a546001600160a01b03169082015230604091820152805160a081018252908601516080870151518291611f0791612fef565b8152602001611f198760e00151612f75565b8152602001611f278561294b565b8152602001611f398760400151612d69565b6001600160a01b03168152306020909101526101008601516002906001600160401b0316613056565b5050611f7784846000015185602001516127ee565b5050600160cb555050565b611f8a612794565b6001600160a01b0316611f9b61172c565b6001600160a01b031614611fe4576040805162461bcd60e51b8152602060048201819052602482015260008051602061564d833981519152604482015290519081900360640190fd5b6001600160a01b0391821660009081526101006020526040902080546001600160a01b03191691909216179055565b60008181526066602090815260408083206008018054825160026001831615610100026000190190921691909104601f8101859004850282018501909352828152429385936120d693918301828280156120ae5780601f10612083576101008083540402835291602001916120ae565b820191906000526020600020905b81548152906001019060200180831161209157829003601f168201915b505050600088815260666020526040902060070154600160e01b900460e01b915061289b9050565b9050600081604001516001600160601b031611801561210157508181604001516001600160601b0316115b15612111576000925050506107d4565b600084815260666020526040902060020154600160a01b90046001600160601b031680158015906121425750828111155b1561215357600093505050506107d4565b506001949350505050565b600054610100900460ff1680612177575061217761314c565b80612185575060005460ff16155b6121c05760405162461bcd60e51b815260040180806020018281038252602e8152602001806155fe602e913960400191505060405180910390fd5b600054610100900460ff161580156121eb576000805460ff1961ff0019909116610100171660011790555b6121f361315d565b6121fb6131fe565b61220361315d565b61220b6132f7565b6122148261339d565b61221e8585613484565b612232836001600160401b0316888861352f565b61223a61315d565b801561224c576000805461ff00191690555b50505050505050565b6000612261828461289b565b6101635460208201519192506001600160601b039081169116108015906122a257506305265c006001600160801b031681602001516001600160601b031611155b6122be5760405162461bcd60e51b81526004016108d79061512c565b60408101516000906001600160601b031615612328574282604001516001600160601b031610156123015760405162461bcd60e51b81526004016108d7906151de565b612325826020015183604001516001600160601b0316612cfc90919063ffffffff16565b90505b6000612332613608565b9050600061233e612794565b905060006040518061016001604052808c6001600160a01b031681526020018b81526020018a6001600160a01b03168152602001856001600160601b0316815260200160405180606001604052806000815260200160006001600160e01b0319168152602001604051806020016040528060008152508152508152602001836001600160a01b03168152602001896001600160601b0316815260200160006001600160a01b0316815260200160fd546001600160401b03168152602001886001600160e01b0319168152602001878152509050806066600085815260200190815260200160002060008201518160000160006101000a8154816001600160a01b0302191690836001600160a01b031602179055506020820151816001015560408201518160020160006101000a8154816001600160a01b0302191690836001600160a01b0316021790555060608201518160020160146101000a8154816001600160601b0302191690836001600160601b031602179055506080820151816003016000820151816000015560208201518160010160006101000a81548163ffffffff021916908360e01c0217905550604082015181600201908051906020019061250992919061454e565b50505060a082015160068201805460c08501516001600160601b0316600160a01b9081026001600160a01b039485166001600160a01b03199384161785161790925560e0808601516007860180546101008901516101208a015190941c600160e01b026001600160e01b036001600160401b0390951690960267ffffffffffffffff60a01b199390971694169390931716939093179290921617905561014082015180516125c191600884019160209091019061454e565b509050506125e28b8b60016000805160206155de83398151915286306127aa565b6125ed8b8b85613617565b827f651452447442638a9395d6ab7f472421a3c164ffea75651cbc2d0be20f444987838660405161261f929190614f04565b60405180910390a25050505050505050505050565b61263c612794565b6001600160a01b031661264d61172c565b6001600160a01b031614612696576040805162461bcd60e51b8152602060048201819052602482015260008051602061564d833981519152604482015290519081900360640190fd5b6001600160a01b0381166126db5760405162461bcd60e51b81526004018080602001828103825260268152602001806155b86026913960400191505060405180910390fd5b6099546040516001600160a01b038084169216907f8be0079c531659141344cd1fd0a4f28419497f9722a3daafe3b4186f6b6457e090600090a3609980546001600160a01b0319166001600160a01b0392909216919091179055565b60e08101516000906001600160a01b0316612760575060c08101516001600160601b03166107d4565b61016354608083015151610815916127889190600160601b90046001600160601b031661363d565b60808401515190613655565b3390565b60a001516001600160a01b0316151590565b6127e66127b987878787612f27565b6001600160e01b03198516600090815261012f6020526040902054849084906001600160a01b03166136af565b505050505050565b60405183907f53ab6823c4ae8c865033f94ee16313a21c6ade19520d884dc804d622a43bc67490600090a26128238282613aa6565b600083815260666020526040812080546001600160a01b031916815560018101829055600281018290556003810182815560048201805463ffffffff191690559091908161287460058501826145da565b5050600060068301819055600783018190556128949060088401906145da565b5050505050565b6128a361461e565b6001600160e01b03198216632611a13360e11b14156128df578251156128da57828060200190518101906128d79190614d52565b90505b610815565b60405162461bcd60e51b81526004016108d79061535c565b6128ff614645565b6001600160e01b03198216632611a13360e11b1415612933578251156128da57828060200190518101906128d79190614dc6565b60405162461bcd60e51b81526004016108d7906153d7565b60408051600180825281830190925260609160009190816020015b61296e614658565b815260200190600190039081612966579050509050828160008151811061299157fe5b6020026020010151600001906001600160a01b031690816001600160a01b03168152505060a083901c816000815181106129c757fe5b6020908102919091018101516001600160601b039092169101529050919050565b60006129fe6129f7858561363d565b8590613655565b905060005b8251811015612a5357612a49612a42848381518110612a1e57fe5b6020026020010151602001516001600160601b03168761363d90919063ffffffff16565b8390613655565b9150600101612a03565b509392505050565b3482811015612a7c5760405162461bcd60e51b81526004016108d7906151b6565b6000612a888285613ace565b90508015612aa357612aa36001600160a01b03841682612e46565b50505050565b612ab282612798565b8015612add5750612add82606001516001600160601b031682604001516001600160601b0316612ede565b612af95760405162461bcd60e51b81526004016108d7906152cb565b5050565b60008083606001516001600160601b0316118015612b2857508183606001516001600160601b031611155b15612b3557506001610815565b50600092915050565b6000612b4d8860400151612d69565b9050612b76886080015189604001518a60e001518b61010001516001600160401b031685613b25565b60408801516000906001600160a01b0316612b92575030612b95565b50815b612ca16040518060a00160405280612bc68c600001518d6020015160016000805160206155de833981519152612f27565b8152602001612bd88c60a00151612f75565b8152602001612bea8a6000015161294b565b81526339d690a360e11b60005261012f60209081527fc28c43c4aa23029674dbba16a7ffa001d28e4b6c821f1ad56ff5b62cd474fc2a546001600160a01b03169082015230604091820152805160a081018252908c01518b518291612c4e91612fef565b8152602001612c5c87612f75565b8152602001612c6a8961294b565b8152602001856001600160a01b03168152602001846001600160a01b031681525060028c61010001516001600160401b0316613056565b5050612cb6868a600001518b602001516127ee565b610162547f10373d853b64ae416c332eacb659de0f9bfc4fa3601556194abce1991061efbe84604051612ce99190614ef0565b60405180910390a2505050505050505050565b60008282016001600160601b038085169082161015612d62576040805162461bcd60e51b815260206004820152601b60248201527f536166654d6174683a206164646974696f6e206f766572666c6f770000000000604482015290519081900360640190fd5b9392505050565b6000806001600160a01b038316156108155750506322ba176160e21b6000525061012f6020527f57e84f7b8a8bca23b320143cbaa109357032ca189de87ab548fff63eba4472a5546001600160a01b031690565b612dca8388878986613b25565b61224c8188863086613c6b565b6000826001600160601b0316826001600160601b03161115612e40576040805162461bcd60e51b815260206004820152601e60248201527f536166654d6174683a207375627472616374696f6e206f766572666c6f770000604482015290519081900360640190fd5b50900390565b6040516000906001600160a01b0384169083908381818185875af1925050503d8060008114612e91576040519150601f19603f3d011682016040523d82523d6000602084013e612e96565b606091505b5050905080611b20576040805162461bcd60e51b815260206004820152600f60248201526e1d1c985b9cd9995c8819985a5b1959608a1b604482015290519081900360640190fd5b6000428215801590612eef57508083115b15612efe576000915050610815565b600084118015612f0e5750808411155b15612f1d576000915050610815565b5060019392505050565b612f2f61466f565b602080820184905281516001600160e01b031984169052604051612f57918791879101614f82565b60408051601f19818403018152919052815160200152949350505050565b60408051600180825281830190925260609160009190816020015b612f98614658565b815260200190600190039081612f905790505090508281600081518110612fbb57fe5b6020026020010151600001906001600160a01b031690816001600160a01b031681525050612710816000815181106129c757fe5b612ff761466f565b602081018290526001600160a01b03831661301d5780516355575f5d60e11b9052610815565b80516322ba176160e21b905260405161303a908490602001614ef0565b60408051601f1981840301815291905281516020015292915050565b8351602090810151845190910151600184600281111561307257fe5b14156130b357613083868685613c80565b91506130ae856000015160000151866000015160200151876080015189602001518960600151613e73565b613143565b60028460028111156130c157fe5b14156130fd576130d2858785613c80565b90506130ae866000015160000151876000015160200151886080015188602001518a60600151613e73565b8551805160209182015160808901519288015160608a0151613120949190613e73565b845180516020918201516080880151928901516060890151613143949190613e73565b94509492505050565b600061315730613fed565b15905090565b600054610100900460ff1680613176575061317661314c565b80613184575060005460ff16155b6131bf5760405162461bcd60e51b815260040180806020018281038252602e8152602001806155fe602e913960400191505060405180910390fd5b600054610100900460ff161580156131ea576000805460ff1961ff0019909116610100171660011790555b801561093d576000805461ff001916905550565b600054610100900460ff1680613217575061321761314c565b80613225575060005460ff16155b6132605760405162461bcd60e51b815260040180806020018281038252602e8152602001806155fe602e913960400191505060405180910390fd5b600054610100900460ff1615801561328b576000805460ff1961ff0019909116610100171660011790555b6000613295612794565b609980546001600160a01b0319166001600160a01b038316908117909155604051919250906000907f8be0079c531659141344cd1fd0a4f28419497f9722a3daafe3b4186f6b6457e0908290a350801561093d576000805461ff001916905550565b600054610100900460ff1680613310575061331061314c565b8061331e575060005460ff16155b6133595760405162461bcd60e51b815260040180806020018281038252602e8152602001806155fe602e913960400191505060405180910390fd5b600054610100900460ff16158015613384576000805460ff1961ff0019909116610100171660011790555b600160cb55801561093d576000805461ff001916905550565b600054610100900460ff16806133b657506133b661314c565b806133c4575060005460ff16155b6133ff5760405162461bcd60e51b815260040180806020018281038252602e8152602001806155fe602e913960400191505060405180910390fd5b600054610100900460ff1615801561342a576000805460ff1961ff0019909116610100171660011790555b60016101625561016380546103846bffffffffffffffffffffffff19909116176bffffffffffffffffffffffff60601b1916600160601b6001600160601b038516021790558015612af9576000805461ff00191690555050565b61012f6020527f57e84f7b8a8bca23b320143cbaa109357032ca189de87ab548fff63eba4472a580546001600160a01b039283166001600160a01b0319918216179091557fc28c43c4aa23029674dbba16a7ffa001d28e4b6c821f1ad56ff5b62cd474fc2a805493909216928116831790915563025ceed960e61b6000527f1a49cbf01c238c4dbdb533af87925962407df89449cf736bfd00e3b6b87092e280549091169091179055565b600054610100900460ff1680613548575061354861314c565b80613556575060005460ff16155b6135915760405162461bcd60e51b815260040180806020018281038252602e8152602001806155fe602e913960400191505060405180910390fd5b600054610100900460ff161580156135bc576000805460ff1961ff0019909116610100171660011790555b60fd84905560ff80546001600160a01b038086166001600160a01b03199283161790925560fe8054928516929091169190911790558015612aa3576000805461ff001916905550505050565b61016280546001810190915590565b6001600160a01b0390921660009081526033602090815260408083209383529290522055565b6000612d6261271061364f8585613ff3565b9061404c565b600082820183811015612d62576040805162461bcd60e51b815260206004820152601b60248201527f536166654d6174683a206164646974696f6e206f766572666c6f770000000000604482015290519081900360640190fd5b8351516001600160e01b0319166339d690a360e11b14156137f5576000808560000151602001518060200190518101906136e99190614ada565b9150915085602001516001146137115760405162461bcd60e51b81526004016108d79061520c565b6001600160a01b03851630141561378957604051632142170760e11b81526001600160a01b038316906342842e0e9061375290309088908690600401614f26565b600060405180830381600087803b15801561376c57600080fd5b505af1158015613780573d6000803e3d6000fd5b505050506137ee565b604051637b84dc8360e11b81526001600160a01b0384169063f709b906906137bb908590899089908790600401614ffe565b600060405180830381600087803b1580156137d557600080fd5b505af11580156137e9573d6000803e3d6000fd5b505050505b5050612aa3565b8351516001600160e01b0319166322ba176160e21b141561393857600084600001516020015180602001905181019061382e91906148ce565b90506001600160a01b0384163014156138ca57602085015160405163a9059cbb60e01b81526001600160a01b0383169163a9059cbb91613872918791600401614f82565b602060405180830381600087803b15801561388c57600080fd5b505af11580156138a0573d6000803e3d6000fd5b505050506040513d601f19601f820116820180604052508101906138c49190614d17565b50613932565b602085015160405163776062c360e01b81526001600160a01b0384169163776062c3916138ff91859189918991600401614ffe565b600060405180830381600087803b15801561391957600080fd5b505af115801561392d573d6000803e3d6000fd5b505050505b50612aa3565b8351516001600160e01b03191663025ceed960e61b14156139f5576000808560000151602001518060200190518101906139729190614ada565b90925090506001600160a01b0385163014156139bd576020860151604051637921219560e11b81526001600160a01b0384169163f242432a9161375291309189918791600401614f4a565b6020860151604051639c1c2ee960e01b81526001600160a01b03851691639c1c2ee9916137bb9186918a918a91889190600401614fbb565b8351516001600160e01b0319166355575f5d60e11b1415613a3e576001600160a01b0382163014613a39576020840151613a39906001600160a01b03841690612e46565b612aa3565b6040516354bc0cf160e01b81526001600160a01b038216906354bc0cf190613a6e90879087908790600401615403565b600060405180830381600087803b158015613a8857600080fd5b505af1158015613a9c573d6000803e3d6000fd5b5050505050505050565b6001600160a01b03909116600090815260336020908152604080832093835292905290812055565b600082821115612e40576040805162461bcd60e51b815260206004820152601e60248201527f536166654d6174683a207375627472616374696f6e206f766572666c6f770000604482015290519081900360640190fd5b6001600160a01b038316613b3857612894565b6000613b678660000151846001600160801b0316611270613b618a604001518b602001516128f7565b5161294b565b90506001600160a01b038516613c62576000846001600160a01b031682604051613b9090614eed565b60006040518083038185875af1925050503d8060008114613bcd576040519150601f19603f3d011682016040523d82523d6000602084013e613bd2565b606091505b5050905080613c5c576001600160a01b0385166000908152610161602052604081205490613c008483613655565b6001600160a01b038816600081815261016160205260409081902083905551919250907e13bff06d622c14d54757ee0547a817dc3e491fb8da534f108a531b016dee3c90613c51908790859061548d565b60405180910390a250505b506127e6565b6127e681863087865b612894613c788587612fef565b8484846136af565b6000613c998460000151602001518386604001516129e8565b90506000613cc482866000015160200151876080015186878a60000151600001518b606001516140b3565b8551805186515160208089015193015160808a015160608b0151959650613cf295939492938792919061417e565b90508460400151516001148015613d0e57508360400151516001145b8015613d6357508460400151600081518110613d2657fe5b6020026020010151600001516001600160a01b03168460400151600081518110613d4c57fe5b6020026020010151600001516001600160a01b0316145b15613dfd57604080516001808252818301909252600091816020015b613d87614658565b815260200190600190039081613d7f5790505090508460400151600081518110613dad57fe5b602002602001015181600081518110613dc257fe5b6020026020010181905250613df386600001516000015183886000015160200151848a608001518b60600151614281565b509150613e569050565b613e2785600001516000015182876000015160200151886040015189608001518a60600151614281565b50855180516020909101516040870151608089015160608a0151949550613e52948693929190614281565b5090505b612a53856000015160000151828760800151876020015189606001515b6000825111613e945760405162461bcd60e51b81526004016108d7906150e8565b600084815b6001855103811015613f63576000613eda868381518110613eb657fe5b6020026020010151602001516001600160601b03168961363d90919063ffffffff16565b9050613f0f868381518110613eeb57fe5b6020026020010151602001516001600160601b03168561365590919063ffffffff16565b93508015613f5a57613f218382613ace565b9250613f5a60405180604001604052808b81526020018381525088888581518110613f4857fe5b602002602001015160000151886136af565b50600101613e99565b50600084600186510381518110613f7657fe5b60200260200101519050613fa081602001516001600160601b03168461365590919063ffffffff16565b92508261271014613fc35760405162461bcd60e51b81526004016108d7906152f8565b8115613a9c57613a9c60405180604001604052808a815260200184815250878360000151876136af565b3b151590565b60008261400257506000610815565b8282028284828161400f57fe5b0414612d625760405162461bcd60e51b815260040180806020018281038252602181526020018061562c6021913960400191505060405180910390fd5b60008082116140a2576040805162461bcd60e51b815260206004820152601a60248201527f536166654d6174683a206469766973696f6e206279207a65726f000000000000604482015290519081900360640190fd5b8183816140ab57fe5b049392505050565b60008060006140c58a8a888a0161434d565b9092509050801561416f5784516000906001600160e01b0319166322ba176160e21b141561410c57856020015180602001905181019061410591906148ce565b9050614145565b85516001600160e01b03191663025ceed960e61b141561414557600086602001518060200190518101906141409190614ada565b509150505b61416d6040518060400160405280888152602001848152508a6141678461436f565b886136af565b505b5090505b979650505050505050565b60008061418a886143ad565b90508051600114801561419e575086516001145b80156141eb5750866000815181106141b257fe5b6020026020010151600001516001600160a01b0316816000815181106141d457fe5b6020026020010151600001516001600160a01b0316145b1561423c576113888160008151811061420057fe5b6020026020010151602001516001600160601b031611156142335760405162461bcd60e51b81526004016108d790615057565b85915050614173565b60008061424d8b8989868a8a614281565b915091506113888111156142735760405162461bcd60e51b81526004016108d790615057565b509998505050505050505050565b846000805b8551811015614341576142c286828151811061429e57fe5b6020026020010151602001516001600160601b03168361365590919063ffffffff16565b91506000806142f2858a8a86815181106142d857fe5b6020026020010151602001516001600160601b031661434d565b909550859250905080156143375761433760405180604001604052808d815260200183815250888a868151811061432557fe5b602002602001015160000151896136af565b5050600101614286565b50965096945050505050565b6000806143638561435e868661363d565b614521565b91509150935093915050565b6001600160a01b0380821660009081526101006020526040812054909116801561439a5790506107d4565b505060ff546001600160a01b0316919050565b80516060906001600160e01b03191663025ceed960e61b14806143e1575081516001600160e01b0319166339d690a360e11b145b156144965760008083602001518060200190518101906144019190614ada565b60fe54604051634e53ee3d60e11b81529294509092506001600160a01b031690639ca7dc7a906144379085908590600401614f82565b600060405180830381600087803b15801561445157600080fd5b505af1158015614465573d6000803e3d6000fd5b505050506040513d6000823e601f3d908101601f1916820160405261448d9190810190614cdd565b925050506107d4565b81516001600160e01b03191662737ea960e61b14156144d757600082602001518060200190518101906144c991906148ea565b6080015192506107d4915050565b81516001600160e01b03191663d8f960c160e01b1415614519576000826020015180602001905181019061450b91906149e7565b6060015192506107d4915050565b506060919050565b60008082841115614540576145368484613ace565b9150829050614547565b5060009050825b9250929050565b828054600181600116156101000203166002900490600052602060002090601f01602090048101928261458457600085556145ca565b82601f1061459d57805160ff19168380011785556145ca565b828001600101855582156145ca579182015b828111156145ca5782518255916020019190600101906145af565b506145d692915061468f565b5090565b50805460018160011615610100020316600290046000825580601f10614600575061093d565b601f01602090049060005260206000209081019061093d919061468f565b60408051608081018252600080825260208201819052918101829052606081019190915290565b6040518060200160405280600081525090565b604080518082019091526000808252602082015290565b60405180604001604052806146826146a4565b8152602001600081525090565b5b808211156145d65760008155600101614690565b60408051808201909152600081526060602082015290565b60006146cf6146ca84615520565b6154e0565b90508281528383830111156146e357600080fd5b612d62836020830184615541565b600082601f830112614701578081fd5b815160206147116146ca83615503565b82815281810190858301855b8581101561475b578151880189603f820112614737578788fd5b6147488a87830151604084016146bc565b855250928401929084019060010161471d565b5090979650505050505050565b600082601f830112614778578081fd5b815160206147886146ca83615503565b828152818101908583016040808602880185018910156147a6578687fd5b865b8681101561480a5781838b0312156147be578788fd5b81518281018181106001600160401b03821117156147d857fe5b835283516147e58161556d565b8152838701516147f481615582565b81880152855293850193918101916001016147a8565b509198975050505050505050565b80356001600160e01b0319811681146107d457600080fd5b600082601f830112614840578081fd5b813561484e6146ca82615520565b818152846020838601011115614862578283fd5b816020850160208301379081016020019190915292915050565b600082601f83011261488c578081fd5b612d62838351602085016146bc565b80356001600160401b03811681146107d457600080fd5b6000602082840312156148c3578081fd5b8135612d628161556d565b6000602082840312156148df578081fd5b8151612d628161556d565b600080604083850312156148fc578081fd5b82516149078161556d565b60208401519092506001600160401b0380821115614923578283fd5b9084019060c08287031215614936578283fd5b61494060c06154e0565b82518152602083015182811115614955578485fd5b6149618882860161487c565b60208301525060408301516040820152606083015182811115614982578485fd5b61498e88828601614768565b6060830152506080830151828111156149a5578485fd5b6149b188828601614768565b60808301525060a0830151828111156149c8578485fd5b6149d4888286016146f1565b60a0830152508093505050509250929050565b600080604083850312156149f9578182fd5b8251614a048161556d565b60208401519092506001600160401b0380821115614a20578283fd5b9084019060a08287031215614a33578283fd5b614a3d60a06154e0565b82518152602083015182811115614a52578485fd5b614a5e8882860161487c565b602083015250604083015182811115614a75578485fd5b614a8188828601614768565b604083015250606083015182811115614a98578485fd5b614aa488828601614768565b606083015250608083015182811115614abb578485fd5b614ac7888286016146f1565b6080830152508093505050509250929050565b60008060408385031215614aec578182fd5b8251614af78161556d565b6020939093015192949293505050565b60008060408385031215614b19578182fd5b8235614b248161556d565b91506020830135614b348161556d565b809150509250929050565b60008060008060808587031215614b54578182fd5b8435614b5f8161556d565b93506020850135614b6f8161556d565b92506040850135915060608501356001600160401b03811115614b90578182fd5b614b9c87828801614830565b91505092959194509250565b60008060008060008060c08789031215614bc0578384fd5b8635614bcb8161556d565b95506020870135614bdb8161556d565b94506040870135614beb8161556d565b93506060870135614bfb8161556d565b9250614c096080880161489b565b915060a0870135614c1981615582565b809150509295509295509295565b60008060408385031215614c39578182fd5b8235614c448161556d565b946020939093013593505050565b60008060008060008060c08789031215614c6a578384fd5b8635614c758161556d565b9550602087013594506040870135614c8c8161556d565b93506060870135614c9c81615582565b9250614caa60808801614818565b915060a08701356001600160401b03811115614cc4578182fd5b614cd089828a01614830565b9150509295509295509295565b600060208284031215614cee578081fd5b81516001600160401b03811115614d03578182fd5b614d0f84828501614768565b949350505050565b600060208284031215614d28578081fd5b81518015158114612d62578182fd5b60008060408385031215614d49578182fd5b614b2483614818565b600060808284031215614d63578081fd5b604051608081018181106001600160401b0382111715614d7f57fe5b604052825181526020830151614d9481615582565b60208201526040830151614da781615582565b60408201526060830151614dba81615582565b60608201529392505050565b600060208284031215614dd7578081fd5b604051602081018181106001600160401b0382111715614df357fe5b6040529151825250919050565b600060208284031215614e11578081fd5b5035919050565b60008060408385031215614e2a578182fd5b8235915060208301356001600160401b0380821115614e47578283fd5b9084019060608287031215614e5a578283fd5b604051606081018181108382111715614e6f57fe5b60405282358152614e8260208401614818565b6020820152604083013582811115614e98578485fd5b614ea488828601614830565b6040830152508093505050509250929050565b600060208284031215614ec8578081fd5b612d628261489b565b600060208284031215614ee2578081fd5b8135612d6281615582565b90565b6001600160a01b0391909116815260200190565b6001600160a01b039290921682526001600160601b0316602082015260400190565b6001600160a01b039384168152919092166020820152604081019190915260600190565b6001600160a01b0394851681529290931660208301526040820152606081019190915260a06080820181905260009082015260c00190565b6001600160a01b03929092168252602082015260400190565b901515815260200190565b6001600160e01b031991909116815260200190565b6001600160a01b03958616815293851660208501529190931660408301526060820192909252608081019190915260c060a0820181905260009082015260e00190565b6001600160a01b039485168152928416602084015292166040820152606081019190915260800190565b6020808252601590820152741bdb9b1e4811551208189a591cc8185b1b1bddd959605a1b604082015260600190565b6020808252601d908201527f526f79616c746965732061726520746f6f206869676820283e35302529000000604082015260600190565b6020808252818101527f7468657265206973206e6f2061756374696f6e20776974682074686973206964604082015260600190565b6020808252600b908201526a62696420746f6f206c6f7760a81b604082015260600190565b60208082526024908201527f7472616e736665725061796f7574733a206e6f7468696e6720746f207472616e60408201526339b332b960e11b606082015260800190565b60208082526012908201527134b731b7b93932b1ba10323ab930ba34b7b760711b604082015260600190565b6020808252601a908201527f61756374696f6e206f776e6572206e6f74206465746563746564000000000000604082015260600190565b6020808252600d908201526c189a59081d1bdbc81cdb585b1b609a1b604082015260600190565b6020808252600e908201526d0dcdee840cadcdeeaced0408aa8960931b604082015260600190565b602080825260149082015273696e636f72726563742073746172742074696d6560601b604082015260600190565b60208082526012908201527132b9319b9918903b30b63ab29032b93937b960711b604082015260600190565b6020808252601590820152741b9bdd08195b9bdd59da08199bdc88189d5e5bdd5d605a1b604082015260600190565b6020808252601d908201527f63616e27742063616e63656c2061756374696f6e207769746820626964000000604082015260600190565b602080825260139082015272185b1c9958591e481dda5b9b9a5b99c8189a59606a1b604082015260600190565b60208082526013908201527261756374696f6e20697320696e61637469766560681b604082015260600190565b6020808252601e908201527f53756d207061796f75747320427073206e6f7420657175616c20313030250000604082015260600190565b6020808252601390820152726e6f7468696e6720746f20776974686472617760681b604082015260600190565b60208082526016908201527577726f6e672061756374696f6e20646174615479706560501b604082015260600190565b6020808252602b908201527f6f6e6c7920656e6465642061756374696f6e2077697468206269642063616e2060408201526a189948199a5b9a5cda195960aa1b606082015260800190565b60208082526012908201527177726f6e672062696420646174615479706560701b604082015260600190565b60006060825284516040606084015263ffffffff60e01b81511660a084015260208101519050604060c084015280518060e085015261010061544b8282870160208601615541565b60209788015160808601526001600160a01b039687169785019790975293909416604083015250601f909101601f191601909101919050565b90815260200190565b918252602082015260400190565b9182526001600160401b0316602082015260400190565b6001600160601b0391909116815260200190565b6001600160601b0392831681529116602082015260400190565b6040518181016001600160401b03811182821017156154fb57fe5b604052919050565b60006001600160401b0382111561551657fe5b5060209081020190565b60006001600160401b0382111561553357fe5b50601f01601f191660200190565b60005b8381101561555c578181015183820152602001615544565b83811115612aa35750506000910152565b6001600160a01b038116811461093d57600080fd5b6001600160601b038116811461093d57600080fdfe5265656e7472616e637947756172643a207265656e7472616e742063616c6c004f776e61626c653a206e6577206f776e657220697320746865207a65726f206164647265737373ad2146b3d3a286642c794379d750360a2d53a3459a11b3e5d6cc900f55f44a496e697469616c697a61626c653a20636f6e747261637420697320616c726561647920696e697469616c697a6564536166654d6174683a206d756c7469706c69636174696f6e206f766572666c6f774f776e61626c653a2063616c6c6572206973206e6f7420746865206f776e6572a26469706673582212208c1de61377cac72071a25546291c3fe79b18e9fa7fc4cfbc3a18f17e9513e78b64736f6c63430007060033",
  "immutableReferences": {},
  "source": "// SPDX-License-Identifier: MIT\n\npragma solidity 0.7.6;\npragma abicoder v2;\n\nimport \"./AuctionHouseStruct721.sol\";\nimport \"../wrapper/TokenToAuction.sol\";\nimport \"../AuctionHouseBase.sol\";\n\nimport \"@openzeppelin/contracts-upgradeable/token/ERC721/ERC721HolderUpgradeable.sol\";\n\n/// @dev contract to create and interact with auctions\ncontract AuctionHouse721 is ERC721HolderUpgradeable, TokenToAuction, AuctionHouseStruct721, AuctionHouseBase {\n    using LibTransfer for address;\n    using BpLibrary for uint;\n    using SafeMathUpgradeable96 for uint96;\n    using SafeMathUpgradeable for uint;\n\n    function __AuctionHouse721_init(\n        address newDefaultFeeReceiver,\n        IRoyaltiesProvider newRoyaltiesProvider,\n        address _transferProxy,\n        address _erc20TransferProxy,\n        uint64 newProtocolFee,\n        uint96 _minimalStepBasePoint\n    ) external initializer {\n        __Context_init_unchained();\n        __Ownable_init_unchained();\n        __ERC721Holder_init_unchained();\n        __ReentrancyGuard_init_unchained();\n        __AuctionHouseBase_init_unchained(_minimalStepBasePoint);\n        __TransferExecutor_init_unchained(_transferProxy, _erc20TransferProxy);\n        __RaribleTransferManager_init_unchained(newProtocolFee, newDefaultFeeReceiver, newRoyaltiesProvider);          \n        __AuctionHouse721_init_unchained();\n    }\n\n    function __AuctionHouse721_init_unchained() internal initializer {  \n    }\n\n    /// @dev creates an auction and locks sell asset\n    function startAuction(\n        address _sellToken,\n        uint _sellTokenId,\n        address _buyAsset,\n        uint96 minimalPrice,\n        bytes4 dataType,\n        bytes memory data\n    ) external {\n        //todo: check if token contract supports ERC721 interface?\n\n        LibAucDataV1.DataV1 memory aucData = LibAucDataV1.parse(data, dataType);\n        require(aucData.duration >= minimalDuration && aucData.duration <= MAX_DURATION, \"incorrect duration\");\n\n        uint96 endTime = 0;\n        if (aucData.startTime > 0){\n            require (aucData.startTime >= block.timestamp, \"incorrect start time\");\n            endTime = aucData.startTime.add(aucData.duration);\n        }\n\n        uint currentAuctionId = getNextAndIncrementAuctionId();\n        address payable sender = _msgSender();\n        Auction memory auc = Auction(\n            _sellToken,\n            _sellTokenId,\n            _buyAsset,\n            endTime,\n            Bid(0, \"\", \"\"),\n            sender,\n            minimalPrice,\n            payable(address(0)),\n            uint64(protocolFee),\n            dataType,\n            data\n        );\n        auctions[currentAuctionId] = auc;\n        transferNFT(\n            _sellToken, \n            _sellTokenId, \n            1, \n            LibAsset.ERC721_ASSET_CLASS,\n            sender,\n            address(this)\n        );\n        setAuctionForToken(_sellToken, _sellTokenId, currentAuctionId);\n        \n        emit AuctionCreated(currentAuctionId, sender, endTime);\n    }\n\n    /// @dev put a bid and return locked assets for the last bid\n    function putBid(uint _auctionId, Bid memory bid) payable public nonReentrant {\n        address payable newBuyer = _msgSender();\n        uint newAmount = bid.amount;\n        Auction memory currentAuction = auctions[_auctionId];\n        uint96 endTime = currentAuction.endTime;\n        LibAucDataV1.DataV1 memory aucData = LibAucDataV1.parse(currentAuction.data, currentAuction.dataType);\n        uint bidOriginFee = LibBidDataV1.parse(bid.data, bid.dataType).originFee;\n        uint totalAmount = calculateTotalAmount(\n            bid.amount, \n            currentAuction.protocolFee, \n            getOriginFee(bidOriginFee)\n        );\n        if (currentAuction.buyAsset == address(0)) {\n            checkEthReturnChange(totalAmount, newBuyer);\n        }\n        checkAuctionInProgress(currentAuction, aucData);\n        if (buyOutVerify(aucData, newAmount)) {\n            _buyOut(\n                currentAuction,\n                bid,\n                aucData,\n                _auctionId,\n                bidOriginFee,\n                totalAmount,\n                newBuyer\n            );\n            return;\n        }\n        \n        uint96 currentTime = uint96(block.timestamp);\n        //start action if minimal price is met\n        if (currentAuction.buyer == address(0x0)) {//no bid at all\n            // set endTime if it's not set\n            if (currentAuction.endTime == 0){\n                endTime = currentTime.add(aucData.duration);\n                auctions[_auctionId].endTime = endTime;\n                currentAuction.endTime = endTime;\n                \n            }\n            require(newAmount >= currentAuction.minimalPrice, \"bid too small\");\n        } else {//there is bid in auction\n            require(currentAuction.buyer != newBuyer, \"already winning bid\");\n            uint256 minAmount = _getMinimalNextBid(currentAuction);\n            require(newAmount >= minAmount, \"bid too low\");\n        }\n\n        address proxy = _getProxy(currentAuction.buyAsset);\n        reserveBid(\n            currentAuction.buyAsset,\n            currentAuction.protocolFee,\n            currentAuction.buyer,\n            newBuyer,\n            currentAuction.lastBid,\n            proxy,\n            totalAmount\n        );\n        auctions[_auctionId].lastBid = bid;\n        auctions[_auctionId].buyer = newBuyer;\n\n        // auction is extended for EXTENSION_DURATION or minimalDuration if (minimalDuration < EXTENSION_DURATION)\n        uint96 minDur = minimalDuration;\n        uint96 extension = (minDur < EXTENSION_DURATION) ? minDur : EXTENSION_DURATION;\n\n        // extends auction time if it's about to end\n        if (endTime.sub(currentTime) < extension) {\n            endTime = currentTime.add(extension);\n            auctions[_auctionId].endTime = endTime;\n        }\n        emit BidPlaced(_auctionId, newBuyer, endTime);\n    }\n\n    /// @dev reserves new bid and returns the last one if it exists\n    function reserveBid(\n        address buyAsset,\n        uint128 curProtocolFee,\n        address oldBuyer,\n        address newBuyer,\n        Bid memory oldBid,\n        address proxy,\n        uint newTotalAmount\n    ) internal {\n        // return old bid if theres any\n        _returnBid(\n            oldBid,\n            buyAsset,\n            oldBuyer,\n            curProtocolFee,\n            proxy\n        );\n        \n        //lock new bid\n        transferBid(\n            newTotalAmount,\n            buyAsset,\n            newBuyer,\n            address(this),\n            proxy\n        );\n    }\n\n    /// @dev returns the minimal amount of the next bid (without fees)\n    function getMinimalNextBid(uint _auctionId) external view returns (uint minBid){\n        Auction memory currentAuction = auctions[_auctionId];\n        return _getMinimalNextBid(currentAuction);\n    }\n\n    /// @dev returns the minimal amount of the next bid (without fees)\n    function _getMinimalNextBid(Auction memory currentAuction) internal view returns (uint minBid){\n        if (currentAuction.buyer == address(0x0)) {\n            minBid = currentAuction.minimalPrice;\n        } else {\n            minBid = currentAuction.lastBid.amount.add(currentAuction.lastBid.amount.bp(minimalStepBasePoint));\n        }\n    }\n\n    /// @dev returns true if auction exists, false otherwise\n    function checkAuctionExistence(uint _auctionId) external view returns (bool){\n        return auctions[_auctionId].seller != address(0);\n    }\n\n    /// @dev returns true if auction exists, false otherwise\n    function _checkAuctionExistence(Auction memory currentAuction) internal pure returns (bool){\n        return currentAuction.seller != address(0);\n    }\n\n    /// @dev returns true if newAmount is enough for buyOut\n    function buyOutVerify(LibAucDataV1.DataV1 memory aucData, uint newAmount) internal pure returns (bool) {\n        if (aucData.buyOutPrice > 0 && aucData.buyOutPrice <= newAmount) {\n            return true;\n        }\n        return false;\n    }\n\n    /// @dev finishes, deletes and transfers all assets for an auction if it's ended (it exists, it has at least one bid, now > endTme)\n    function finishAuction(uint _auctionId) external nonReentrant {\n        Auction memory currentAuction = auctions[_auctionId];\n        require(_checkAuctionExistence(currentAuction), \"there is no auction with this id\");\n        LibAucDataV1.DataV1 memory aucData = LibAucDataV1.parse(currentAuction.data, currentAuction.dataType);\n        require(\n            !_checkAuctionRangeTime(currentAuction.endTime, aucData.startTime) &&\n            currentAuction.buyer != address(0),\n            \"only ended auction with bid can be finished\"\n        );\n        uint bidOriginFee = LibBidDataV1.parse(currentAuction.lastBid.data, currentAuction.lastBid.dataType).originFee;\n\n        doTransfers(\n            LibDeal.DealSide(\n                getSellAsset(\n                    currentAuction.sellToken, \n                    currentAuction.sellTokenId,\n                    1,\n                    LibAsset.ERC721_ASSET_CLASS\n                ),\n                getPayouts(currentAuction.seller),\n                getOriginFee(aucData.originFee),\n                proxies[LibAsset.ERC721_ASSET_CLASS],\n                address(this)\n            ), \n            LibDeal.DealSide(\n                getBuyAsset(\n                    currentAuction.buyAsset,\n                    currentAuction.lastBid.amount\n                ),\n                getPayouts(currentAuction.buyer),\n                getOriginFee(bidOriginFee),\n                _getProxy(currentAuction.buyAsset),\n                address(this)\n            ), \n            LibFeeSide.FeeSide.RIGHT, \n            currentAuction.protocolFee\n        );\n        deactivateAuction(_auctionId, currentAuction.sellToken, currentAuction.sellTokenId);\n    }\n\n    /// @dev returns true if auction started and hasn't finished yet, false otherwise\n    function checkAuctionRangeTime(uint _auctionId) external view returns (bool){\n        uint currentTime = block.timestamp;\n        LibAucDataV1.DataV1 memory aucData = LibAucDataV1.parse(auctions[_auctionId].data, auctions[_auctionId].dataType);\n        if (aucData.startTime > 0 && aucData.startTime > currentTime) {\n            return false;\n        }\n        uint endTime = auctions[_auctionId].endTime;\n        if (endTime > 0 && endTime <= currentTime){\n            return false;\n        }\n\n        return true;\n    }\n\n    function _checkAuctionRangeTime(uint endTime, uint startTime) internal view returns (bool){\n        uint currentTime = block.timestamp;\n        if (startTime > 0 && startTime > currentTime) {\n            return false;\n        }\n        if (endTime > 0 && endTime <= currentTime){\n            return false;\n        }\n\n        return true;\n    }\n\n    /// @dev deletes auction after finalizing\n    function deactivateAuction(uint _auctionId, address token, uint tokenId) internal {\n        emit AuctionFinished(_auctionId);\n        deleteAuctionForToken(token, tokenId);\n        delete auctions[_auctionId];\n    }\n\n    /// @dev cancels existing auction without bid\n    function cancel(uint _auctionId) external nonReentrant {\n        Auction memory currentAuction = auctions[_auctionId];\n        require(_checkAuctionExistence(currentAuction), \"there is no auction with this id\");\n        address seller = currentAuction.seller;\n        require(seller == _msgSender(), \"auction owner not detected\");\n        require(currentAuction.buyer == address(0), \"can't cancel auction with bid\");\n        transferNFT(\n            currentAuction.sellToken, \n            currentAuction.sellTokenId, \n            1, \n            LibAsset.ERC721_ASSET_CLASS,\n            address(this),\n            seller\n        );\n        deactivateAuction(_auctionId, currentAuction.sellToken, currentAuction.sellTokenId);\n        emit AuctionCancelled(_auctionId);\n    }\n\n    // todo will there be a problem if buyer is last bidder?\n    /// @dev buyout auction if bid satisfies buyout condition\n    function buyOut(uint _auctionId, Bid memory bid) external payable nonReentrant {\n        Auction memory currentAuction = auctions[_auctionId];\n        LibAucDataV1.DataV1 memory aucData = LibAucDataV1.parse(currentAuction.data, currentAuction.dataType);\n        checkAuctionInProgress(currentAuction, aucData);\n        require(buyOutVerify(aucData, bid.amount), \"not enough for buyout\");\n        uint bidOriginFee = LibBidDataV1.parse(bid.data, bid.dataType).originFee;\n        uint totalAmount = calculateTotalAmount(\n            bid.amount, \n            currentAuction.protocolFee, \n            getOriginFee(bidOriginFee)\n        );\n        address sender = _msgSender();\n        if (currentAuction.buyAsset == address(0)) {\n            checkEthReturnChange(totalAmount, sender);\n        }\n        _buyOut(\n            currentAuction,\n            bid,\n            aucData,\n            _auctionId,\n            bidOriginFee,\n            totalAmount,\n            sender\n        );\n    }\n\n    function _buyOut(\n        Auction memory currentAuction,\n        Bid memory bid,\n        LibAucDataV1.DataV1 memory aucData,\n        uint _auctionId,\n        uint newBidOriginFee,\n        uint newTotalAmount,\n        address sender\n    ) internal {\n        address proxy = _getProxy(currentAuction.buyAsset);\n\n        _returnBid(\n            currentAuction.lastBid,\n            currentAuction.buyAsset,\n            currentAuction.buyer,\n            currentAuction.protocolFee,\n            proxy\n        );\n\n        address from;\n        if (currentAuction.buyAsset == address(0)) {\n            // if buyAsset = ETH\n            from = address(this);\n        } else {\n            // if buyAsset = ERC20\n            from = sender;\n        }\n\n        doTransfers(\n            LibDeal.DealSide(\n                getSellAsset(\n                    currentAuction.sellToken, \n                    currentAuction.sellTokenId,\n                    1,\n                    LibAsset.ERC721_ASSET_CLASS\n                ),\n                getPayouts(currentAuction.seller),\n                getOriginFee(aucData.originFee),\n                proxies[LibAsset.ERC721_ASSET_CLASS],\n                address(this)\n            ), \n            LibDeal.DealSide(\n                getBuyAsset(\n                    currentAuction.buyAsset,\n                    bid.amount\n                ),\n                getPayouts(sender),\n                getOriginFee(newBidOriginFee),\n                proxy,\n                from\n            ), \n            LibFeeSide.FeeSide.RIGHT, \n            currentAuction.protocolFee\n        );\n\n        deactivateAuction(_auctionId, currentAuction.sellToken, currentAuction.sellTokenId);\n        emit AuctionBuyOut(auctionId, sender);\n    }\n\n    /// @dev returns current highest bidder for an auction\n    function getCurrentBuyer(uint _auctionId) public view returns(address) {\n        return auctions[_auctionId].buyer;\n    }\n\n    /// @dev returns true if auction in progress, false otherwise\n    function checkAuctionInProgress(Auction memory currentAuction, LibAucDataV1.DataV1 memory aucData) internal view{\n        require(_checkAuctionExistence(currentAuction) && _checkAuctionRangeTime(currentAuction.endTime, aucData.startTime), \"auction is inactive\");\n    }\n\n    /// @dev function to call from wrapper to put bid\n    function putBidWrapper(uint256 _auctionId) external payable {\n        require(auctions[_auctionId].buyAsset == address(0), \"only ETH bids allowed\");\n        putBid(_auctionId, Bid(msg.value, LibBidDataV1.V1, \"\"));\n    }\n\n    /// @dev Used to withdraw faulty bids (bids that failed to return after out-bidding)\n    function withdrawFaultyBid(address _to) external {\n        address sender = _msgSender();\n        uint amount = readyToWithdraw[sender];\n        require( amount > 0, \"nothing to withdraw\");\n        readyToWithdraw[sender] = 0;\n        _to.transferEth(amount);\n    }\n\n    function _returnBid(\n        Bid memory oldBid,\n        address buyAsset,\n        address oldBuyer,\n        uint128 curProtocolFee,\n        address proxy\n    ) internal {\n        // nothing to return\n        if (oldBuyer == address(0)) {\n            return;\n        }\n        uint oldTotalAmount = calculateTotalAmount(oldBid.amount, curProtocolFee, getOriginFee(LibBidDataV1.parse(oldBid.data, oldBid.dataType).originFee));\n        if (buyAsset == address(0)) {\n            (bool success,) = oldBuyer.call{ value: oldTotalAmount }(\"\");\n            if (!success) {\n                uint currentValueToWithdraw = readyToWithdraw[oldBuyer];\n                uint newValueToWithdraw = oldTotalAmount.add(currentValueToWithdraw);\n                readyToWithdraw[oldBuyer] = newValueToWithdraw;\n                emit AvailableToWithdraw(oldBuyer, oldTotalAmount, newValueToWithdraw);\n            }\n        } else {\n            transferBid(\n                oldTotalAmount,\n                buyAsset,\n                address(this),\n                oldBuyer,\n                proxy\n            );\n        }\n    }\n\n    function _getProxy(address buyAsset) internal view returns(address){\n        address proxy;\n        if (buyAsset != address(0)){\n            proxy = proxies[LibAsset.ERC20_ASSET_CLASS];\n        }\n        return proxy;\n    }\n\n    /// @dev check that msg.value more than bid amount with fees and return change\n    function checkEthReturnChange(uint totalAmount, address buyer) internal {\n        uint msgValue = msg.value;\n        require(msgValue >= totalAmount, \"not enough ETH\");\n        uint256 change = msgValue.sub(totalAmount);\n        if (change > 0) {\n            buyer.transferEth(change);\n        }\n    }\n\n}",
  "sourcePath": "/Users/ds/Documents/rarible/protocol-contracts/auction/contracts/721/AuctionHouse721.sol",
  "compiler": {
    "name": "solc",
    "version": "0.7.6+commit.7338295f.Emscripten.clang"
  },
  "schemaVersion": "3.4.3",
  "updatedAt": "2022-03-16T09:01:23.872Z",
  "devdoc": {
    "details": "contract to create and interact with auctions",
    "kind": "dev",
    "methods": {
      "buyOut(uint256,(uint256,bytes4,bytes))": {
        "details": "buyout auction if bid satisfies buyout condition"
      },
      "cancel(uint256)": {
        "details": "cancels existing auction without bid"
      },
      "checkAuctionExistence(uint256)": {
        "details": "returns true if auction exists, false otherwise"
      },
      "checkAuctionRangeTime(uint256)": {
        "details": "returns true if auction started and hasn't finished yet, false otherwise"
      },
      "finishAuction(uint256)": {
        "details": "finishes, deletes and transfers all assets for an auction if it's ended (it exists, it has at least one bid, now > endTme)"
      },
      "getAuctionByToken(address,uint256)": {
        "details": "returns auction id by token address and token id"
      },
      "getCurrentBuyer(uint256)": {
        "details": "returns current highest bidder for an auction"
      },
      "getMinimalNextBid(uint256)": {
        "details": "returns the minimal amount of the next bid (without fees)"
      },
      "onERC721Received(address,address,uint256,bytes)": {
        "details": "See {IERC721Receiver-onERC721Received}. Always returns `IERC721Receiver.onERC721Received.selector`."
      },
      "owner()": {
        "details": "Returns the address of the current owner."
      },
      "putBid(uint256,(uint256,bytes4,bytes))": {
        "details": "put a bid and return locked assets for the last bid"
      },
      "putBidWrapper(uint256)": {
        "details": "function to call from wrapper to put bid"
      },
      "renounceOwnership()": {
        "details": "Leaves the contract without owner. It will not be possible to call `onlyOwner` functions anymore. Can only be called by the current owner. NOTE: Renouncing ownership will leave the contract without an owner, thereby removing any functionality that is only available to the owner."
      },
      "startAuction(address,uint256,address,uint96,bytes4,bytes)": {
        "details": "creates an auction and locks sell asset"
      },
      "transferOwnership(address)": {
        "details": "Transfers ownership of the contract to a new account (`newOwner`). Can only be called by the current owner."
      },
      "withdrawFaultyBid(address)": {
        "details": "Used to withdraw faulty bids (bids that failed to return after out-bidding)"
      }
    },
    "version": 1
  },
  "userdoc": {
    "kind": "user",
    "methods": {},
    "version": 1
  }
}