{
  "contractName": "WyvernExchange",
  "abi": [
    {
      "constant": true,
      "inputs": [],
      "name": "name",
      "outputs": [
        {
          "name": "",
          "type": "string"
        }
      ],
      "payable": false,
      "stateMutability": "view",
      "type": "function"
    },
    {
      "constant": true,
      "inputs": [],
      "name": "tokenTransferProxy",
      "outputs": [
        {
          "name": "",
          "type": "address"
        }
      ],
      "payable": false,
      "stateMutability": "view",
      "type": "function"
    },
    {
      "constant": true,
      "inputs": [
        {
          "name": "target",
          "type": "address"
        },
        {
          "name": "calldata",
          "type": "bytes"
        },
        {
          "name": "extradata",
          "type": "bytes"
        }
      ],
      "name": "staticCall",
      "outputs": [
        {
          "name": "result",
          "type": "bool"
        }
      ],
      "payable": false,
      "stateMutability": "view",
      "type": "function"
    },
    {
      "constant": false,
      "inputs": [
        {
          "name": "newMinimumMakerProtocolFee",
          "type": "uint256"
        }
      ],
      "name": "changeMinimumMakerProtocolFee",
      "outputs": [],
      "payable": false,
      "stateMutability": "nonpayable",
      "type": "function"
    },
    {
      "constant": false,
      "inputs": [
        {
          "name": "newMinimumTakerProtocolFee",
          "type": "uint256"
        }
      ],
      "name": "changeMinimumTakerProtocolFee",
      "outputs": [],
      "payable": false,
      "stateMutability": "nonpayable",
      "type": "function"
    },
    {
      "constant": true,
      "inputs": [
        {
          "name": "array",
          "type": "bytes"
        },
        {
          "name": "desired",
          "type": "bytes"
        },
        {
          "name": "mask",
          "type": "bytes"
        }
      ],
      "name": "guardedArrayReplace",
      "outputs": [
        {
          "name": "",
          "type": "bytes"
        }
      ],
      "payable": false,
      "stateMutability": "pure",
      "type": "function"
    },
    {
      "constant": true,
      "inputs": [],
      "name": "minimumTakerProtocolFee",
      "outputs": [
        {
          "name": "",
          "type": "uint256"
        }
      ],
      "payable": false,
      "stateMutability": "view",
      "type": "function"
    },
    {
      "constant": true,
      "inputs": [],
      "name": "codename",
      "outputs": [
        {
          "name": "",
          "type": "string"
        }
      ],
      "payable": false,
      "stateMutability": "view",
      "type": "function"
    },
    {
      "constant": true,
      "inputs": [
        {
          "name": "addr",
          "type": "address"
        }
      ],
      "name": "testCopyAddress",
      "outputs": [
        {
          "name": "",
          "type": "bytes"
        }
      ],
      "payable": false,
      "stateMutability": "pure",
      "type": "function"
    },
    {
      "constant": true,
      "inputs": [
        {
          "name": "arrToCopy",
          "type": "bytes"
        }
      ],
      "name": "testCopy",
      "outputs": [
        {
          "name": "",
          "type": "bytes"
        }
      ],
      "payable": false,
      "stateMutability": "pure",
      "type": "function"
    },
    {
      "constant": true,
      "inputs": [
        {
          "name": "addrs",
          "type": "address[7]"
        },
        {
          "name": "uints",
          "type": "uint256[9]"
        },
        {
          "name": "feeMethod",
          "type": "uint8"
        },
        {
          "name": "side",
          "type": "uint8"
        },
        {
          "name": "saleKind",
          "type": "uint8"
        },
        {
          "name": "howToCall",
          "type": "uint8"
        },
        {
          "name": "calldata",
          "type": "bytes"
        },
        {
          "name": "replacementPattern",
          "type": "bytes"
        },
        {
          "name": "staticExtradata",
          "type": "bytes"
        }
      ],
      "name": "calculateCurrentPrice_",
      "outputs": [
        {
          "name": "",
          "type": "uint256"
        }
      ],
      "payable": false,
      "stateMutability": "view",
      "type": "function"
    },
    {
      "constant": false,
      "inputs": [
        {
          "name": "newProtocolFeeRecipient",
          "type": "address"
        }
      ],
      "name": "changeProtocolFeeRecipient",
      "outputs": [],
      "payable": false,
      "stateMutability": "nonpayable",
      "type": "function"
    },
    {
      "constant": true,
      "inputs": [],
      "name": "version",
      "outputs": [
        {
          "name": "",
          "type": "string"
        }
      ],
      "payable": false,
      "stateMutability": "view",
      "type": "function"
    },
    {
      "constant": true,
      "inputs": [
        {
          "name": "buyCalldata",
          "type": "bytes"
        },
        {
          "name": "buyReplacementPattern",
          "type": "bytes"
        },
        {
          "name": "sellCalldata",
          "type": "bytes"
        },
        {
          "name": "sellReplacementPattern",
          "type": "bytes"
        }
      ],
      "name": "orderCalldataCanMatch",
      "outputs": [
        {
          "name": "",
          "type": "bool"
        }
      ],
      "payable": false,
      "stateMutability": "pure",
      "type": "function"
    },
    {
      "constant": true,
      "inputs": [
        {
          "name": "addrs",
          "type": "address[7]"
        },
        {
          "name": "uints",
          "type": "uint256[9]"
        },
        {
          "name": "feeMethod",
          "type": "uint8"
        },
        {
          "name": "side",
          "type": "uint8"
        },
        {
          "name": "saleKind",
          "type": "uint8"
        },
        {
          "name": "howToCall",
          "type": "uint8"
        },
        {
          "name": "calldata",
          "type": "bytes"
        },
        {
          "name": "replacementPattern",
          "type": "bytes"
        },
        {
          "name": "staticExtradata",
          "type": "bytes"
        },
        {
          "name": "v",
          "type": "uint8"
        },
        {
          "name": "r",
          "type": "bytes32"
        },
        {
          "name": "s",
          "type": "bytes32"
        }
      ],
      "name": "validateOrder_",
      "outputs": [
        {
          "name": "",
          "type": "bool"
        }
      ],
      "payable": false,
      "stateMutability": "view",
      "type": "function"
    },
    {
      "constant": false,
      "inputs": [],
      "name": "incrementNonce",
      "outputs": [],
      "payable": false,
      "stateMutability": "nonpayable",
      "type": "function"
    },
    {
      "constant": true,
      "inputs": [
        {
          "name": "side",
          "type": "uint8"
        },
        {
          "name": "saleKind",
          "type": "uint8"
        },
        {
          "name": "basePrice",
          "type": "uint256"
        },
        {
          "name": "extra",
          "type": "uint256"
        },
        {
          "name": "listingTime",
          "type": "uint256"
        },
        {
          "name": "expirationTime",
          "type": "uint256"
        }
      ],
      "name": "calculateFinalPrice",
      "outputs": [
        {
          "name": "",
          "type": "uint256"
        }
      ],
      "payable": false,
      "stateMutability": "view",
      "type": "function"
    },
    {
      "constant": true,
      "inputs": [],
      "name": "protocolFeeRecipient",
      "outputs": [
        {
          "name": "",
          "type": "address"
        }
      ],
      "payable": false,
      "stateMutability": "view",
      "type": "function"
    },
    {
      "constant": false,
      "inputs": [],
      "name": "renounceOwnership",
      "outputs": [],
      "payable": false,
      "stateMutability": "nonpayable",
      "type": "function"
    },
    {
      "constant": true,
      "inputs": [
        {
          "name": "addrs",
          "type": "address[7]"
        },
        {
          "name": "uints",
          "type": "uint256[9]"
        },
        {
          "name": "feeMethod",
          "type": "uint8"
        },
        {
          "name": "side",
          "type": "uint8"
        },
        {
          "name": "saleKind",
          "type": "uint8"
        },
        {
          "name": "howToCall",
          "type": "uint8"
        },
        {
          "name": "calldata",
          "type": "bytes"
        },
        {
          "name": "replacementPattern",
          "type": "bytes"
        },
        {
          "name": "staticExtradata",
          "type": "bytes"
        }
      ],
      "name": "hashOrder_",
      "outputs": [
        {
          "name": "",
          "type": "bytes32"
        }
      ],
      "payable": false,
      "stateMutability": "pure",
      "type": "function"
    },
    {
      "constant": true,
      "inputs": [
        {
          "name": "addrs",
          "type": "address[14]"
        },
        {
          "name": "uints",
          "type": "uint256[18]"
        },
        {
          "name": "feeMethodsSidesKindsHowToCalls",
          "type": "uint8[8]"
        },
        {
          "name": "calldataBuy",
          "type": "bytes"
        },
        {
          "name": "calldataSell",
          "type": "bytes"
        },
        {
          "name": "replacementPatternBuy",
          "type": "bytes"
        },
        {
          "name": "replacementPatternSell",
          "type": "bytes"
        },
        {
          "name": "staticExtradataBuy",
          "type": "bytes"
        },
        {
          "name": "staticExtradataSell",
          "type": "bytes"
        }
      ],
      "name": "ordersCanMatch_",
      "outputs": [
        {
          "name": "",
          "type": "bool"
        }
      ],
      "payable": false,
      "stateMutability": "view",
      "type": "function"
    },
    {
      "constant": false,
      "inputs": [
        {
          "name": "addrs",
          "type": "address[7]"
        },
        {
          "name": "uints",
          "type": "uint256[9]"
        },
        {
          "name": "feeMethod",
          "type": "uint8"
        },
        {
          "name": "side",
          "type": "uint8"
        },
        {
          "name": "saleKind",
          "type": "uint8"
        },
        {
          "name": "howToCall",
          "type": "uint8"
        },
        {
          "name": "calldata",
          "type": "bytes"
        },
        {
          "name": "replacementPattern",
          "type": "bytes"
        },
        {
          "name": "staticExtradata",
          "type": "bytes"
        },
        {
          "name": "orderbookInclusionDesired",
          "type": "bool"
        }
      ],
      "name": "approveOrder_",
      "outputs": [],
      "payable": false,
      "stateMutability": "nonpayable",
      "type": "function"
    },
    {
      "constant": true,
      "inputs": [],
      "name": "registry",
      "outputs": [
        {
          "name": "",
          "type": "address"
        }
      ],
      "payable": false,
      "stateMutability": "view",
      "type": "function"
    },
    {
      "constant": true,
      "inputs": [],
      "name": "minimumMakerProtocolFee",
      "outputs": [
        {
          "name": "",
          "type": "uint256"
        }
      ],
      "payable": false,
      "stateMutability": "view",
      "type": "function"
    },
    {
      "constant": true,
      "inputs": [
        {
          "name": "addrs",
          "type": "address[7]"
        },
        {
          "name": "uints",
          "type": "uint256[9]"
        },
        {
          "name": "feeMethod",
          "type": "uint8"
        },
        {
          "name": "side",
          "type": "uint8"
        },
        {
          "name": "saleKind",
          "type": "uint8"
        },
        {
          "name": "howToCall",
          "type": "uint8"
        },
        {
          "name": "calldata",
          "type": "bytes"
        },
        {
          "name": "replacementPattern",
          "type": "bytes"
        },
        {
          "name": "staticExtradata",
          "type": "bytes"
        }
      ],
      "name": "hashToSign_",
      "outputs": [
        {
          "name": "",
          "type": "bytes32"
        }
      ],
      "payable": false,
      "stateMutability": "pure",
      "type": "function"
    },
    {
      "constant": true,
      "inputs": [
        {
          "name": "",
          "type": "address"
        }
      ],
      "name": "nonces",
      "outputs": [
        {
          "name": "",
          "type": "uint256"
        }
      ],
      "payable": false,
      "stateMutability": "view",
      "type": "function"
    },
    {
      "constant": true,
      "inputs": [
        {
          "name": "",
          "type": "bytes32"
        }
      ],
      "name": "cancelledOrFinalized",
      "outputs": [
        {
          "name": "",
          "type": "bool"
        }
      ],
      "payable": false,
      "stateMutability": "view",
      "type": "function"
    },
    {
      "constant": true,
      "inputs": [],
      "name": "owner",
      "outputs": [
        {
          "name": "",
          "type": "address"
        }
      ],
      "payable": false,
      "stateMutability": "view",
      "type": "function"
    },
    {
      "constant": true,
      "inputs": [],
      "name": "exchangeToken",
      "outputs": [
        {
          "name": "",
          "type": "address"
        }
      ],
      "payable": false,
      "stateMutability": "view",
      "type": "function"
    },
    {
      "constant": false,
      "inputs": [
        {
          "name": "addrs",
          "type": "address[7]"
        },
        {
          "name": "uints",
          "type": "uint256[9]"
        },
        {
          "name": "feeMethod",
          "type": "uint8"
        },
        {
          "name": "side",
          "type": "uint8"
        },
        {
          "name": "saleKind",
          "type": "uint8"
        },
        {
          "name": "howToCall",
          "type": "uint8"
        },
        {
          "name": "calldata",
          "type": "bytes"
        },
        {
          "name": "replacementPattern",
          "type": "bytes"
        },
        {
          "name": "staticExtradata",
          "type": "bytes"
        },
        {
          "name": "v",
          "type": "uint8"
        },
        {
          "name": "r",
          "type": "bytes32"
        },
        {
          "name": "s",
          "type": "bytes32"
        }
      ],
      "name": "cancelOrder_",
      "outputs": [],
      "payable": false,
      "stateMutability": "nonpayable",
      "type": "function"
    },
    {
      "constant": false,
      "inputs": [
        {
          "name": "addrs",
          "type": "address[14]"
        },
        {
          "name": "uints",
          "type": "uint256[18]"
        },
        {
          "name": "feeMethodsSidesKindsHowToCalls",
          "type": "uint8[8]"
        },
        {
          "name": "calldataBuy",
          "type": "bytes"
        },
        {
          "name": "calldataSell",
          "type": "bytes"
        },
        {
          "name": "replacementPatternBuy",
          "type": "bytes"
        },
        {
          "name": "replacementPatternSell",
          "type": "bytes"
        },
        {
          "name": "staticExtradataBuy",
          "type": "bytes"
        },
        {
          "name": "staticExtradataSell",
          "type": "bytes"
        },
        {
          "name": "vs",
          "type": "uint8[2]"
        },
        {
          "name": "rssMetadata",
          "type": "bytes32[5]"
        }
      ],
      "name": "atomicMatch_",
      "outputs": [],
      "payable": true,
      "stateMutability": "payable",
      "type": "function"
    },
    {
      "constant": true,
      "inputs": [
        {
          "name": "addrs",
          "type": "address[7]"
        },
        {
          "name": "uints",
          "type": "uint256[9]"
        },
        {
          "name": "feeMethod",
          "type": "uint8"
        },
        {
          "name": "side",
          "type": "uint8"
        },
        {
          "name": "saleKind",
          "type": "uint8"
        },
        {
          "name": "howToCall",
          "type": "uint8"
        },
        {
          "name": "calldata",
          "type": "bytes"
        },
        {
          "name": "replacementPattern",
          "type": "bytes"
        },
        {
          "name": "staticExtradata",
          "type": "bytes"
        }
      ],
      "name": "validateOrderParameters_",
      "outputs": [
        {
          "name": "",
          "type": "bool"
        }
      ],
      "payable": false,
      "stateMutability": "view",
      "type": "function"
    },
    {
      "constant": true,
      "inputs": [],
      "name": "INVERSE_BASIS_POINT",
      "outputs": [
        {
          "name": "",
          "type": "uint256"
        }
      ],
      "payable": false,
      "stateMutability": "view",
      "type": "function"
    },
    {
      "constant": true,
      "inputs": [
        {
          "name": "addrs",
          "type": "address[14]"
        },
        {
          "name": "uints",
          "type": "uint256[18]"
        },
        {
          "name": "feeMethodsSidesKindsHowToCalls",
          "type": "uint8[8]"
        },
        {
          "name": "calldataBuy",
          "type": "bytes"
        },
        {
          "name": "calldataSell",
          "type": "bytes"
        },
        {
          "name": "replacementPatternBuy",
          "type": "bytes"
        },
        {
          "name": "replacementPatternSell",
          "type": "bytes"
        },
        {
          "name": "staticExtradataBuy",
          "type": "bytes"
        },
        {
          "name": "staticExtradataSell",
          "type": "bytes"
        }
      ],
      "name": "calculateMatchPrice_",
      "outputs": [
        {
          "name": "",
          "type": "uint256"
        }
      ],
      "payable": false,
      "stateMutability": "view",
      "type": "function"
    },
    {
      "constant": true,
      "inputs": [
        {
          "name": "",
          "type": "bytes32"
        }
      ],
      "name": "approvedOrders",
      "outputs": [
        {
          "name": "",
          "type": "bool"
        }
      ],
      "payable": false,
      "stateMutability": "view",
      "type": "function"
    },
    {
      "constant": false,
      "inputs": [
        {
          "name": "newOwner",
          "type": "address"
        }
      ],
      "name": "transferOwnership",
      "outputs": [],
      "payable": false,
      "stateMutability": "nonpayable",
      "type": "function"
    },
    {
      "inputs": [
        {
          "name": "registryAddress",
          "type": "address"
        },
        {
          "name": "tokenTransferProxyAddress",
          "type": "address"
        },
        {
          "name": "tokenAddress",
          "type": "address"
        },
        {
          "name": "protocolFeeAddress",
          "type": "address"
        }
      ],
      "payable": false,
      "stateMutability": "nonpayable",
      "type": "constructor"
    },
    {
      "anonymous": false,
      "inputs": [
        {
          "indexed": true,
          "name": "hash",
          "type": "bytes32"
        },
        {
          "indexed": false,
          "name": "exchange",
          "type": "address"
        },
        {
          "indexed": true,
          "name": "maker",
          "type": "address"
        },
        {
          "indexed": false,
          "name": "taker",
          "type": "address"
        },
        {
          "indexed": false,
          "name": "makerRelayerFee",
          "type": "uint256"
        },
        {
          "indexed": false,
          "name": "takerRelayerFee",
          "type": "uint256"
        },
        {
          "indexed": false,
          "name": "makerProtocolFee",
          "type": "uint256"
        },
        {
          "indexed": false,
          "name": "takerProtocolFee",
          "type": "uint256"
        },
        {
          "indexed": true,
          "name": "feeRecipient",
          "type": "address"
        },
        {
          "indexed": false,
          "name": "feeMethod",
          "type": "uint8"
        },
        {
          "indexed": false,
          "name": "side",
          "type": "uint8"
        },
        {
          "indexed": false,
          "name": "saleKind",
          "type": "uint8"
        },
        {
          "indexed": false,
          "name": "target",
          "type": "address"
        }
      ],
      "name": "OrderApprovedPartOne",
      "type": "event"
    },
    {
      "anonymous": false,
      "inputs": [
        {
          "indexed": true,
          "name": "hash",
          "type": "bytes32"
        },
        {
          "indexed": false,
          "name": "howToCall",
          "type": "uint8"
        },
        {
          "indexed": false,
          "name": "calldata",
          "type": "bytes"
        },
        {
          "indexed": false,
          "name": "replacementPattern",
          "type": "bytes"
        },
        {
          "indexed": false,
          "name": "staticTarget",
          "type": "address"
        },
        {
          "indexed": false,
          "name": "staticExtradata",
          "type": "bytes"
        },
        {
          "indexed": false,
          "name": "paymentToken",
          "type": "address"
        },
        {
          "indexed": false,
          "name": "basePrice",
          "type": "uint256"
        },
        {
          "indexed": false,
          "name": "extra",
          "type": "uint256"
        },
        {
          "indexed": false,
          "name": "listingTime",
          "type": "uint256"
        },
        {
          "indexed": false,
          "name": "expirationTime",
          "type": "uint256"
        },
        {
          "indexed": false,
          "name": "salt",
          "type": "uint256"
        },
        {
          "indexed": false,
          "name": "orderbookInclusionDesired",
          "type": "bool"
        }
      ],
      "name": "OrderApprovedPartTwo",
      "type": "event"
    },
    {
      "anonymous": false,
      "inputs": [
        {
          "indexed": true,
          "name": "hash",
          "type": "bytes32"
        }
      ],
      "name": "OrderCancelled",
      "type": "event"
    },
    {
      "anonymous": false,
      "inputs": [
        {
          "indexed": false,
          "name": "buyHash",
          "type": "bytes32"
        },
        {
          "indexed": false,
          "name": "sellHash",
          "type": "bytes32"
        },
        {
          "indexed": true,
          "name": "maker",
          "type": "address"
        },
        {
          "indexed": true,
          "name": "taker",
          "type": "address"
        },
        {
          "indexed": false,
          "name": "price",
          "type": "uint256"
        },
        {
          "indexed": true,
          "name": "metadata",
          "type": "bytes32"
        }
      ],
      "name": "OrdersMatched",
      "type": "event"
    },
    {
      "anonymous": false,
      "inputs": [
        {
          "indexed": true,
          "name": "maker",
          "type": "address"
        },
        {
          "indexed": false,
          "name": "newNonce",
          "type": "uint256"
        }
      ],
      "name": "NonceIncremented",
      "type": "event"
    },
    {
      "anonymous": false,
      "inputs": [
        {
          "indexed": true,
          "name": "previousOwner",
          "type": "address"
        }
      ],
      "name": "OwnershipRenounced",
      "type": "event"
    },
    {
      "anonymous": false,
      "inputs": [
        {
          "indexed": true,
          "name": "previousOwner",
          "type": "address"
        },
        {
          "indexed": true,
          "name": "newOwner",
          "type": "address"
        }
      ],
      "name": "OwnershipTransferred",
      "type": "event"
    }
  ],
  "bytecode": "0x60806040526000805460ff19168155600781905560085534801561002257600080fd5b5060405160808062005afb83398101604090815281516020830151918301516060909301516000805460028054600160a060020a03958616600160a060020a0319918216179091556003805496861696821696909617909555600180549685169686169690961790955560098054928416929094169190911790925533166101000261010060a860020a031992831681179092169091179055615a3080620000cb6000396000f3006080604052600436106101a85763ffffffff60e060020a60003504166306fdde0381146101ad5780630eefdbad1461023757806310796a471461026857806314350c24146103215780631a6b13e21461033b578063239e83df1461035357806328a8ee681461042857806331e631991461044f5780633464af6a146104645780633e1e292a146104855780633f67ee0d146104de578063514f03301461062357806354fd4d5014610644578063562b2ebc1461065957806360bef33a1461076c578063627cdcb9146108c057806363d36c0b146108d557806364df049e14610902578063715018a61461091757806371d02b381461092c57806372593b4c14610a715780637966686814610c785780637b10399914610dc15780637ccefc5214610dd65780637d76698114610deb5780637ecebe0014610f305780638076f00514610f515780638da5cb5b14610f69578063a25eb5d914610f7e578063a8a41c7014610f93578063ab834bab146110e7578063ca595b9a1461132a578063cae6047f1461146f578063d537e13114611484578063e57d4adb1461168b578063f2fde38b146116a3575b600080fd5b3480156101b957600080fd5b506101c26116c4565b6040805160208082528351818301528351919283929083019185019080838360005b838110156101fc5781810151838201526020016101e4565b50505050905090810190601f1680156102295780820380516001836020036101000a031916815260200191505b509250505060405180910390f35b34801561024357600080fd5b5061024c6116fb565b60408051600160a060020a039092168252519081900360200190f35b34801561027457600080fd5b5060408051602060046024803582810135601f810185900485028601850190965285855261030d958335600160a060020a031695369560449491939091019190819084018382808284375050604080516020601f89358b018035918201839004830284018301909452808352979a99988101979196509182019450925082915084018382808284375094975061170a9650505050505050565b604080519115158252519081900360200190f35b34801561032d57600080fd5b50610339600435611779565b005b34801561034757600080fd5b5061033960043561179e565b34801561035f57600080fd5b506040805160206004803580820135601f81018490048402850184019095528484526101c294369492936024939284019190819084018382808284375050604080516020601f89358b018035918201839004830284018301909452808352979a99988101979196509182019450925082915084018382808284375050604080516020601f89358b018035918201839004830284018301909452808352979a9998810197919650918201945092508291508401838280828437509497506117c39650505050505050565b34801561043457600080fd5b5061043d6117da565b60408051918252519081900360200190f35b34801561045b57600080fd5b506101c26117e0565b34801561047057600080fd5b506101c2600160a060020a0360043516611817565b34801561049157600080fd5b506040805160206004803580820135601f81018490048402850184019095528484526101c29436949293602493928401919081908401838280828437509497506118579650505050505050565b3480156104ea57600080fd5b506040805160e081810190925261043d91369160049160e49190839060079083908390808284375050604080516101208181019092529497969581810195945092506009915083908390808284375050604080516020601f60808901358a0180359182018390048302840183018552818452979a60ff8a3581169b848c013582169b9687013582169a6060880135909216995091975090955060a090940193820191819084018382808284375050604080516020601f89358b018035918201839004830284018301909452808352979a99988101979196509182019450925082915084018382808284375050604080516020601f89358b018035918201839004830284018301909452808352979a99988101979196509182019450925082915084018382808284375094975061189d9650505050505050565b34801561062f57600080fd5b50610339600160a060020a03600435166119eb565b34801561065057600080fd5b506101c2611a3a565b34801561066557600080fd5b506040805160206004803580820135601f810184900484028501840190955284845261030d94369492936024939284019190819084018382808284375050604080516020601f89358b018035918201839004830284018301909452808352979a99988101979196509182019450925082915084018382808284375050604080516020601f89358b018035918201839004830284018301909452808352979a99988101979196509182019450925082915084018382808284375050604080516020601f89358b018035918201839004830284018301909452808352979a999881019791965091820194509250829150840183828082843750949750611a719650505050505050565b34801561077857600080fd5b506040805160e081810190925261030d91369160049160e49190839060079083908390808284375050604080516101208181019092529497969581810195945092506009915083908390808284375050604080516020601f60808901358a0180359182018390048302840183018552818452979a60ff8a3581169b848c013582169b9687013582169a6060880135909216995091975090955060a090940193820191819084018382808284375050604080516020601f89358b018035918201839004830284018301909452808352979a99988101979196509182019450925082915084018382808284375050604080516020601f89358b018035918201839004830284018301909452808352979a9998810197919650918201945092508291508401838280828437509497505050833560ff1694505050602082013591604001359050611aaf565b3480156108cc57600080fd5b50610339611c9e565b3480156108e157600080fd5b5061043d60ff6004358116906024351660443560643560843560a435611cf9565b34801561090e57600080fd5b5061024c611d14565b34801561092357600080fd5b50610339611d23565b34801561093857600080fd5b506040805160e081810190925261043d91369160049160e49190839060079083908390808284375050604080516101208181019092529497969581810195945092506009915083908390808284375050604080516020601f60808901358a0180359182018390048302840183018552818452979a60ff8a3581169b848c013582169b9687013582169a6060880135909216995091975090955060a090940193820191819084018382808284375050604080516020601f89358b018035918201839004830284018301909452808352979a99988101979196509182019450925082915084018382808284375050604080516020601f89358b018035918201839004830284018301909452808352979a999881019791965091820194509250829150840183828082843750949750611d9d9650505050505050565b348015610a7d57600080fd5b50604080516101c081810190925261030d9136916004916101c491908390600e9083908390808284375050604080516102408181019092529497969581810195945092506012915083908390808284375050604080516101008181019092529497969581810195945092506008915083908390808284375050604080516020601f88358a0180359182018390048302840183019094528083529699989781019691955091820193509150819084018382808284375050604080516020601f89358b018035918201839004830284018301909452808352979a99988101979196509182019450925082915084018382808284375050604080516020601f89358b018035918201839004830284018301909452808352979a99988101979196509182019450925082915084018382808284375050604080516020601f89358b018035918201839004830284018301909452808352979a99988101979196509182019450925082915084018382808284375050604080516020601f89358b018035918201839004830284018301909452808352979a99988101979196509182019450925082915084018382808284375050604080516020601f89358b018035918201839004830284018301909452808352979a999881019791965091820194509250829150840183828082843750949750611edd9650505050505050565b348015610c8457600080fd5b506040805160e081810190925261033991369160049160e49190839060079083908390808284375050604080516101208181019092529497969581810195945092506009915083908390808284375050604080516020601f60808901358a0180359182018390048302840183018552818452979a60ff8a3581169b848c013582169b9687013582169a6060880135909216995091975090955060a090940193820191819084018382808284375050604080516020601f89358b018035918201839004830284018301909452808352979a99988101979196509182019450925082915084018382808284375050604080516020601f89358b018035918201839004830284018301909452808352979a9998810197919650918201945092508291508401838280828437509497505050509135151592506122c9915050565b348015610dcd57600080fd5b5061024c61241e565b348015610de257600080fd5b5061043d61242d565b348015610df757600080fd5b506040805160e081810190925261043d91369160049160e49190839060079083908390808284375050604080516101208181019092529497969581810195945092506009915083908390808284375050604080516020601f60808901358a0180359182018390048302840183018552818452979a60ff8a3581169b848c013582169b9687013582169a6060880135909216995091975090955060a090940193820191819084018382808284375050604080516020601f89358b018035918201839004830284018301909452808352979a99988101979196509182019450925082915084018382808284375050604080516020601f89358b018035918201839004830284018301909452808352979a9998810197919650918201945092508291508401838280828437509497506124339650505050505050565b348015610f3c57600080fd5b5061043d600160a060020a0360043516612573565b348015610f5d57600080fd5b5061030d600435612585565b348015610f7557600080fd5b5061024c61259a565b348015610f8a57600080fd5b5061024c6125ae565b348015610f9f57600080fd5b506040805160e081810190925261033991369160049160e49190839060079083908390808284375050604080516101208181019092529497969581810195945092506009915083908390808284375050604080516020601f60808901358a0180359182018390048302840183018552818452979a60ff8a3581169b848c013582169b9687013582169a6060880135909216995091975090955060a090940193820191819084018382808284375050604080516020601f89358b018035918201839004830284018301909452808352979a99988101979196509182019450925082915084018382808284375050604080516020601f89358b018035918201839004830284018301909452808352979a9998810197919650918201945092508291508401838280828437509497505050833560ff16945050506020820135916040013590506125bd565b604080516101c08181019092526103399136916004916101c491908390600e9083908390808284375050604080516102408181019092529497969581810195945092506012915083908390808284375050604080516101008181019092529497969581810195945092506008915083908390808284375050604080516020601f88358a0180359182018390048302840183019094528083529699989781019691955091820193509150819084018382808284375050604080516020601f89358b018035918201839004830284018301909452808352979a99988101979196509182019450925082915084018382808284375050604080516020601f89358b018035918201839004830284018301909452808352979a99988101979196509182019450925082915084018382808284375050604080516020601f89358b018035918201839004830284018301909452808352979a99988101979196509182019450925082915084018382808284375050604080516020601f89358b018035918201839004830284018301909452808352979a99988101979196509182019450925082915084018382808284375050604080516020601f89358b018035918201839004830284018301909452808352979a999881019791965091820194509250829150840183828082843750506040805180820182529598979681810196955093506002925084915083908082843750506040805160a08181019092529497969581810195945092506005915083908390808284375093965061279395505050505050565b34801561133657600080fd5b506040805160e081810190925261030d91369160049160e49190839060079083908390808284375050604080516101208181019092529497969581810195945092506009915083908390808284375050604080516020601f60808901358a0180359182018390048302840183018552818452979a60ff8a3581169b848c013582169b9687013582169a6060880135909216995091975090955060a090940193820191819084018382808284375050604080516020601f89358b018035918201839004830284018301909452808352979a99988101979196509182019450925082915084018382808284375050604080516020601f89358b018035918201839004830284018301909452808352979a999881019791965091820194509250829150840183828082843750949750612ba99650505050505050565b34801561147b57600080fd5b5061043d612d01565b34801561149057600080fd5b50604080516101c081810190925261043d9136916004916101c491908390600e9083908390808284375050604080516102408181019092529497969581810195945092506012915083908390808284375050604080516101008181019092529497969581810195945092506008915083908390808284375050604080516020601f88358a0180359182018390048302840183019094528083529699989781019691955091820193509150819084018382808284375050604080516020601f89358b018035918201839004830284018301909452808352979a99988101979196509182019450925082915084018382808284375050604080516020601f89358b018035918201839004830284018301909452808352979a99988101979196509182019450925082915084018382808284375050604080516020601f89358b018035918201839004830284018301909452808352979a99988101979196509182019450925082915084018382808284375050604080516020601f89358b018035918201839004830284018301909452808352979a99988101979196509182019450925082915084018382808284375050604080516020601f89358b018035918201839004830284018301909452808352979a999881019791965091820194509250829150840183828082843750949750612d079650505050505050565b34801561169757600080fd5b5061030d6004356130e3565b3480156116af57600080fd5b50610339600160a060020a03600435166130f8565b60408051808201909152601781527f50726f6a6563742057797665726e2045786368616e6765000000000000000000602082015281565b600354600160a060020a031681565b60006060600083518551016040519080825280601f01601f191660200182016040528015611742578160200160208202803883390190505b509150506020810161175481856131a0565b905061176081866131a0565b506000604051835160208501895afa9695505050505050565b60005433600160a060020a03908116610100909204161461179957600080fd5b600755565b60005433600160a060020a0390811661010090920416146117be57600080fd5b600855565b60606117d08484846131e6565b50825b9392505050565b60085481565b60408051808201909152600c81527f4c616d62746f6e20576f726d0000000000000000000000000000000000000000602082015281565b60408051601480825281830190925260609182916000916020820161028080388339019050509150506020810161184e818561336d565b50909392505050565b606080600083516040519080825280601f01601f19166020018201604052801561188b578160200160208202803883390190505b509150506020810161184e81856131a0565b604080516102e0810182528a51600160a060020a0390811682526020808d01518216818401528c8401518216838501528b51606080850191909152908c01516080840152928b015160a08301528a83015160c0830152918b015190911660e08201526000906119dd9061010081018a600181111561191757fe5b815260200189600181111561192857fe5b815260200188600181111561193957fe5b815260808d0151600160a060020a0316602082015260400187600181111561195d57fe5b8152602081018790526040810186905260a0808e0151600160a060020a0316606083015260808201869052018c600660209081029190910151600160a060020a031682526080808e01519183019190915260a0808e0151604084015260c08e0151606084015260e08e0151918301919091526101008d015191015261338d565b9a9950505050505050505050565b60005433600160a060020a039081166101009092041614611a0b57600080fd5b6009805473ffffffffffffffffffffffffffffffffffffffff1916600160a060020a0392909216919091179055565b60408051808201909152600381527f322e320000000000000000000000000000000000000000000000000000000000602082015281565b60008084511115611a8757611a878584866131e6565b600082511115611a9c57611a9c8386846131e6565b611aa685846133c3565b95945050505050565b6000611ab9615940565b604080516102e08101909152808f600060209081029190910151600160a060020a03168252018f600160209081029190910151600160a060020a03168252018f600260209081029190910151600160a060020a03168252018e6000602090810291909101518252018e6001602090810291909101518252018e6002602090810291909101518252018e6003602090810291909101518252018f60036020020151600160a060020a031681526020018d6001811115611b7357fe5b81526020018c6001811115611b8457fe5b81526020018b6001811115611b9557fe5b81526020018f60046020020151600160a060020a031681526020018a6001811115611bbc57fe5b8152602081018a9052604081018990526060018f60056020020151600160a060020a031681526020018781526020018f6006600781101515611bfa57fe5b60209081029190910151600160a060020a03168252018e6004602090810291909101518252018e6005602090810291909101518252018e6006602090810291909101518252018e6007602090810291909101518252018e6008602002015190529050611c8c611c6882613427565b6040805160608101825260ff89168152602081018890529081018690528390613472565b9e9d5050505050505050505050505050565b600160a060020a033316600081815260066020908152604091829020805460010190819055825181815292519093927fa82a649bbd060c9099cd7b7326e2b0dc9e9af0836480e0f849dc9eaa79710b3b92908290030190a250565b6000611d0987878787878761363d565b979650505050505050565b600954600160a060020a031681565b60005433600160a060020a039081166101009092041614611d4357600080fd5b60008054604051610100909104600160a060020a0316917ff8df31144d9c2f0f6b59d69b8b98abd5459d07f2742c4df920b25aae33c6482091a26000805474ffffffffffffffffffffffffffffffffffffffff0019169055565b604080516102e0810182528a51600160a060020a0390811682526020808d01518216818401528c8401518216838501528b51606080850191909152908c01516080840152928b015160a08301528a83015160c0830152918b015190911660e08201526000906119dd9061010081018a6001811115611e1757fe5b8152602001896001811115611e2857fe5b8152602001886001811115611e3957fe5b815260808d0151600160a060020a03166020820152604001876001811115611e5d57fe5b8152602081018790526040810186905260a0808e0151600160a060020a0316606083015260808201869052018c600660209081029190910151600160a060020a031682526080808e01519183019190915260a0808e0151604084015260c08e0151606084015260e08e0151918301919091526101008d01519101526136d0565b6000611ee7615940565b611eef615940565b604080516102e08101909152808d600060209081029190910151600160a060020a03168252018d600160209081029190910151600160a060020a03168252018d600260209081029190910151600160a060020a03168252018c6000602090810291909101518252018c6001602090810291909101518252018c6002602090810291909101518252018c6003602090810291909101518252018d600360209081029190910151600160a060020a03168252018b6000602002015160ff166001811115611fb657fe5b6001811115611fc157fe5b81526020018b6001602002015160ff166001811115611fdc57fe5b6001811115611fe757fe5b81526020018b6002602002015160ff16600181111561200257fe5b600181111561200d57fe5b815260808e0151600160a060020a0316602082015260608c015160409091019060ff16600181111561203b57fe5b600181111561204657fe5b8152602081018b90526040810189905260a0808f0151600160a060020a0316606083015260808201889052018d600660209081029190910151600160a060020a03168252018c6004602090810291909101518252018c6005602090810291909101518252018c6006602090810291909101518252018c6007602090810291909101518252018c600860200201519052604080516102e08101909152909250808d600760209081029190910151600160a060020a03168252018d600860209081029190910151600160a060020a03168252018d600960209081029190910151600160a060020a03168252018c6009602090810291909101518252018c600a602090810291909101518252018c600b602090810291909101518252018c600c602090810291909101518252018d600a60209081029190910151600160a060020a03168252018b6004602002015160ff16600181111561219f57fe5b60018111156121aa57fe5b81526020018b6005602002015160ff1660018111156121c557fe5b60018111156121d057fe5b81526020018b6006602002015160ff1660018111156121eb57fe5b60018111156121f657fe5b81526101608e0151600160a060020a0316602082015260e08c015160409091019060ff16600181111561222557fe5b600181111561223057fe5b8152602081018a9052604081018890526101808e0151600160a060020a031660608201526080810186905260a0018d600d60209081029190910151600160a060020a031682526101a08e0151908201526101c08d015160408201526101e08d015160608201526102008d015160808201526102208d015160a09091015290506122b982826138bf565b9c9b505050505050505050505050565b6122d1615940565b604080516102e0810182528c51600160a060020a0390811682526020808f01518216818401528e8401518216838501528d51606080850191909152908e01516080840152928d015160a08301528c83015160c0830152918d015190911660e082015261010081018a600181111561234457fe5b815260200189600181111561235557fe5b815260200188600181111561236657fe5b815260808d0151600160a060020a0316602082015260400187600181111561238a57fe5b8152602081018790526040810186905260a0808e0151600160a060020a0316606083015260808201869052018c600660209081029190910151600160a060020a031682526080808e01519183019190915260a0808e0151604084015260c08e0151606084015260e08e0151918301919091526101008d015191015290506124118183613f87565b5050505050505050505050565b600254600160a060020a031681565b60075481565b604080516102e0810182528a51600160a060020a0390811682526020808d01518216818401528c8401518216838501528b51606080850191909152908c01516080840152928b015160a08301528a83015160c0830152918b015190911660e08201526000906119dd9061010081018a60018111156124ad57fe5b81526020018960018111156124be57fe5b81526020018860018111156124cf57fe5b815260808d0151600160a060020a031660208201526040018760018111156124f357fe5b8152602081018790526040810186905260a0808e0151600160a060020a0316606083015260808201869052018c600660209081029190910151600160a060020a031682526080808e01519183019190915260a0808e0151604084015260c08e0151606084015260e08e0151918301919091526101008d0151910152613427565b60066020526000908152604090205481565b60046020526000908152604090205460ff1681565b6000546101009004600160a060020a031681565b600154600160a060020a031681565b604080516102e0810190915261278590808e600060209081029190910151600160a060020a03168252018e600160209081029190910151600160a060020a03168252018e600260209081029190910151600160a060020a03168252018d6000602090810291909101518252018d6001602090810291909101518252018d6002602090810291909101518252018d6003602090810291909101518252018e60036020020151600160a060020a031681526020018c600181111561267b57fe5b81526020018b600181111561268c57fe5b81526020018a600181111561269d57fe5b815260808f0151600160a060020a031660208201526040018960018111156126c157fe5b815260208101899052604081018890526060018e60056020020151600160a060020a031681526020018681526020018e60066007811015156126ff57fe5b60209081029190910151600160a060020a03168252018d6004602090810291909101518252018d6005602090810291909101518252018d6006602090810291909101518252018d6007602090810291909101518252018d6008602090810291909101519091526040805160608101825260ff8816815291820186905281018490526143eb565b505050505050505050505050565b604080516102e0810182528c51600160a060020a0390811682526020808f01518216818401528e8401518216838501528d51606080850191909152908e01516080840152928d015160a08301528c83015160c0830152918d015190911660e08201528951612411919061010082019060ff16600181111561281057fe5b600181111561281b57fe5b81526020018b6001602002015160ff16600181111561283657fe5b600181111561284157fe5b81526020018b6002602002015160ff16600181111561285c57fe5b600181111561286757fe5b815260808e0151600160a060020a0316602082015260608c015160409091019060ff16600181111561289557fe5b60018111156128a057fe5b8152602081018b90526040810189905260a0808f0151600160a060020a0316606083015260808201889052018d600660209081029190910151600160a060020a03168252018c6004602090810291909101518252018c6005602090810291909101518252018c6006602090810291909101518252018c6007602090810291909101518252018c6008602002015190526040805160608101909152808560006020908102919091015160ff168252018460006020908102919091015182520184600160200201519052604080516102e08101909152808f600760209081029190910151600160a060020a03168252018f600860209081029190910151600160a060020a03168252018f600960209081029190910151600160a060020a03168252018e6009602090810291909101518252018e600a602090810291909101518252018e600b602090810291909101518252018e600c602090810291909101518252018f600a60209081029190910151600160a060020a03168252018d6004602002015160ff166001811115612a2f57fe5b6001811115612a3a57fe5b81526020018d6005602002015160ff166001811115612a5557fe5b6001811115612a6057fe5b81526020018d6006602002015160ff166001811115612a7b57fe5b6001811115612a8657fe5b81526020018f600b60209081029190910151600160a060020a03168252018d6007602002015160ff166001811115612aba57fe5b6001811115612ac557fe5b8152602081018c9052604081018a90526060018f600c6020020151600160a060020a031681526020018781526020018f600d600e81101515612b0357fe5b60209081029190910151600160a060020a03168252018e600d602090810291909101518252018e600e602090810291909101518252018e600f602090810291909101518252018e6010602090810291909101518252018e6011602002015190526040805160608101909152808760016020908102919091015160ff16825201866002602090810291909101518252018660036020020151905285600460200201516144ad565b6000612bb3615940565b604080516102e0810182528c51600160a060020a0390811682526020808f01518216818401528e8401518216838501528d51606080850191909152908e01516080840152928d015160a08301528c83015160c0830152918d015190911660e082015261010081018a6001811115612c2657fe5b8152602001896001811115612c3757fe5b8152602001886001811115612c4857fe5b815260808d0151600160a060020a03166020820152604001876001811115612c6c57fe5b8152602081018790526040810186905260a0808e0151600160a060020a0316606083015260808201869052018c600660209081029190910151600160a060020a031682526080808e01519183019190915260a0808e0151604084015260c08e0151606084015260e08e0151918301919091526101008d01519101529050612cf281614d7b565b9b9a5050505050505050505050565b61271081565b6000612d11615940565b612d19615940565b604080516102e08101909152808d600060209081029190910151600160a060020a03168252018d600160209081029190910151600160a060020a03168252018d600260209081029190910151600160a060020a03168252018c6000602090810291909101518252018c6001602090810291909101518252018c6002602090810291909101518252018c6003602090810291909101518252018d600360209081029190910151600160a060020a03168252018b6000602002015160ff166001811115612de057fe5b6001811115612deb57fe5b81526020018b6001602002015160ff166001811115612e0657fe5b6001811115612e1157fe5b81526020018b6002602002015160ff166001811115612e2c57fe5b6001811115612e3757fe5b815260808e0151600160a060020a0316602082015260608c015160409091019060ff166001811115612e6557fe5b6001811115612e7057fe5b8152602081018b90526040810189905260a0808f0151600160a060020a0316606083015260808201889052018d600660209081029190910151600160a060020a03168252018c6004602090810291909101518252018c6005602090810291909101518252018c6006602090810291909101518252018c6007602090810291909101518252018c600860200201519052604080516102e08101909152909250808d600760209081029190910151600160a060020a03168252018d600860209081029190910151600160a060020a03168252018d600960209081029190910151600160a060020a03168252018c6009602090810291909101518252018c600a602090810291909101518252018c600b602090810291909101518252018c600c602090810291909101518252018d600a60209081029190910151600160a060020a03168252018b6004602002015160ff166001811115612fc957fe5b6001811115612fd457fe5b81526020018b6005602002015160ff166001811115612fef57fe5b6001811115612ffa57fe5b81526020018b6006602002015160ff16600181111561301557fe5b600181111561302057fe5b81526101608e0151600160a060020a0316602082015260e08c015160409091019060ff16600181111561304f57fe5b600181111561305a57fe5b8152602081018a9052604081018890526101808e0151600160a060020a031660608201526080810186905260a0018d600d60209081029190910151600160a060020a031682526101a08e0151908201526101c08d015160408201526101e08d015160608201526102008d015160808201526102208d015160a09091015290506122b98282614e0f565b60056020526000908152604090205460ff1681565b60005433600160a060020a03908116610100909204161461311857600080fd5b600160a060020a038116151561312d57600080fd5b60008054604051600160a060020a038085169361010090930416917f8be0079c531659141344cd1fd0a4f28419497f9722a3daafe3b4186f6b6457e091a360008054600160a060020a039092166101000274ffffffffffffffffffffffffffffffffffffffff0019909216919091179055565b600080825111156131dd57815180602001830160208401855b600183831014156131d45781518152602091820191016131b9565b50505092909201915b50815b92915050565b6000806000845186511415156131fb57600080fd5b835186511461320957600080fd5b855160209004925060208084029250839083041461322357fe5b5060005b828110156132535760010160208102848101518682015191880180519282169119909216179052613227565b60008311156132835782905080600101602002808501518187015181168289015182191617828901525050613365565b50805b855181101561336557848181518110151561329d57fe5b90602001015160f860020a900460f860020a0284828151811015156132be57fe5b90602001015160f860020a900460f860020a021686828151811015156132e057fe5b90602001015160f860020a900460f860020a02858381518110151561330157fe5b90602001015160f860020a900460f860020a0260ff60f860020a02181617868281518110151561332d57fe5b9060200101907effffffffffffffffffffffffffffffffffffffffffffffffffffffffffffff1916908160001a905350600101613286565b505050505050565b600160a060020a03166c0100000000000000000000000002815260140190565b60006133bb826101200151836101400151846102400151856102600151866102800151876102a0015161363d565b90505b919050565b8151815160009160019181148083146133df576000925061341d565b600160208701838101602088015b60028483851001141561341857805183511461340c5760009650600093505b602092830192016133ed565b505050505b5090949350505050565b6000613432826136d0565b604080517f19457468657265756d205369676e6564204d6573736167653a0a3332000000008152601c8101929092525190819003603c0190209050919050565b600061347d83614d7b565b15156134d3576040805160e560020a62461bcd02815260206004820152601960248201527f696e56616c69646174654f72646572506172616d657465727300000000000000604482015290519081900360640190fd5b60008481526004602052604090205460ff161561353a576040805160e560020a62461bcd02815260206004820152601460248201527f63616e63656c6c65644f7246696e616c697a6564000000000000000000000000604482015290519081900360640190fd5b60008481526005602052604090205460ff1615613559575060016117d3565b602080840151835184830151604080870151815160008082528188018085528c905260ff909516818401526060810193909352608083015251600160a060020a039093169360019360a0808401949293601f19830193908390039091019190865af11580156135cc573d6000803e3d6000fd5b50505060206040510351600160a060020a031614156135ed575060016117d3565b6040805160e560020a62461bcd02815260206004820152600c60248201527f72657475726e2066616c73650000000000000000000000000000000000000000604482015290519081900360640190fd5b6000808087600181111561364d57fe5b141561365b578591506136c5565b600187600181111561366957fe5b14156136c557613694613685866136804288614eea565b614efc565b61368f8587614eea565b614f25565b905060018860018111156136a457fe5b14156136bb576136b48682614eea565b91506136c5565b6136b48682614f3a565b509695505050505050565b600080606060006136e085614f47565b9250826040519080825280601f01601f191660200182016040528015613710578160200160208202803883390190505b50915060208201905061372781866000015161336d565b905061373781866020015161336d565b905061374781866040015161336d565b9050613757818660600151614f67565b9050613767818660800151614f67565b9050613777818660a00151614f67565b9050613787818660c00151614f67565b9050613797818660e0015161336d565b90506137b38186610100015160018111156137ae57fe5b614f6f565b90506137ca8186610120015160018111156137ae57fe5b90506137e18186610140015160018111156137ae57fe5b90506137f28186610160015161336d565b90506138098186610180015160018111156137ae57fe5b905061381a81866101a001516131a0565b905061382b81866101c001516131a0565b905061383c81866101e0015161336d565b905061384d818661020001516131a0565b905061385e8186610220015161336d565b905061386f81866102400151614f67565b905061388081866102600151614f67565b905061389181866102800151614f67565b90506138a281866102a00151614f67565b90506138b381866102c00151614f67565b50506020012092915050565b60008083610120015160018111156138d357fe5b1480156138f05750600182610120015160018111156138ee57fe5b145b1515613946576040805160e560020a62461bcd02815260206004820152600760248201527f6d61746368203100000000000000000000000000000000000000000000000000604482015290519081900360640190fd5b816101000151600181111561395757fe5b836101000151600181111561396857fe5b146139bd576040805160e560020a62461bcd02815260206004820152600760248201527f6d61746368203200000000000000000000000000000000000000000000000000604482015290519081900360640190fd5b816102200151600160a060020a0316836102200151600160a060020a0316141515613a32576040805160e560020a62461bcd02815260206004820152600760248201527f6d61746368203300000000000000000000000000000000000000000000000000604482015290519081900360640190fd5b6040820151600160a060020a03161580613a6557508260200151600160a060020a03168260400151600160a060020a0316145b1515613abb576040805160e560020a62461bcd02815260206004820152600760248201527f6d61746368203400000000000000000000000000000000000000000000000000604482015290519081900360640190fd5b6040830151600160a060020a03161580613aee57508160200151600160a060020a03168360400151600160a060020a0316145b1515613b44576040805160e560020a62461bcd02815260206004820152600760248201527f6d61746368203500000000000000000000000000000000000000000000000000604482015290519081900360640190fd5b60e0820151600160a060020a0316158015613b6b575060e0830151600160a060020a031615155b80613b98575060e0820151600160a060020a031615801590613b98575060e0830151600160a060020a0316155b1515613bee576040805160e560020a62461bcd02815260206004820152600760248201527f6d61746368203600000000000000000000000000000000000000000000000000604482015290519081900360640190fd5b816101600151600160a060020a0316836101600151600160a060020a0316141515613c63576040805160e560020a62461bcd02815260206004820152600760248201527f6d61746368203700000000000000000000000000000000000000000000000000604482015290519081900360640190fd5b8161018001516001811115613c7457fe5b8361018001516001811115613c8557fe5b14613cda576040805160e560020a62461bcd02815260206004820152600760248201527f6d61746368203800000000000000000000000000000000000000000000000000604482015290519081900360640190fd5b613cee836102800151846102a00151614f7c565b1515613d44576040805160e560020a62461bcd02815260206004820152600760248201527f6d61746368203900000000000000000000000000000000000000000000000000604482015290519081900360640190fd5b613d58826102800151836102a00151614f7c565b1515613dae576040805160e560020a62461bcd02815260206004820152600860248201527f6d61746368203130000000000000000000000000000000000000000000000000604482015290519081900360640190fd5b60008361012001516001811115613dc157fe5b148015613dde575060018261012001516001811115613ddc57fe5b145b8015613e0957508161010001516001811115613df657fe5b8361010001516001811115613e0757fe5b145b8015613e305750816102200151600160a060020a0316836102200151600160a060020a0316145b8015613e6a57506040820151600160a060020a03161580613e6a57508260200151600160a060020a03168260400151600160a060020a0316145b8015613ea457506040830151600160a060020a03161580613ea457508160200151600160a060020a03168360400151600160a060020a0316145b8015613eff575060e0820151600160a060020a0316158015613ed2575060e0830151600160a060020a031615155b80613eff575060e0820151600160a060020a031615801590613eff575060e0830151600160a060020a0316155b8015613f265750816101600151600160a060020a0316836101600151600160a060020a0316145b8015613f5157508161018001516001811115613f3e57fe5b8361018001516001811115613f4f57fe5b145b8015613f6c5750613f6c836102800151846102a00151614f7c565b80156117d357506117d3826102800151836102a00151614f7c565b60008260200151600160a060020a031633600160a060020a0316141515613ff8576040805160e560020a62461bcd02815260206004820152601660248201527f4572726f7220696e20617070726f76654f726465723100000000000000000000604482015290519081900360640190fd5b61400183613427565b60008181526005602052604090205490915060ff161561406b576040805160e560020a62461bcd02815260206004820152601660248201527f4572726f7220696e20617070726f76654f726465723200000000000000000000604482015290519081900360640190fd5b600160056000836000191660001916815260200190815260200160002060006101000a81548160ff0219169083151502179055508260e00151600160a060020a03168360200151600160a060020a031682600019167f90c7f9f5b58c15f0f635bfb99f55d3d78fdbef3559e7d8abf5c81052a527662286600001518760400151886060015189608001518a60a001518b60c001518c61010001518d61012001518e61014001518f6101600151604051808b600160a060020a0316600160a060020a031681526020018a600160a060020a0316600160a060020a0316815260200189815260200188815260200187815260200186815260200185600181111561416f57fe5b60ff16815260200184600181111561418357fe5b60ff16815260200183600181111561419757fe5b60ff168152600160a060020a039092166020830152506040805191829003019950975050505050505050a480600019167fe55393c778364e440d958b39ac1debd99dcfae3775a8a04d1e79124adf6a2d08846101800151856101a00151866101c00151876101e001518861020001518961022001518a61024001518b61026001518c61028001518d6102a001518e6102c001518e604051808d600181111561423b57fe5b60ff16815260200180602001806020018c600160a060020a0316600160a060020a03168152602001806020018b600160a060020a0316600160a060020a031681526020018a81526020018981526020018881526020018781526020018681526020018515151515815260200184810384528f818151815260200191508051906020019080838360005b838110156142dc5781810151838201526020016142c4565b50505050905090810190601f1680156143095780820380516001836020036101000a031916815260200191505b5084810383528e818151815260200191508051906020019080838360005b8381101561433f578181015183820152602001614327565b50505050905090810190601f16801561436c5780820380516001836020036101000a031916815260200191505b5084810382528c5181528c516020918201918e019080838360005b8381101561439f578181015183820152602001614387565b50505050905090810190601f1680156143cc5780820380516001836020036101000a031916815260200191505b509f5050505050505050505050505050505060405180910390a2505050565b60006143f78383614f98565b90508260200151600160a060020a031633600160a060020a0316141515614468576040805160e560020a62461bcd02815260206004820152601460248201527f4572726f7220696e2063616e63656c4f72646572000000000000000000000000604482015290519081900360640190fd5b600081815260046020526040808220805460ff191660011790555182917f5152abf959f6564662358c2e52b702259b78bac5ee7842a0f01937e670efcc7d91a2505050565b6000805481908190819081908190819060ff16156144ca57600080fd5b6000805460ff1916600117905560208c0151600160a060020a0390811633919091161415614556576144fb8c614d7b565b1515614551576040805160e560020a62461bcd02815260206004820152601e60248201527f4572726f7220696e206578656375746546756e64735472616e73666572380000604482015290519081900360640190fd5b614563565b6145608c8c614f98565b96505b33600160a060020a03168a60200151600160a060020a031614156145e55761458a8a614d7b565b15156145e0576040805160e560020a62461bcd02815260206004820152601e60248201527f4572726f7220696e206578656375746546756e64735472616e73666572390000604482015290519081900360640190fd5b6145f2565b6145ef8a8a614f98565b95505b6145fc8c8b6138bf565b1515614652576040805160e560020a62461bcd02815260206004820152601f60248201527f4572726f7220696e206578656375746546756e64735472616e73666572313000604482015290519081900360640190fd5b6101608a0151803b95509350600085116146b6576040805160e560020a62461bcd02815260206004820152601f60248201527f4572726f7220696e206578656375746546756e64735472616e73666572313100604482015290519081900360640190fd5b60008c6101c001515111156146df576146df8c6101a001518b6101a001518e6101c001516131e6565b60008a6101c00151511115614708576147088a6101a001518d6101a001518c6101c001516131e6565b61471c8c6101a001518b6101a001516133c3565b1515614772576040805160e560020a62461bcd02815260206004820152601f60248201527f4572726f7220696e206578656375746546756e64735472616e73666572313200604482015290519081900360640190fd5b6002546020808c0151604080517fc4552791000000000000000000000000000000000000000000000000000000008152600160a060020a0392831660048201529051919093169263c45527919260248083019391928290030181600087803b1580156147dd57600080fd5b505af11580156147f1573d6000803e3d6000fd5b505050506040513d602081101561480757600080fd5b50519250600160a060020a038316151561486b576040805160e560020a62461bcd02815260206004820152601f60248201527f4572726f7220696e206578656375746546756e64735472616e73666572313300604482015290519081900360640190fd5b600260009054906101000a9004600160a060020a0316600160a060020a03166397204d8e6040518163ffffffff1660e060020a028152600401602060405180830381600087803b1580156148be57600080fd5b505af11580156148d2573d6000803e3d6000fd5b505050506040513d60208110156148e857600080fd5b5051604080517f5c60da1b0000000000000000000000000000000000000000000000000000000081529051600160a060020a0392831692861691635c60da1b9160048083019260209291908290030181600087803b15801561494957600080fd5b505af115801561495d573d6000803e3d6000fd5b505050506040513d602081101561497357600080fd5b5051600160a060020a0316146149d3576040805160e560020a62461bcd02815260206004820152601f60248201527f4572726f7220696e206578656375746546756e64735472616e73666572313400604482015290519081900360640190fd5b8291508b60200151600160a060020a031633600160a060020a0316141515614a0f576000878152600460205260409020805460ff191660011790555b8960200151600160a060020a031633600160a060020a0316141515614a48576000868152600460205260409020805460ff191660011790555b614a528c8b615007565b905081600160a060020a0316631b0f7ba98b61016001518c61018001518d6101a001516040518463ffffffff1660e060020a0281526004018084600160a060020a0316600160a060020a03168152602001836001811115614aaf57fe5b60ff16815260200180602001828103825283818151815260200191508051906020019080838360005b83811015614af0578181015183820152602001614ad8565b50505050905090810190601f168015614b1d5780820380516001836020036101000a031916815260200191505b50945050505050602060405180830381600087803b158015614b3e57600080fd5b505af1158015614b52573d6000803e3d6000fd5b505050506040513d6020811015614b6857600080fd5b50511515614bc0576040805160e560020a62461bcd02815260206004820152601f60248201527f4572726f7220696e206578656375746546756e64735472616e73666572313500604482015290519081900360640190fd5b6101e08c0151600160a060020a031615614c4457614bee8c6101e001518b6101a001518e610200015161170a565b1515614c44576040805160e560020a62461bcd02815260206004820152601f60248201527f4572726f7220696e206578656375746546756e64735472616e73666572313600604482015290519081900360640190fd5b6101e08a0151600160a060020a031615614cc857614c728a6101e001518b6101a001518c610200015161170a565b1515614cc8576040805160e560020a62461bcd02815260206004820152601f60248201527f4572726f7220696e206578656375746546756e64735472616e73666572313700604482015290519081900360640190fd5b60e08a01518890600160a060020a03161515614ce8578a60200151614cee565b8c602001515b60e08c0151600160a060020a0391821691161515614d10578d60200151614d16565b8b602001515b604080518b8152602081018b90528082018690529051600160a060020a0392909216917fc4109843e0b7d514e4c093114b863f8e7d8d9a458c372cd51bfe526b588006c99181900360600190a450506000805460ff1916905550505050505050505050565b600030600160a060020a03168260000151600160a060020a0316141515614da4575060006133be565b614db8826101400151836102a001516157f4565b1515614dc6575060006133be565b60018261010001516001811115614dd957fe5b148015614dfa57506007548260a001511080614dfa57506008548260c00151105b15614e07575060006133be565b506001919050565b6000806000614e40846101200151856101400151866102400151876102600151886102800151896102a0015161363d565b9150614e6e8561012001518661014001518761024001518861026001518961028001518a6102a0015161363d565b905081811015614ec8576040805160e560020a62461bcd02815260206004820152601c60248201527f4572726f7220696e2063616c63756c6174654d61746368507269636500000000604482015290519081900360640190fd5b60e0840151600160a060020a03161515614ee25780611aa6565b509392505050565b600082821115614ef657fe5b50900390565b6000821515614f0d575060006131e0565b50818102818382811515614f1d57fe5b04146131e057fe5b60008183811515614f3257fe5b049392505050565b818101828110156131e057fe5b610200810151516101c0820151516101a08301515101016101b001919050565b815260200190565b6000818353505060010190565b600042831080156117d357508115806117d35750504210919050565b600080614fa484613427565b9050614fb1818585613472565b15156117d3576040805160e560020a62461bcd02815260206004820152601a60248201527f4572726f7220696e207265717569726556616c69644f72646572000000000000604482015290519081900360640190fd5b600080600080600080600080600080600160a060020a03168a6102200151600160a060020a031614151561508b57341561508b576040805160e560020a62461bcd02815260206004820152601e60248201527f4572726f7220696e206578656375746546756e64735472616e73666572310000604482015290519081900360640190fd5b6150958b8b614e0f565b97506000881180156150b457506102208a0151600160a060020a031615155b156150d2576150d28a61022001518c602001518c602001518b615813565b60e08a0151889750879650600160a060020a031615615484576080808c0151908b0151111561514b576040805160e560020a62461bcd02815260206004820152601e60248201527f4572726f7220696e206578656375746546756e64735472616e73666572320000604482015290519081900360640190fd5b60018a6101000151600181111561515e57fe5b14156154515760c0808c0151908b015111156151c4576040805160e560020a62461bcd02815260206004820152601e60248201527f4572726f7220696e206578656375746546756e64735472616e73666572330000604482015290519081900360640190fd5b60008a606001511115615268576151ea6151e28b606001518a614efc565b612710614f25565b6102208b0151909550600160a060020a0316151561524f5761520c8786614eea565b60e08b0151604051919850600160a060020a03169086156108fc029087906000818181858888f19350505050158015615249573d6000803e3d6000fd5b50615268565b6152688a61022001518b602001518c60e0015188615813565b60008a608001511115615304576152866151e28b608001518a614efc565b6102208b0151909450600160a060020a031615156152eb576152a88685614f3a565b60e08b0151604051919750600160a060020a03169085156108fc029086906000818181858888f193505050501580156152e5573d6000803e3d6000fd5b50615304565b6153048a61022001518c602001518c60e0015187615813565b60008a60a0015111156153a8576153226151e28b60a001518a614efc565b6102208b0151909350600160a060020a03161515615385576153448784614eea565b600954604051919850600160a060020a03169084156108fc029085906000818181858888f1935050505015801561537f573d6000803e3d6000fd5b506153a8565b6102208a015160208b01516009546153a8929190600160a060020a031686615813565b60008a60c00151111561544c576153c66151e28b60c001518a614efc565b6102208b0151909250600160a060020a03161515615429576153e88683614f3a565b600954604051919750600160a060020a03169083156108fc029084906000818181858888f19350505050158015615423573d6000803e3d6000fd5b5061544c565b6102208a015160208c015160095461544c929190600160a060020a031685615813565b61547f565b6154688a602001518b60e001518c60600151615923565b61547f8b602001518b60e001518c60800151615923565b6156e6565b6080808b0151908c015111156154e4576040805160e560020a62461bcd02815260206004820152601e60248201527f4572726f7220696e206578656375746546756e64735472616e73666572340000604482015290519081900360640190fd5b60018a610100015160018111156154f757fe5b14156156b8576102208a0151600160a060020a03161515615562576040805160e560020a62461bcd02815260206004820152601e60248201527f4572726f7220696e206578656375746546756e64735472616e73666572350000604482015290519081900360640190fd5b60c0808b0151908c015111156155c2576040805160e560020a62461bcd02815260206004820152601e60248201527f4572726f7220696e206578656375746546756e64735472616e73666572360000604482015290519081900360640190fd5b60008b6060015111156155fb576155e06151e28c606001518a614efc565b94506155fb8a61022001518c602001518d60e0015188615813565b60008b608001511115615634576156196151e28c608001518a614efc565b93506156348a61022001518b602001518d60e0015187615813565b60008b60a001511115615676576156526151e28c60a001518a614efc565b6102208b015160208d015160095492955061567692600160a060020a031686615813565b60008b60c00151111561547f576156946151e28c60c001518a614efc565b6102208b015160208c015160095492945061547f92600160a060020a031685615813565b6156cf8b602001518c60e001518d60600151615923565b6156e68a602001518c60e001518d60800151615923565b6102208a0151600160a060020a031615156157e55734861115615753576040805160e560020a62461bcd02815260206004820152601e60248201527f4572726f7220696e206578656375746546756e64735472616e73666572370000604482015290519081900360640190fd5b8960200151600160a060020a03166108fc889081150290604051600060405180830381858888f19350505050158015615790573d6000803e3d6000fd5b5061579b3487614eea565b905060008111156157e5578a60200151600160a060020a03166108fc829081150290604051600060405180830381858888f193505050501580156157e3573d6000803e3d6000fd5b505b50959998505050505050505050565b60008083600181111561580357fe5b14806117d3575050600010919050565b600081111561591d57600354604080517f15dacbea000000000000000000000000000000000000000000000000000000008152600160a060020a0387811660048301528681166024830152858116604483015260648201859052915191909216916315dacbea9160848083019260209291908290030181600087803b15801561589b57600080fd5b505af11580156158af573d6000803e3d6000fd5b505050506040513d60208110156158c557600080fd5b5051151561591d576040805160e560020a62461bcd02815260206004820152601760248201527f4572726f7220696e207472616e73666572546f6b656e73000000000000000000604482015290519081900360640190fd5b50505050565b60015461593b90600160a060020a0316848484615813565b505050565b604080516102e081018252600080825260208201819052918101829052606081018290526080810182905260a0810182905260c0810182905260e081018290529061010082019081526020016000815260200160008152600060208201819052604090910190815260200160608152602001606081526020016000600160a060020a03168152602001606081526020016000600160a060020a03168152602001600081526020016000815260200160008152602001600081526020016000815250905600a165627a7a72305820aa01aa5207486760fa3cc3ff46f07be796dff76bdf8e2951233ea47f23d66db90029",
  "source": "/*\n\n  << Project Wyvern Exchange >>\n\n*/\n\npragma solidity 0.4.23;\n\nimport \"./exchange/Exchange.sol\";\n\n/**\n * @title WyvernExchange\n * @author Project Wyvern Developers\n */\ncontract WyvernExchange is Exchange {\n\n    string public constant name = \"Project Wyvern Exchange\";\n\n    string public constant version = \"2.2\";\n\n    string public constant codename = \"Lambton Worm\";\n\n    /**\n     * @dev Initialize a WyvernExchange instance\n     * @param registryAddress Address of the registry instance which this Exchange instance will use\n     * @param tokenAddress Address of the token used for protocol fees\n     */\n    constructor (ProxyRegistry registryAddress, TokenTransferProxy tokenTransferProxyAddress, ERC20 tokenAddress, address protocolFeeAddress) public {\n        registry = registryAddress;\n        tokenTransferProxy = tokenTransferProxyAddress;\n        exchangeToken = tokenAddress;\n        protocolFeeRecipient = protocolFeeAddress;\n        owner = msg.sender;\n    }\n\n}\n",
  "sourcePath": "/Users/sergey/Projects/wyvern/wyvern-ethereum/contracts/WyvernExchange.sol",
  "compiler": {
    "name": "solc",
    "version": "0.4.23+commit.124ca40d.Emscripten.clang"
  },
  "schemaVersion": "2.0.0",
  "updatedAt": "2022-02-18T15:20:13.973Z"
}