{
  "contractName": "TestMintContract",
  "abi": [
    {
      "anonymous": false,
      "inputs": [
        {
          "indexed": true,
          "internalType": "address",
          "name": "from",
          "type": "address"
        },
        {
          "indexed": true,
          "internalType": "address",
          "name": "to",
          "type": "address"
        },
        {
          "indexed": true,
          "internalType": "uint256",
          "name": "tokenId",
          "type": "uint256"
        }
      ],
      "name": "Transfer",
      "type": "event"
    },
    {
      "inputs": [
        {
          "internalType": "uint256",
          "name": "number",
          "type": "uint256"
        }
      ],
      "name": "mintSomething",
      "outputs": [],
      "stateMutability": "payable",
      "type": "function"
    }
  ],
  "bytecode": "0x608060405234801561001057600080fd5b506101d3806100206000396000f3fe60806040526004361061001e5760003560e01c8063caefd3c014610023575b600080fd5b61003d600480360381019061003891906100f8565b61003f565b005b60005b818110156100b957803373ffffffffffffffffffffffffffffffffffffffff16600073ffffffffffffffffffffffffffffffffffffffff167fddf252ad1be2c89b69c2b068fc378daa952ba7f163c4a11628f55a4df523b3ef60405160405180910390a480806100b190610154565b915050610042565b5050565b600080fd5b6000819050919050565b6100d5816100c2565b81146100e057600080fd5b50565b6000813590506100f2816100cc565b92915050565b60006020828403121561010e5761010d6100bd565b5b600061011c848285016100e3565b91505092915050565b7f4e487b7100000000000000000000000000000000000000000000000000000000600052601160045260246000fd5b600061015f826100c2565b91507fffffffffffffffffffffffffffffffffffffffffffffffffffffffffffffffff82141561019257610191610125565b5b60018201905091905056fea2646970667358221220e7df8b957de56835024ee44d473972cfbadddc56e9004cf813277ca22ded552464736f6c634300080b0033",
  "immutableReferences": {},
  "source": "// SPDX-License-Identifier: UNLICENSED\npragma solidity ^0.8.0;\n\ncontract TestMintContract {\n\n    /**\n     * @dev Emitted when `tokenId` token is transferred from `from` to `to`.\n     */\n    event Transfer(address indexed from, address indexed to, uint256 indexed tokenId);\n\n    function mintSomething(uint number) public payable {\n        for (uint i = 0; i < number; i++) {\n            emit Transfer(address(0), msg.sender, i);\n        }\n    }\n}\n",
  "sourcePath": "/Users/eugene/Projects/rarible/test-mint-contract/contracts/TestMintContract.sol",
  "compiler": {
    "name": "solc",
    "version": "0.8.11+commit.d7f03943.Emscripten.clang"
  },
  "schemaVersion": "3.4.5",
  "updatedAt": "2023-01-27T13:45:36.482Z",
  "devdoc": {
    "events": {
      "Transfer(address,address,uint256)": {
        "details": "Emitted when `tokenId` token is transferred from `from` to `to`."
      }
    },
    "kind": "dev",
    "methods": {},
    "version": 1
  },
  "userdoc": {
    "kind": "user",
    "methods": {},
    "version": 1
  }
}