{
  "contractName": "ExchangeV2",
  "abi": [
    {
      "anonymous": false,
      "inputs": [
        {
          "indexed": false,
          "internalType": "bytes32",
          "name": "hash",
          "type": "bytes32"
        }
      ],
      "name": "Cancel",
      "type": "event"
    },
    {
      "anonymous": false,
      "inputs": [
        {
          "indexed": false,
          "internalType": "bytes32",
          "name": "leftHash",
          "type": "bytes32"
        },
        {
          "indexed": false,
          "internalType": "bytes32",
          "name": "rightHash",
          "type": "bytes32"
        },
        {
          "indexed": false,
          "internalType": "uint256",
          "name": "newLeftFill",
          "type": "uint256"
        },
        {
          "indexed": false,
          "internalType": "uint256",
          "name": "newRightFill",
          "type": "uint256"
        }
      ],
      "name": "Match",
      "type": "event"
    },
    {
      "anonymous": false,
      "inputs": [
        {
          "indexed": true,
          "internalType": "bytes4",
          "name": "assetType",
          "type": "bytes4"
        },
        {
          "indexed": false,
          "internalType": "address",
          "name": "matcher",
          "type": "address"
        }
      ],
      "name": "MatcherChange",
      "type": "event"
    },
    {
      "anonymous": false,
      "inputs": [
        {
          "indexed": true,
          "internalType": "address",
          "name": "previousOwner",
          "type": "address"
        },
        {
          "indexed": true,
          "internalType": "address",
          "name": "newOwner",
          "type": "address"
        }
      ],
      "name": "OwnershipTransferred",
      "type": "event"
    },
    {
      "anonymous": false,
      "inputs": [
        {
          "indexed": false,
          "internalType": "uint256",
          "name": "oldValue",
          "type": "uint256"
        },
        {
          "indexed": false,
          "internalType": "uint256",
          "name": "newValue",
          "type": "uint256"
        }
      ],
      "name": "ProtocolFeeChanged",
      "type": "event"
    },
    {
      "anonymous": false,
      "inputs": [
        {
          "indexed": true,
          "internalType": "bytes4",
          "name": "assetType",
          "type": "bytes4"
        },
        {
          "indexed": false,
          "internalType": "address",
          "name": "proxy",
          "type": "address"
        }
      ],
      "name": "ProxyChange",
      "type": "event"
    },
    {
      "inputs": [
        {
          "components": [
            {
              "internalType": "address",
              "name": "maker",
              "type": "address"
            },
            {
              "components": [
                {
                  "components": [
                    {
                      "internalType": "bytes4",
                      "name": "assetClass",
                      "type": "bytes4"
                    },
                    {
                      "internalType": "bytes",
                      "name": "data",
                      "type": "bytes"
                    }
                  ],
                  "internalType": "struct LibAsset.AssetType",
                  "name": "assetType",
                  "type": "tuple"
                },
                {
                  "internalType": "uint256",
                  "name": "value",
                  "type": "uint256"
                }
              ],
              "internalType": "struct LibAsset.Asset",
              "name": "makeAsset",
              "type": "tuple"
            },
            {
              "internalType": "address",
              "name": "taker",
              "type": "address"
            },
            {
              "components": [
                {
                  "components": [
                    {
                      "internalType": "bytes4",
                      "name": "assetClass",
                      "type": "bytes4"
                    },
                    {
                      "internalType": "bytes",
                      "name": "data",
                      "type": "bytes"
                    }
                  ],
                  "internalType": "struct LibAsset.AssetType",
                  "name": "assetType",
                  "type": "tuple"
                },
                {
                  "internalType": "uint256",
                  "name": "value",
                  "type": "uint256"
                }
              ],
              "internalType": "struct LibAsset.Asset",
              "name": "takeAsset",
              "type": "tuple"
            },
            {
              "internalType": "uint256",
              "name": "salt",
              "type": "uint256"
            },
            {
              "internalType": "uint256",
              "name": "start",
              "type": "uint256"
            },
            {
              "internalType": "uint256",
              "name": "end",
              "type": "uint256"
            },
            {
              "internalType": "bytes4",
              "name": "dataType",
              "type": "bytes4"
            },
            {
              "internalType": "bytes",
              "name": "data",
              "type": "bytes"
            }
          ],
          "internalType": "struct LibOrder.Order",
          "name": "order",
          "type": "tuple"
        }
      ],
      "name": "cancel",
      "outputs": [],
      "stateMutability": "nonpayable",
      "type": "function"
    },
    {
      "inputs": [],
      "name": "defaultFeeReceiver",
      "outputs": [
        {
          "internalType": "address",
          "name": "",
          "type": "address"
        }
      ],
      "stateMutability": "view",
      "type": "function"
    },
    {
      "inputs": [
        {
          "components": [
            {
              "internalType": "address",
              "name": "bidMaker",
              "type": "address"
            },
            {
              "internalType": "uint256",
              "name": "bidNftAmount",
              "type": "uint256"
            },
            {
              "internalType": "bytes4",
              "name": "nftAssetClass",
              "type": "bytes4"
            },
            {
              "internalType": "bytes",
              "name": "nftData",
              "type": "bytes"
            },
            {
              "internalType": "uint256",
              "name": "bidPaymentAmount",
              "type": "uint256"
            },
            {
              "internalType": "address",
              "name": "paymentToken",
              "type": "address"
            },
            {
              "internalType": "uint256",
              "name": "bidSalt",
              "type": "uint256"
            },
            {
              "internalType": "uint256",
              "name": "bidStart",
              "type": "uint256"
            },
            {
              "internalType": "uint256",
              "name": "bidEnd",
              "type": "uint256"
            },
            {
              "internalType": "bytes4",
              "name": "bidDataType",
              "type": "bytes4"
            },
            {
              "internalType": "bytes",
              "name": "bidData",
              "type": "bytes"
            },
            {
              "internalType": "bytes",
              "name": "bidSignature",
              "type": "bytes"
            },
            {
              "internalType": "uint256",
              "name": "sellOrderPaymentAmount",
              "type": "uint256"
            },
            {
              "internalType": "uint256",
              "name": "sellOrderNftAmount",
              "type": "uint256"
            },
            {
              "internalType": "bytes",
              "name": "sellOrderData",
              "type": "bytes"
            }
          ],
          "internalType": "struct LibDirectTransfer.AcceptBid",
          "name": "direct",
          "type": "tuple"
        }
      ],
      "name": "directAcceptBid",
      "outputs": [],
      "stateMutability": "payable",
      "type": "function"
    },
    {
      "inputs": [
        {
          "components": [
            {
              "internalType": "address",
              "name": "sellOrderMaker",
              "type": "address"
            },
            {
              "internalType": "uint256",
              "name": "sellOrderNftAmount",
              "type": "uint256"
            },
            {
              "internalType": "bytes4",
              "name": "nftAssetClass",
              "type": "bytes4"
            },
            {
              "internalType": "bytes",
              "name": "nftData",
              "type": "bytes"
            },
            {
              "internalType": "uint256",
              "name": "sellOrderPaymentAmount",
              "type": "uint256"
            },
            {
              "internalType": "address",
              "name": "paymentToken",
              "type": "address"
            },
            {
              "internalType": "uint256",
              "name": "sellOrderSalt",
              "type": "uint256"
            },
            {
              "internalType": "uint256",
              "name": "sellOrderStart",
              "type": "uint256"
            },
            {
              "internalType": "uint256",
              "name": "sellOrderEnd",
              "type": "uint256"
            },
            {
              "internalType": "bytes4",
              "name": "sellOrderDataType",
              "type": "bytes4"
            },
            {
              "internalType": "bytes",
              "name": "sellOrderData",
              "type": "bytes"
            },
            {
              "internalType": "bytes",
              "name": "sellOrderSignature",
              "type": "bytes"
            },
            {
              "internalType": "uint256",
              "name": "buyOrderPaymentAmount",
              "type": "uint256"
            },
            {
              "internalType": "uint256",
              "name": "buyOrderNftAmount",
              "type": "uint256"
            },
            {
              "internalType": "bytes",
              "name": "buyOrderData",
              "type": "bytes"
            }
          ],
          "internalType": "struct LibDirectTransfer.Purchase",
          "name": "direct",
          "type": "tuple"
        }
      ],
      "name": "directPurchase",
      "outputs": [],
      "stateMutability": "payable",
      "type": "function"
    },
    {
      "inputs": [
        {
          "internalType": "address",
          "name": "",
          "type": "address"
        }
      ],
      "name": "feeReceivers",
      "outputs": [
        {
          "internalType": "address",
          "name": "",
          "type": "address"
        }
      ],
      "stateMutability": "view",
      "type": "function"
    },
    {
      "inputs": [
        {
          "internalType": "bytes32",
          "name": "",
          "type": "bytes32"
        }
      ],
      "name": "fills",
      "outputs": [
        {
          "internalType": "uint256",
          "name": "",
          "type": "uint256"
        }
      ],
      "stateMutability": "view",
      "type": "function"
    },
    {
      "inputs": [
        {
          "components": [
            {
              "internalType": "address",
              "name": "maker",
              "type": "address"
            },
            {
              "components": [
                {
                  "components": [
                    {
                      "internalType": "bytes4",
                      "name": "assetClass",
                      "type": "bytes4"
                    },
                    {
                      "internalType": "bytes",
                      "name": "data",
                      "type": "bytes"
                    }
                  ],
                  "internalType": "struct LibAsset.AssetType",
                  "name": "assetType",
                  "type": "tuple"
                },
                {
                  "internalType": "uint256",
                  "name": "value",
                  "type": "uint256"
                }
              ],
              "internalType": "struct LibAsset.Asset",
              "name": "makeAsset",
              "type": "tuple"
            },
            {
              "internalType": "address",
              "name": "taker",
              "type": "address"
            },
            {
              "components": [
                {
                  "components": [
                    {
                      "internalType": "bytes4",
                      "name": "assetClass",
                      "type": "bytes4"
                    },
                    {
                      "internalType": "bytes",
                      "name": "data",
                      "type": "bytes"
                    }
                  ],
                  "internalType": "struct LibAsset.AssetType",
                  "name": "assetType",
                  "type": "tuple"
                },
                {
                  "internalType": "uint256",
                  "name": "value",
                  "type": "uint256"
                }
              ],
              "internalType": "struct LibAsset.Asset",
              "name": "takeAsset",
              "type": "tuple"
            },
            {
              "internalType": "uint256",
              "name": "salt",
              "type": "uint256"
            },
            {
              "internalType": "uint256",
              "name": "start",
              "type": "uint256"
            },
            {
              "internalType": "uint256",
              "name": "end",
              "type": "uint256"
            },
            {
              "internalType": "bytes4",
              "name": "dataType",
              "type": "bytes4"
            },
            {
              "internalType": "bytes",
              "name": "data",
              "type": "bytes"
            }
          ],
          "internalType": "struct LibOrder.Order",
          "name": "orderLeft",
          "type": "tuple"
        },
        {
          "internalType": "bytes",
          "name": "signatureLeft",
          "type": "bytes"
        },
        {
          "components": [
            {
              "internalType": "address",
              "name": "maker",
              "type": "address"
            },
            {
              "components": [
                {
                  "components": [
                    {
                      "internalType": "bytes4",
                      "name": "assetClass",
                      "type": "bytes4"
                    },
                    {
                      "internalType": "bytes",
                      "name": "data",
                      "type": "bytes"
                    }
                  ],
                  "internalType": "struct LibAsset.AssetType",
                  "name": "assetType",
                  "type": "tuple"
                },
                {
                  "internalType": "uint256",
                  "name": "value",
                  "type": "uint256"
                }
              ],
              "internalType": "struct LibAsset.Asset",
              "name": "makeAsset",
              "type": "tuple"
            },
            {
              "internalType": "address",
              "name": "taker",
              "type": "address"
            },
            {
              "components": [
                {
                  "components": [
                    {
                      "internalType": "bytes4",
                      "name": "assetClass",
                      "type": "bytes4"
                    },
                    {
                      "internalType": "bytes",
                      "name": "data",
                      "type": "bytes"
                    }
                  ],
                  "internalType": "struct LibAsset.AssetType",
                  "name": "assetType",
                  "type": "tuple"
                },
                {
                  "internalType": "uint256",
                  "name": "value",
                  "type": "uint256"
                }
              ],
              "internalType": "struct LibAsset.Asset",
              "name": "takeAsset",
              "type": "tuple"
            },
            {
              "internalType": "uint256",
              "name": "salt",
              "type": "uint256"
            },
            {
              "internalType": "uint256",
              "name": "start",
              "type": "uint256"
            },
            {
              "internalType": "uint256",
              "name": "end",
              "type": "uint256"
            },
            {
              "internalType": "bytes4",
              "name": "dataType",
              "type": "bytes4"
            },
            {
              "internalType": "bytes",
              "name": "data",
              "type": "bytes"
            }
          ],
          "internalType": "struct LibOrder.Order",
          "name": "orderRight",
          "type": "tuple"
        },
        {
          "internalType": "bytes",
          "name": "signatureRight",
          "type": "bytes"
        }
      ],
      "name": "matchOrders",
      "outputs": [],
      "stateMutability": "payable",
      "type": "function"
    },
    {
      "inputs": [],
      "name": "owner",
      "outputs": [
        {
          "internalType": "address",
          "name": "",
          "type": "address"
        }
      ],
      "stateMutability": "view",
      "type": "function"
    },
    {
      "inputs": [],
      "name": "protocolFee",
      "outputs": [
        {
          "internalType": "uint256",
          "name": "",
          "type": "uint256"
        }
      ],
      "stateMutability": "view",
      "type": "function"
    },
    {
      "inputs": [],
      "name": "renounceOwnership",
      "outputs": [],
      "stateMutability": "nonpayable",
      "type": "function"
    },
    {
      "inputs": [],
      "name": "royaltiesRegistry",
      "outputs": [
        {
          "internalType": "contract IRoyaltiesProvider",
          "name": "",
          "type": "address"
        }
      ],
      "stateMutability": "view",
      "type": "function"
    },
    {
      "inputs": [
        {
          "internalType": "bytes4",
          "name": "assetType",
          "type": "bytes4"
        },
        {
          "internalType": "address",
          "name": "matcher",
          "type": "address"
        }
      ],
      "name": "setAssetMatcher",
      "outputs": [],
      "stateMutability": "nonpayable",
      "type": "function"
    },
    {
      "inputs": [
        {
          "internalType": "address payable",
          "name": "newDefaultFeeReceiver",
          "type": "address"
        }
      ],
      "name": "setDefaultFeeReceiver",
      "outputs": [],
      "stateMutability": "nonpayable",
      "type": "function"
    },
    {
      "inputs": [
        {
          "internalType": "address",
          "name": "token",
          "type": "address"
        },
        {
          "internalType": "address",
          "name": "wallet",
          "type": "address"
        }
      ],
      "name": "setFeeReceiver",
      "outputs": [],
      "stateMutability": "nonpayable",
      "type": "function"
    },
    {
      "inputs": [
        {
          "internalType": "uint64",
          "name": "_protocolFee",
          "type": "uint64"
        }
      ],
      "name": "setProtocolFee",
      "outputs": [],
      "stateMutability": "nonpayable",
      "type": "function"
    },
    {
      "inputs": [
        {
          "internalType": "contract IRoyaltiesProvider",
          "name": "newRoyaltiesRegistry",
          "type": "address"
        }
      ],
      "name": "setRoyaltiesRegistry",
      "outputs": [],
      "stateMutability": "nonpayable",
      "type": "function"
    },
    {
      "inputs": [
        {
          "internalType": "bytes4",
          "name": "assetType",
          "type": "bytes4"
        },
        {
          "internalType": "address",
          "name": "proxy",
          "type": "address"
        }
      ],
      "name": "setTransferProxy",
      "outputs": [],
      "stateMutability": "nonpayable",
      "type": "function"
    },
    {
      "inputs": [
        {
          "internalType": "address",
          "name": "newOwner",
          "type": "address"
        }
      ],
      "name": "transferOwnership",
      "outputs": [],
      "stateMutability": "nonpayable",
      "type": "function"
    },
    {
      "inputs": [
        {
          "internalType": "address",
          "name": "_transferProxy",
          "type": "address"
        },
        {
          "internalType": "address",
          "name": "_erc20TransferProxy",
          "type": "address"
        },
        {
          "internalType": "uint256",
          "name": "newProtocolFee",
          "type": "uint256"
        },
        {
          "internalType": "address",
          "name": "newDefaultFeeReceiver",
          "type": "address"
        },
        {
          "internalType": "contract IRoyaltiesProvider",
          "name": "newRoyaltiesProvider",
          "type": "address"
        }
      ],
      "name": "__ExchangeV2_init",
      "outputs": [],
      "stateMutability": "nonpayable",
      "type": "function"
    }
  ],
  "bytecode": "0x608060405234801561001057600080fd5b5061593680620000216000396000f3fe6080604052600436106101145760003560e01c806367d49a3b116100a0578063b39deb4611610064578063b39deb46146102ad578063e2864fe3146102cd578063e66db25e146102ed578063e99a3f801461030d578063f2fde38b1461032057610114565b806367d49a3b146102465780636d8f069414610259578063715018a61461026e5780638da5cb5b14610283578063b0e21e8a1461029857610114565b806320158c44116100e757806320158c44146101a457806330c642f1146101d15780633abf6fd4146101f15780633be899221461020657806343bc42d31461022657610114565b806302097ab1146101195780630d5f7d351461014f5780631372a625146101645780631cdfe3d814610184575b600080fd5b34801561012557600080fd5b50610139610134366004614ac2565b610340565b6040516101469190615257565b60405180910390f35b61016261015d366004614e53565b61035c565b005b34801561017057600080fd5b5061016261017f366004614d4f565b610681565b34801561019057600080fd5b5061016261019f366004614ac2565b610755565b3480156101b057600080fd5b506101c46101bf366004614e02565b6107da565b60405161014691906152e0565b3480156101dd57600080fd5b506101626101ec366004614e36565b6107ed565b3480156101fd57600080fd5b506101396108bd565b34801561021257600080fd5b50610162610221366004614ac2565b6108cd565b34801561023257600080fd5b506101626102413660046151e7565b610952565b610162610254366004614e53565b6109ff565b34801561026557600080fd5b50610139610ce2565b34801561027a57600080fd5b50610162610cf2565b34801561028f57600080fd5b50610139610d9e565b3480156102a457600080fd5b506101c4610dad565b3480156102b957600080fd5b506101626102c8366004614e36565b610db4565b3480156102d957600080fd5b506101626102e836600461510e565b610e78565b3480156102f957600080fd5b50610162610308366004614d17565b610f39565b61016261031b366004615140565b610fca565b34801561032c57600080fd5b5061016261033b366004614ac2565b610fe0565b610164602052600090815260409020546001600160a01b031681565b600061037661037160c0840160a08501614ac2565b6110e3565b604080516101208101909152909150600090806103966020860186614ac2565b6001600160a01b03168152602001604051806040016040528060405180604001604052808860400160208101906103cd9190614e1a565b6001600160e01b03191681526020016103e960608a018a6156de565b8080601f0160208091040260200160405190810160405280939291908181526020018383808284376000920182905250939094525050918352506020888101359281019290925291835282810191909152604080518082018252868152608080890135938201939093529083015260c080870135606084015260e08701359183019190915261010086013560a08301520161048c61014086016101208701614e1a565b6001600160e01b03191681526020016104a96101408601866156de565b8080601f01602080910402602001604051908101604052809392919081815260200183838082843760009201829052509390945250506040805161012081018252828152815180830183528781526101808901356020828101919091528201528082018390528151608081018352949550919391925060608084019291829182820191829161053d91908c01908c01614e1a565b6001600160e01b031916815260200161055960608b018b6156de565b8080601f0160208091040260200160405190810160405280939291908181526020018383808284376000920182905250939094525050918352506101a089013560209283015291835282018190526040820181905260608201526080016105d06105cb61014088016101208901614e1a565b611149565b6001600160e01b03191681526020016105ed6101c08701876156de565b8080601f01602080910402602001604051908101604052809392919081815260200183838082843760009201919091525050509152509050610671826106376101608701876156de565b8080601f0160208091040260200160405190810160405280939291908181526020018383808284376000920191909152506111cf92505050565b61067b82826111e6565b50505050565b600054610100900460ff168061069a575061069a611444565b806106a8575060005460ff16155b6106e35760405162461bcd60e51b815260040180806020018281038252602e815260200180615870602e913960400191505060405180910390fd5b600054610100900460ff1615801561070e576000805460ff1961ff0019909116610100171660011790555b610716611455565b61071e6114f7565b61072886866115f0565b61073384848461169a565b61073b611776565b801561074d576000805461ff00191690555b505050505050565b61075d611846565b6001600160a01b031661076e610d9e565b6001600160a01b0316146107b7576040805162461bcd60e51b815260206004820181905260248201526000805160206158e1833981519152604482015290519081900360640190fd5b61016380546001600160a01b0319166001600160a01b0392909216919091179055565b61012f6020526000908152604090205481565b6107f5611846565b6001600160a01b0316610806610d9e565b6001600160a01b03161461084f576040805162461bcd60e51b815260206004820181905260248201526000805160206158e1833981519152604482015290519081900360640190fd5b6001600160e01b031982166000818152609760205260409081902080546001600160a01b0319166001600160a01b038516179055517f4b5aced933c0c9a88aeac3f0b3b72c5aaf75df8ebaf53225773248c4c3153593906108b1908490615257565b60405180910390a25050565b610163546001600160a01b031681565b6108d5611846565b6001600160a01b03166108e6610d9e565b6001600160a01b03161461092f576040805162461bcd60e51b815260206004820181905260248201526000805160206158e1833981519152604482015290519081900360640190fd5b61016280546001600160a01b0319166001600160a01b0392909216919091179055565b61095a611846565b6001600160a01b031661096b610d9e565b6001600160a01b0316146109b4576040805162461bcd60e51b815260206004820181905260248201526000805160206158e1833981519152604482015290519081900360640190fd5b7fb51bef650ff5ad43303dbe2e500a74d4fd1bdc9ae05f046bece330e82ae0ba8761016154826040516109e89291906156c7565b60405180910390a16001600160401b031661016155565b6000610a1461037160c0840160a08501614ac2565b60408051610120810190915290915060009080610a346020860186614ac2565b6001600160a01b0316815260200160405180604001604052808581526020018660800135815250815260200160006001600160a01b0316815260200160405180604001604052806040518060400160405280886040016020810190610a999190614e1a565b6001600160e01b0319168152602001610ab560608a018a6156de565b8080601f016020809104026020016040519081016040528093929190818152602001838380828437600092019190915250505091525081526020878101359181019190915290825260c08601359082015260e085013560408201526101008501356060820152608001610b3061014086016101208701614e1a565b6001600160e01b0319168152602001610b4d6101408601866156de565b8080601f01602080910402602001604051908101604052809392919081815260200183838082843760009201829052509390945250506040805161012081018252828152815160808101835294955091939192506020830191908190818101908190610bbf9060608c01908c01614e1a565b6001600160e01b0319168152602001610bdb60608b018b6156de565b8080601f0160208091040260200160405190810160405280939291908181526020018383808284376000920182905250939094525050918352506101a08901356020928301529183528281018290526040805180820182528881526101808a013592810192909252830152606082018190526080820181905260a082015260c001610c716105cb61014088016101208901614e1a565b6001600160e01b0319168152602001610c8e6101c08701876156de565b8080601f01602080910402602001604051908101604052809392919081815260200183838082843760009201919091525050509152509050610cd8826106376101608701876156de565b61067b81836111e6565b610162546001600160a01b031681565b610cfa611846565b6001600160a01b0316610d0b610d9e565b6001600160a01b031614610d54576040805162461bcd60e51b815260206004820181905260248201526000805160206158e1833981519152604482015290519081900360640190fd5b6033546040516000916001600160a01b0316907f8be0079c531659141344cd1fd0a4f28419497f9722a3daafe3b4186f6b6457e0908390a3603380546001600160a01b0319169055565b6033546001600160a01b031690565b6101615481565b610dbc611846565b6001600160a01b0316610dcd610d9e565b6001600160a01b031614610e16576040805162461bcd60e51b815260206004820181905260248201526000805160206158e1833981519152604482015290519081900360640190fd5b6001600160e01b031982166000818152606560205260409081902080546001600160a01b0319166001600160a01b038516179055517fd2bf91075f105d0fd80328da28e20ebdad1c1261839711183bc29a44cbe6c72f906108b1908490615257565b80516001600160a01b0316610e8b611846565b6001600160a01b031614610eba5760405162461bcd60e51b8152600401610eb19061562e565b60405180910390fd5b6080810151610edb5760405162461bcd60e51b8152600401610eb1906153df565b6000610ee68261184a565b600081815261012f6020526040908190206000199055519091507fe8d9861dbc9c663ed3accd261bbe2fe01e0d3d9e5f51fa38523b265c7757a93a90610f2d9083906152e0565b60405180910390a15050565b610f41611846565b6001600160a01b0316610f52610d9e565b6001600160a01b031614610f9b576040805162461bcd60e51b815260206004820181905260248201526000805160206158e1833981519152604482015290519081900360640190fd5b6001600160a01b0391821660009081526101646020526040902080546001600160a01b03191691909216179055565b610fd6848484846119d2565b61067b84836111e6565b610fe8611846565b6001600160a01b0316610ff9610d9e565b6001600160a01b031614611042576040805162461bcd60e51b815260206004820181905260248201526000805160206158e1833981519152604482015290519081900360640190fd5b6001600160a01b0381166110875760405162461bcd60e51b81526004018080602001828103825260268152602001806157db6026913960400191505060405180910390fd5b6033546040516001600160a01b038084169216907f8be0079c531659141344cd1fd0a4f28419497f9722a3daafe3b4186f6b6457e090600090a3603380546001600160a01b0319166001600160a01b0392909216919091179055565b6110eb614601565b6110f3614601565b6001600160a01b038316611110576355575f5d60e11b8152611141565b6322ba176160e21b815260405161112b908490602001615257565b60408051601f1981840301815291905260208201525b90505b919050565b60006001600160e01b03198216632fa3cfd360e01b141561118b57507f1b18cdf6be079a715471a3705c2d89e1d730066ce14915cb307cc3e4a90c92d4611144565b6001600160e01b03198216630d8c66fb60e11b14156111cb57507f2fa3cfd36fc2a11048e46a7dac1916c392731880ba073f2b7f10566b2fd6133e611144565b5090565b6111d882611a9e565b6111e28282611b68565b5050565b6000806111f38484611e24565b9150915060008060006112068787611ebd565b92509250925060008061136b6040518060a0016040528060405180604001604052808b8152602001876000015181525081526020018760000151815260200187602001518152602001609760008b600001516001600160e01b0319166001600160e01b031916815260200190815260200160002060009054906101000a90046001600160a01b03166001600160a01b031681526020018b600001516001600160a01b03168152506040518060a0016040528060405180604001604052808b8152602001886020015181525081526020018760000151815260200187602001518152602001609760008b600001516001600160e01b0319166001600160e01b031916815260200190815260200160002060009054906101000a90046001600160a01b03166001600160a01b031681526020018b600001516001600160a01b03168152506113668a600001518a600001518e60e001518e60e001518c8c611f6c565b611fcf565b885191935091506001600160e01b0319166355575f5d60e11b14156113ea5785516001600160e01b0319166355575f5d60e11b14156113a957600080fd5b813410156113c95760405162461bcd60e51b8152600401610eb190615606565b813411156113e5576113e56113de34846120de565b3390612140565b611439565b85516001600160e01b0319166355575f5d60e11b141561143957803410156114245760405162461bcd60e51b8152600401610eb190615606565b80341115611439576114396113de34836120de565b505050505050505050565b600061144f306121dd565b15905090565b600054610100900460ff168061146e575061146e611444565b8061147c575060005460ff16155b6114b75760405162461bcd60e51b815260040180806020018281038252602e815260200180615870602e913960400191505060405180910390fd5b600054610100900460ff161580156114e2576000805460ff1961ff0019909116610100171660011790555b80156114f4576000805461ff00191690555b50565b600054610100900460ff16806115105750611510611444565b8061151e575060005460ff16155b6115595760405162461bcd60e51b815260040180806020018281038252602e815260200180615870602e913960400191505060405180910390fd5b600054610100900460ff16158015611584576000805460ff1961ff0019909116610100171660011790555b600061158e611846565b603380546001600160a01b0319166001600160a01b038316908117909155604051919250906000907f8be0079c531659141344cd1fd0a4f28419497f9722a3daafe3b4186f6b6457e0908290a35080156114f4576000805461ff001916905550565b60976020527f4532fa16f071d6234e30e1a1e69b9806f04095edf37a1ca7a25c8d6af7861cc080546001600160a01b039283166001600160a01b0319918216179091557f30a684095c937b5aa064dcf94f9903a7d808e3efb22d8389dbd43080ad4ed3d5805493909216928116831790915563025ceed960e61b6000527f4b5822151ea34b7c8d9e37c3e466bcecb631efe6a9f26a4a4054110a93dd316f80549091169091179055565b600054610100900460ff16806116b357506116b3611444565b806116c1575060005460ff16155b6116fc5760405162461bcd60e51b815260040180806020018281038252602e815260200180615870602e913960400191505060405180910390fd5b600054610100900460ff16158015611727576000805460ff1961ff0019909116610100171660011790555b61016184905561016380546001600160a01b038086166001600160a01b031992831617909255610162805492851692909116919091179055801561067b576000805461ff001916905550505050565b600054610100900460ff168061178f575061178f611444565b8061179d575060005460ff16155b6117d85760405162461bcd60e51b815260040180806020018281038252602e815260200180615870602e913960400191505060405180910390fd5b600054610100900460ff16158015611803576000805460ff1961ff0019909116610100171660011790555b6114e26040518060400160405280600881526020016745786368616e676560c01b815250604051806040016040528060018152602001601960f91b8152506121e3565b3390565b60e08101516000906001600160e01b031916632611a13360e11b148061187e575060e08201516001600160e01b0319908116145b156118f3578151602083015151611894906122a3565b6060840151516118a3906122a3565b846080015160405160200180856001600160a01b03168152602001848152602001838152602001828152602001945050505050604051602081830303815290604052805190602001209050611144565b8151602083015151611904906122a3565b606084015151611913906122a3565b846080015185610100015160405160200180866001600160a01b0316815260200185815260200184815260200183815260200180602001828103825283818151815260200191508051906020019080838360005b8381101561197f578181015183820152602001611967565b50505050905090810190601f1680156119ac5780820380516001836020036101000a031916815260200191505b509650505050505050604051602081830303815290604052805190602001209050611144565b6119dc84846111cf565b6119e682826111cf565b60408401516001600160a01b031615611a425781516001600160a01b031615611a425783604001516001600160a01b031682600001516001600160a01b031614611a425760405162461bcd60e51b8152600401610eb1906155c3565b60408201516001600160a01b03161561067b5783516001600160a01b03161561067b5783600001516001600160a01b031682604001516001600160a01b03161461067b5760405162461bcd60e51b8152600401610eb1906154c7565b60a08101511580611ab25750428160a00151105b611b03576040805162461bcd60e51b815260206004820152601d60248201527f4f726465722073746172742076616c69646174696f6e206661696c6564000000604482015290519081900360640190fd5b60c08101511580611b175750428160c00151115b6114f4576040805162461bcd60e51b815260206004820152601b60248201527f4f7264657220656e642076616c69646174696f6e206661696c65640000000000604482015290519081900360640190fd5b6080820151611bed5781516001600160a01b031615611be85781516001600160a01b0316611b94611846565b6001600160a01b031614611be8576040805162461bcd60e51b815260206004820152601660248201527536b0b5b2b91034b9903737ba103a3c1039b2b73232b960511b604482015290519081900360640190fd5b6111e2565b81516001600160a01b0316611c00611846565b6001600160a01b0316146111e2576000611c198361230d565b90506000825160411415611c3d57611c3a83611c34846123fd565b90612449565b90505b83516001600160a01b03828116911614611ddd578351611c65906001600160a01b03166121dd565b15611da1578351630b135d3f60e11b906001600160a01b0316631626ba7e611c8c856123fd565b866040518363ffffffff1660e01b81526004018083815260200180602001828103825283818151815260200191508051906020019080838360005b83811015611cdf578181015183820152602001611cc7565b50505050905090810190601f168015611d0c5780820380516001836020036101000a031916815260200191505b50935050505060206040518083038186803b158015611d2a57600080fd5b505afa158015611d3e573d6000803e3d6000fd5b505050506040513d6020811015611d5457600080fd5b50516001600160e01b03191614611d9c5760405162461bcd60e51b815260040180806020018281038252602b815260200180615845602b913960400191505060405180910390fd5b611dd8565b60405162461bcd60e51b81526004018080602001828103825260228152602001806158236022913960400191505060405180910390fd5b61067b565b83516001600160a01b031661067b576040805162461bcd60e51b815260206004820152600860248201526737379036b0b5b2b960c11b604482015290519081900360640190fd5b611e2c614601565b611e34614601565b602084015151606084015151611e4a91906124c9565b80519092506001600160e01b031916611e755760405162461bcd60e51b8152600401610eb190615597565b606084015151602084015151611e8b91906124c9565b80519091506001600160e01b031916611eb65760405162461bcd60e51b8152600401610eb190615597565b9250929050565b611ec5614619565b611ecd614619565b611ed5614643565b6000611ee08661184a565b90506000611eed8661184a565b90506000611ef9611846565b88519091506001600160a01b0316611f18576001600160a01b03811688525b86516001600160a01b0316611f34576001600160a01b03811687525b611f3d88612509565b9550611f4887612509565b9450611f60888885858a604001518a604001516126f2565b93505050509250925092565b611f7461465d565b611f7d85612856565b8152611f8987876128a3565b81604001906002811115611f9957fe5b90816002811115611fa657fe5b81525050611fc08585858585604001518660000151612974565b60208201529695505050505050565b8251602090810151835190910151600183604001516002811115611fef57fe5b141561203957612009858585600001518660200151612b2a565b9150612034846000015160000151856000015160200151866080015188602001518860600151612da6565b6120d6565b60028360400151600281111561204b57fe5b141561209057612065848685600001518660200151612b2a565b9050612034856000015160000151866000015160200151876080015187602001518960600151612da6565b8451805160209182015160808801519287015160608901516120b3949190612da6565b8351805160209182015160808701519288015160608801516120d6949190612da6565b935093915050565b600082821115612135576040805162461bcd60e51b815260206004820152601e60248201527f536166654d6174683a207375627472616374696f6e206f766572666c6f770000604482015290519081900360640190fd5b508082035b92915050565b6040516000906001600160a01b0384169083908381818185875af1925050503d806000811461218b576040519150601f19603f3d011682016040523d82523d6000602084013e612190565b606091505b50509050806121d8576040805162461bcd60e51b815260206004820152600f60248201526e1d1c985b9cd9995c8819985a5b1959608a1b604482015290519081900360640190fd5b505050565b3b151590565b600054610100900460ff16806121fc57506121fc611444565b8061220a575060005460ff16155b6122455760405162461bcd60e51b815260040180806020018281038252602e815260200180615870602e913960400191505060405180910390fd5b600054610100900460ff16158015612270576000805460ff1961ff0019909116610100171660011790555b825160208085019190912083519184019190912060c99190915560ca5580156121d8576000805461ff0019169055505050565b8051602091820151805190830120604080517f452a0dc408cb0d27ffc3b3caff933a5208040a53a9dbecd8d89cad2c0d40e00c818601526001600160e01b031990931683820152606080840192909252805180840390920182526080909201909152805191012090565b60007f477ed43b8020849b755512278536c3766a3b4ab547519949a75f483372493f8d82600001516123428460200151612f2a565b84604001516123548660600151612f2a565b86608001518760a001518860c001518960e001518a610100015180519060200120604051602001808b81526020018a6001600160a01b03168152602001898152602001886001600160a01b03168152602001878152602001868152602001858152602001848152602001836001600160e01b03191681526020018281526020019a5050505050505050505050604051602081830303815290604052805190602001209050919050565b6000612407612f9a565b82604051602001808061190160f01b81525060020183815260200182815260200192505050604051602081830303815290604052805190602001209050919050565b600081516041146124a1576040805162461bcd60e51b815260206004820152601f60248201527f45434453413a20696e76616c6964207369676e6174757265206c656e67746800604482015290519081900360640190fd5b60208201516040830151606084015160001a6124bf86828585612fda565b9695505050505050565b6124d1614601565b60006124dd8484613232565b80519091506001600160e01b031916612502576124fa8385613232565b91505061213a565b905061213a565b612511614619565b60e08201516001600160e01b031916632611a13360e11b141561255257600061253e83610100015161344e565b8051835260209081015190830152506126d9565b60e08201516001600160e01b0319166323d235ef60e01b141561259f57600061257f83610100015161346a565b8051835260208082015190840152604090810151151590830152506126d9565b60e08201516001600160e01b031916632fa3cfd360e01b141561260c5760006125cc836101000151613486565b90506125db81600001516134a2565b8252602081015160408201516125f19190613505565b602083015260016040830152606090810151908201526126d9565b60e08201516001600160e01b031916630d8c66fb60e11b1415612670576000612639836101000151613668565b905061264881600001516134a2565b82526020810151604082015161265e9190613505565b602083015250600060408201526126d9565b60e08201516001600160e01b0319908116141561268c576126d9565b6040805162461bcd60e51b815260206004820152601760248201527f556e6b6e6f776e204f7264657220646174612074797065000000000000000000604482015290519081900360640190fd5b8051516111445781516126eb90613684565b8152919050565b6126fa614643565b600061270a88608001518761371f565b9050600061271c88608001518761371f565b9050600061272e8a8a85858a8a613744565b9050600081602001511180156127445750805115155b6127605760405162461bcd60e51b8152600401610eb190615537565b60808a0151156127b357851561279257805161277d9084906137ca565b600089815261012f60205260409020556127b3565b60208101516127a29084906137ca565b600089815261012f60205260409020555b6080890151156128065784156127e85760208101516127d39083906137ca565b600088815261012f6020526040902055612806565b80516127f59083906137ca565b600088815261012f60205260409020555b602081015181516040517f956cd63ee4cdcd81fda5f0ec7c6c36dceda99e1b412f4a650a5d26055dc3c45092612841928c928c9291906152e9565b60405180910390a19998505050505050505050565b60006001600160e01b03198216632fa3cfd360e01b148061288757506001600160e01b03198216630d8c66fb60e11b145b1561289b57612894613824565b9050611144565b506000919050565b60006001600160e01b031983166355575f5d60e11b14156128c65750600161213a565b6001600160e01b031982166355575f5d60e11b14156128e75750600261213a565b6001600160e01b031983166322ba176160e21b14156129085750600161213a565b6001600160e01b031982166322ba176160e21b14156129295750600261213a565b6001600160e01b0319831663025ceed960e61b141561294a5750600161213a565b6001600160e01b0319821663025ceed960e61b141561296b5750600261213a565b50600092915050565b60006001600160e01b03198716632fa3cfd360e01b148015906129a857506001600160e01b03198616632fa3cfd360e01b14155b80156129c557506001600160e01b03198716630d8c66fb60e11b14155b80156129e257506001600160e01b03198616630d8c66fb60e11b14155b156129ef575060006124bf565b6000612a04838760200151876020015161382b565b905060006001856002811115612a1657fe5b1415612a73575060608501516001600160e01b03198916630d8c66fb60e11b148015612a5257506001600160e01b03198816632fa3cfd360e01b145b612a6e5760405162461bcd60e51b8152600401610eb19061540d565b612ae4565b6002856002811115612a8157fe5b1415612ad9575060608601516001600160e01b03198816630d8c66fb60e11b148015612abd57506001600160e01b03198916632fa3cfd360e01b145b612a6e5760405162461bcd60e51b8152600401610eb19061549f565b6000925050506124bf565b600081118015612af45750818110155b8015612b0257506103e88111155b612b1e5760405162461bcd60e51b8152600401610eb190615479565b98975050505050505050565b6000612b44856000015160200151848760400151856138aa565b90506000612b6e828760000151602001518860800151878a60000151600001518b6060015161390a565b865180518751516020808a015193015160808b015160608c0151959650612b9c9593949293879291906139d0565b90508560400151516001148015612bb857508460400151516001145b8015612c0d57508560400151600081518110612bd057fe5b6020026020010151600001516001600160a01b03168560400151600081518110612bf657fe5b6020026020010151600001516001600160a01b0316145b15612d2357604080516001808252818301909252600091816020015b612c31614688565b815260200190600190039081612c295790505090508560400151600081518110612c5757fe5b60200260200101516000015181600081518110612c7057fe5b60209081029190910101516001600160a01b03909116905260408701518051600090612c9857fe5b6020026020010151602001518660400151600081518110612cb557fe5b6020026020010151602001510181600081518110612ccf57fe5b6020026020010151602001906001600160601b031690816001600160601b031681525050612d1987600001516000015183896000015160200151848b608001518c60600151613ad5565b509150612d7c9050565b612d4d8660000151600001518288600001516020015189604001518a608001518b60600151613ad5565b5086518051602090910151604088015160808a015160608b0151949550612d78948693929190613ad5565b5090505b612d9d86600001516000015182886080015188602001518a60600151612da6565b50949350505050565b6000825111612dc75760405162461bcd60e51b8152600401610eb190615435565b600084815b6001855103811015612e96576000612e0d868381518110612de957fe5b6020026020010151602001516001600160601b031689613b8a90919063ffffffff16565b9050612e42868381518110612e1e57fe5b6020026020010151602001516001600160601b0316856137ca90919063ffffffff16565b93508015612e8d57612e5483826120de565b9250612e8d60405180604001604052808b81526020018381525088888581518110612e7b57fe5b60200260200101516000015188613ba2565b50600101612dcc565b50600084600186510381518110612ea957fe5b60200260200101519050612ed381602001516001600160601b0316846137ca90919063ffffffff16565b92508261271014612ef65760405162461bcd60e51b8152600401610eb190615560565b8115612f2057612f2060405180604001604052808a81526020018481525087836000015187613ba2565b5050505050505050565b60007fdb6f72e915676cfc289da13bc4ece054fd17b1df6d77ffc4a60510718c236b08612f5a83600001516122a3565b8360200151604051602001808481526020018381526020018281526020019350505050604051602081830303815290604052805190602001209050919050565b6000612fd57f8b73c3c69bb8fe3d512ecc4cf759cc79239f7b179b0ffacaa9a75d522b39400f612fc8613f8a565b612fd0613f90565b613f96565b905090565b60007f7fffffffffffffffffffffffffffffff5d576e7357a4501ddfe92f46681b20a082111561303b5760405162461bcd60e51b81526004018080602001828103825260228152602001806158016022913960400191505060405180910390fd5b6000601e8560ff161115613115576004850360ff16601b148061306457506004850360ff16601c145b61309f5760405162461bcd60e51b815260040180806020018281038252602281526020018061589e6022913960400191505060405180910390fd5b60016130aa87613ff8565b60048703868660405160008152602001604052604051808581526020018460ff1681526020018381526020018281526020019450505050506020604051602081039080840390855afa158015613104573d6000803e3d6000fd5b5050506020604051035190506131cc565b8460ff16601b148061312a57508460ff16601c145b6131655760405162461bcd60e51b815260040180806020018281038252602281526020018061589e6022913960400191505060405180910390fd5b60018686868660405160008152602001604052604051808581526020018460ff1681526020018381526020018281526020019450505050506020604051602081039080840390855afa1580156131bf573d6000803e3d6000fd5b5050506020604051035190505b6001600160a01b038116613227576040805162461bcd60e51b815260206004820152601860248201527f45434453413a20696e76616c6964207369676e61747572650000000000000000604482015290519081900360640190fd5b90505b949350505050565b61323a614601565b825182516001600160e01b031982166355575f5d60e11b14156132a5576001600160e01b031981166355575f5d60e11b141561327a57849250505061213a565b505060408051808201825260008082528251602081810190945290815291810191909152905061213a565b6001600160e01b031982166322ba176160e21b14156132ea576001600160e01b031981166322ba176160e21b141561327a576132e18585614049565b9250505061213a565b6001600160e01b031982166339d690a360e11b1415613326576001600160e01b031981166339d690a360e11b141561327a576132e18585614049565b6001600160e01b0319821663025ceed960e61b1415613362576001600160e01b0319811663025ceed960e61b141561327a576132e18585614049565b6001600160e01b031982166000908152606560205260409020546001600160a01b03168015613417576040516306d3f7cb60e41b81526001600160a01b03821690636d3f7cb0906133b99089908990600401615653565b60006040518083038186803b1580156133d157600080fd5b505afa1580156133e5573d6000803e3d6000fd5b505050506040513d6000823e601f3d908101601f1916820160405261340d9190810190614e85565b935050505061213a565b6001600160e01b031983811690831614156134365761340d8686614049565b60405162461bcd60e51b8152600401610eb190615371565b61345661469f565b8180602001905181019061213a9190614f10565b6134726146b9565b8180602001905181019061213a9190614f9c565b61348e6146dc565b8180602001905181019061213a91906150a6565b60608082156111415760408051600180825281830190925290816020015b6134c8614688565b8152602001906001900390816134c05790505090506134e6836140a6565b816000815181106134f357fe5b60200260200101819052509050919050565b6060806000841180156135185750600083115b15613593576040805160028082526060820190925290816020015b61353b614688565b815260200190600190039081613533579050509050613559846140a6565b8160008151811061356657fe5b602002602001018190525061357a836140a6565b8160018151811061358757fe5b60200260200101819052505b6000841180156135a1575082155b156135fa5760408051600180825281830190925290816020015b6135c3614688565b8152602001906001900390816135bb5790505090506135e1846140a6565b816000815181106135ee57fe5b60200260200101819052505b831580156136085750600083115b156136615760408051600180825281830190925290816020015b61362a614688565b815260200190600190039081613622579050509050613648836140a6565b8160008151811061365557fe5b60200260200101819052505b9392505050565b61367061470e565b8180602001905181019061213a9190615048565b60408051600180825281830190925260609160009190816020015b6136a7614688565b81526020019060019003908161369f57905050905082816000815181106136ca57fe5b6020026020010151600001906001600160a01b031690816001600160a01b031681525050612710816000815181106136fe57fe5b6020908102919091018101516001600160601b039092169101529050919050565b60008261372e5750600061213a565b50600090815261012f6020526040902054919050565b61374c614643565b60008061375a8988876140ce565b9150915060008061376c8a89886140ce565b915091508381111561379f5761379484848c60200151602001518d6060015160200151614147565b9450505050506124bf565b6137bb8b60200151602001518c606001516020015184846141cc565b9b9a5050505050505050505050565b600082820183811015613661576040805162461bcd60e51b815260206004820152601b60248201527f536166654d6174683a206164646974696f6e206f766572666c6f770000000000604482015290519081900360640190fd5b6101615490565b600083815b845181101561386b5784818151811061384557fe5b6020026020010151602001516001600160601b0316820191508080600101915050613830565b5060005b8351811015612d9d5783818151811061388457fe5b6020026020010151602001516001600160601b031682019150808060010191505061386f565b600081156138b957508361322a565b60006138cf6138c88787613b8a565b87906137ca565b905060005b8451811015613900576138f66138ef868381518110612de957fe5b83906137ca565b91506001016138d4565b5095945050505050565b600080600061391a898988614252565b909250905080156139c45784516000906001600160e01b0319166322ba176160e21b141561396157856020015180602001905181019061395a9190614ade565b905061399a565b85516001600160e01b03191663025ceed960e61b141561399a57600086602001518060200190518101906139959190614cea565b509150505b6139c2604051806040016040528088815260200184815250896139bc84614274565b88613ba2565b505b50979650505050505050565b6000806139dc886142b3565b9050805160011480156139f0575086516001145b8015613a3d575086600081518110613a0457fe5b6020026020010151600001516001600160a01b031681600081518110613a2657fe5b6020026020010151600001516001600160a01b0316145b15613a8e5761138881600081518110613a5257fe5b6020026020010151602001516001600160601b03161115613a855760405162461bcd60e51b8152600401610eb1906153a8565b85915050613aca565b600080613a9f8b8989868a8a613ad5565b91509150611388811115613ac55760405162461bcd60e51b8152600401610eb1906153a8565b509150505b979650505050505050565b846000805b8551811015613b7e57613b16868281518110613af257fe5b6020026020010151602001516001600160601b0316836137ca90919063ffffffff16565b91506000613b458489898581518110613b2b57fe5b6020026020010151602001516001600160601b0316614252565b90945090508015613b7557613b7560405180604001604052808c81526020018381525087898581518110612e7b57fe5b50600101613ada565b50965096945050505050565b6000613661612710613b9c8585614428565b90614481565b8351516001600160e01b0319166339d690a360e11b1415613ce857600080856000015160200151806020019051810190613bdc9190614cea565b915091508560200151600114613c045760405162461bcd60e51b8152600401610eb19061550b565b6001600160a01b038516301415613c7c57604051632142170760e11b81526001600160a01b038316906342842e0e90613c459030908890869060040161526b565b600060405180830381600087803b158015613c5f57600080fd5b505af1158015613c73573d6000803e3d6000fd5b50505050613ce1565b604051637b84dc8360e11b81526001600160a01b0384169063f709b90690613cae908590899089908790600401615347565b600060405180830381600087803b158015613cc857600080fd5b505af1158015613cdc573d6000803e3d6000fd5b505050505b505061067b565b8351516001600160e01b0319166322ba176160e21b1415613e2b576000846000015160200151806020019051810190613d219190614ade565b90506001600160a01b038416301415613dbd57602085015160405163a9059cbb60e01b81526001600160a01b0383169163a9059cbb91613d659187916004016152c7565b602060405180830381600087803b158015613d7f57600080fd5b505af1158015613d93573d6000803e3d6000fd5b505050506040513d601f19601f82011682018060405250810190613db79190614de8565b50613e25565b602085015160405163776062c360e01b81526001600160a01b0384169163776062c391613df291859189918991600401615347565b600060405180830381600087803b158015613e0c57600080fd5b505af1158015613e20573d6000803e3d6000fd5b505050505b5061067b565b8351516001600160e01b03191663025ceed960e61b1415613ee857600080856000015160200151806020019051810190613e659190614cea565b90925090506001600160a01b038516301415613eb0576020860151604051637921219560e11b81526001600160a01b0384169163f242432a91613c459130918991879160040161528f565b6020860151604051639c1c2ee960e01b81526001600160a01b03851691639c1c2ee991613cae9186918a918a91889190600401615304565b8351516001600160e01b0319166355575f5d60e11b1415613f2c576001600160a01b0382163014611dd8576020840151611dd8906001600160a01b03841690612140565b6040516354bc0cf160e01b81526001600160a01b038216906354bc0cf190613f5c90879087908790600401615681565b600060405180830381600087803b158015613f7657600080fd5b505af1158015612f20573d6000803e3d6000fd5b60c95490565b60ca5490565b6000838383613fa36144e8565b3060405160200180868152602001858152602001848152602001838152602001826001600160a01b03168152602001955050505050506040516020818303038152906040528051906020012090509392505050565b604080517f19457468657265756d205369676e6564204d6573736167653a0a333200000000602080830191909152603c8083019490945282518083039094018452605c909101909152815191012090565b614051614601565b6020808401518051908201208382015180519201919091208082141561407b57849250505061213a565b5050604080518082018252600080825282516020808201909452908152918101919091529392505050565b6140ae614688565b8115611144576001600160a01b038216815260a09190911c602082015290565b600080821561410d5760208086015101516140e990856120de565b9150614106856060015160200151866020015160200151846144ec565b90506120d6565b60608501516020015161412090856120de565b905061413d856020015160200151866060015160200151836144ec565b9150935093915050565b61414f614643565b600061415c8585856144ec565b9050858111156141b3576040805162461bcd60e51b815260206004820152601860248201527f66696c6c4c6566743a20756e61626c6520746f2066696c6c0000000000000000604482015290519081900360640190fd5b5050604080518082019091529384525050602082015290565b6141d4614643565b60006141e18387876144ec565b905083811115614238576040805162461bcd60e51b815260206004820152601960248201527f66696c6c52696768743a20756e61626c6520746f2066696c6c00000000000000604482015290519081900360640190fd5b604080518082019091529283526020830152509392505050565b600080614268856142638686613b8a565b61454a565b91509150935093915050565b6001600160a01b0380821660009081526101646020526040812054909116801561429f579050611144565b5050610163546001600160a01b0316919050565b80516060906001600160e01b03191663025ceed960e61b14806142e7575081516001600160e01b0319166339d690a360e11b145b1561439d5760008083602001518060200190518101906143079190614cea565b61016254604051634e53ee3d60e11b81529294509092506001600160a01b031690639ca7dc7a9061433e90859085906004016152c7565b600060405180830381600087803b15801561435857600080fd5b505af115801561436c573d6000803e3d6000fd5b505050506040513d6000823e601f3d908101601f191682016040526143949190810190614db6565b92505050611144565b81516001600160e01b03191662737ea960e61b14156143de57600082602001518060200190518101906143d09190614afa565b608001519250611144915050565b81516001600160e01b03191663d8f960c160e01b141561442057600082602001518060200190518101906144129190614bf7565b606001519250611144915050565b506060919050565b6000826144375750600061213a565b8282028284828161444457fe5b04146136615760405162461bcd60e51b81526004018080602001828103825260218152602001806158c06021913960400191505060405180910390fd5b60008082116144d7576040805162461bcd60e51b815260206004820152601a60248201527f536166654d6174683a206469766973696f6e206279207a65726f000000000000604482015290519081900360640190fd5b8183816144e057fe5b049392505050565b4690565b60006144f9848484614572565b1561453c576040805162461bcd60e51b815260206004820152600e60248201526d3937bab73234b7339032b93937b960911b604482015290519081900360640190fd5b61322a83613b9c8685614428565b600080828411156145695761455f84846120de565b9150829050611eb6565b50600093915050565b6000826145b9576040805162461bcd60e51b815260206004820152601060248201526f6469766973696f6e206279207a65726f60801b604482015290519081900360640190fd5b8115806145c4575083155b156145d157506000613661565b600083806145db57fe5b85840990506145ea8584614428565b6145f6826103e8614428565b101595945050505050565b60408051808201909152600081526060602082015290565b60405180608001604052806060815260200160608152602001600015158152602001600081525090565b604051806040016040528060008152602001600081525090565b604051806060016040528060008152602001600081526020016000600281111561468357fe5b905290565b604080518082019091526000808252602082015290565b604051806040016040528060608152602001606081525090565b604051806060016040528060608152602001606081526020016000151581525090565b6040518060a0016040528060008152602001600081526020016000815260200160008152602001600080191681525090565b6040518060800160405280600081526020016000815260200160008152602001600080191681525090565b8035611144816157af565b600082601f830112614754578081fd5b8151602061476961476483615745565b615722565b82815281810190858301855b8581101561479e5761478c898684518b01016148cd565b84529284019290840190600101614775565b5090979650505050505050565b600082601f8301126147bb578081fd5b815160206147cb61476483615745565b828152818101908583016040808602880185018910156147e9578687fd5b865b868110156148585781838b031215614801578788fd5b81518281018181106001600160401b038211171561481b57fe5b83528351614828816157af565b8152838701516001600160601b038116811461484257898afd5b81880152855293850193918101916001016147eb565b509198975050505050505050565b8051801515811461114457600080fd5b8035611144816157c4565b600082601f830112614891578081fd5b813561489f61476482615762565b8181528460208386010111156148b3578283fd5b816020850160208301379081016020019190915292915050565b600082601f8301126148dd578081fd5b81516148eb61476482615762565b8181528460208386010111156148ff578283fd5b61322a826020830160208701615783565b60006101e08284031215614922578081fd5b50919050565b6000604080838503121561493a578182fd5b80518181016001600160401b03828210818311171561495557fe5b81845282945085358181111561496a57600080fd5b860180880385131561497b57600080fd5b60808401838110838211171561498d57fe5b90945283359361499c856157c4565b938252602084013593818511156149b257600080fd5b6149be88868301614881565b60608501525050815260209384013593019290925292915050565b60006101208083850312156149ec578182fd5b6149f581615722565b915050614a0182614739565b815260208201356001600160401b0380821115614a1d57600080fd5b614a2985838601614928565b6020840152614a3a60408501614739565b60408401526060840135915080821115614a5357600080fd5b614a5f85838601614928565b60608401526080840135608084015260a084013560a084015260c084013560c0840152614a8e60e08501614876565b60e084015261010091508184013581811115614aa957600080fd5b614ab586828701614881565b8385015250505092915050565b600060208284031215614ad3578081fd5b8135613661816157af565b600060208284031215614aef578081fd5b8151613661816157af565b60008060408385031215614b0c578081fd5b8251614b17816157af565b60208401519092506001600160401b0380821115614b33578283fd5b9084019060c08287031215614b46578283fd5b614b5060c0615722565b82518152602083015182811115614b65578485fd5b614b71888286016148cd565b60208301525060408301516040820152606083015182811115614b92578485fd5b614b9e888286016147ab565b606083015250608083015182811115614bb5578485fd5b614bc1888286016147ab565b60808301525060a083015182811115614bd8578485fd5b614be488828601614744565b60a0830152508093505050509250929050565b60008060408385031215614c09578182fd5b8251614c14816157af565b60208401519092506001600160401b0380821115614c30578283fd5b9084019060a08287031215614c43578283fd5b614c4d60a0615722565b82518152602083015182811115614c62578485fd5b614c6e888286016148cd565b602083015250604083015182811115614c85578485fd5b614c91888286016147ab565b604083015250606083015182811115614ca8578485fd5b614cb4888286016147ab565b606083015250608083015182811115614ccb578485fd5b614cd788828601614744565b6080830152508093505050509250929050565b60008060408385031215614cfc578182fd5b8251614d07816157af565b6020939093015192949293505050565b60008060408385031215614d29578182fd5b8235614d34816157af565b91506020830135614d44816157af565b809150509250929050565b600080600080600060a08688031215614d66578081fd5b8535614d71816157af565b94506020860135614d81816157af565b9350604086013592506060860135614d98816157af565b91506080860135614da8816157af565b809150509295509295909350565b600060208284031215614dc7578081fd5b81516001600160401b03811115614ddc578182fd5b61322a848285016147ab565b600060208284031215614df9578081fd5b61366182614866565b600060208284031215614e13578081fd5b5035919050565b600060208284031215614e2b578081fd5b8135613661816157c4565b60008060408385031215614e48578182fd5b8235614d34816157c4565b600060208284031215614e64578081fd5b81356001600160401b03811115614e79578182fd5b61322a84828501614910565b600060208284031215614e96578081fd5b81516001600160401b0380821115614eac578283fd5b9083019060408286031215614ebf578283fd5b604051604081018181108382111715614ed457fe5b6040528251614ee2816157c4565b8152602083015182811115614ef5578485fd5b614f01878286016148cd565b60208301525095945050505050565b600060208284031215614f21578081fd5b81516001600160401b0380821115614f37578283fd5b9083019060408286031215614f4a578283fd5b604051604081018181108382111715614f5f57fe5b604052825182811115614f70578485fd5b614f7c878286016147ab565b825250602083015182811115614f90578485fd5b614f01878286016147ab565b600060208284031215614fad578081fd5b81516001600160401b0380821115614fc3578283fd5b9083019060608286031215614fd6578283fd5b604051606081018181108382111715614feb57fe5b604052825182811115614ffc578485fd5b615008878286016147ab565b82525060208301518281111561501c578485fd5b615028878286016147ab565b60208301525061503a60408401614866565b604082015295945050505050565b600060808284031215615059578081fd5b604051608081018181106001600160401b038211171561507557fe5b8060405250825181526020830151602082015260408301516040820152606083015160608201528091505092915050565b600060a082840312156150b7578081fd5b60405160a081018181106001600160401b03821117156150d357fe5b806040525082518152602083015160208201526040830151604082015260608301516060820152608083015160808201528091505092915050565b60006020828403121561511f578081fd5b81356001600160401b03811115615134578182fd5b61322a848285016149d9565b60008060008060808587031215615155578182fd5b84356001600160401b038082111561516b578384fd5b615177888389016149d9565b9550602087013591508082111561518c578384fd5b61519888838901614881565b945060408701359150808211156151ad578384fd5b6151b9888389016149d9565b935060608701359150808211156151ce578283fd5b506151db87828801614881565b91505092959194509250565b6000602082840312156151f8578081fd5b81356001600160401b0381168114613661578182fd5b600063ffffffff60e01b82511683526020820151604060208501528051806040860152615242816060870160208501615783565b601f01601f1916939093016060019392505050565b6001600160a01b0391909116815260200190565b6001600160a01b039384168152919092166020820152604081019190915260600190565b6001600160a01b0394851681529290931660208301526040820152606081019190915260a06080820181905260009082015260c00190565b6001600160a01b03929092168252602082015260400190565b90815260200190565b93845260208401929092526040830152606082015260800190565b6001600160a01b03958616815293851660208501529190931660408301526060820192909252608081019190915260c060a0820181905260009082015260e00190565b6001600160a01b039485168152928416602084015292166040820152606081019190915260800190565b60208082526017908201527f6e6f7420666f756e64204941737365744d617463686572000000000000000000604082015260600190565b6020808252601d908201527f526f79616c746965732061726520746f6f206869676820283e35302529000000604082015260600190565b6020808252601490820152730c081cd85b1d0818d85b89dd081899481d5cd95960621b604082015260600190565b6020808252600e908201526d77726f6e6720563320747970653160901b604082015260600190565b60208082526024908201527f7472616e736665725061796f7574733a206e6f7468696e6720746f207472616e60408201526339b332b960e11b606082015260800190565b6020808252600c908201526b77726f6e67206d617846656560a01b604082015260600190565b6020808252600e908201526d3bb937b733902b19903a3cb8329960911b604082015260600190565b60208082526024908201527f72696768744f726465722e74616b657220766572696669636174696f6e2066616040820152631a5b195960e21b606082015260800190565b60208082526012908201527132b9319b9918903b30b63ab29032b93937b960711b604082015260600190565b6020808252600f908201526e1b9bdd1a1a5b99c81d1bc8199a5b1b608a1b604082015260600190565b6020808252601e908201527f53756d207061796f75747320427073206e6f7420657175616c20313030250000604082015260600190565b6020808252601290820152710c2e6e6cae8e640c8dedc4ee840dac2e8c6d60731b604082015260600190565b60208082526023908201527f6c6566744f726465722e74616b657220766572696669636174696f6e206661696040820152621b195960ea1b606082015260800190565b6020808252600e908201526d0dcdee840cadcdeeaced040cae8d60931b604082015260600190565b6020808252600b908201526a3737ba10309036b0b5b2b960a91b604082015260600190565b600060408252615666604083018561520e565b8281036020840152615678818561520e565b95945050505050565b60006060825284516040606084015261569d60a084018261520e565b60209687015160808501526001600160a01b03958616968401969096525050911660409091015290565b9182526001600160401b0316602082015260400190565b6000808335601e198436030181126156f4578283fd5b8301803591506001600160401b0382111561570d578283fd5b602001915036819003821315611eb657600080fd5b6040518181016001600160401b038111828210171561573d57fe5b604052919050565b60006001600160401b0382111561575857fe5b5060209081020190565b60006001600160401b0382111561577557fe5b50601f01601f191660200190565b60005b8381101561579e578181015183820152602001615786565b8381111561067b5750506000910152565b6001600160a01b03811681146114f457600080fd5b6001600160e01b0319811681146114f457600080fdfe4f776e61626c653a206e6577206f776e657220697320746865207a65726f206164647265737345434453413a20696e76616c6964207369676e6174757265202773272076616c75656f72646572207369676e617475726520766572696669636174696f6e206572726f72636f6e7472616374206f72646572207369676e617475726520766572696669636174696f6e206572726f72496e697469616c697a61626c653a20636f6e747261637420697320616c726561647920696e697469616c697a656445434453413a20696e76616c6964207369676e6174757265202776272076616c7565536166654d6174683a206d756c7469706c69636174696f6e206f766572666c6f774f776e61626c653a2063616c6c6572206973206e6f7420746865206f776e6572a2646970667358221220a4cbc57729e62b0e41cdc1ba03d26b2df7d25a0ba5bd75225396f2090946e53d64736f6c63430007060033",
  "immutableReferences": {},
  "source": "// SPDX-License-Identifier: MIT\n\npragma solidity 0.7.6;\npragma abicoder v2;\n\nimport \"./ExchangeV2Core.sol\";\nimport \"@rarible/transfer-manager/contracts/RaribleTransferManager.sol\";\n\ncontract ExchangeV2 is ExchangeV2Core, RaribleTransferManager {\n    function __ExchangeV2_init(\n        address _transferProxy,\n        address _erc20TransferProxy,\n        uint newProtocolFee,\n        address newDefaultFeeReceiver,\n        IRoyaltiesProvider newRoyaltiesProvider\n    ) external initializer {\n        __Context_init_unchained();\n        __Ownable_init_unchained();\n        __TransferExecutor_init_unchained(_transferProxy, _erc20TransferProxy);\n        __RaribleTransferManager_init_unchained(newProtocolFee, newDefaultFeeReceiver, newRoyaltiesProvider);\n        __OrderValidator_init_unchained();\n    }\n\n    function getProtocolFee() internal override view returns(uint) {\n        return protocolFee;\n    }\n}\n",
  "sourcePath": "/Users/eugene/Projects/rarible/protocol-contracts/exchange-v2/contracts/ExchangeV2.sol",
  "compiler": {
    "name": "solc",
    "version": "0.7.6+commit.7338295f.Emscripten.clang"
  },
  "schemaVersion": "3.4.5",
  "updatedAt": "2022-08-15T06:04:21.992Z",
  "devdoc": {
    "kind": "dev",
    "methods": {
      "directAcceptBid((address,uint256,bytes4,bytes,uint256,address,uint256,uint256,uint256,bytes4,bytes,bytes,uint256,uint256,bytes))": {
        "details": "function, generate sellOrder and buyOrder from parameters and call validateAndMatch() for accept bid transaction",
        "params": {
          "direct": "struct with parameters for accept bid operation"
        }
      },
      "directPurchase((address,uint256,bytes4,bytes,uint256,address,uint256,uint256,uint256,bytes4,bytes,bytes,uint256,uint256,bytes))": {
        "details": "function, generate sellOrder and buyOrder from parameters and call validateAndMatch() for purchase transaction"
      },
      "owner()": {
        "details": "Returns the address of the current owner."
      },
      "renounceOwnership()": {
        "details": "Leaves the contract without owner. It will not be possible to call `onlyOwner` functions anymore. Can only be called by the current owner. NOTE: Renouncing ownership will leave the contract without an owner, thereby removing any functionality that is only available to the owner."
      },
      "transferOwnership(address)": {
        "details": "Transfers ownership of the contract to a new account (`newOwner`). Can only be called by the current owner."
      }
    },
    "version": 1
  },
  "userdoc": {
    "kind": "user",
    "methods": {},
    "version": 1
  }
}