{
  "contractName": "ExchangeV2Rev3",
  "abi": [
    {
      "anonymous": false,
      "inputs": [
        {
          "indexed": false,
          "internalType": "bytes32",
          "name": "hash",
          "type": "bytes32"
        }
      ],
      "name": "Cancel",
      "type": "event"
    },
    {
      "anonymous": false,
      "inputs": [
        {
          "indexed": false,
          "internalType": "uint256",
          "name": "newLeftFill",
          "type": "uint256"
        },
        {
          "indexed": false,
          "internalType": "uint256",
          "name": "newRightFill",
          "type": "uint256"
        }
      ],
      "name": "Match",
      "type": "event"
    },
    {
      "anonymous": false,
      "inputs": [
        {
          "indexed": true,
          "internalType": "bytes4",
          "name": "assetType",
          "type": "bytes4"
        },
        {
          "indexed": false,
          "internalType": "address",
          "name": "matcher",
          "type": "address"
        }
      ],
      "name": "MatcherChange",
      "type": "event"
    },
    {
      "anonymous": false,
      "inputs": [
        {
          "indexed": true,
          "internalType": "address",
          "name": "previousOwner",
          "type": "address"
        },
        {
          "indexed": true,
          "internalType": "address",
          "name": "newOwner",
          "type": "address"
        }
      ],
      "name": "OwnershipTransferred",
      "type": "event"
    },
    {
      "anonymous": false,
      "inputs": [
        {
          "indexed": false,
          "internalType": "uint256",
          "name": "oldValue",
          "type": "uint256"
        },
        {
          "indexed": false,
          "internalType": "uint256",
          "name": "newValue",
          "type": "uint256"
        }
      ],
      "name": "ProtocolFeeChanged",
      "type": "event"
    },
    {
      "anonymous": false,
      "inputs": [
        {
          "indexed": true,
          "internalType": "bytes4",
          "name": "assetType",
          "type": "bytes4"
        },
        {
          "indexed": false,
          "internalType": "address",
          "name": "proxy",
          "type": "address"
        }
      ],
      "name": "ProxyChange",
      "type": "event"
    },
    {
      "inputs": [
        {
          "components": [
            {
              "internalType": "address",
              "name": "maker",
              "type": "address"
            },
            {
              "components": [
                {
                  "components": [
                    {
                      "internalType": "bytes4",
                      "name": "assetClass",
                      "type": "bytes4"
                    },
                    {
                      "internalType": "bytes",
                      "name": "data",
                      "type": "bytes"
                    }
                  ],
                  "internalType": "struct LibAsset.AssetType",
                  "name": "assetType",
                  "type": "tuple"
                },
                {
                  "internalType": "uint256",
                  "name": "value",
                  "type": "uint256"
                }
              ],
              "internalType": "struct LibAsset.Asset",
              "name": "makeAsset",
              "type": "tuple"
            },
            {
              "internalType": "address",
              "name": "taker",
              "type": "address"
            },
            {
              "components": [
                {
                  "components": [
                    {
                      "internalType": "bytes4",
                      "name": "assetClass",
                      "type": "bytes4"
                    },
                    {
                      "internalType": "bytes",
                      "name": "data",
                      "type": "bytes"
                    }
                  ],
                  "internalType": "struct LibAsset.AssetType",
                  "name": "assetType",
                  "type": "tuple"
                },
                {
                  "internalType": "uint256",
                  "name": "value",
                  "type": "uint256"
                }
              ],
              "internalType": "struct LibAsset.Asset",
              "name": "takeAsset",
              "type": "tuple"
            },
            {
              "internalType": "uint256",
              "name": "salt",
              "type": "uint256"
            },
            {
              "internalType": "uint256",
              "name": "start",
              "type": "uint256"
            },
            {
              "internalType": "uint256",
              "name": "end",
              "type": "uint256"
            },
            {
              "internalType": "bytes4",
              "name": "dataType",
              "type": "bytes4"
            },
            {
              "internalType": "bytes",
              "name": "data",
              "type": "bytes"
            }
          ],
          "internalType": "struct LibOrder.Order",
          "name": "order",
          "type": "tuple"
        }
      ],
      "name": "cancel",
      "outputs": [],
      "stateMutability": "nonpayable",
      "type": "function"
    },
    {
      "inputs": [],
      "name": "defaultFeeReceiver",
      "outputs": [
        {
          "internalType": "address",
          "name": "",
          "type": "address"
        }
      ],
      "stateMutability": "view",
      "type": "function"
    },
    {
      "inputs": [
        {
          "components": [
            {
              "internalType": "uint256",
              "name": "tokenBidAmount",
              "type": "uint256"
            },
            {
              "internalType": "uint256",
              "name": "tokenAcceptAmount",
              "type": "uint256"
            },
            {
              "internalType": "uint256",
              "name": "priceBid",
              "type": "uint256"
            },
            {
              "internalType": "uint256",
              "name": "priceAccept",
              "type": "uint256"
            },
            {
              "internalType": "uint256",
              "name": "salt",
              "type": "uint256"
            },
            {
              "internalType": "address",
              "name": "buyer",
              "type": "address"
            },
            {
              "internalType": "bytes4",
              "name": "nftClass",
              "type": "bytes4"
            },
            {
              "internalType": "bytes",
              "name": "nftData",
              "type": "bytes"
            },
            {
              "internalType": "bytes",
              "name": "paymentData",
              "type": "bytes"
            },
            {
              "internalType": "bytes",
              "name": "bidOrderData",
              "type": "bytes"
            },
            {
              "internalType": "bytes",
              "name": "acceptOrderData",
              "type": "bytes"
            },
            {
              "internalType": "bytes",
              "name": "signature",
              "type": "bytes"
            }
          ],
          "internalType": "struct LibDirectTransfer.AcceptBid",
          "name": "direct",
          "type": "tuple"
        }
      ],
      "name": "directAcceptBid",
      "outputs": [],
      "stateMutability": "payable",
      "type": "function"
    },
    {
      "inputs": [
        {
          "components": [
            {
              "internalType": "uint256",
              "name": "tokenSellAmount",
              "type": "uint256"
            },
            {
              "internalType": "uint256",
              "name": "tokenPurchaseAmount",
              "type": "uint256"
            },
            {
              "internalType": "uint256",
              "name": "priceSell",
              "type": "uint256"
            },
            {
              "internalType": "uint256",
              "name": "pricePurchase",
              "type": "uint256"
            },
            {
              "internalType": "uint256",
              "name": "salt",
              "type": "uint256"
            },
            {
              "internalType": "address",
              "name": "seller",
              "type": "address"
            },
            {
              "internalType": "bytes4",
              "name": "nftClass",
              "type": "bytes4"
            },
            {
              "internalType": "bytes4",
              "name": "paymentClass",
              "type": "bytes4"
            },
            {
              "internalType": "bytes",
              "name": "nftData",
              "type": "bytes"
            },
            {
              "internalType": "bytes",
              "name": "paymentData",
              "type": "bytes"
            },
            {
              "internalType": "bytes",
              "name": "sellOrderData",
              "type": "bytes"
            },
            {
              "internalType": "bytes",
              "name": "purchaseOrderData",
              "type": "bytes"
            },
            {
              "internalType": "bytes",
              "name": "signature",
              "type": "bytes"
            }
          ],
          "internalType": "struct LibDirectTransfer.Purchase",
          "name": "direct",
          "type": "tuple"
        }
      ],
      "name": "directPurchase",
      "outputs": [],
      "stateMutability": "payable",
      "type": "function"
    },
    {
      "inputs": [
        {
          "internalType": "address",
          "name": "",
          "type": "address"
        }
      ],
      "name": "feeReceivers",
      "outputs": [
        {
          "internalType": "address",
          "name": "",
          "type": "address"
        }
      ],
      "stateMutability": "view",
      "type": "function"
    },
    {
      "inputs": [
        {
          "internalType": "bytes32",
          "name": "",
          "type": "bytes32"
        }
      ],
      "name": "fills",
      "outputs": [
        {
          "internalType": "uint256",
          "name": "",
          "type": "uint256"
        }
      ],
      "stateMutability": "view",
      "type": "function"
    },
    {
      "inputs": [
        {
          "components": [
            {
              "internalType": "address",
              "name": "maker",
              "type": "address"
            },
            {
              "components": [
                {
                  "components": [
                    {
                      "internalType": "bytes4",
                      "name": "assetClass",
                      "type": "bytes4"
                    },
                    {
                      "internalType": "bytes",
                      "name": "data",
                      "type": "bytes"
                    }
                  ],
                  "internalType": "struct LibAsset.AssetType",
                  "name": "assetType",
                  "type": "tuple"
                },
                {
                  "internalType": "uint256",
                  "name": "value",
                  "type": "uint256"
                }
              ],
              "internalType": "struct LibAsset.Asset",
              "name": "makeAsset",
              "type": "tuple"
            },
            {
              "internalType": "address",
              "name": "taker",
              "type": "address"
            },
            {
              "components": [
                {
                  "components": [
                    {
                      "internalType": "bytes4",
                      "name": "assetClass",
                      "type": "bytes4"
                    },
                    {
                      "internalType": "bytes",
                      "name": "data",
                      "type": "bytes"
                    }
                  ],
                  "internalType": "struct LibAsset.AssetType",
                  "name": "assetType",
                  "type": "tuple"
                },
                {
                  "internalType": "uint256",
                  "name": "value",
                  "type": "uint256"
                }
              ],
              "internalType": "struct LibAsset.Asset",
              "name": "takeAsset",
              "type": "tuple"
            },
            {
              "internalType": "uint256",
              "name": "salt",
              "type": "uint256"
            },
            {
              "internalType": "uint256",
              "name": "start",
              "type": "uint256"
            },
            {
              "internalType": "uint256",
              "name": "end",
              "type": "uint256"
            },
            {
              "internalType": "bytes4",
              "name": "dataType",
              "type": "bytes4"
            },
            {
              "internalType": "bytes",
              "name": "data",
              "type": "bytes"
            }
          ],
          "internalType": "struct LibOrder.Order",
          "name": "orderLeft",
          "type": "tuple"
        },
        {
          "internalType": "bytes",
          "name": "signatureLeft",
          "type": "bytes"
        },
        {
          "components": [
            {
              "internalType": "address",
              "name": "maker",
              "type": "address"
            },
            {
              "components": [
                {
                  "components": [
                    {
                      "internalType": "bytes4",
                      "name": "assetClass",
                      "type": "bytes4"
                    },
                    {
                      "internalType": "bytes",
                      "name": "data",
                      "type": "bytes"
                    }
                  ],
                  "internalType": "struct LibAsset.AssetType",
                  "name": "assetType",
                  "type": "tuple"
                },
                {
                  "internalType": "uint256",
                  "name": "value",
                  "type": "uint256"
                }
              ],
              "internalType": "struct LibAsset.Asset",
              "name": "makeAsset",
              "type": "tuple"
            },
            {
              "internalType": "address",
              "name": "taker",
              "type": "address"
            },
            {
              "components": [
                {
                  "components": [
                    {
                      "internalType": "bytes4",
                      "name": "assetClass",
                      "type": "bytes4"
                    },
                    {
                      "internalType": "bytes",
                      "name": "data",
                      "type": "bytes"
                    }
                  ],
                  "internalType": "struct LibAsset.AssetType",
                  "name": "assetType",
                  "type": "tuple"
                },
                {
                  "internalType": "uint256",
                  "name": "value",
                  "type": "uint256"
                }
              ],
              "internalType": "struct LibAsset.Asset",
              "name": "takeAsset",
              "type": "tuple"
            },
            {
              "internalType": "uint256",
              "name": "salt",
              "type": "uint256"
            },
            {
              "internalType": "uint256",
              "name": "start",
              "type": "uint256"
            },
            {
              "internalType": "uint256",
              "name": "end",
              "type": "uint256"
            },
            {
              "internalType": "bytes4",
              "name": "dataType",
              "type": "bytes4"
            },
            {
              "internalType": "bytes",
              "name": "data",
              "type": "bytes"
            }
          ],
          "internalType": "struct LibOrder.Order",
          "name": "orderRight",
          "type": "tuple"
        },
        {
          "internalType": "bytes",
          "name": "signatureRight",
          "type": "bytes"
        }
      ],
      "name": "matchOrders",
      "outputs": [],
      "stateMutability": "payable",
      "type": "function"
    },
    {
      "inputs": [],
      "name": "owner",
      "outputs": [
        {
          "internalType": "address",
          "name": "",
          "type": "address"
        }
      ],
      "stateMutability": "view",
      "type": "function"
    },
    {
      "inputs": [],
      "name": "protocolFee",
      "outputs": [
        {
          "internalType": "uint256",
          "name": "",
          "type": "uint256"
        }
      ],
      "stateMutability": "view",
      "type": "function"
    },
    {
      "inputs": [],
      "name": "renounceOwnership",
      "outputs": [],
      "stateMutability": "nonpayable",
      "type": "function"
    },
    {
      "inputs": [],
      "name": "royaltiesRegistry",
      "outputs": [
        {
          "internalType": "contract IRoyaltiesProvider",
          "name": "",
          "type": "address"
        }
      ],
      "stateMutability": "view",
      "type": "function"
    },
    {
      "inputs": [
        {
          "internalType": "bytes4",
          "name": "assetType",
          "type": "bytes4"
        },
        {
          "internalType": "address",
          "name": "matcher",
          "type": "address"
        }
      ],
      "name": "setAssetMatcher",
      "outputs": [],
      "stateMutability": "nonpayable",
      "type": "function"
    },
    {
      "inputs": [
        {
          "internalType": "address payable",
          "name": "newDefaultFeeReceiver",
          "type": "address"
        }
      ],
      "name": "setDefaultFeeReceiver",
      "outputs": [],
      "stateMutability": "nonpayable",
      "type": "function"
    },
    {
      "inputs": [
        {
          "internalType": "address",
          "name": "token",
          "type": "address"
        },
        {
          "internalType": "address",
          "name": "wallet",
          "type": "address"
        }
      ],
      "name": "setFeeReceiver",
      "outputs": [],
      "stateMutability": "nonpayable",
      "type": "function"
    },
    {
      "inputs": [
        {
          "internalType": "uint64",
          "name": "_protocolFee",
          "type": "uint64"
        }
      ],
      "name": "setProtocolFee",
      "outputs": [],
      "stateMutability": "nonpayable",
      "type": "function"
    },
    {
      "inputs": [
        {
          "internalType": "contract IRoyaltiesProvider",
          "name": "newRoyaltiesRegistry",
          "type": "address"
        }
      ],
      "name": "setRoyaltiesRegistry",
      "outputs": [],
      "stateMutability": "nonpayable",
      "type": "function"
    },
    {
      "inputs": [
        {
          "internalType": "bytes4",
          "name": "assetType",
          "type": "bytes4"
        },
        {
          "internalType": "address",
          "name": "proxy",
          "type": "address"
        }
      ],
      "name": "setTransferProxy",
      "outputs": [],
      "stateMutability": "nonpayable",
      "type": "function"
    },
    {
      "inputs": [
        {
          "internalType": "address",
          "name": "newOwner",
          "type": "address"
        }
      ],
      "name": "transferOwnership",
      "outputs": [],
      "stateMutability": "nonpayable",
      "type": "function"
    },
    {
      "inputs": [
        {
          "internalType": "address",
          "name": "_transferProxy",
          "type": "address"
        },
        {
          "internalType": "address",
          "name": "_erc20TransferProxy",
          "type": "address"
        },
        {
          "internalType": "uint256",
          "name": "newProtocolFee",
          "type": "uint256"
        },
        {
          "internalType": "address",
          "name": "newDefaultFeeReceiver",
          "type": "address"
        },
        {
          "internalType": "contract IRoyaltiesProvider",
          "name": "newRoyaltiesProvider",
          "type": "address"
        }
      ],
      "name": "__ExchangeV2_init",
      "outputs": [],
      "stateMutability": "nonpayable",
      "type": "function"
    }
  ],
  "bytecode": "0x608060405234801561001057600080fd5b5061578780620000216000396000f3fe6080604052600436106101145760003560e01c80636d8f0694116100a0578063e2864fe311610064578063e2864fe3146102ba578063e66db25e146102da578063e92b1004146102fa578063e99a3f801461030d578063f2fde38b1461032057610114565b80636d8f069414610246578063715018a61461025b5780638da5cb5b14610270578063b0e21e8a14610285578063b39deb461461029a57610114565b806330c642f1116100e757806330c642f1146101be5780633abf6fd4146101de5780633be89922146101f35780634271d47d1461021357806343bc42d31461022657610114565b806302097ab1146101195780631372a6251461014f5780631cdfe3d81461017157806320158c4414610191575b600080fd5b34801561012557600080fd5b506101396101343660046148eb565b610340565b60405161014691906150be565b60405180910390f35b34801561015b57600080fd5b5061016f61016a366004614b78565b61035c565b005b34801561017d57600080fd5b5061016f61018c3660046148eb565b610430565b34801561019d57600080fd5b506101b16101ac366004614c2b565b6104b5565b6040516101469190615147565b3480156101ca57600080fd5b5061016f6101d9366004614c5f565b6104c8565b3480156101ea57600080fd5b50610139610598565b3480156101ff57600080fd5b5061016f61020e3660046148eb565b6105a8565b61016f610221366004614c7c565b61062d565b34801561023257600080fd5b5061016f61024136600461504e565b61091e565b34801561025257600080fd5b506101396109cb565b34801561026757600080fd5b5061016f6109db565b34801561027c57600080fd5b50610139610a87565b34801561029157600080fd5b506101b1610a96565b3480156102a657600080fd5b5061016f6102b5366004614c5f565b610a9d565b3480156102c657600080fd5b5061016f6102d5366004614f3d565b610b61565b3480156102e657600080fd5b5061016f6102f5366004614b40565b610c22565b61016f610308366004615016565b610cb3565b61016f61031b366004614f6f565b610f59565b34801561032c57600080fd5b5061016f61033b3660046148eb565b610f75565b610162602052600090815260409020546001600160a01b031681565b600054610100900460ff16806103755750610375611078565b80610383575060005460ff16155b6103be5760405162461bcd60e51b815260040180806020018281038252602e8152602001806156c1602e913960400191505060405180910390fd5b600054610100900460ff161580156103e9576000805460ff1961ff0019909116610100171660011790555b6103f1611089565b6103f961112b565b6104038686611224565b61040e8484846112ce565b6104166113aa565b8015610428576000805461ff00191690555b505050505050565b61043861147a565b6001600160a01b0316610449610a87565b6001600160a01b031614610492576040805162461bcd60e51b81526020600482018190526024820152600080516020615732833981519152604482015290519081900360640190fd5b61016180546001600160a01b0319166001600160a01b0392909216919091179055565b61012f6020526000908152604090205481565b6104d061147a565b6001600160a01b03166104e1610a87565b6001600160a01b03161461052a576040805162461bcd60e51b81526020600482018190526024820152600080516020615732833981519152604482015290519081900360640190fd5b6001600160e01b031982166000818152609760205260409081902080546001600160a01b0319166001600160a01b038516179055517f4b5aced933c0c9a88aeac3f0b3b72c5aaf75df8ebaf53225773248c4c31535939061058c9084906150be565b60405180910390a25050565b610161546001600160a01b031681565b6105b061147a565b6001600160a01b03166105c1610a87565b6001600160a01b03161461060a576040805162461bcd60e51b81526020600482018190526024820152600080516020615732833981519152604482015290519081900360640190fd5b61016080546001600160a01b0319166001600160a01b0392909216919091179055565b600060405180604001604052808360c001602081019061064d9190614c43565b6001600160e01b031916815260200161066960e085018561552f565b8080601f0160208091040260200160405190810160405280939291908181526020018383808284376000920182905250939094525050604080518082019091526322ba176160e21b8152929350919050602081016106cb61010086018661552f565b8080601f01602080910402602001604051908101604052809392919081815260200183838082843760009201829052509390945250506040805180820182528681528735602080830191909152825180840184528881528982013581830152835180850185528781528a850135818401528451808601865288815260608c013593810193909352845161012081019095529697509195919450909290918061077960c08b0160a08c016148eb565b6001600160a01b03168152602081018590526000604082018190526060820188905260808b8101359083015260a0820181905260c0820152630d8c66fb60e11b60e0820152610100016107d06101208b018b61552f565b8080601f01602080910402602001604051908101604052809392919081815260200183838082843760009201829052509390945250506040805161012081019091529293509190508061082161147a565b6001600160a01b0316815260208101879052600060408201819052606082018690526080820181905260a0820181905260c0820152632fa3cfd360e01b60e0820152610100016108756101408c018c61552f565b8080601f01602080910402602001604051908101604052809392919081815260200183838082843760009201919091525050509152509050610909826108bf6101608c018c61552f565b8080601f01602080910402602001604051908101604052809392919081815260200183838082843760009201829052506040805160208101909152908152879350915061147e9050565b610913828261152a565b505050505050505050565b61092661147a565b6001600160a01b0316610937610a87565b6001600160a01b031614610980576040805162461bcd60e51b81526020600482018190526024820152600080516020615732833981519152604482015290519081900360640190fd5b7fb51bef650ff5ad43303dbe2e500a74d4fd1bdc9ae05f046bece330e82ae0ba8761015f54826040516109b4929190615518565b60405180910390a16001600160401b031661015f55565b610160546001600160a01b031681565b6109e361147a565b6001600160a01b03166109f4610a87565b6001600160a01b031614610a3d576040805162461bcd60e51b81526020600482018190526024820152600080516020615732833981519152604482015290519081900360640190fd5b6033546040516000916001600160a01b0316907f8be0079c531659141344cd1fd0a4f28419497f9722a3daafe3b4186f6b6457e0908390a3603380546001600160a01b0319169055565b6033546001600160a01b031690565b61015f5481565b610aa561147a565b6001600160a01b0316610ab6610a87565b6001600160a01b031614610aff576040805162461bcd60e51b81526020600482018190526024820152600080516020615732833981519152604482015290519081900360640190fd5b6001600160e01b031982166000818152606560205260409081902080546001600160a01b0319166001600160a01b038516179055517fd2bf91075f105d0fd80328da28e20ebdad1c1261839711183bc29a44cbe6c72f9061058c9084906150be565b80516001600160a01b0316610b7461147a565b6001600160a01b031614610ba35760405162461bcd60e51b8152600401610b9a9061547a565b60405180910390fd5b6080810151610bc45760405162461bcd60e51b8152600401610b9a9061522b565b6000610bcf826117f4565b600081815261012f6020526040908190206000199055519091507fe8d9861dbc9c663ed3accd261bbe2fe01e0d3d9e5f51fa38523b265c7757a93a90610c16908390615147565b60405180910390a15050565b610c2a61147a565b6001600160a01b0316610c3b610a87565b6001600160a01b031614610c84576040805162461bcd60e51b81526020600482018190526024820152600080516020615732833981519152604482015290519081900360640190fd5b6001600160a01b0391821660009081526101626020526040902080546001600160a01b03191691909216179055565b600060405180604001604052808360c0016020810190610cd39190614c43565b6001600160e01b0319168152602001610cf061010085018561552f565b8080601f01602080910402602001604051908101604052809392919081815260200183838082843760009201829052509390945250506040805180820190915292935091905080610d48610100860160e08701614c43565b6001600160e01b0319168152602001610d6561012086018661552f565b8080601f01602080910402602001604051908101604052809392919081815260200183838082843760009201829052509390945250506040805180820182528681528735602080830191909152825180840184528881528982013581830152835180850185528781528a850135818401528451808601865288815260608c0135938101939093528451610120810190955296975091959194509092909180610e1360c08b0160a08c016148eb565b6001600160a01b03168152602081018790526000604082018190526060820186905260808b8101359083015260a0820181905260c0820152632fa3cfd360e01b60e082015261010001610e6a6101408b018b61552f565b8080601f016020809104026020016040519081016040528093929190818152602001838380828437600092018290525093909452505060408051610120810190915292935091905080610ebb61147a565b6001600160a01b0316815260208101859052600060408201819052606082018890526080820181905260a0820181905260c0820152630d8c66fb60e11b60e082015261010001610f0f6101608c018c61552f565b8080601f01602080910402602001604051908101604052809392919081815260200183838082843760009201919091525050509152509050610909826108bf6101808c018c61552f565b610f658484848461147e565b610f6f848361152a565b50505050565b610f7d61147a565b6001600160a01b0316610f8e610a87565b6001600160a01b031614610fd7576040805162461bcd60e51b81526020600482018190526024820152600080516020615732833981519152604482015290519081900360640190fd5b6001600160a01b03811661101c5760405162461bcd60e51b815260040180806020018281038252602681526020018061562c6026913960400191505060405180910390fd5b6033546040516001600160a01b038084169216907f8be0079c531659141344cd1fd0a4f28419497f9722a3daafe3b4186f6b6457e090600090a3603380546001600160a01b0319166001600160a01b0392909216919091179055565b60006110833061197d565b15905090565b600054610100900460ff16806110a257506110a2611078565b806110b0575060005460ff16155b6110eb5760405162461bcd60e51b815260040180806020018281038252602e8152602001806156c1602e913960400191505060405180910390fd5b600054610100900460ff16158015611116576000805460ff1961ff0019909116610100171660011790555b8015611128576000805461ff00191690555b50565b600054610100900460ff16806111445750611144611078565b80611152575060005460ff16155b61118d5760405162461bcd60e51b815260040180806020018281038252602e8152602001806156c1602e913960400191505060405180910390fd5b600054610100900460ff161580156111b8576000805460ff1961ff0019909116610100171660011790555b60006111c261147a565b603380546001600160a01b0319166001600160a01b038316908117909155604051919250906000907f8be0079c531659141344cd1fd0a4f28419497f9722a3daafe3b4186f6b6457e0908290a3508015611128576000805461ff001916905550565b60976020527f4532fa16f071d6234e30e1a1e69b9806f04095edf37a1ca7a25c8d6af7861cc080546001600160a01b039283166001600160a01b0319918216179091557f30a684095c937b5aa064dcf94f9903a7d808e3efb22d8389dbd43080ad4ed3d5805493909216928116831790915563025ceed960e61b6000527f4b5822151ea34b7c8d9e37c3e466bcecb631efe6a9f26a4a4054110a93dd316f80549091169091179055565b600054610100900460ff16806112e757506112e7611078565b806112f5575060005460ff16155b6113305760405162461bcd60e51b815260040180806020018281038252602e8152602001806156c1602e913960400191505060405180910390fd5b600054610100900460ff1615801561135b576000805460ff1961ff0019909116610100171660011790555b61015f84905561016180546001600160a01b038086166001600160a01b0319928316179092556101608054928516929091169190911790558015610f6f576000805461ff001916905550505050565b600054610100900460ff16806113c357506113c3611078565b806113d1575060005460ff16155b61140c5760405162461bcd60e51b815260040180806020018281038252602e8152602001806156c1602e913960400191505060405180910390fd5b600054610100900460ff16158015611437576000805460ff1961ff0019909116610100171660011790555b6111166040518060400160405280600881526020016745786368616e676560c01b815250604051806040016040528060018152602001601960f91b815250611983565b3390565b6114888484611a44565b6114928282611a44565b60408401516001600160a01b0316156114de5783604001516001600160a01b031682600001516001600160a01b0316146114de5760405162461bcd60e51b8152600401610b9a9061540f565b60408201516001600160a01b031615610f6f5783600001516001600160a01b031682604001516001600160a01b031614610f6f5760405162461bcd60e51b8152600401610b9a90615313565b6000806115378484611a5b565b91509150600061154685611af4565b9050600061155385611af4565b9050600061156b878785604001518560400151611cdd565b90506000806116cc6040518060a0016040528060405180604001604052808b8152602001876000015181525081526020018760000151815260200187602001518152602001609760008b600001516001600160e01b0319166001600160e01b031916815260200190815260200160002060009054906101000a90046001600160a01b03166001600160a01b031681526020018b600001516001600160a01b03168152506040518060a0016040528060405180604001604052808b8152602001886020015181525081526020018760000151815260200187602001518152602001609760008b600001516001600160e01b0319166001600160e01b031916815260200190815260200160002060009054906101000a90046001600160a01b03166001600160a01b031681526020018b600001516001600160a01b03168152506116c78a600001518a600001518e60e001518e60e001518c8c611e1a565b611e7d565b885191935091506001600160e01b0319166355575f5d60e11b141561175b5785516001600160e01b0319166355575f5d60e11b141561170a57600080fd5b8134101561172a5760405162461bcd60e51b8152600401610b9a90615452565b813411156117565761175661173f3484611f8c565b61174761147a565b6001600160a01b031690611fee565b6117aa565b85516001600160e01b0319166355575f5d60e11b14156117aa57803410156117955760405162461bcd60e51b8152600401610b9a90615452565b803411156117aa576117aa61173f3483611f8c565b602083015183516040517ff7f3111fa896b22b4c2b4d808aba59e9fab4e40a697881d951f4ba91011b9df6926117e192909161550a565b60405180910390a1505050505050505050565b60e08101516000906001600160e01b031916632611a13360e11b1480611828575060e08201516001600160e01b0319908116145b1561189d57815160208301515161183e90612086565b60608401515161184d90612086565b846080015160405160200180856001600160a01b03168152602001848152602001838152602001828152602001945050505050604051602081830303815290604052805190602001209050611978565b81516020830151516118ae90612086565b6060840151516118bd90612086565b846080015185610100015160405160200180866001600160a01b0316815260200185815260200184815260200183815260200180602001828103825283818151815260200191508051906020019080838360005b83811015611929578181015183820152602001611911565b50505050905090810190601f1680156119565780820380516001836020036101000a031916815260200191505b5096505050505050506040516020818303038152906040528051906020012090505b919050565b3b151590565b600054610100900460ff168061199c575061199c611078565b806119aa575060005460ff16155b6119e55760405162461bcd60e51b815260040180806020018281038252602e8152602001806156c1602e913960400191505060405180910390fd5b600054610100900460ff16158015611a10576000805460ff1961ff0019909116610100171660011790555b825160208085019190912083519184019190912060c99190915560ca558015611a3f576000805461ff00191690555b505050565b611a4d826120f0565b611a5782826121ba565b5050565b611a63614442565b611a6b614442565b602084015151606084015151611a81919061248f565b80519092506001600160e01b031916611aac5760405162461bcd60e51b8152600401610b9a906153e3565b606084015151602084015151611ac2919061248f565b80519091506001600160e01b031916611aed5760405162461bcd60e51b8152600401610b9a906153e3565b9250929050565b611afc61445a565b60e08201516001600160e01b031916632611a13360e11b1415611b3d576000611b298361010001516124cf565b805183526020908101519083015250611cc4565b60e08201516001600160e01b0319166323d235ef60e01b1415611b8a576000611b6a8361010001516124eb565b805183526020808201519084015260409081015115159083015250611cc4565b60e08201516001600160e01b031916632fa3cfd360e01b1415611bf7576000611bb7836101000151612507565b9050611bc68160000151612523565b825260208101516040820151611bdc9190612585565b60208301526001604083015260609081015190820152611cc4565b60e08201516001600160e01b031916630d8c66fb60e11b1415611c5b576000611c248361010001516126e8565b9050611c338160000151612523565b825260208101516040820151611c499190612585565b60208301525060006040820152611cc4565b60e08201516001600160e01b03199081161415611c7757611cc4565b6040805162461bcd60e51b815260206004820152601760248201527f556e6b6e6f776e204f7264657220646174612074797065000000000000000000604482015290519081900360640190fd5b805151611978578151611cd690612704565b8152919050565b611ce5614484565b6000611cf0866117f4565b90506000611cfd866117f4565b90506000611d0f88608001518461279f565b90506000611d2188608001518461279f565b90506000611d338a8a85858c8c6127c4565b905060008160200151118015611d495750805115155b611d655760405162461bcd60e51b8152600401610b9a90615383565b60808a015115611db8578715611d97578051611d8290849061284c565b600086815261012f6020526040902055611db8565b6020810151611da790849061284c565b600086815261012f60205260409020555b608089015115611e0b578615611ded576020810151611dd890839061284c565b600085815261012f6020526040902055611e0b565b8051611dfa90839061284c565b600085815261012f60205260409020555b9450505050505b949350505050565b611e2261449e565b611e2b856128a6565b8152611e3787876128f3565b81604001906002811115611e4757fe5b90816002811115611e5457fe5b81525050611e6e85858585856040015186600001516129c4565b60208201529695505050505050565b8251602090810151835190910151600183604001516002811115611e9d57fe5b1415611ee757611eb7858585600001518660200151612b7a565b9150611ee2846000015160000151856000015160200151866080015188602001518860600151612df6565b611f84565b600283604001516002811115611ef957fe5b1415611f3e57611f13848685600001518660200151612b7a565b9050611ee2856000015160000151866000015160200151876080015187602001518960600151612df6565b845180516020918201516080880151928701516060890151611f61949190612df6565b835180516020918201516080870151928801516060880151611f84949190612df6565b935093915050565b600082821115611fe3576040805162461bcd60e51b815260206004820152601e60248201527f536166654d6174683a207375627472616374696f6e206f766572666c6f770000604482015290519081900360640190fd5b508082035b92915050565b6040516000906001600160a01b0384169083908381818185875af1925050503d8060008114612039576040519150601f19603f3d011682016040523d82523d6000602084013e61203e565b606091505b5050905080611a3f576040805162461bcd60e51b815260206004820152600f60248201526e1d1c985b9cd9995c8819985a5b1959608a1b604482015290519081900360640190fd5b8051602091820151805190830120604080517f452a0dc408cb0d27ffc3b3caff933a5208040a53a9dbecd8d89cad2c0d40e00c818601526001600160e01b031990931683820152606080840192909252805180840390920182526080909201909152805191012090565b60a081015115806121045750428160a00151105b612155576040805162461bcd60e51b815260206004820152601d60248201527f4f726465722073746172742076616c69646174696f6e206661696c6564000000604482015290519081900360640190fd5b60c081015115806121695750428160c00151115b611128576040805162461bcd60e51b815260206004820152601b60248201527f4f7264657220656e642076616c69646174696f6e206661696c65640000000000604482015290519081900360640190fd5b60808201516122585781516001600160a01b03161561223f5781516001600160a01b03166121e661147a565b6001600160a01b03161461223a576040805162461bcd60e51b815260206004820152601660248201527536b0b5b2b91034b9903737ba103a3c1039b2b73232b960511b604482015290519081900360640190fd5b612253565b61224761147a565b6001600160a01b031682525b611a57565b81516001600160a01b031661226b61147a565b6001600160a01b031614611a5757600061228483612f7a565b905060008251604114156122a8576122a58361229f8461306a565b906130b6565b90505b83516001600160a01b038281169116146124485783516122d0906001600160a01b031661197d565b1561240c578351630b135d3f60e11b906001600160a01b0316631626ba7e6122f78561306a565b866040518363ffffffff1660e01b81526004018083815260200180602001828103825283818151815260200191508051906020019080838360005b8381101561234a578181015183820152602001612332565b50505050905090810190601f1680156123775780820380516001836020036101000a031916815260200191505b50935050505060206040518083038186803b15801561239557600080fd5b505afa1580156123a9573d6000803e3d6000fd5b505050506040513d60208110156123bf57600080fd5b50516001600160e01b031916146124075760405162461bcd60e51b815260040180806020018281038252602b815260200180615696602b913960400191505060405180910390fd5b612443565b60405162461bcd60e51b81526004018080602001828103825260228152602001806156746022913960400191505060405180910390fd5b610f6f565b83516001600160a01b0316610f6f576040805162461bcd60e51b815260206004820152600860248201526737379036b0b5b2b960c11b604482015290519081900360640190fd5b612497614442565b60006124a3848461312c565b80519091506001600160e01b0319166124c8576124c0838561312c565b915050611fe8565b9050611fe8565b6124d76144c9565b81806020019051810190611fe89190614d3f565b6124f36144e3565b81806020019051810190611fe89190614dcb565b61250f614506565b81806020019051810190611fe89190614ed5565b6060808215611fe85760408051600180825281830190925290816020015b612549614538565b81526020019060019003908161254157905050905061256783613348565b8160008151811061257457fe5b602002602001018190525092915050565b6060806000841180156125985750600083115b15612613576040805160028082526060820190925290816020015b6125bb614538565b8152602001906001900390816125b35790505090506125d984613348565b816000815181106125e657fe5b60200260200101819052506125fa83613348565b8160018151811061260757fe5b60200260200101819052505b600084118015612621575082155b1561267a5760408051600180825281830190925290816020015b612643614538565b81526020019060019003908161263b57905050905061266184613348565b8160008151811061266e57fe5b60200260200101819052505b831580156126885750600083115b156126e15760408051600180825281830190925290816020015b6126aa614538565b8152602001906001900390816126a25790505090506126c883613348565b816000815181106126d557fe5b60200260200101819052505b9392505050565b6126f061454f565b81806020019051810190611fe89190614e77565b60408051600180825281830190925260609160009190816020015b612727614538565b81526020019060019003908161271f579050509050828160008151811061274a57fe5b6020026020010151600001906001600160a01b031690816001600160a01b0316815250506127108160008151811061277e57fe5b6020908102919091018101516001600160601b039092169101529050919050565b6000826127ae57506000611fe8565b50600090815261012f6020526040902054919050565b6127cc614484565b6000806127da898887613370565b915091506000806127ec8a8988613370565b915091508381111561281f5761281484848c60200151602001518d60600151602001516133e9565b945050505050612842565b61283b8b60200151602001518c6060015160200151848461346e565b9450505050505b9695505050505050565b6000828201838110156126e1576040805162461bcd60e51b815260206004820152601b60248201527f536166654d6174683a206164646974696f6e206f766572666c6f770000000000604482015290519081900360640190fd5b60006001600160e01b03198216632fa3cfd360e01b14806128d757506001600160e01b03198216630d8c66fb60e11b145b156128eb576128e46134f4565b9050611978565b506000919050565b60006001600160e01b031983166355575f5d60e11b141561291657506001611fe8565b6001600160e01b031982166355575f5d60e11b141561293757506002611fe8565b6001600160e01b031983166322ba176160e21b141561295857506001611fe8565b6001600160e01b031982166322ba176160e21b141561297957506002611fe8565b6001600160e01b0319831663025ceed960e61b141561299a57506001611fe8565b6001600160e01b0319821663025ceed960e61b14156129bb57506002611fe8565b50600092915050565b60006001600160e01b03198716632fa3cfd360e01b148015906129f857506001600160e01b03198616632fa3cfd360e01b14155b8015612a1557506001600160e01b03198716630d8c66fb60e11b14155b8015612a3257506001600160e01b03198616630d8c66fb60e11b14155b15612a3f57506000612842565b6000612a5483876020015187602001516134fb565b905060006001856002811115612a6657fe5b1415612ac3575060608501516001600160e01b03198916630d8c66fb60e11b148015612aa257506001600160e01b03198816632fa3cfd360e01b145b612abe5760405162461bcd60e51b8152600401610b9a90615259565b612b34565b6002856002811115612ad157fe5b1415612b29575060608601516001600160e01b03198816630d8c66fb60e11b148015612b0d57506001600160e01b03198916632fa3cfd360e01b145b612abe5760405162461bcd60e51b8152600401610b9a906152eb565b600092505050612842565b600081118015612b445750818110155b8015612b5257506103e88111155b612b6e5760405162461bcd60e51b8152600401610b9a906152c5565b98975050505050505050565b6000612b948560000151602001518487604001518561357a565b90506000612bbe828760000151602001518860800151878a60000151600001518b606001516135da565b865180518751516020808a015193015160808b015160608c0151959650612bec9593949293879291906136a0565b90508560400151516001148015612c0857508460400151516001145b8015612c5d57508560400151600081518110612c2057fe5b6020026020010151600001516001600160a01b03168560400151600081518110612c4657fe5b6020026020010151600001516001600160a01b0316145b15612d7357604080516001808252818301909252600091816020015b612c81614538565b815260200190600190039081612c795790505090508560400151600081518110612ca757fe5b60200260200101516000015181600081518110612cc057fe5b60209081029190910101516001600160a01b03909116905260408701518051600090612ce857fe5b6020026020010151602001518660400151600081518110612d0557fe5b6020026020010151602001510181600081518110612d1f57fe5b6020026020010151602001906001600160601b031690816001600160601b031681525050612d6987600001516000015183896000015160200151848b608001518c606001516137a5565b509150612dcc9050565b612d9d8660000151600001518288600001516020015189604001518a608001518b606001516137a5565b5086518051602090910151604088015160808a015160608b0151949550612dc89486939291906137a5565b5090505b612ded86600001516000015182886080015188602001518a60600151612df6565b50949350505050565b6000825111612e175760405162461bcd60e51b8152600401610b9a90615281565b600084815b6001855103811015612ee6576000612e5d868381518110612e3957fe5b6020026020010151602001516001600160601b03168961387190919063ffffffff16565b9050612e92868381518110612e6e57fe5b6020026020010151602001516001600160601b03168561284c90919063ffffffff16565b93508015612edd57612ea48382611f8c565b9250612edd60405180604001604052808b81526020018381525088888581518110612ecb57fe5b60200260200101516000015188613889565b50600101612e1c565b50600084600186510381518110612ef957fe5b60200260200101519050612f2381602001516001600160601b03168461284c90919063ffffffff16565b92508261271014612f465760405162461bcd60e51b8152600401610b9a906153ac565b8115612f7057612f7060405180604001604052808a81526020018481525087836000015187613889565b5050505050505050565b60007f477ed43b8020849b755512278536c3766a3b4ab547519949a75f483372493f8d8260000151612faf8460200151613c71565b8460400151612fc18660600151613c71565b86608001518760a001518860c001518960e001518a610100015180519060200120604051602001808b81526020018a6001600160a01b03168152602001898152602001886001600160a01b03168152602001878152602001868152602001858152602001848152602001836001600160e01b03191681526020018281526020019a5050505050505050505050604051602081830303815290604052805190602001209050919050565b6000613074613ce1565b82604051602001808061190160f01b81525060020183815260200182815260200192505050604051602081830303815290604052805190602001209050919050565b6000815160411461310e576040805162461bcd60e51b815260206004820152601f60248201527f45434453413a20696e76616c6964207369676e6174757265206c656e67746800604482015290519081900360640190fd5b60208201516040830151606084015160001a61284286828585613d21565b613134614442565b825182516001600160e01b031982166355575f5d60e11b141561319f576001600160e01b031981166355575f5d60e11b1415613174578492505050611fe8565b5050604080518082018252600080825282516020818101909452908152918101919091529050611fe8565b6001600160e01b031982166322ba176160e21b14156131e4576001600160e01b031981166322ba176160e21b1415613174576131db8585613f77565b92505050611fe8565b6001600160e01b031982166339d690a360e11b1415613220576001600160e01b031981166339d690a360e11b1415613174576131db8585613f77565b6001600160e01b0319821663025ceed960e61b141561325c576001600160e01b0319811663025ceed960e61b1415613174576131db8585613f77565b6001600160e01b031982166000908152606560205260409020546001600160a01b03168015613311576040516306d3f7cb60e41b81526001600160a01b03821690636d3f7cb0906132b3908990899060040161549f565b60006040518083038186803b1580156132cb57600080fd5b505afa1580156132df573d6000803e3d6000fd5b505050506040513d6000823e601f3d908101601f191682016040526133079190810190614cb4565b9350505050611fe8565b6001600160e01b03198381169083161415613330576133078686613f77565b60405162461bcd60e51b8152600401610b9a906151bd565b613350614538565b8115611978576001600160a01b038216815260a09190911c602082015290565b60008082156133af57602080860151015161338b9085611f8c565b91506133a885606001516020015186602001516020015184613fd4565b9050611f84565b6060850151602001516133c29085611f8c565b90506133df85602001516020015186606001516020015183613fd4565b9150935093915050565b6133f1614484565b60006133fe858585613fd4565b905085811115613455576040805162461bcd60e51b815260206004820152601860248201527f66696c6c4c6566743a20756e61626c6520746f2066696c6c0000000000000000604482015290519081900360640190fd5b5050604080518082019091529384525050602082015290565b613476614484565b6000613483838787613fd4565b9050838111156134da576040805162461bcd60e51b815260206004820152601960248201527f66696c6c52696768743a20756e61626c6520746f2066696c6c00000000000000604482015290519081900360640190fd5b604080518082019091529283526020830152509392505050565b61015f5490565b600083815b845181101561353b5784818151811061351557fe5b6020026020010151602001516001600160601b0316820191508080600101915050613500565b5060005b8351811015612ded5783818151811061355457fe5b6020026020010151602001516001600160601b031682019150808060010191505061353f565b60008115613589575083611e12565b600061359f6135988787613871565b879061284c565b905060005b84518110156135d0576135c66135bf868381518110612e3957fe5b839061284c565b91506001016135a4565b5095945050505050565b60008060006135ea898988614032565b909250905080156136945784516000906001600160e01b0319166322ba176160e21b141561363157856020015180602001905181019061362a9190614907565b905061366a565b85516001600160e01b03191663025ceed960e61b141561366a57600086602001518060200190518101906136659190614b13565b509150505b6136926040518060400160405280888152602001848152508961368c84614054565b88613889565b505b50979650505050505050565b6000806136ac88614093565b9050805160011480156136c0575086516001145b801561370d5750866000815181106136d457fe5b6020026020010151600001516001600160a01b0316816000815181106136f657fe5b6020026020010151600001516001600160a01b0316145b1561375e576113888160008151811061372257fe5b6020026020010151602001516001600160601b031611156137555760405162461bcd60e51b8152600401610b9a906151f4565b8591505061379a565b60008061376f8b8989868a8a6137a5565b915091506113888111156137955760405162461bcd60e51b8152600401610b9a906151f4565b509150505b979650505050505050565b846000805b8551811015613865576137e68682815181106137c257fe5b6020026020010151602001516001600160601b03168361284c90919063ffffffff16565b9150600080613816858a8a86815181106137fc57fe5b6020026020010151602001516001600160601b0316614032565b9095508592509050801561385b5761385b60405180604001604052808d815260200183815250888a868151811061384957fe5b60200260200101516000015189613889565b50506001016137aa565b50965096945050505050565b60006126e16127106138838585614208565b90614261565b8351516001600160e01b0319166339d690a360e11b14156139cf576000808560000151602001518060200190518101906138c39190614b13565b9150915085602001516001146138eb5760405162461bcd60e51b8152600401610b9a90615357565b6001600160a01b03851630141561396357604051632142170760e11b81526001600160a01b038316906342842e0e9061392c903090889086906004016150d2565b600060405180830381600087803b15801561394657600080fd5b505af115801561395a573d6000803e3d6000fd5b505050506139c8565b604051637b84dc8360e11b81526001600160a01b0384169063f709b90690613995908590899089908790600401615193565b600060405180830381600087803b1580156139af57600080fd5b505af11580156139c3573d6000803e3d6000fd5b505050505b5050610f6f565b8351516001600160e01b0319166322ba176160e21b1415613b12576000846000015160200151806020019051810190613a089190614907565b90506001600160a01b038416301415613aa457602085015160405163a9059cbb60e01b81526001600160a01b0383169163a9059cbb91613a4c91879160040161512e565b602060405180830381600087803b158015613a6657600080fd5b505af1158015613a7a573d6000803e3d6000fd5b505050506040513d601f19601f82011682018060405250810190613a9e9190614c11565b50613b0c565b602085015160405163776062c360e01b81526001600160a01b0384169163776062c391613ad991859189918991600401615193565b600060405180830381600087803b158015613af357600080fd5b505af1158015613b07573d6000803e3d6000fd5b505050505b50610f6f565b8351516001600160e01b03191663025ceed960e61b1415613bcf57600080856000015160200151806020019051810190613b4c9190614b13565b90925090506001600160a01b038516301415613b97576020860151604051637921219560e11b81526001600160a01b0384169163f242432a9161392c913091899187916004016150f6565b6020860151604051639c1c2ee960e01b81526001600160a01b03851691639c1c2ee9916139959186918a918a91889190600401615150565b8351516001600160e01b0319166355575f5d60e11b1415613c13576001600160a01b0382163014612443576020840151612443906001600160a01b03841690611fee565b6040516354bc0cf160e01b81526001600160a01b038216906354bc0cf190613c43908790879087906004016154c4565b600060405180830381600087803b158015613c5d57600080fd5b505af1158015612f70573d6000803e3d6000fd5b60007fdb6f72e915676cfc289da13bc4ece054fd17b1df6d77ffc4a60510718c236b08613ca18360000151612086565b8360200151604051602001808481526020018381526020018281526020019350505050604051602081830303815290604052805190602001209050919050565b6000613d1c7f8b73c3c69bb8fe3d512ecc4cf759cc79239f7b179b0ffacaa9a75d522b39400f613d0f6142c8565b613d176142ce565b6142d4565b905090565b60007f7fffffffffffffffffffffffffffffff5d576e7357a4501ddfe92f46681b20a0821115613d825760405162461bcd60e51b81526004018080602001828103825260228152602001806156526022913960400191505060405180910390fd5b6000601e8560ff161115613e5c576004850360ff16601b1480613dab57506004850360ff16601c145b613de65760405162461bcd60e51b81526004018080602001828103825260228152602001806156ef6022913960400191505060405180910390fd5b6001613df187614336565b60048703868660405160008152602001604052604051808581526020018460ff1681526020018381526020018281526020019450505050506020604051602081039080840390855afa158015613e4b573d6000803e3d6000fd5b505050602060405103519050613f13565b8460ff16601b1480613e7157508460ff16601c145b613eac5760405162461bcd60e51b81526004018080602001828103825260228152602001806156ef6022913960400191505060405180910390fd5b60018686868660405160008152602001604052604051808581526020018460ff1681526020018381526020018281526020019450505050506020604051602081039080840390855afa158015613f06573d6000803e3d6000fd5b5050506020604051035190505b6001600160a01b038116613f6e576040805162461bcd60e51b815260206004820152601860248201527f45434453413a20696e76616c6964207369676e61747572650000000000000000604482015290519081900360640190fd5b95945050505050565b613f7f614442565b60208084015180519082012083820151805192019190912080821415613fa9578492505050611fe8565b5050604080518082018252600080825282516020808201909452908152918101919091529392505050565b6000613fe1848484614387565b15614024576040805162461bcd60e51b815260206004820152600e60248201526d3937bab73234b7339032b93937b960911b604482015290519081900360640190fd5b611e12836138838685614208565b600080614048856140438686613871565b614416565b91509150935093915050565b6001600160a01b0380821660009081526101626020526040812054909116801561407f579050611978565b5050610161546001600160a01b0316919050565b80516060906001600160e01b03191663025ceed960e61b14806140c7575081516001600160e01b0319166339d690a360e11b145b1561417d5760008083602001518060200190518101906140e79190614b13565b61016054604051634e53ee3d60e11b81529294509092506001600160a01b031690639ca7dc7a9061411e908590859060040161512e565b600060405180830381600087803b15801561413857600080fd5b505af115801561414c573d6000803e3d6000fd5b505050506040513d6000823e601f3d908101601f191682016040526141749190810190614bdf565b92505050611978565b81516001600160e01b03191662737ea960e61b14156141be57600082602001518060200190518101906141b09190614923565b608001519250611978915050565b81516001600160e01b03191663d8f960c160e01b141561420057600082602001518060200190518101906141f29190614a20565b606001519250611978915050565b506060919050565b60008261421757506000611fe8565b8282028284828161422457fe5b04146126e15760405162461bcd60e51b81526004018080602001828103825260218152602001806157116021913960400191505060405180910390fd5b60008082116142b7576040805162461bcd60e51b815260206004820152601a60248201527f536166654d6174683a206469766973696f6e206279207a65726f000000000000604482015290519081900360640190fd5b8183816142c057fe5b049392505050565b60c95490565b60ca5490565b60008383836142e161443e565b3060405160200180868152602001858152602001848152602001838152602001826001600160a01b03168152602001955050505050506040516020818303038152906040528051906020012090509392505050565b604080517f19457468657265756d205369676e6564204d6573736167653a0a333200000000602080830191909152603c8083019490945282518083039094018452605c909101909152815191012090565b6000826143ce576040805162461bcd60e51b815260206004820152601060248201526f6469766973696f6e206279207a65726f60801b604482015290519081900360640190fd5b8115806143d9575083155b156143e6575060006126e1565b600083806143f057fe5b85840990506143ff8584614208565b61440b826103e8614208565b101595945050505050565b600080828411156144355761442b8484611f8c565b9150829050611aed565b50600093915050565b4690565b60408051808201909152600081526060602082015290565b60405180608001604052806060815260200160608152602001600015158152602001600081525090565b604051806040016040528060008152602001600081525090565b60405180606001604052806000815260200160008152602001600060028111156144c457fe5b905290565b604051806040016040528060608152602001606081525090565b604051806060016040528060608152602001606081526020016000151581525090565b6040518060a0016040528060008152602001600081526020016000815260200160008152602001600080191681525090565b604080518082019091526000808252602082015290565b6040518060800160405280600081526020016000815260200160008152602001600080191681525090565b803561197881615600565b600082601f830112614595578081fd5b815160206145aa6145a583615596565b615573565b82815281810190858301855b858110156145df576145cd898684518b010161470e565b845292840192908401906001016145b6565b5090979650505050505050565b600082601f8301126145fc578081fd5b8151602061460c6145a583615596565b8281528181019085830160408086028801850189101561462a578687fd5b865b868110156146995781838b031215614642578788fd5b81518281018181106001600160401b038211171561465c57fe5b8352835161466981615600565b8152838701516001600160601b038116811461468357898afd5b818801528552938501939181019160010161462c565b509198975050505050505050565b8051801515811461197857600080fd5b803561197881615615565b600082601f8301126146d2578081fd5b81356146e06145a5826155b3565b8181528460208386010111156146f4578283fd5b816020850160208301379081016020019190915292915050565b600082601f83011261471e578081fd5b815161472c6145a5826155b3565b818152846020838601011115614740578283fd5b611e128260208301602087016155d4565b60006040808385031215614763578182fd5b80518181016001600160401b03828210818311171561477e57fe5b81845282945085358181111561479357600080fd5b86018088038513156147a457600080fd5b6080840183811083821117156147b657fe5b9094528335936147c585615615565b938252602084013593818511156147db57600080fd5b6147e7888683016146c2565b60608501525050815260209384013593019290925292915050565b6000610120808385031215614815578182fd5b61481e81615573565b91505061482a8261457a565b815260208201356001600160401b038082111561484657600080fd5b61485285838601614751565b60208401526148636040850161457a565b6040840152606084013591508082111561487c57600080fd5b61488885838601614751565b60608401526080840135608084015260a084013560a084015260c084013560c08401526148b760e085016146b7565b60e0840152610100915081840135818111156148d257600080fd5b6148de868287016146c2565b8385015250505092915050565b6000602082840312156148fc578081fd5b81356126e181615600565b600060208284031215614918578081fd5b81516126e181615600565b60008060408385031215614935578081fd5b825161494081615600565b60208401519092506001600160401b038082111561495c578283fd5b9084019060c0828703121561496f578283fd5b61497960c0615573565b8251815260208301518281111561498e578485fd5b61499a8882860161470e565b602083015250604083015160408201526060830151828111156149bb578485fd5b6149c7888286016145ec565b6060830152506080830151828111156149de578485fd5b6149ea888286016145ec565b60808301525060a083015182811115614a01578485fd5b614a0d88828601614585565b60a0830152508093505050509250929050565b60008060408385031215614a32578182fd5b8251614a3d81615600565b60208401519092506001600160401b0380821115614a59578283fd5b9084019060a08287031215614a6c578283fd5b614a7660a0615573565b82518152602083015182811115614a8b578485fd5b614a978882860161470e565b602083015250604083015182811115614aae578485fd5b614aba888286016145ec565b604083015250606083015182811115614ad1578485fd5b614add888286016145ec565b606083015250608083015182811115614af4578485fd5b614b0088828601614585565b6080830152508093505050509250929050565b60008060408385031215614b25578182fd5b8251614b3081615600565b6020939093015192949293505050565b60008060408385031215614b52578182fd5b8235614b5d81615600565b91506020830135614b6d81615600565b809150509250929050565b600080600080600060a08688031215614b8f578081fd5b8535614b9a81615600565b94506020860135614baa81615600565b9350604086013592506060860135614bc181615600565b91506080860135614bd181615600565b809150509295509295909350565b600060208284031215614bf0578081fd5b81516001600160401b03811115614c05578182fd5b611e12848285016145ec565b600060208284031215614c22578081fd5b6126e1826146a7565b600060208284031215614c3c578081fd5b5035919050565b600060208284031215614c54578081fd5b81356126e181615615565b60008060408385031215614c71578182fd5b8235614b5d81615615565b600060208284031215614c8d578081fd5b81356001600160401b03811115614ca2578182fd5b820161018081850312156126e1578182fd5b600060208284031215614cc5578081fd5b81516001600160401b0380821115614cdb578283fd5b9083019060408286031215614cee578283fd5b604051604081018181108382111715614d0357fe5b6040528251614d1181615615565b8152602083015182811115614d24578485fd5b614d308782860161470e565b60208301525095945050505050565b600060208284031215614d50578081fd5b81516001600160401b0380821115614d66578283fd5b9083019060408286031215614d79578283fd5b604051604081018181108382111715614d8e57fe5b604052825182811115614d9f578485fd5b614dab878286016145ec565b825250602083015182811115614dbf578485fd5b614d30878286016145ec565b600060208284031215614ddc578081fd5b81516001600160401b0380821115614df2578283fd5b9083019060608286031215614e05578283fd5b604051606081018181108382111715614e1a57fe5b604052825182811115614e2b578485fd5b614e37878286016145ec565b825250602083015182811115614e4b578485fd5b614e57878286016145ec565b602083015250614e69604084016146a7565b604082015295945050505050565b600060808284031215614e88578081fd5b604051608081018181106001600160401b0382111715614ea457fe5b8060405250825181526020830151602082015260408301516040820152606083015160608201528091505092915050565b600060a08284031215614ee6578081fd5b60405160a081018181106001600160401b0382111715614f0257fe5b806040525082518152602083015160208201526040830151604082015260608301516060820152608083015160808201528091505092915050565b600060208284031215614f4e578081fd5b81356001600160401b03811115614f63578182fd5b611e1284828501614802565b60008060008060808587031215614f84578182fd5b84356001600160401b0380821115614f9a578384fd5b614fa688838901614802565b95506020870135915080821115614fbb578384fd5b614fc7888389016146c2565b94506040870135915080821115614fdc578384fd5b614fe888838901614802565b93506060870135915080821115614ffd578283fd5b5061500a878288016146c2565b91505092959194509250565b600060208284031215615027578081fd5b81356001600160401b0381111561503c578182fd5b82016101a081850312156126e1578182fd5b60006020828403121561505f578081fd5b81356001600160401b03811681146126e1578182fd5b600063ffffffff60e01b825116835260208201516040602085015280518060408601526150a98160608701602085016155d4565b601f01601f1916939093016060019392505050565b6001600160a01b0391909116815260200190565b6001600160a01b039384168152919092166020820152604081019190915260600190565b6001600160a01b0394851681529290931660208301526040820152606081019190915260a06080820181905260009082015260c00190565b6001600160a01b03929092168252602082015260400190565b90815260200190565b6001600160a01b03958616815293851660208501529190931660408301526060820192909252608081019190915260c060a0820181905260009082015260e00190565b6001600160a01b039485168152928416602084015292166040820152606081019190915260800190565b60208082526017908201527f6e6f7420666f756e64204941737365744d617463686572000000000000000000604082015260600190565b6020808252601d908201527f526f79616c746965732061726520746f6f206869676820283e35302529000000604082015260600190565b6020808252601490820152730c081cd85b1d0818d85b89dd081899481d5cd95960621b604082015260600190565b6020808252600e908201526d77726f6e6720563320747970653160901b604082015260600190565b60208082526024908201527f7472616e736665725061796f7574733a206e6f7468696e6720746f207472616e60408201526339b332b960e11b606082015260800190565b6020808252600c908201526b77726f6e67206d617846656560a01b604082015260600190565b6020808252600e908201526d3bb937b733902b19903a3cb8329960911b604082015260600190565b60208082526024908201527f72696768744f726465722e74616b657220766572696669636174696f6e2066616040820152631a5b195960e21b606082015260800190565b60208082526012908201527132b9319b9918903b30b63ab29032b93937b960711b604082015260600190565b6020808252600f908201526e1b9bdd1a1a5b99c81d1bc8199a5b1b608a1b604082015260600190565b6020808252601e908201527f53756d207061796f75747320427073206e6f7420657175616c20313030250000604082015260600190565b6020808252601290820152710c2e6e6cae8e640c8dedc4ee840dac2e8c6d60731b604082015260600190565b60208082526023908201527f6c6566744f726465722e74616b657220766572696669636174696f6e206661696040820152621b195960ea1b606082015260800190565b6020808252600e908201526d0dcdee840cadcdeeaced040cae8d60931b604082015260600190565b6020808252600b908201526a3737ba10309036b0b5b2b960a91b604082015260600190565b6000604082526154b26040830185615075565b8281036020840152613f6e8185615075565b6000606082528451604060608401526154e060a0840182615075565b60209687015160808501526001600160a01b03958616968401969096525050911660409091015290565b918252602082015260400190565b9182526001600160401b0316602082015260400190565b6000808335601e19843603018112615545578283fd5b8301803591506001600160401b0382111561555e578283fd5b602001915036819003821315611aed57600080fd5b6040518181016001600160401b038111828210171561558e57fe5b604052919050565b60006001600160401b038211156155a957fe5b5060209081020190565b60006001600160401b038211156155c657fe5b50601f01601f191660200190565b60005b838110156155ef5781810151838201526020016155d7565b83811115610f6f5750506000910152565b6001600160a01b038116811461112857600080fd5b6001600160e01b03198116811461112857600080fdfe4f776e61626c653a206e6577206f776e657220697320746865207a65726f206164647265737345434453413a20696e76616c6964207369676e6174757265202773272076616c75656f72646572207369676e617475726520766572696669636174696f6e206572726f72636f6e7472616374206f72646572207369676e617475726520766572696669636174696f6e206572726f72496e697469616c697a61626c653a20636f6e747261637420697320616c726561647920696e697469616c697a656445434453413a20696e76616c6964207369676e6174757265202776272076616c7565536166654d6174683a206d756c7469706c69636174696f6e206f766572666c6f774f776e61626c653a2063616c6c6572206973206e6f7420746865206f776e6572a2646970667358221220b33012fecbdbd28548e4596c428180b4d078b057f58689c66d4a78d302413dc764736f6c63430007060033",
  "immutableReferences": {},
  "source": "// SPDX-License-Identifier: MIT\n\npragma solidity 0.7.6;\npragma abicoder v2;\n\nimport \"./ExchangeV2Core.sol\";\nimport \"@rarible/transfer-manager/contracts/RaribleTransferManager.sol\";\n\ncontract ExchangeV2 is ExchangeV2Core, RaribleTransferManager {\n    function __ExchangeV2_init(\n        address _transferProxy,\n        address _erc20TransferProxy,\n        uint newProtocolFee,\n        address newDefaultFeeReceiver,\n        IRoyaltiesProvider newRoyaltiesProvider\n    ) external initializer {\n        __Context_init_unchained();\n        __Ownable_init_unchained();\n        __TransferExecutor_init_unchained(_transferProxy, _erc20TransferProxy);\n        __RaribleTransferManager_init_unchained(newProtocolFee, newDefaultFeeReceiver, newRoyaltiesProvider);\n        __OrderValidator_init_unchained();\n    }\n\n    function getProtocolFee() internal override view returns(uint) {\n        return protocolFee;\n    }\n}\n",
  "sourcePath": "/Users/sergey/Projects/rarible/protocol-contracts/exchange-v2/contracts/ExchangeV2.sol",
  "compiler": {
    "name": "solc",
    "version": "0.7.6+commit.7338295f.Emscripten.clang"
  },
  "schemaVersion": "3.4.8",
  "updatedAt": "2022-07-06T18:15:24.701Z",
  "devdoc": {
    "kind": "dev",
    "methods": {
      "directAcceptBid((uint256,uint256,uint256,uint256,uint256,address,bytes4,bytes,bytes,bytes,bytes,bytes))": {
        "details": "function, generate sellOrder and buyOrder from parameters and call validateAndMatch() for accept bid transaction",
        "params": {
          "direct": "struct with parameters for accept bid operation"
        }
      },
      "directPurchase((uint256,uint256,uint256,uint256,uint256,address,bytes4,bytes4,bytes,bytes,bytes,bytes,bytes))": {
        "details": "function, generate sellOrder and buyOrder from parameters and call validateAndMatch() for purchase transaction",
        "params": {
          "direct": "struct with parameters for purchase operation"
        }
      },
      "owner()": {
        "details": "Returns the address of the current owner."
      },
      "renounceOwnership()": {
        "details": "Leaves the contract without owner. It will not be possible to call `onlyOwner` functions anymore. Can only be called by the current owner. NOTE: Renouncing ownership will leave the contract without an owner, thereby removing any functionality that is only available to the owner."
      },
      "transferOwnership(address)": {
        "details": "Transfers ownership of the contract to a new account (`newOwner`). Can only be called by the current owner."
      }
    },
    "version": 1
  },
  "userdoc": {
    "kind": "user",
    "methods": {},
    "version": 1
  }
}