{
  "contractName": "AuctionHouse",
  "abi": [
    {
      "anonymous": false,
      "inputs": [
        {
          "indexed": true,
          "internalType": "uint256",
          "name": "auctionId",
          "type": "uint256"
        }
      ],
      "name": "AuctionCancelled",
      "type": "event"
    },
    {
      "anonymous": false,
      "inputs": [
        {
          "indexed": true,
          "internalType": "uint256",
          "name": "auctionId",
          "type": "uint256"
        },
        {
          "components": [
            {
              "components": [
                {
                  "components": [
                    {
                      "internalType": "bytes4",
                      "name": "assetClass",
                      "type": "bytes4"
                    },
                    {
                      "internalType": "bytes",
                      "name": "data",
                      "type": "bytes"
                    }
                  ],
                  "internalType": "struct LibAsset.AssetType",
                  "name": "assetType",
                  "type": "tuple"
                },
                {
                  "internalType": "uint256",
                  "name": "value",
                  "type": "uint256"
                }
              ],
              "internalType": "struct LibAsset.Asset",
              "name": "sellAsset",
              "type": "tuple"
            },
            {
              "components": [
                {
                  "internalType": "bytes4",
                  "name": "assetClass",
                  "type": "bytes4"
                },
                {
                  "internalType": "bytes",
                  "name": "data",
                  "type": "bytes"
                }
              ],
              "internalType": "struct LibAsset.AssetType",
              "name": "buyAsset",
              "type": "tuple"
            },
            {
              "components": [
                {
                  "internalType": "uint256",
                  "name": "amount",
                  "type": "uint256"
                },
                {
                  "internalType": "bytes4",
                  "name": "dataType",
                  "type": "bytes4"
                },
                {
                  "internalType": "bytes",
                  "name": "data",
                  "type": "bytes"
                }
              ],
              "internalType": "struct AuctionHouseBase.Bid",
              "name": "lastBid",
              "type": "tuple"
            },
            {
              "internalType": "address payable",
              "name": "seller",
              "type": "address"
            },
            {
              "internalType": "address payable",
              "name": "buyer",
              "type": "address"
            },
            {
              "internalType": "uint256",
              "name": "endTime",
              "type": "uint256"
            },
            {
              "internalType": "uint256",
              "name": "minimalStep",
              "type": "uint256"
            },
            {
              "internalType": "uint256",
              "name": "minimalPrice",
              "type": "uint256"
            },
            {
              "internalType": "uint256",
              "name": "protocolFee",
              "type": "uint256"
            },
            {
              "internalType": "bytes4",
              "name": "dataType",
              "type": "bytes4"
            },
            {
              "internalType": "bytes",
              "name": "data",
              "type": "bytes"
            }
          ],
          "indexed": false,
          "internalType": "struct AuctionHouseBase.Auction",
          "name": "auction",
          "type": "tuple"
        }
      ],
      "name": "AuctionCreated",
      "type": "event"
    },
    {
      "anonymous": false,
      "inputs": [
        {
          "indexed": true,
          "internalType": "uint256",
          "name": "auctionId",
          "type": "uint256"
        },
        {
          "components": [
            {
              "components": [
                {
                  "components": [
                    {
                      "internalType": "bytes4",
                      "name": "assetClass",
                      "type": "bytes4"
                    },
                    {
                      "internalType": "bytes",
                      "name": "data",
                      "type": "bytes"
                    }
                  ],
                  "internalType": "struct LibAsset.AssetType",
                  "name": "assetType",
                  "type": "tuple"
                },
                {
                  "internalType": "uint256",
                  "name": "value",
                  "type": "uint256"
                }
              ],
              "internalType": "struct LibAsset.Asset",
              "name": "sellAsset",
              "type": "tuple"
            },
            {
              "components": [
                {
                  "internalType": "bytes4",
                  "name": "assetClass",
                  "type": "bytes4"
                },
                {
                  "internalType": "bytes",
                  "name": "data",
                  "type": "bytes"
                }
              ],
              "internalType": "struct LibAsset.AssetType",
              "name": "buyAsset",
              "type": "tuple"
            },
            {
              "components": [
                {
                  "internalType": "uint256",
                  "name": "amount",
                  "type": "uint256"
                },
                {
                  "internalType": "bytes4",
                  "name": "dataType",
                  "type": "bytes4"
                },
                {
                  "internalType": "bytes",
                  "name": "data",
                  "type": "bytes"
                }
              ],
              "internalType": "struct AuctionHouseBase.Bid",
              "name": "lastBid",
              "type": "tuple"
            },
            {
              "internalType": "address payable",
              "name": "seller",
              "type": "address"
            },
            {
              "internalType": "address payable",
              "name": "buyer",
              "type": "address"
            },
            {
              "internalType": "uint256",
              "name": "endTime",
              "type": "uint256"
            },
            {
              "internalType": "uint256",
              "name": "minimalStep",
              "type": "uint256"
            },
            {
              "internalType": "uint256",
              "name": "minimalPrice",
              "type": "uint256"
            },
            {
              "internalType": "uint256",
              "name": "protocolFee",
              "type": "uint256"
            },
            {
              "internalType": "bytes4",
              "name": "dataType",
              "type": "bytes4"
            },
            {
              "internalType": "bytes",
              "name": "data",
              "type": "bytes"
            }
          ],
          "indexed": false,
          "internalType": "struct AuctionHouseBase.Auction",
          "name": "auction",
          "type": "tuple"
        }
      ],
      "name": "AuctionFinished",
      "type": "event"
    },
    {
      "anonymous": false,
      "inputs": [
        {
          "indexed": true,
          "internalType": "uint256",
          "name": "auctionId",
          "type": "uint256"
        },
        {
          "indexed": false,
          "internalType": "address",
          "name": "buyer",
          "type": "address"
        },
        {
          "components": [
            {
              "internalType": "uint256",
              "name": "amount",
              "type": "uint256"
            },
            {
              "internalType": "bytes4",
              "name": "dataType",
              "type": "bytes4"
            },
            {
              "internalType": "bytes",
              "name": "data",
              "type": "bytes"
            }
          ],
          "indexed": false,
          "internalType": "struct AuctionHouseBase.Bid",
          "name": "bid",
          "type": "tuple"
        },
        {
          "indexed": false,
          "internalType": "uint256",
          "name": "endTime",
          "type": "uint256"
        }
      ],
      "name": "BidPlaced",
      "type": "event"
    },
    {
      "anonymous": false,
      "inputs": [
        {
          "indexed": true,
          "internalType": "address",
          "name": "previousOwner",
          "type": "address"
        },
        {
          "indexed": true,
          "internalType": "address",
          "name": "newOwner",
          "type": "address"
        }
      ],
      "name": "OwnershipTransferred",
      "type": "event"
    },
    {
      "anonymous": false,
      "inputs": [
        {
          "indexed": true,
          "internalType": "bytes4",
          "name": "assetType",
          "type": "bytes4"
        },
        {
          "indexed": false,
          "internalType": "address",
          "name": "proxy",
          "type": "address"
        }
      ],
      "name": "ProxyChange",
      "type": "event"
    },
    {
      "anonymous": false,
      "inputs": [
        {
          "components": [
            {
              "components": [
                {
                  "internalType": "bytes4",
                  "name": "assetClass",
                  "type": "bytes4"
                },
                {
                  "internalType": "bytes",
                  "name": "data",
                  "type": "bytes"
                }
              ],
              "internalType": "struct LibAsset.AssetType",
              "name": "assetType",
              "type": "tuple"
            },
            {
              "internalType": "uint256",
              "name": "value",
              "type": "uint256"
            }
          ],
          "indexed": false,
          "internalType": "struct LibAsset.Asset",
          "name": "asset",
          "type": "tuple"
        },
        {
          "indexed": false,
          "internalType": "address",
          "name": "from",
          "type": "address"
        },
        {
          "indexed": false,
          "internalType": "address",
          "name": "to",
          "type": "address"
        },
        {
          "indexed": false,
          "internalType": "bytes4",
          "name": "transferDirection",
          "type": "bytes4"
        },
        {
          "indexed": false,
          "internalType": "bytes4",
          "name": "transferType",
          "type": "bytes4"
        }
      ],
      "name": "Transfer",
      "type": "event"
    },
    {
      "inputs": [],
      "name": "defaultFeeReceiver",
      "outputs": [
        {
          "internalType": "address",
          "name": "",
          "type": "address"
        }
      ],
      "stateMutability": "view",
      "type": "function",
      "constant": true
    },
    {
      "inputs": [
        {
          "internalType": "address",
          "name": "",
          "type": "address"
        }
      ],
      "name": "feeReceivers",
      "outputs": [
        {
          "internalType": "address",
          "name": "",
          "type": "address"
        }
      ],
      "stateMutability": "view",
      "type": "function",
      "constant": true
    },
    {
      "inputs": [
        {
          "internalType": "address",
          "name": "_collection",
          "type": "address"
        },
        {
          "internalType": "uint256",
          "name": "tokenId",
          "type": "uint256"
        }
      ],
      "name": "getAuctionByToken",
      "outputs": [
        {
          "internalType": "uint256",
          "name": "",
          "type": "uint256"
        }
      ],
      "stateMutability": "view",
      "type": "function",
      "constant": true
    },
    {
      "inputs": [
        {
          "internalType": "address",
          "name": "",
          "type": "address"
        },
        {
          "internalType": "address",
          "name": "",
          "type": "address"
        },
        {
          "internalType": "uint256[]",
          "name": "",
          "type": "uint256[]"
        },
        {
          "internalType": "uint256[]",
          "name": "",
          "type": "uint256[]"
        },
        {
          "internalType": "bytes",
          "name": "",
          "type": "bytes"
        }
      ],
      "name": "onERC1155BatchReceived",
      "outputs": [
        {
          "internalType": "bytes4",
          "name": "",
          "type": "bytes4"
        }
      ],
      "stateMutability": "nonpayable",
      "type": "function"
    },
    {
      "inputs": [
        {
          "internalType": "address",
          "name": "",
          "type": "address"
        },
        {
          "internalType": "address",
          "name": "",
          "type": "address"
        },
        {
          "internalType": "uint256",
          "name": "",
          "type": "uint256"
        },
        {
          "internalType": "uint256",
          "name": "",
          "type": "uint256"
        },
        {
          "internalType": "bytes",
          "name": "",
          "type": "bytes"
        }
      ],
      "name": "onERC1155Received",
      "outputs": [
        {
          "internalType": "bytes4",
          "name": "",
          "type": "bytes4"
        }
      ],
      "stateMutability": "nonpayable",
      "type": "function"
    },
    {
      "inputs": [
        {
          "internalType": "address",
          "name": "",
          "type": "address"
        },
        {
          "internalType": "address",
          "name": "",
          "type": "address"
        },
        {
          "internalType": "uint256",
          "name": "",
          "type": "uint256"
        },
        {
          "internalType": "bytes",
          "name": "",
          "type": "bytes"
        }
      ],
      "name": "onERC721Received",
      "outputs": [
        {
          "internalType": "bytes4",
          "name": "",
          "type": "bytes4"
        }
      ],
      "stateMutability": "nonpayable",
      "type": "function"
    },
    {
      "inputs": [],
      "name": "owner",
      "outputs": [
        {
          "internalType": "address",
          "name": "",
          "type": "address"
        }
      ],
      "stateMutability": "view",
      "type": "function",
      "constant": true
    },
    {
      "inputs": [],
      "name": "protocolFee",
      "outputs": [
        {
          "internalType": "uint256",
          "name": "",
          "type": "uint256"
        }
      ],
      "stateMutability": "view",
      "type": "function",
      "constant": true
    },
    {
      "inputs": [],
      "name": "renounceOwnership",
      "outputs": [],
      "stateMutability": "nonpayable",
      "type": "function"
    },
    {
      "inputs": [],
      "name": "royaltiesRegistry",
      "outputs": [
        {
          "internalType": "contract IRoyaltiesProvider",
          "name": "",
          "type": "address"
        }
      ],
      "stateMutability": "view",
      "type": "function",
      "constant": true
    },
    {
      "inputs": [
        {
          "internalType": "address payable",
          "name": "newDefaultFeeReceiver",
          "type": "address"
        }
      ],
      "name": "setDefaultFeeReceiver",
      "outputs": [],
      "stateMutability": "nonpayable",
      "type": "function"
    },
    {
      "inputs": [
        {
          "internalType": "address",
          "name": "token",
          "type": "address"
        },
        {
          "internalType": "address",
          "name": "wallet",
          "type": "address"
        }
      ],
      "name": "setFeeReceiver",
      "outputs": [],
      "stateMutability": "nonpayable",
      "type": "function"
    },
    {
      "inputs": [
        {
          "internalType": "uint256",
          "name": "newProtocolFee",
          "type": "uint256"
        }
      ],
      "name": "setProtocolFee",
      "outputs": [],
      "stateMutability": "nonpayable",
      "type": "function"
    },
    {
      "inputs": [
        {
          "internalType": "contract IRoyaltiesProvider",
          "name": "newRoyaltiesRegistry",
          "type": "address"
        }
      ],
      "name": "setRoyaltiesRegistry",
      "outputs": [],
      "stateMutability": "nonpayable",
      "type": "function"
    },
    {
      "inputs": [
        {
          "internalType": "bytes4",
          "name": "assetType",
          "type": "bytes4"
        },
        {
          "internalType": "address",
          "name": "proxy",
          "type": "address"
        }
      ],
      "name": "setTransferProxy",
      "outputs": [],
      "stateMutability": "nonpayable",
      "type": "function"
    },
    {
      "inputs": [
        {
          "internalType": "bytes4",
          "name": "interfaceId",
          "type": "bytes4"
        }
      ],
      "name": "supportsInterface",
      "outputs": [
        {
          "internalType": "bool",
          "name": "",
          "type": "bool"
        }
      ],
      "stateMutability": "view",
      "type": "function",
      "constant": true
    },
    {
      "inputs": [
        {
          "internalType": "address",
          "name": "newOwner",
          "type": "address"
        }
      ],
      "name": "transferOwnership",
      "outputs": [],
      "stateMutability": "nonpayable",
      "type": "function"
    },
    {
      "inputs": [
        {
          "internalType": "contract INftTransferProxy",
          "name": "_transferProxy",
          "type": "address"
        },
        {
          "internalType": "contract IERC20TransferProxy",
          "name": "_erc20TransferProxy",
          "type": "address"
        },
        {
          "internalType": "uint256",
          "name": "newProtocolFee",
          "type": "uint256"
        },
        {
          "internalType": "address",
          "name": "newDefaultFeeReceiver",
          "type": "address"
        },
        {
          "internalType": "contract IRoyaltiesProvider",
          "name": "newRoyaltiesProvider",
          "type": "address"
        }
      ],
      "name": "__AuctionHouse_init",
      "outputs": [],
      "stateMutability": "nonpayable",
      "type": "function"
    },
    {
      "inputs": [
        {
          "components": [
            {
              "components": [
                {
                  "internalType": "bytes4",
                  "name": "assetClass",
                  "type": "bytes4"
                },
                {
                  "internalType": "bytes",
                  "name": "data",
                  "type": "bytes"
                }
              ],
              "internalType": "struct LibAsset.AssetType",
              "name": "assetType",
              "type": "tuple"
            },
            {
              "internalType": "uint256",
              "name": "value",
              "type": "uint256"
            }
          ],
          "internalType": "struct LibAsset.Asset",
          "name": "_sellAsset",
          "type": "tuple"
        },
        {
          "components": [
            {
              "internalType": "bytes4",
              "name": "assetClass",
              "type": "bytes4"
            },
            {
              "internalType": "bytes",
              "name": "data",
              "type": "bytes"
            }
          ],
          "internalType": "struct LibAsset.AssetType",
          "name": "_buyAsset",
          "type": "tuple"
        },
        {
          "internalType": "uint256",
          "name": "minimalStep",
          "type": "uint256"
        },
        {
          "internalType": "uint256",
          "name": "minimalPrice",
          "type": "uint256"
        },
        {
          "internalType": "bytes4",
          "name": "dataType",
          "type": "bytes4"
        },
        {
          "internalType": "bytes",
          "name": "data",
          "type": "bytes"
        }
      ],
      "name": "startAuction",
      "outputs": [],
      "stateMutability": "nonpayable",
      "type": "function"
    },
    {
      "inputs": [
        {
          "internalType": "uint256",
          "name": "_auctionId",
          "type": "uint256"
        },
        {
          "components": [
            {
              "internalType": "uint256",
              "name": "amount",
              "type": "uint256"
            },
            {
              "internalType": "bytes4",
              "name": "dataType",
              "type": "bytes4"
            },
            {
              "internalType": "bytes",
              "name": "data",
              "type": "bytes"
            }
          ],
          "internalType": "struct AuctionHouseBase.Bid",
          "name": "bid",
          "type": "tuple"
        }
      ],
      "name": "putBid",
      "outputs": [],
      "stateMutability": "payable",
      "type": "function",
      "payable": true
    },
    {
      "inputs": [
        {
          "internalType": "uint256",
          "name": "_auctionId",
          "type": "uint256"
        }
      ],
      "name": "getMinimalNextBid",
      "outputs": [
        {
          "internalType": "uint256",
          "name": "minBid",
          "type": "uint256"
        }
      ],
      "stateMutability": "view",
      "type": "function",
      "constant": true
    },
    {
      "inputs": [
        {
          "internalType": "uint256",
          "name": "_auctionId",
          "type": "uint256"
        }
      ],
      "name": "checkAuctionExistence",
      "outputs": [
        {
          "internalType": "bool",
          "name": "",
          "type": "bool"
        }
      ],
      "stateMutability": "view",
      "type": "function",
      "constant": true
    },
    {
      "inputs": [
        {
          "internalType": "uint256",
          "name": "_auctionId",
          "type": "uint256"
        }
      ],
      "name": "finishAuction",
      "outputs": [],
      "stateMutability": "nonpayable",
      "type": "function"
    },
    {
      "inputs": [
        {
          "internalType": "uint256",
          "name": "_auctionId",
          "type": "uint256"
        }
      ],
      "name": "checkAuctionRangeTime",
      "outputs": [
        {
          "internalType": "bool",
          "name": "",
          "type": "bool"
        }
      ],
      "stateMutability": "view",
      "type": "function",
      "constant": true
    },
    {
      "inputs": [
        {
          "internalType": "uint256",
          "name": "_auctionId",
          "type": "uint256"
        }
      ],
      "name": "cancel",
      "outputs": [],
      "stateMutability": "nonpayable",
      "type": "function"
    },
    {
      "inputs": [
        {
          "internalType": "uint256",
          "name": "_auctionId",
          "type": "uint256"
        },
        {
          "components": [
            {
              "internalType": "uint256",
              "name": "amount",
              "type": "uint256"
            },
            {
              "internalType": "bytes4",
              "name": "dataType",
              "type": "bytes4"
            },
            {
              "internalType": "bytes",
              "name": "data",
              "type": "bytes"
            }
          ],
          "internalType": "struct AuctionHouseBase.Bid",
          "name": "bid",
          "type": "tuple"
        }
      ],
      "name": "buyOut",
      "outputs": [],
      "stateMutability": "payable",
      "type": "function",
      "payable": true
    },
    {
      "inputs": [
        {
          "internalType": "uint256",
          "name": "_auctionId",
          "type": "uint256"
        }
      ],
      "name": "getCurrentBuyer",
      "outputs": [
        {
          "internalType": "address",
          "name": "",
          "type": "address"
        }
      ],
      "stateMutability": "view",
      "type": "function",
      "constant": true
    },
    {
      "inputs": [
        {
          "internalType": "uint256",
          "name": "_auctionId",
          "type": "uint256"
        }
      ],
      "name": "putBidWrapper",
      "outputs": [],
      "stateMutability": "payable",
      "type": "function",
      "payable": true
    }
  ],
  "bytecode": "0x608060405234801561001057600080fd5b5061541f806100206000396000f3fe6080604052600436106101b75760003560e01c80636eeb69db116100ec578063bc197c811161008a578063e66db25e11610064578063e66db25e1461049d578063ec578348146104bd578063f23a6e61146104dd578063f2fde38b146104fd576101b7565b8063bc197c811461043d578063c719cce61461045d578063cf266ed01461047d576101b7565b80638da5cb5b116100c65780638da5cb5b146103e0578063a2a106b8146103f5578063a6f4a3e014610415578063b0e21e8a14610428576101b7565b80636eeb69db1461038b578063715018a6146103ab578063787dce3d146103c0576101b7565b806330c642f1116101595780633be89922116101335780633be899221461032357806340e58ee514610343578063506a90e7146103635780636d8f069414610376576101b7565b806330c642f1146102ce57806332132487146102ee5780633abf6fd41461030e576101b7565b8063150b7a0211610195578063150b7a021461024c578063152b2c0a146102795780631cdfe3d8146102995780632a6bf6a8146102bb576101b7565b806301ffc9a7146101bc57806302097ab1146101f25780630d6079641461021f575b600080fd5b3480156101c857600080fd5b506101dc6101d736600461476a565b61051d565b6040516101e99190614d36565b60405180910390f35b3480156101fe57600080fd5b5061021261020d3660046142e0565b61059b565b6040516101e99190614c92565b34801561022b57600080fd5b5061023f61023a366004614a47565b6105b7565b6040516101e9919061528b565b34801561025857600080fd5b5061026c610267366004614616565b6105f8565b6040516101e99190614d41565b34801561028557600080fd5b5061023f6102943660046146e5565b610608565b3480156102a557600080fd5b506102b96102b43660046142e0565b610633565b005b6102b96102c9366004614a47565b6106b8565b3480156102da57600080fd5b506102b96102e9366004614784565b610747565b3480156102fa57600080fd5b506102b961030936600461479f565b610818565b34801561031a57600080fd5b506102126108f4565b34801561032f57600080fd5b506102b961033e3660046142e0565b610904565b34801561034f57600080fd5b506102b961035e366004614a47565b610989565b6102b9610371366004614a5f565b610b7f565b34801561038257600080fd5b50610212611155565b34801561039757600080fd5b506102126103a6366004614a47565b611165565b3480156103b757600080fd5b506102b9611184565b3480156103cc57600080fd5b506102b96103db366004614a47565b611232565b3480156103ec57600080fd5b5061021261129a565b34801561040157600080fd5b506101dc610410366004614a47565b6112aa565b6102b9610423366004614a5f565b6112cb565b34801561043457600080fd5b5061023f61131a565b34801561044957600080fd5b5061026c61045836600461456d565b611321565b34801561046957600080fd5b506102b9610478366004614806565b611332565b34801561048957600080fd5b506102b9610498366004614a47565b6116f2565b3480156104a957600080fd5b506102b96104b8366004614535565b611775565b3480156104c957600080fd5b506101dc6104d8366004614a47565b611806565b3480156104e957600080fd5b5061026c6104f836600461467f565b61192a565b34801561050957600080fd5b506102b96105183660046142e0565b61193b565b6040516301ffc9a760e01b815260009030906301ffc9a790610543908590600401614d41565b60206040518083038186803b15801561055b57600080fd5b505afa15801561056f573d6000803e3d6000fd5b505050506040513d601f19601f82011682018060405250810190610593919061474a565b90505b919050565b6101c7602052600090815260409020546001600160a01b031681565b60008181526101f66020526040812060098101546001600160a01b03166105e45780600c015491506105f2565b600b81015460058201540191505b50919050565b630a85bd0160e11b949350505050565b6001600160a01b038216600090815260c9602090815260408083208484529091529020545b92915050565b61063b611a40565b6001600160a01b031661064c61129a565b6001600160a01b031614610695576040805162461bcd60e51b815260206004820181905260248201526000805160206153ca833981519152604482015290519081900360640190fd5b6101c680546001600160a01b0319166001600160a01b0392909216919091179055565b60008181526101f6602052604090206003015460e01b6001600160e01b0319166355575f5d60e11b146107065760405162461bcd60e51b81526004016106fd90614dfa565b60405180910390fd5b61074481604051806060016040528034815260200160006001600160e01b031916815260200160405180602001604052806000815250815250610b7f565b50565b61074f611a40565b6001600160a01b031661076061129a565b6001600160a01b0316146107a9576040805162461bcd60e51b815260206004820181905260248201526000805160206153ca833981519152604482015290519081900360640190fd5b6001600160e01b03198216600081815261019260205260409081902080546001600160a01b0319166001600160a01b038516179055517f4b5aced933c0c9a88aeac3f0b3b72c5aaf75df8ebaf53225773248c4c31535939061080c908490614c92565b60405180910390a25050565b600054610100900460ff16806108315750610831611a44565b8061083f575060005460ff16155b61087a5760405162461bcd60e51b815260040180806020018281038252602e81526020018061537b602e913960400191505060405180910390fd5b600054610100900460ff161580156108a5576000805460ff1961ff0019909116610100171660011790555b6108ad611a55565b6108b5611af6565b6108bf8686611bf0565b6108ca848484611c9b565b6108d2611d78565b6108da611e0d565b80156108ec576000805461ff00191690555b505050505050565b6101c6546001600160a01b031681565b61090c611a40565b6001600160a01b031661091d61129a565b6001600160a01b031614610966576040805162461bcd60e51b815260206004820181905260248201526000805160206153ca833981519152604482015290519081900360640190fd5b6101c580546001600160a01b0319166001600160a01b0392909216919091179055565b610992816112aa565b6109ae5760405162461bcd60e51b81526004016106fd90614e60565b60008181526101f66020526040902060088101546001600160a01b03166109d3611a40565b6001600160a01b0316816001600160a01b031614610a035760405162461bcd60e51b81526004016106fd90614ef8565b60098201546001600160a01b031615610a2e5760405162461bcd60e51b81526004016106fd90614ff9565b60408051608081018252835460e01b6001600160e01b0319168183019081526001808601805485516020600261010095841615959095026000190190921693909304601f8101829004820284018201909652858352610b46958894869490938693606087019390830182828015610ae65780601f10610abb57610100808354040283529160200191610ae6565b820191906000526020600020905b815481529060010190602001808311610ac957829003601f168201915b505050505081525050815260200160028201548152505030837f5a735e2bd379ffdaef126b56348f3853c7cd579726fb036c31f45b3b2a9d22c47f12755a21b06621963f5494677d2471a10330ef7ad5d571bc17b92582968032d0611eb4565b610b4f8361223f565b60405183907f2809c7e17bf978fbc7194c0a694b638c4215e9140cacc6c38ca36010b45697df90600090a2505050565b610b8882612450565b6000610b92611a40565b8251909150610ba18482612485565b15610bc957610bb0848461252a565b610bb98461275e565b610bc28461223f565b5050611151565b60008481526101f66020908152604080832081516101e081018352815460e01b6001600160e01b0319166101a08201908152600180840180548651600261010094831615949094026000190190911692909204601f810188900488028301880190965285825292959394869461016086019487948694909386936101c08a01939190830182828015610c9c5780601f10610c7157610100808354040283529160200191610c9c565b820191906000526020600020905b815481529060010190602001808311610c7f57829003601f168201915b50505091909252505050815260029182015460209182015291835260408051808201825260038601805460e01b6001600160e01b031916825260048701805484516101006001831615026000190190911695909504601f8101879004870286018701909452838552958501959194909385820193909291830182828015610d645780601f10610d3957610100808354040283529160200191610d64565b820191906000526020600020905b815481529060010190602001808311610d4757829003601f168201915b505050919092525050508152604080516060810182526005840180548252600685015460e01b6001600160e01b031916602080840191909152600786018054855160026101006001841615026000190190921691909104601f810184900484028201840187528082529683019694959394938601939092830182828015610e2c5780601f10610e0157610100808354040283529160200191610e2c565b820191906000526020600020905b815481529060010190602001808311610e0f57829003601f168201915b50505091909252505050815260088201546001600160a01b039081166020808401919091526009840154909116604080840191909152600a8401546060840152600b8401546080840152600c84015460a0840152600d84015460c0840152600e84015460e090811b6001600160e01b03191690840152600f8401805482516002610100600184161581026000190190931604601f810186900486028201860190945283815294019392909190830182828015610f295780601f10610efe57610100808354040283529160200191610f29565b820191906000526020600020905b815481529060010190602001808311610f0c57829003601f168201915b50505050508152505090506000610f4a826101400151836101200151612d3f565b608083015190915042906001600160a01b0316610fb25760a0830151610f895760408083015160008981526101f660205291909120908201600a909101555b8260e00151841015610fad5760405162461bcd60e51b81526004016106fd90614fb5565b611017565b846001600160a01b031683608001516001600160a01b03161415610fe85760405162461bcd60e51b81526004016106fd90614dc3565b6000610ff3886105b7565b9050808510156110155760405162461bcd60e51b81526004016106fd90614f2f565b505b61104c83602001518460800151876110388760400151886101000151612d7b565b6110478b896101000151612d7b565b612d9d565b60008781526101f660209081526040918290208851600582019081558983015160068301805463ffffffff191660e09290921c9190911790559289015180518a949361109d93600701920190613ea8565b50505060008781526101f66020526040902060090180546001600160a01b0319166001600160a01b03871617905560a08301516103849082900310156110f85760008781526101f6602052604090206103848201600a909101555b867f31477bb3bc1a29ff097ecf65625a5301d75d53b2a6548bc5df0c98d9922de81486886101f660008c8152602001908152602001600020600a015460405161114393929190614ca6565b60405180910390a250505050505b5050565b6101c5546001600160a01b031681565b60009081526101f660205260409020600901546001600160a01b031690565b61118c611a40565b6001600160a01b031661119d61129a565b6001600160a01b0316146111e6576040805162461bcd60e51b815260206004820181905260248201526000805160206153ca833981519152604482015290519081900360640190fd5b610160546040516000916001600160a01b0316907f8be0079c531659141344cd1fd0a4f28419497f9722a3daafe3b4186f6b6457e0908390a361016080546001600160a01b0319169055565b61123a611a40565b6001600160a01b031661124b61129a565b6001600160a01b031614611294576040805162461bcd60e51b815260206004820181905260248201526000805160206153ca833981519152604482015290519081900360640190fd5b6101c455565b610160546001600160a01b031690565b60009081526101f660205260409020600801546001600160a01b0316151590565b6112d482612450565b6112e2828260000151612485565b6112fe5760405162461bcd60e51b81526004016106fd90614ec1565b611308828261252a565b6113118261275e565b6111518261223f565b6101c45481565b63bc197c8160e01b95945050505050565b8551516001600160e01b0319166355575f5d60e11b1480159061136857508551516001600160e01b0319166322ba176160e21b14155b6113845760405162461bcd60e51b81526004016106fd90615030565b60006113908284612d3f565b90506103848160400151101580156113b057506305265c00816040015111155b6113cc5760405162461bcd60e51b81526004016106fd90614e95565b60608101516000901561140a5742826060015110156113fd5760405162461bcd60e51b81526004016106fd90614f5b565b5060408101516060820151015b6000611414612ec0565b90506040518061016001604052808a815260200189815260200160405180606001604052806000815260200160006001600160e01b0319168152602001604051806020016040528060008152508152508152602001611471611a40565b6001600160a01b03168152600060208083018290526040808401879052606084018c9052608084018b90526101c45460a08501526001600160e01b03198a1660c085015260e09384018990528583526101f68252909120835180518051835463ffffffff1916951c94909417825583830151805192949193859384926114fe926001850192910190613ea8565b5050506020918201516002919091015582810151805160038401805463ffffffff191660e09290921c919091178155818301518051929391926115479260048701920190613ea8565b50505060408281015180516005840190815560208083015160068601805463ffffffff191660e09290921c919091179055928201518051929391926115929260078701920190613ea8565b50505060608201516008820180546001600160a01b039283166001600160a01b031991821617909155608084015160098401805491909316911617905560a0820151600a82015560c0820151600b82015560e080830151600c830155610100830151600d830155610120830151600e830180549190921c63ffffffff19909116179055610140820151805161163191600f840191602090910190613ea8565b5090505061168989611641611a40565b307f8e9742dda957f51c3e385ce6ed07f0b7acc2bf98484e3acc9bd1a8c7c2a918f37ffc530b24510b924664e4cc98bd27ba37fd804f8cb2b1743b1bc15525a944ae93611eb4565b61169289612ecf565b61169c8982613197565b807f18f98bd854a0ed0d17c428b7f2c828ef9ddfc640f1e2d17d4150d03d54f76c9e6101f660008481526020019081526020016000206040516116df919061519f565b60405180910390a2505050505050505050565b6116fb816112aa565b6117175760405162461bcd60e51b81526004016106fd90614e60565b61172081611806565b158015611747575060008181526101f660205260409020600901546001600160a01b031615155b6117635760405162461bcd60e51b81526004016106fd906150d6565b61176c8161275e565b6107448161223f565b61177d611a40565b6001600160a01b031661178e61129a565b6001600160a01b0316146117d7576040805162461bcd60e51b815260206004820181905260248201526000805160206153ca833981519152604482015290519081900360640190fd5b6001600160a01b0391821660009081526101c76020526040902080546001600160a01b03191691909216179055565b60008181526101f660209081526040808320600f018054825160026001831615610100026000190190921691909104601f8101859004850282018501909352828152429385936118c493918301828280156118a25780601f10611877576101008083540402835291602001916118a2565b820191906000526020600020905b81548152906001019060200180831161188557829003601f168201915b50505060008881526101f660205260409020600e015460e01b9150612d3f9050565b9050600081606001511180156118dd5750818160600151115b156118ed57600092505050610596565b60008481526101f660205260409020600a0154801580159061190e57508281105b1561191f5760009350505050610596565b506001949350505050565b63f23a6e6160e01b95945050505050565b611943611a40565b6001600160a01b031661195461129a565b6001600160a01b03161461199d576040805162461bcd60e51b815260206004820181905260248201526000805160206153ca833981519152604482015290519081900360640190fd5b6001600160a01b0381166119e25760405162461bcd60e51b81526004018080602001828103825260268152602001806153556026913960400191505060405180910390fd5b610160546040516001600160a01b038084169216907f8be0079c531659141344cd1fd0a4f28419497f9722a3daafe3b4186f6b6457e090600090a361016080546001600160a01b0319166001600160a01b0392909216919091179055565b3390565b6000611a4f306131eb565b15905090565b600054610100900460ff1680611a6e5750611a6e611a44565b80611a7c575060005460ff16155b611ab75760405162461bcd60e51b815260040180806020018281038252602e81526020018061537b602e913960400191505060405180910390fd5b600054610100900460ff16158015611ae2576000805460ff1961ff0019909116610100171660011790555b8015610744576000805461ff001916905550565b600054610100900460ff1680611b0f5750611b0f611a44565b80611b1d575060005460ff16155b611b585760405162461bcd60e51b815260040180806020018281038252602e81526020018061537b602e913960400191505060405180910390fd5b600054610100900460ff16158015611b83576000805460ff1961ff0019909116610100171660011790555b6000611b8d611a40565b61016080546001600160a01b0319166001600160a01b038316908117909155604051919250906000907f8be0079c531659141344cd1fd0a4f28419497f9722a3daafe3b4186f6b6457e0908290a3508015610744576000805461ff001916905550565b6101926020527f551ff5675f39168e2a165b54276aae4c0faf005af2dfc0606d1112578aadd0e780546001600160a01b039283166001600160a01b0319918216179091557fcdd41cf0bb58dd675d3c1245b870efe9c432ad282b6da2aa7bab041a4ecd4618805493909216928116831790915563025ceed960e61b6000527fbb681386d4bceb8ecabad454f6bd7e959192b5d8d06a2acafebcd3e3bf325ac980549091169091179055565b600054610100900460ff1680611cb45750611cb4611a44565b80611cc2575060005460ff16155b611cfd5760405162461bcd60e51b815260040180806020018281038252602e81526020018061537b602e913960400191505060405180910390fd5b600054610100900460ff16158015611d28576000805460ff1961ff0019909116610100171660011790555b6101c48490556101c680546001600160a01b038086166001600160a01b0319928316179092556101c58054928516929091169190911790558015611d72576000805461ff00191690555b50505050565b600054610100900460ff1680611d915750611d91611a44565b80611d9f575060005460ff16155b611dda5760405162461bcd60e51b815260040180806020018281038252602e81526020018061537b602e913960400191505060405180910390fd5b600054610100900460ff16158015611e05576000805460ff1961ff0019909116610100171660011790555b611ae26131f1565b600054610100900460ff1680611e265750611e26611a44565b80611e34575060005460ff16155b611e6f5760405162461bcd60e51b815260040180806020018281038252602e81526020018061537b602e913960400191505060405180910390fd5b600054610100900460ff16158015611e9a576000805460ff1961ff0019909116610100171660011790555b60016101f7558015610744576000805461ff001916905550565b8451516001600160e01b0319166355575f5d60e11b1415611eed576020850151611ee8906001600160a01b03851690613296565b6121f9565b8451516001600160e01b0319166322ba176160e21b1415611fcc576000856000015160200151806020019051810190611f2691906142fc565b6322ba176160e21b60005261019260209081527f551ff5675f39168e2a165b54276aae4c0faf005af2dfc0606d1112578aadd0e7549088015160405163776062c360e01b81529293506001600160a01b039091169163776062c391611f949185918a918a9190600401614d99565b600060405180830381600087803b158015611fae57600080fd5b505af1158015611fc2573d6000803e3d6000fd5b50505050506121f9565b8451516001600160e01b0319166339d690a360e11b14156120cd576000808660000151602001518060200190518101906120069190614508565b91509150866020015160011461202e5760405162461bcd60e51b81526004016106fd90614f89565b6339d690a360e11b6000526101926020527fcdd41cf0bb58dd675d3c1245b870efe9c432ad282b6da2aa7bab041a4ecd461854604051637b84dc8360e11b81526001600160a01b039091169063f709b906906120949085908a908a908790600401614d99565b600060405180830381600087803b1580156120ae57600080fd5b505af11580156120c2573d6000803e3d6000fd5b5050505050506121f9565b8451516001600160e01b03191663025ceed960e61b1415612177576000808660000151602001518060200190518101906121079190614508565b63025ceed960e61b60005261019260209081527fbb681386d4bceb8ecabad454f6bd7e959192b5d8d06a2acafebcd3e3bf325ac954908a0151604051639c1c2ee960e01b81529395509193506001600160a01b031691639c1c2ee9916120949186918b918b918891600401614d56565b8451516001600160e01b03191660009081526101926020526040908190205490516354bc0cf160e01b81526001600160a01b03909116906354bc0cf1906121c690889088908890600401615121565b600060405180830381600087803b1580156121e057600080fd5b505af11580156121f4573d6000803e3d6000fd5b505050505b7fcae9d16f553e92058883de29cb3135dbc0c1e31fd7eace79fef1d80577fe482e8585858585604051612230959493929190615154565b60405180910390a15050505050565b807f35536caf6898f5cfbe09a980e5374d10f7ef130ad8366a9fc9a0e7b8c6c6649d6101f66000848152602001908152602001600020604051612282919061519f565b60405180910390a260008181526101f660209081526040918290208251608081018452815460e01b6001600160e01b031916818501908152600180840180548751600261010094831615949094026000190190911692909204601f810187900487028301870190975286825261236f96939586948693606087019390929091908301828280156123535780601f1061232857610100808354040283529160200191612353565b820191906000526020600020905b81548152906001019060200180831161233657829003601f168201915b505050505081525050815260200160028201548152505061332e565b60008181526101f660205260408120805463ffffffff19168155908181818161239b6001830182613f34565b505060006002929092018290555060038301805463ffffffff19168155906123c66004850182613f34565b505060006005830181815560068401805463ffffffff19169055906123ee6007850182613f34565b50506008820180546001600160a01b031990811690915560098301805490911690556000600a8301819055600b8301819055600c8301819055600d8301819055600e8301805463ffffffff1916905561244b90600f840190613f34565b505050565b612459816112aa565b8015612469575061246981611806565b6107445760405162461bcd60e51b81526004016106fd90615072565b60008281526101f660209081526040808320600f0180548251601f6002600019610100600186161502019093169290920491820185900485028101850190935280835284936124f7939291908301828280156118a25780601f10611877576101008083540402835291602001916118a2565b905060008160800151118015612511575082816080015111155b1561252057600191505061062d565b5060009392505050565b6000612534611a40565b60008481526101f660209081526040918290208251808401845260038201805460e01b6001600160e01b0319168252600483018054865160026101006001841615026000190190921691909104601f810187900487028201870190975286815296975092956126f395929491938583019391929091908301828280156125fb5780601f106125d0576101008083540402835291602001916125fb565b820191906000526020600020905b8154815290600101906020018083116125de57829003601f168201915b505050919092525050506009830154604080516060810182526005860180548252600687015460e01b6001600160e01b031916602080840191909152600788018054855160026101006001841615026000190190921691909104601f810184900484028201840187528082526001600160a01b03909716968b966126e59695949086019391908301828280156126d25780601f106126a7576101008083540402835291602001916126d2565b820191906000526020600020905b8154815290600101906020018083116126b557829003601f168201915b50505050508152505086600d0154612d7b565b6110478887600d0154612d7b565b82516005820190815560208085015160068401805463ffffffff191660e09290921c91909117905560408501518051869392612736926007870192910190613ea8565b50505060090180546001600160a01b0319166001600160a01b03929092169190911790555050565b60008181526101f66020908152604080832081516101e081018352815460e01b6001600160e01b0319166101a08201908152600180840180548651600261010094831615949094026000190190911692909204601f810188900488028301880190965285825292959394869461016086019487948694909386936101c08a019391908301828280156128315780601f1061280657610100808354040283529160200191612831565b820191906000526020600020905b81548152906001019060200180831161281457829003601f168201915b50505091909252505050815260029182015460209182015291835260408051808201825260038601805460e01b6001600160e01b031916825260048701805484516101006001831615026000190190911695909504601f81018790048702860187019094528385529585019591949093858201939092918301828280156128f95780601f106128ce576101008083540402835291602001916128f9565b820191906000526020600020905b8154815290600101906020018083116128dc57829003601f168201915b505050919092525050508152604080516060810182526005840180548252600685015460e01b6001600160e01b031916602080840191909152600786018054855160026101006001841615026000190190921691909104601f8101849004840282018401875280825296830196949593949386019390928301828280156129c15780601f10612996576101008083540402835291602001916129c1565b820191906000526020600020905b8154815290600101906020018083116129a457829003601f168201915b50505091909252505050815260088201546001600160a01b039081166020808401919091526009840154909116604080840191909152600a8401546060840152600b8401546080840152600c84015460a0840152600d84015460c0840152600e84015460e090811b6001600160e01b03191690840152600f8401805482516002610100600184161581026000190190931604601f810186900486028201860190945283815294019392909190830182828015612abe5780601f10612a9357610100808354040283529160200191612abe565b820191906000526020600020905b815481529060010190602001808311612aa157829003601f168201915b5050509190925250505060608101516080820151919250906001600160a01b03811615612cf0576000612b0184604001516040015185604001516020015161337f565b805151909150612b9e57604080516001808252818301909252600091816020015b612b2a613f78565b815260200190600190039081612b225790505090508281600081518110612b4d57fe5b6020026020010151600001906001600160a01b031690816001600160a01b03168152505061271081600081518110612b8157fe5b6020908102919091018101516001600160601b0390921691015281525b6000612bb48561014001518661012001516133df565b805151909150612c5157604080516001808252818301909252600091816020015b612bdd613f78565b815260200190600190039081612bd55790505090508481600081518110612c0057fe5b6020026020010151600001906001600160a01b031690816001600160a01b03168152505061271081600081518110612c3457fe5b6020908102919091018101516001600160601b0390921691015281525b604080860151518151606081018352610100880180518252516020820152612cae923091908101600290526020890151895151879187917fb45a3ba14423c8f1b71cc094845ab56b5294dbe8d8e3ba53f3cdb63d59a4044b613416565b50845180516020909101518351612ce992919030907f1a0388dd7519a093630516a672419a2562e0e74deb98af068657dc265f0164c96134dd565b5050611d72565b8251611d729030847f5a735e2bd379ffdaef126b56348f3853c7cd579726fb036c31f45b3b2a9d22c47f12755a21b06621963f5494677d2471a10330ef7ad5d571bc17b92582968032d0611eb4565b612d47613f8f565b6001600160e01b03198216632611a13360e11b141561062d5782806020019051810190612d7491906148f0565b9392505050565b6000612d74836000015183612d9886604001518760200151613682565b6136bc565b612da5613fbe565b6001600160a01b03851615612e18576040518060400160405280878152602001848152509050612e188130877f8e9742dda957f51c3e385ce6ed07f0b7acc2bf98484e3acc9bd1a8c7c2a918f37f12755a21b06621963f5494677d2471a10330ef7ad5d571bc17b92582968032d0611eb4565b50604080518082019091528581526020810182905285516001600160e01b0319166355575f5d60e11b1415612e6a5781341115612e6557612e656001600160a01b03851634849003613296565b6108ec565b612eb78185307f8e9742dda957f51c3e385ce6ed07f0b7acc2bf98484e3acc9bd1a8c7c2a918f37ffc530b24510b924664e4cc98bd27ba37fd804f8cb2b1743b1bc15525a944ae93611eb4565b6108ec81612ecf565b6101f780546001810190915590565b8051516001600160e01b0319166322ba176160e21b1415612fcc576000816000015160200151806020019051810190612f0891906142fc565b6322ba176160e21b60005261019260209081527f551ff5675f39168e2a165b54276aae4c0faf005af2dfc0606d1112578aadd0e7549084015160405163095ea7b360e01b81529293506001600160a01b038085169363095ea7b393612f739392169190600401614d1d565b602060405180830381600087803b158015612f8d57600080fd5b505af1158015612fa1573d6000803e3d6000fd5b505050506040513d601f19601f82011682018060405250810190612fc5919061474a565b5050610744565b8051516001600160e01b0319166339d690a360e11b14156130c95760008160000151602001518060200190518101906130059190614508565b509050816020015160011461302c5760405162461bcd60e51b81526004016106fd90614f89565b6339d690a360e11b6000526101926020527fcdd41cf0bb58dd675d3c1245b870efe9c432ad282b6da2aa7bab041a4ecd46185460405163a22cb46560e01b81526001600160a01b038381169263a22cb465926130919290911690600190600401614d02565b600060405180830381600087803b1580156130ab57600080fd5b505af11580156130bf573d6000803e3d6000fd5b5050505050610744565b8051516001600160e01b03191663025ceed960e61b14156107445760008160000151602001518060200190518101906131029190614508565b5063025ceed960e61b6000526101926020527fbb681386d4bceb8ecabad454f6bd7e959192b5d8d06a2acafebcd3e3bf325ac95460405163a22cb46560e01b81529192506001600160a01b038084169263a22cb46592613169921690600190600401614d02565b600060405180830381600087803b15801561318357600080fd5b505af11580156108ec573d6000803e3d6000fd5b60008083600001516020015180602001905160408110156131b757600080fd5b5080516020918201516001600160a01b03909116600090815260c98352604080822092825291909252902092909255505050565b3b151590565b600054610100900460ff168061320a575061320a611a44565b80613218575060005460ff16155b6132535760405162461bcd60e51b815260040180806020018281038252602e81526020018061537b602e913960400191505060405180910390fd5b600054610100900460ff1615801561327e576000805460ff1961ff0019909116610100171660011790555b61328661372f565b61328e6137cc565b611ae2611a55565b6040516000906001600160a01b0384169083908381818185875af1925050503d80600081146132e1576040519150601f19603f3d011682016040523d82523d6000602084013e6132e6565b606091505b505090508061244b576040805162461bcd60e51b815260206004820152600f60248201526e1d1c985b9cd9995c8819985a5b1959608a1b604482015290519081900360640190fd5b600080826000015160200151806020019051604081101561334e57600080fd5b5080516020918201516001600160a01b03909116600090815260c98352604080822092825291909252812055505050565b613387613fde565b6001600160e01b03198216632611a13360e11b141561062d576000838060200190518101906133b691906149ac565b604080516060810182528251815260209283015192810192909252600090820152949350505050565b6133e7613fde565b6001600160e01b03198216632611a13360e11b141561062d576000838060200190518101906133b691906148f0565b600061342b89886000015188602001516136bc565b9050600061343d828b8b8b8988613869565b905061344d8585838d8d8861395a565b905061348285828c8a602001518d887fdfdfdaf4cc275341b6776a7ee23b953990b8d991717449077287da70f32cf9556139c0565b50809150506134ba85828c89602001518d887fdfdfdaf4cc275341b6776a7ee23b953990b8d991717449077287da70f32cf9556139c0565b50809150506134d085828b8960000151876134dd565b5098975050505050505050565b600084815b60018551038110156135cd5760006135238683815181106134ff57fe5b6020026020010151602001516001600160601b031689613a8e90919063ffffffff16565b905061355886838151811061353457fe5b6020026020010151602001516001600160601b031685613aa690919063ffffffff16565b935080156135c45761356a8382613b00565b92506135c460405180604001604052808b8152602001838152508888858151811061359157fe5b602002602001015160000151887fa10bb5b2060a412d05113732875a5431ca23453eb93f797e0ffcb5b40e5f2c3e611eb4565b506001016134e2565b506000846001865103815181106135e057fe5b6020026020010151905061360a81602001516001600160601b031684613aa690919063ffffffff16565b9250826127101461362d5760405162461bcd60e51b81526004016106fd9061509f565b81156136785761367860405180604001604052808a815260200184815250878360000151877fa10bb5b2060a412d05113732875a5431ca23453eb93f797e0ffcb5b40e5f2c3e611eb4565b5050505050505050565b60606001600160e01b03198216632611a13360e11b141561062d57828060200190518101906136b191906149ac565b602001519392505050565b60006136d26136cb8585613a8e565b8590613aa6565b905060005b82518110156137275761371d6137168483815181106136f257fe5b6020026020010151602001516001600160601b031687613a8e90919063ffffffff16565b8390613aa6565b91506001016136d7565b509392505050565b600054610100900460ff16806137485750613748611a44565b80613756575060005460ff16155b6137915760405162461bcd60e51b815260040180806020018281038252602e81526020018061537b602e913960400191505060405180910390fd5b600054610100900460ff161580156137bc576000805460ff1961ff0019909116610100171660011790555b611ae26301ffc9a760e01b613b5d565b600054610100900460ff16806137e557506137e5611a44565b806137f3575060005460ff16155b61382e5760405162461bcd60e51b815260040180806020018281038252602e81526020018061537b602e913960400191505060405180910390fd5b600054610100900460ff16158015613859576000805460ff1961ff0019909116610100171660011790555b611ae2630271189760e51b613b5d565b600080600061388389898860200151896000015101613be1565b9092509050801561394e5784516000906001600160e01b0319166322ba176160e21b14156138ca5785602001518060200190518101906138c391906142fc565b9050613903565b85516001600160e01b03191663025ceed960e61b141561390357600086602001518060200190518101906138fe9190614508565b509150505b61394c6040518060400160405280888152602001848152508961392584613c03565b887ff87e69cb514f255f3d32f9d90f25160a10d0cdefe6618a6406db334d4450595c611eb4565b505b50979650505050505050565b60008061396687613c42565b905060008061399a8a8989868a8a7fb3c5c697ec0b511b76d12f6293e6ee827b1e1df79ac7c64d0466d945904893d76139c0565b915091506113888111156134d05760405162461bcd60e51b81526004016106fd90614e29565b856000805b8651811015613a8157613a018782815181106139dd57fe5b6020026020010151602001516001600160601b031683613aa690919063ffffffff16565b9150600080613a31858b8b8681518110613a1757fe5b6020026020010151602001516001600160601b0316613be1565b90955085925090508015613a7757613a7760405180604001604052808e815260200183815250898b8681518110613a6457fe5b6020026020010151600001518a8a611eb4565b50506001016139c5565b5097509795505050505050565b6000612d74612710613aa08585613dbb565b90613e14565b600082820183811015612d74576040805162461bcd60e51b815260206004820152601b60248201527f536166654d6174683a206164646974696f6e206f766572666c6f770000000000604482015290519081900360640190fd5b600082821115613b57576040805162461bcd60e51b815260206004820152601e60248201527f536166654d6174683a207375627472616374696f6e206f766572666c6f770000604482015290519081900360640190fd5b50900390565b6001600160e01b03198082161415613bbc576040805162461bcd60e51b815260206004820152601c60248201527f4552433136353a20696e76616c696420696e7465726661636520696400000000604482015290519081900360640190fd5b6001600160e01b0319166000908152603360205260409020805460ff19166001179055565b600080613bf785613bf28686613a8e565b613e7b565b91509150935093915050565b6001600160a01b0380821660009081526101c760205260408120549091168015613c2e579050610596565b50506101c6546001600160a01b0316919050565b80516060906001600160e01b03191663025ceed960e61b1480613c76575081516001600160e01b0319166339d690a360e11b145b15613d2c576000808360200151806020019051810190613c969190614508565b6101c554604051634e53ee3d60e11b81529294509092506001600160a01b031690639ca7dc7a90613ccd9085908590600401614d1d565b600060405180830381600087803b158015613ce757600080fd5b505af1158015613cfb573d6000803e3d6000fd5b505050506040513d6000823e601f3d908101601f19168201604052613d239190810190614710565b92505050610596565b81516001600160e01b03191662737ea960e61b1415613d6f576000808360200151806020019051810190613d609190614318565b60800151935061059692505050565b81516001600160e01b03191663d8f960c160e01b1415613db3576000808360200151806020019051810190613da49190614415565b60600151935061059692505050565b506060919050565b600082613dca5750600061062d565b82820282848281613dd757fe5b0414612d745760405162461bcd60e51b81526004018080602001828103825260218152602001806153a96021913960400191505060405180910390fd5b6000808211613e6a576040805162461bcd60e51b815260206004820152601a60248201527f536166654d6174683a206469766973696f6e206279207a65726f000000000000604482015290519081900360640190fd5b818381613e7357fe5b049392505050565b60008082841115613e9a57613e908484613b00565b9150829050613ea1565b5060009050825b9250929050565b828054600181600116156101000203166002900490600052602060002090601f016020900481019282613ede5760008555613f24565b82601f10613ef757805160ff1916838001178555613f24565b82800160010185558215613f24579182015b82811115613f24578251825591602001919060010190613f09565b50613f30929150614001565b5090565b50805460018160011615610100020316600290046000825580601f10613f5a5750610744565b601f0160209004906000526020600020908101906107449190614001565b604080518082019091526000808252602082015290565b6040518060a0016040528060608152602001606081526020016000815260200160008152602001600081525090565b6040518060400160405280613fd1614016565b8152602001600081525090565b604051806060016040528060608152602001606081526020016000151581525090565b5b80821115613f305760008155600101614002565b60408051808201909152600081526060602082015290565b600061404161403c846152d4565b615294565b905082815283838301111561405557600080fd5b612d7483602083018461530d565b600082601f830112614073578081fd5b8151602061408361403c836152b7565b82815281810190858301855b858110156140cd578151880189603f8201126140a9578788fd5b6140ba8a878301516040840161402e565b855250928401929084019060010161408f565b5090979650505050505050565b600082601f8301126140ea578081fd5b815160206140fa61403c836152b7565b82815281810190858301604080860288018501891015614118578687fd5b865b868110156141875781838b031215614130578788fd5b81518281018181106001600160401b038211171561414a57fe5b835283516141578161533f565b8152838701516001600160601b038116811461417157898afd5b818801528552938501939181019160010161411a565b509198975050505050505050565b600082601f8301126141a5578081fd5b813560206141b561403c836152b7565b82815281810190858301838502870184018810156141d1578586fd5b855b858110156140cd578135845292840192908401906001016141d3565b80356001600160e01b03198116811461059657600080fd5b600082601f830112614217578081fd5b813561422561403c826152d4565b818152846020838601011115614239578283fd5b816020850160208301379081016020019190915292915050565b600082601f830112614263578081fd5b612d748383516020850161402e565b600060408284031215614283578081fd5b604051604081016001600160401b0382821081831117156142a057fe5b816040528293506142b0856141ef565b835260208501359150808211156142c657600080fd5b506142d385828601614207565b6020830152505092915050565b6000602082840312156142f1578081fd5b8135612d748161533f565b60006020828403121561430d578081fd5b8151612d748161533f565b6000806040838503121561432a578081fd5b82516143358161533f565b60208401519092506001600160401b0380821115614351578283fd5b9084019060c08287031215614364578283fd5b61436e60c0615294565b82518152602083015182811115614383578485fd5b61438f88828601614253565b602083015250604083015160408201526060830151828111156143b0578485fd5b6143bc888286016140da565b6060830152506080830151828111156143d3578485fd5b6143df888286016140da565b60808301525060a0830151828111156143f6578485fd5b61440288828601614063565b60a0830152508093505050509250929050565b60008060408385031215614427578182fd5b82516144328161533f565b60208401519092506001600160401b038082111561444e578283fd5b9084019060a08287031215614461578283fd5b61446b60a0615294565b82518152602083015182811115614480578485fd5b61448c88828601614253565b6020830152506040830151828111156144a3578485fd5b6144af888286016140da565b6040830152506060830151828111156144c6578485fd5b6144d2888286016140da565b6060830152506080830151828111156144e9578485fd5b6144f588828601614063565b6080830152508093505050509250929050565b6000806040838503121561451a578182fd5b82516145258161533f565b6020939093015192949293505050565b60008060408385031215614547578182fd5b82356145528161533f565b915060208301356145628161533f565b809150509250929050565b600080600080600060a08688031215614584578081fd5b853561458f8161533f565b9450602086013561459f8161533f565b935060408601356001600160401b03808211156145ba578283fd5b6145c689838a01614195565b945060608801359150808211156145db578283fd5b6145e789838a01614195565b935060808801359150808211156145fc578283fd5b5061460988828901614207565b9150509295509295909350565b6000806000806080858703121561462b578182fd5b84356146368161533f565b935060208501356146468161533f565b92506040850135915060608501356001600160401b03811115614667578182fd5b61467387828801614207565b91505092959194509250565b600080600080600060a08688031215614696578283fd5b85356146a18161533f565b945060208601356146b18161533f565b9350604086013592506060860135915060808601356001600160401b038111156146d9578182fd5b61460988828901614207565b600080604083850312156146f7578182fd5b82356147028161533f565b946020939093013593505050565b600060208284031215614721578081fd5b81516001600160401b03811115614736578182fd5b614742848285016140da565b949350505050565b60006020828403121561475b578081fd5b81518015158114612d74578182fd5b60006020828403121561477b578081fd5b612d74826141ef565b60008060408385031215614796578182fd5b614552836141ef565b600080600080600060a086880312156147b6578283fd5b85356147c18161533f565b945060208601356147d18161533f565b93506040860135925060608601356147e88161533f565b915060808601356147f88161533f565b809150509295509295909350565b60008060008060008060c0878903121561481e578384fd5b86356001600160401b0380821115614834578586fd5b908801906040828b031215614847578586fd5b60405160408101818110838211171561485c57fe5b60405282358281111561486d578788fd5b6148798c828601614272565b825250602092830135838201529750908801359080821115614899578586fd5b6148a58a838b01614272565b965060408901359550606089013594506148c160808a016141ef565b935060a08901359150808211156148d6578283fd5b506148e389828a01614207565b9150509295509295509295565b600060208284031215614901578081fd5b81516001600160401b0380821115614917578283fd5b9083019060a0828603121561492a578283fd5b60405160a08101818110838211171561493f57fe5b604052825182811115614950578485fd5b61495c878286016140da565b825250602083015182811115614970578485fd5b61497c878286016140da565b60208301525060408301516040820152606083015160608201526080830151608082015280935050505092915050565b6000602082840312156149bd578081fd5b81516001600160401b03808211156149d3578283fd5b90830190604082860312156149e6578283fd5b6040516040810181811083821117156149fb57fe5b604052825182811115614a0c578485fd5b614a18878286016140da565b825250602083015182811115614a2c578485fd5b614a38878286016140da565b60208301525095945050505050565b600060208284031215614a58578081fd5b5035919050565b60008060408385031215614a71578182fd5b8235915060208301356001600160401b0380821115614a8e578283fd5b9084019060608287031215614aa1578283fd5b604051606081018181108382111715614ab657fe5b60405282358152614ac9602084016141ef565b6020820152604083013582811115614adf578485fd5b614aeb88828601614207565b6040830152508093505050509250929050565b6001600160a01b03169052565b6001600160e01b0319169052565b60008151808452614b3181602086016020860161530d565b601f01601f19169290920160200192915050565b60008154600180821660008114614b635760018114614b8157614bbf565b60028304607f16865260ff1983166020870152604086019350614bbf565b60028304808752614b91866152f5565b60005b82811015614bb55781546020828b0101528482019150602081019050614b94565b8801602001955050505b50505092915050565b600063ffffffff60e01b825460e01b16835260406020840152612d746040840160018401614b45565b600081516040845263ffffffff60e01b81511660408501526020810151905060406060850152614c246080850182614b19565b602093840151949093019390935250919050565b600060408352614c4b6040840183614bc8565b600283015460208501528091505092915050565b60008154835263ffffffff60e01b600183015460e01b16602084015260606040840152612d746060840160028401614b45565b6001600160a01b0391909116815260200190565b6001600160a01b0384168152606060208083018290528451828401528401516001600160e01b0319166080830152604084015160a0830191909152600090614cf160c0840182614b19565b915050826040830152949350505050565b6001600160a01b039290921682521515602082015260400190565b6001600160a01b03929092168252602082015260400190565b901515815260200190565b6001600160e01b031991909116815260200190565b6001600160a01b03958616815293851660208501529190931660408301526060820192909252608081019190915260c060a0820181905260009082015260e00190565b6001600160a01b039485168152928416602084015292166040820152606081019190915260800190565b6020808252601f908201527f616c7265616479206861766520616e206f75747374616e64696e672062696400604082015260600190565b6020808252601590820152741bdb9b1e4811551208189a591cc8185b1b1bddd959605a1b604082015260600190565b6020808252601d908201527f526f79616c746965732061726520746f6f206869676820283e35302529000000604082015260600190565b6020808252818101527f7468657265206973206e6f2061756374696f6e20776974682074686973206964604082015260600190565b60208082526012908201527134b731b7b93932b1ba10323ab930ba34b7b760711b604082015260600190565b6020808252601d908201527f6e6f7420656e6f75676820666f72206275796f75742061756374696f6e000000604082015260600190565b6020808252601a908201527f61756374696f6e206f776e6572206e6f74206465746563746564000000000000604082015260600190565b60208082526012908201527162696420616d6f756e7420746f6f206c6f7760701b604082015260600190565b602080825260149082015273696e636f72726563742073746172742074696d6560601b604082015260600190565b60208082526012908201527132b9319b9918903b30b63ab29032b93937b960711b604082015260600190565b60208082526024908201527f6269642063616e2774206265206c657373207468616e206d696e696d616c20706040820152637269636560e01b606082015260800190565b6020808252601d908201527f63616e27742063616e63656c2061756374696f6e207769746820626964000000604082015260600190565b60208082526022908201527f63616e27742073656c6c20455448206f72204552433230206f6e20617563746960408201526137b760f11b606082015260800190565b60208082526013908201527261756374696f6e20697320696e61637469766560681b604082015260600190565b6020808252601e908201527f53756d207061796f75747320427073206e6f7420657175616c20313030250000604082015260600190565b6020808252602b908201527f6f6e6c7920656e6465642061756374696f6e2077697468206269642063616e2060408201526a189948199a5b9a5cda195960aa1b606082015260800190565b6000606082526151346060830186614bf1565b6001600160a01b0394851660208401529290931660409091015292915050565b600060a0825261516760a0830188614bf1565b6001600160a01b0396871660208401529490951660408201526001600160e01b03199283166060820152911660809091015292915050565b6000602082526101608060208401526151bc610180840185614c38565b601f19808583030160408601526151d68260038801614bc8565b9150808583030160608601526151ef8260058801614c5f565b91506151fe6008870154615301565b61520b6080870182614afe565b506152196009870154615301565b61522660a0870182614afe565b50600a86015460c0860152600b86015460e0860152600c860154610100860152600d86015461012086015261525e600e870154615339565b61526c610140870182614b0b565b50848203018285015261528281600f8701614b45565b95945050505050565b90815260200190565b6040518181016001600160401b03811182821017156152af57fe5b604052919050565b60006001600160401b038211156152ca57fe5b5060209081020190565b60006001600160401b038211156152e757fe5b50601f01601f191660200190565b60009081526020902090565b6001600160a01b031690565b60005b83811015615328578181015183820152602001615310565b83811115611d725750506000910152565b60e01b90565b6001600160a01b038116811461074457600080fdfe4f776e61626c653a206e6577206f776e657220697320746865207a65726f2061646472657373496e697469616c697a61626c653a20636f6e747261637420697320616c726561647920696e697469616c697a6564536166654d6174683a206d756c7469706c69636174696f6e206f766572666c6f774f776e61626c653a2063616c6c6572206973206e6f7420746865206f776e6572a2646970667358221220692b9827fcb46af796a4d69a9c238922c579fb7681845565e05adfbef8cb744064736f6c63430007060033",
  "immutableReferences": {},
  "source": "// SPDX-License-Identifier: MIT\n\npragma solidity 0.7.6;\npragma abicoder v2;\n\nimport \"./AuctionHouseBase.sol\";\n\nimport \"@rarible/exchange-v2/contracts/lib/LibTransfer.sol\";\nimport \"@rarible/exchange-v2/contracts/RaribleTransferManager.sol\";\n\n/// @dev contract to create and interact with auctions \ncontract AuctionHouse is AuctionHouseBase, TransferExecutor,  RaribleTransferManager{\n    using LibTransfer for address;\n\n    /// @dev mapping to store data of auctions for auctionId\n    mapping(uint => Auction) auctions;\n\n    /// @dev latest auctionId\n    uint256 private auctionId;          //unic. auction id\n\n    /// @dev minimal auction duration and also the time for that auction is extended when it's about to end (endTime - now < EXTENSION_DURATION)\n    uint256 private constant EXTENSION_DURATION = 15 minutes;\n\n    /// @dev maximum auction duration\n    uint256 private constant MAX_DURATION = 1000 days;\n\n    function __AuctionHouse_init(\n        INftTransferProxy _transferProxy,\n        IERC20TransferProxy _erc20TransferProxy,\n        uint newProtocolFee,\n        address newDefaultFeeReceiver,\n        IRoyaltiesProvider newRoyaltiesProvider\n    ) external initializer {\n        __Context_init_unchained();\n        __Ownable_init_unchained();\n        __TransferExecutor_init_unchained(_transferProxy, _erc20TransferProxy);\n        __RaribleTransferManager_init_unchained(newProtocolFee, newDefaultFeeReceiver, newRoyaltiesProvider);\n        __AuctionHouseBase_init();\n        __AuctionHouse_init_unchained();\n    }\n\n     function __AuctionHouse_init_unchained() internal initializer {\n        auctionId = 1;\n    }\n\n    /// @dev creates an auction and locks sell asset\n    function startAuction(\n        LibAsset.Asset memory _sellAsset,\n        LibAsset.AssetType memory _buyAsset,\n        uint minimalStep,\n        uint minimalPrice,\n        bytes4 dataType,\n        bytes memory data\n    ) external {\n        // ETH or ERC20 can't be a sell item\n        require(\n            _sellAsset.assetType.assetClass != LibAsset.ETH_ASSET_CLASS && \n            _sellAsset.assetType.assetClass != LibAsset.ERC20_ASSET_CLASS,\n            \"can't sell ETH or ERC20 on auction\"\n        );\n\n        LibAucDataV1.DataV1 memory aucData = LibAucDataV1.parse(data, dataType);\n        require(aucData.duration >= EXTENSION_DURATION && aucData.duration <= MAX_DURATION, \"incorrect duration\");\n\n        uint endTime = 0;\n        if (aucData.startTime > 0){\n            require (aucData.startTime >= block.timestamp, \"incorrect start time\");\n            endTime = aucData.startTime + aucData.duration;\n        }\n        uint currentAuctionId = getNextAndIncrementAuctionId();\n        auctions[currentAuctionId] = Auction(\n            _sellAsset,\n            _buyAsset,\n            Bid(0, \"\", \"\"),\n            _msgSender(),\n            payable(address(0)),\n            endTime,\n            minimalStep,\n            minimalPrice,\n            protocolFee,\n            dataType,\n            data\n        );\n        transfer(_sellAsset, _msgSender(), address(this), TO_LOCK, LOCK);\n        setApproveForTransferProxy(_sellAsset);\n\n        setAuctionForToken(_sellAsset, currentAuctionId);\n        emit AuctionCreated(currentAuctionId, auctions[currentAuctionId]);\n    }\n\n    /// @dev sets approval for transfer proxy to transfer sell asset from this contract\n    function setApproveForTransferProxy(LibAsset.Asset memory _asset) internal {\n        if (_asset.assetType.assetClass == LibAsset.ERC20_ASSET_CLASS) {\n            (address token) = abi.decode(_asset.assetType.data, (address));\n            IERC20Upgradeable(token).approve(proxies[LibAsset.ERC20_ASSET_CLASS], _asset.value);\n        } else if (_asset.assetType.assetClass == LibAsset.ERC721_ASSET_CLASS) {\n            (address token,) = abi.decode(_asset.assetType.data, (address, uint256));\n            require(_asset.value == 1, \"erc721 value error\");\n            IERC721Upgradeable(token).setApprovalForAll(proxies[LibAsset.ERC721_ASSET_CLASS], true);\n        } else if (_asset.assetType.assetClass == LibAsset.ERC1155_ASSET_CLASS) {\n            (address token,) = abi.decode(_asset.assetType.data, (address, uint256));\n            IERC1155Upgradeable(token).setApprovalForAll(proxies[LibAsset.ERC1155_ASSET_CLASS], true);\n        }\n    }\n\n    /// @dev increments auctionId and returns new value\n    function getNextAndIncrementAuctionId() internal returns (uint256) {\n        return auctionId++;\n    }\n\n    /// @dev put a bid and return locked assets for the last bid\n    function putBid(uint _auctionId, Bid memory bid) payable public {\n        checkAuctionInProgress(_auctionId);\n        address payable newBuyer = _msgSender();\n        uint newAmount = bid.amount;\n        if (buyOutVerify(_auctionId, newAmount)) {\n            _buyOut(_auctionId, bid);\n            doTransfers(_auctionId);\n            deactivateAuction(_auctionId);\n            return;\n        }\n        \n        Auction memory currentAuction = auctions[_auctionId];\n        LibAucDataV1.DataV1 memory aucData = LibAucDataV1.parse(currentAuction.data, currentAuction.dataType);\n        uint currentTime = block.timestamp;\n        //start action if minimal price is met\n        if (currentAuction.buyer == address(0x0)) {//no bid at all\n            // set endTime if it's not set\n            if (currentAuction.endTime == 0){\n                auctions[_auctionId].endTime = currentTime + aucData.duration;\n            }\n            require(newAmount >= currentAuction.minimalPrice, \"bid can't be less than minimal price\");\n        } else {//there is bid in auction\n            require(currentAuction.buyer != newBuyer, \"already have an outstanding bid\");\n            uint256 minAmount = getMinimalNextBid(_auctionId);\n            require(newAmount >= minAmount, \"bid amount too low\");\n        }\n        reserveValue(\n            currentAuction.buyAsset, \n            currentAuction.buyer, \n            newBuyer, \n            getBidTotalAmount(currentAuction.lastBid, currentAuction.protocolFee), \n            getBidTotalAmount(bid, currentAuction.protocolFee)\n        );\n        auctions[_auctionId].lastBid = bid;\n        auctions[_auctionId].buyer = newBuyer;\n\n        // extends auction time if it about to end\n        if (currentAuction.endTime - currentTime < EXTENSION_DURATION) {\n            auctions[_auctionId].endTime = currentTime + EXTENSION_DURATION;\n        }\n        emit BidPlaced(_auctionId, newBuyer, bid, auctions[_auctionId].endTime);\n    }\n\n    /// @dev reserves new bid and returns the last one if it exists\n    function reserveValue(LibAsset.AssetType memory _buyAssetType, address oldBuyer, address newBuyer, uint oldAmount, uint newAmount) internal {\n        LibAsset.Asset memory transferAsset;\n        if (oldBuyer != address(0x0)) {//return oldAmount to oldBuyer\n            transferAsset = LibAsset.Asset(_buyAssetType, oldAmount);\n            transfer(transferAsset, address(this), oldBuyer, TO_LOCK, UNLOCK);\n        }\n        transferAsset = LibAsset.Asset(_buyAssetType, newAmount);\n        if (transferAsset.assetType.assetClass == LibAsset.ETH_ASSET_CLASS) {\n            if (msg.value > newAmount) {//more ETH than need\n                address(newBuyer).transferEth(msg.value - newAmount);\n            }\n        } else {\n            transfer(transferAsset, newBuyer, address(this), TO_LOCK, LOCK);\n            setApproveForTransferProxy(transferAsset);\n        } \n    }\n\n    /// @dev returns the minimal amount of the next bid (without fees)\n    function getMinimalNextBid(uint _auctionId) public view returns (uint minBid){\n        Auction storage currentAuction = auctions[_auctionId];\n\n        if (currentAuction.buyer == address(0x0)) {\n            minBid = currentAuction.minimalPrice;\n        } else {\n            minBid = currentAuction.lastBid.amount + currentAuction.minimalStep;\n        }\n    }\n\n    /// @dev returns true if auction exists, false otherwise\n    function checkAuctionExistence(uint _auctionId) public view returns (bool){\n        return auctions[_auctionId].seller != address(0);\n    }\n\n    /// @dev returns true if newAmount is enough for buyOut\n    function buyOutVerify(uint _auctionId, uint newAmount) internal view returns (bool) {\n        LibAucDataV1.DataV1 memory aucData = LibAucDataV1.parse(auctions[_auctionId].data, auctions[_auctionId].dataType);\n\n        if (aucData.buyOutPrice > 0 && aucData.buyOutPrice <= newAmount) {\n            return true;\n        }\n        return false;\n    }\n\n    /// @dev finishes, deletes and transfers all assets for an auction if it's ended (it exists, it has at least one bid, now > endTme)\n    function finishAuction(uint _auctionId) external {\n        require(checkAuctionExistence(_auctionId), \"there is no auction with this id\");\n        require(\n            !checkAuctionRangeTime(_auctionId) &&\n            auctions[_auctionId].buyer != address(0),\n            \"only ended auction with bid can be finished\");\n        doTransfers(_auctionId);\n        deactivateAuction(_auctionId);\n    }\n\n    /// @dev transfers auction assets (sellAsset to buyer, buyAsset to seller)\n    function doTransfers(uint _auctionId) internal {\n        Auction memory currentAuction = auctions[_auctionId];\n        address seller = currentAuction.seller;\n        address buyer = currentAuction.buyer;\n        if (buyer != address(0x0)) {//bid exists\n            LibOrderDataV2.DataV2 memory bidData = LibBidDataV1.getPaymentData(currentAuction.lastBid.data, currentAuction.lastBid.dataType);\n            if (bidData.payouts.length == 0){\n                LibPart.Part[] memory payout = new LibPart.Part[](1);\n                payout[0].account = payable(buyer);\n                payout[0].value = 10000;\n                bidData.payouts = payout;\n            }\n            LibOrderDataV2.DataV2 memory aucData = LibAucDataV1.getPaymentData(currentAuction.data, currentAuction.dataType);\n            if (aucData.payouts.length == 0){\n                LibPart.Part[] memory payout = new LibPart.Part[](1);\n                payout[0].account = payable(seller);\n                payout[0].value = 10000;\n                aucData.payouts = payout;\n            }\n            doTransfersWithFees(\n                currentAuction.lastBid.amount, \n                address(this), \n                MatchFees(currentAuction.protocolFee, currentAuction.protocolFee, LibFeeSide.FeeSide.TAKE),\n                bidData, \n                aucData, \n                currentAuction.buyAsset, \n                currentAuction.sellAsset.assetType, \n                TO_MAKER\n            );\n            transferPayouts(currentAuction.sellAsset.assetType, currentAuction.sellAsset.value, address(this), bidData.payouts, TO_TAKER);\n        } else {\n            transfer(currentAuction.sellAsset, address(this), seller, TO_SELLER, UNLOCK); //nft back to seller\n        }\n    }\n\n    /// @dev returns true if auction started and hasn't finished yet, false otherwise\n    function checkAuctionRangeTime(uint _auctionId) public view returns (bool){\n        uint currentTime = block.timestamp;\n        LibAucDataV1.DataV1 memory aucData = LibAucDataV1.parse(auctions[_auctionId].data, auctions[_auctionId].dataType);\n        if (aucData.startTime > 0 && aucData.startTime > currentTime) {\n            return false;\n        }\n        uint endTime = auctions[_auctionId].endTime;\n        if (endTime > 0 && endTime < currentTime){\n            return false;\n        }\n        \n        return true;\n    }\n\n    /// @dev deletes auction after finalizing\n    function deactivateAuction(uint _auctionId) internal {\n        emit AuctionFinished(_auctionId, auctions[_auctionId]);\n        deleteAuctionForToken(auctions[_auctionId].sellAsset);\n        delete auctions[_auctionId];\n    }\n\n    /// @dev cancels existing auction without bid\n    function cancel(uint _auctionId) external {\n        require(checkAuctionExistence(_auctionId), \"there is no auction with this id\");\n        Auction storage currentAuction = auctions[_auctionId];\n        address seller = currentAuction.seller;\n        require(seller == _msgSender(), \"auction owner not detected\");\n        require(currentAuction.buyer == address(0), \"can't cancel auction with bid\");\n        transfer(currentAuction.sellAsset, address(this), seller, TO_SELLER, UNLOCK); //nft transfer back to seller\n        deactivateAuction(_auctionId);\n        emit AuctionCancelled(_auctionId);\n    }\n\n    /// @dev buyout auction if bid satisfies buyout condition\n    function buyOut(uint _auctionId, Bid memory bid) external payable {\n        checkAuctionInProgress(_auctionId);\n\n        require(buyOutVerify(_auctionId, bid.amount), \"not enough for buyout auction\");\n        _buyOut(_auctionId, bid);\n        doTransfers(_auctionId);\n        deactivateAuction(_auctionId);\n    }\n\n    /// @dev makes buyout bid the current bid\n    function _buyOut(uint _auctionId, Bid memory bid) internal {\n        address payable newBuyer = _msgSender();\n        Auction storage currentAuction = auctions[_auctionId];\n        reserveValue(\n            currentAuction.buyAsset, \n            currentAuction.buyer, \n            newBuyer, \n            getBidTotalAmount(currentAuction.lastBid, currentAuction.protocolFee), \n            getBidTotalAmount(bid, currentAuction.protocolFee)\n        );\n        currentAuction.lastBid = bid;\n        currentAuction.buyer = newBuyer;\n    }\n\n    /// @dev returns current highest bidder for an auction\n    function getCurrentBuyer(uint _auctionId) public view returns(address) {\n        return auctions[_auctionId].buyer;\n    }\n\n    /// @dev returns true if auction in progress, false otherwise\n    function checkAuctionInProgress(uint _auctionId) internal view{\n        require(checkAuctionExistence(_auctionId) && checkAuctionRangeTime(_auctionId), \"auction is inactive\");\n    }\n\n    /// @dev returns total amount for a bid (protocol fee and bid origin fees included)\n    function getBidTotalAmount(Bid memory bid, uint _protocolFee) internal pure returns(uint){\n        return calculateTotalAmount(bid.amount, _protocolFee, LibBidDataV1.getOrigin(bid.data, bid.dataType));\n    }\n\n    /// @dev function to call from wrapper to put bid\n    function putBidWrapper(uint256 _auctionId) external payable {\n      require(auctions[_auctionId].buyAsset.assetClass == LibAsset.ETH_ASSET_CLASS, \"only ETH bids allowed\");\n      putBid(_auctionId, Bid(msg.value, \"\", \"\"));\n    }\n\n    uint256[50] private ______gap;\n}",
  "sourcePath": "/Users/ds/Documents/rarible/protocol-contracts/auction/contracts/AuctionHouse.sol",
  "compiler": {
    "name": "solc",
    "version": "0.7.6+commit.7338295f.Emscripten.clang"
  },
  "schemaVersion": "3.4.3",
  "updatedAt": "2022-01-14T15:39:53.585Z",
  "networkType": "ethereum",
  "devdoc": {
    "details": "contract to create and interact with auctions ",
    "kind": "dev",
    "methods": {
      "buyOut(uint256,(uint256,bytes4,bytes))": {
        "details": "buyout auction if bid satisfies buyout condition"
      },
      "cancel(uint256)": {
        "details": "cancels existing auction without bid"
      },
      "checkAuctionExistence(uint256)": {
        "details": "returns true if auction exists, false otherwise"
      },
      "checkAuctionRangeTime(uint256)": {
        "details": "returns true if auction started and hasn't finished yet, false otherwise"
      },
      "finishAuction(uint256)": {
        "details": "finishes, deletes and transfers all assets for an auction if it's ended (it exists, it has at least one bid, now > endTme)"
      },
      "getAuctionByToken(address,uint256)": {
        "details": "returns auction id by token address and token id"
      },
      "getCurrentBuyer(uint256)": {
        "details": "returns current highest bidder for an auction"
      },
      "getMinimalNextBid(uint256)": {
        "details": "returns the minimal amount of the next bid (without fees)"
      },
      "onERC721Received(address,address,uint256,bytes)": {
        "details": "See {IERC721Receiver-onERC721Received}. Always returns `IERC721Receiver.onERC721Received.selector`."
      },
      "owner()": {
        "details": "Returns the address of the current owner."
      },
      "putBid(uint256,(uint256,bytes4,bytes))": {
        "details": "put a bid and return locked assets for the last bid"
      },
      "putBidWrapper(uint256)": {
        "details": "function to call from wrapper to put bid"
      },
      "renounceOwnership()": {
        "details": "Leaves the contract without owner. It will not be possible to call `onlyOwner` functions anymore. Can only be called by the current owner. NOTE: Renouncing ownership will leave the contract without an owner, thereby removing any functionality that is only available to the owner."
      },
      "startAuction(((bytes4,bytes),uint256),(bytes4,bytes),uint256,uint256,bytes4,bytes)": {
        "details": "creates an auction and locks sell asset"
      },
      "supportsInterface(bytes4)": {
        "details": "See {IERC165-supportsInterface}. Time complexity O(1), guaranteed to always use less than 30 000 gas."
      },
      "transferOwnership(address)": {
        "details": "Transfers ownership of the contract to a new account (`newOwner`). Can only be called by the current owner."
      }
    },
    "stateVariables": {
      "EXTENSION_DURATION": {
        "details": "minimal auction duration and also the time for that auction is extended when it's about to end (endTime - now < EXTENSION_DURATION)"
      },
      "MAX_DURATION": {
        "details": "maximum auction duration"
      },
      "auctionId": {
        "details": "latest auctionId"
      },
      "auctions": {
        "details": "mapping to store data of auctions for auctionId"
      }
    },
    "version": 1
  },
  "userdoc": {
    "kind": "user",
    "methods": {},
    "version": 1
  }
}