{
  "contractName": "MerkleValidator",
  "abi": [
    {
      "inputs": [
        {
          "internalType": "address",
          "name": "from",
          "type": "address"
        },
        {
          "internalType": "address",
          "name": "to",
          "type": "address"
        },
        {
          "internalType": "contract IERC721",
          "name": "token",
          "type": "address"
        },
        {
          "internalType": "uint256",
          "name": "tokenId",
          "type": "uint256"
        },
        {
          "internalType": "bytes32",
          "name": "root",
          "type": "bytes32"
        },
        {
          "internalType": "bytes32[]",
          "name": "proof",
          "type": "bytes32[]"
        }
      ],
      "name": "matchERC721UsingCriteria",
      "outputs": [
        {
          "internalType": "bool",
          "name": "",
          "type": "bool"
        }
      ],
      "stateMutability": "nonpayable",
      "type": "function"
    },
    {
      "inputs": [
        {
          "internalType": "address",
          "name": "from",
          "type": "address"
        },
        {
          "internalType": "address",
          "name": "to",
          "type": "address"
        },
        {
          "internalType": "contract IERC721",
          "name": "token",
          "type": "address"
        },
        {
          "internalType": "uint256",
          "name": "tokenId",
          "type": "uint256"
        },
        {
          "internalType": "bytes32",
          "name": "root",
          "type": "bytes32"
        },
        {
          "internalType": "bytes32[]",
          "name": "proof",
          "type": "bytes32[]"
        }
      ],
      "name": "matchERC721WithSafeTransferUsingCriteria",
      "outputs": [
        {
          "internalType": "bool",
          "name": "",
          "type": "bool"
        }
      ],
      "stateMutability": "nonpayable",
      "type": "function"
    },
    {
      "inputs": [
        {
          "internalType": "address",
          "name": "from",
          "type": "address"
        },
        {
          "internalType": "address",
          "name": "to",
          "type": "address"
        },
        {
          "internalType": "contract IERC1155",
          "name": "token",
          "type": "address"
        },
        {
          "internalType": "uint256",
          "name": "tokenId",
          "type": "uint256"
        },
        {
          "internalType": "uint256",
          "name": "amount",
          "type": "uint256"
        },
        {
          "internalType": "bytes32",
          "name": "root",
          "type": "bytes32"
        },
        {
          "internalType": "bytes32[]",
          "name": "proof",
          "type": "bytes32[]"
        }
      ],
      "name": "matchERC1155UsingCriteria",
      "outputs": [
        {
          "internalType": "bool",
          "name": "",
          "type": "bool"
        }
      ],
      "stateMutability": "nonpayable",
      "type": "function"
    }
  ],
  "bytecode": "0x608060405234801561001057600080fd5b506103de806100206000396000f3fe608060405234801561001057600080fd5b50600436106100415760003560e01c806396809f9014610046578063c5a0236e146100fe578063fb16a5951461019b575b600080fd5b6100ea600480360360e081101561005c57600080fd5b6001600160a01b038235811692602081013582169260408201359092169160608201359160808101359160a0820135919081019060e0810160c08201356401000000008111156100ab57600080fd5b8201836020820111156100bd57600080fd5b803590602001918460208302840111640100000000831117156100df57600080fd5b509092509050610238565b604080519115158252519081900360200190f35b6100ea600480360360c081101561011457600080fd5b6001600160a01b038235811692602081013582169260408201359092169160608201359160808101359181019060c0810160a082013564010000000081111561015c57600080fd5b82018360208201111561016e57600080fd5b8035906020019184602083028401116401000000008311171561019057600080fd5b5090925090506102ce565b6100ea600480360360c08110156101b157600080fd5b6001600160a01b038235811692602081013582169260408201359092169160608201359160808101359181019060c0810160a08201356401000000008111156101f957600080fd5b82018360208201111561020b57600080fd5b8035906020019184602083028401116401000000008311171561022d57600080fd5b50909250905061034e565b60408051637921219560e11b81526001600160a01b038a811660048301528981166024830152604482018890526064820187905260a06084830152600060a4830181905292519089169163f242432a9160c4808301928692919082900301818387803b1580156102a757600080fd5b505af11580156102bb573d6000803e3d6000fd5b5060019c9b505050505050505050505050565b60408051632142170760e11b81526001600160a01b03898116600483015288811660248301526044820187905291516000928816916342842e0e916064808301928692919082900301818387803b15801561032857600080fd5b505af115801561033c573d6000803e3d6000fd5b5060019b9a5050505050505050505050565b604080516323b872dd60e01b81526001600160a01b03898116600483015288811660248301526044820187905291516000928816916323b872dd916064808301928692919082900301818387803b15801561032857600080fdfea2646970667358221220181835df0296d0822fe4bc1af678b6466f8eeebb8f2dce250526b388e58ed4d264736f6c63430007060033",
  "immutableReferences": {},
  "source": "/**\n *Submitted for verification at Etherscan.io on 2022-02-02\n*/\n\npragma solidity 0.7.6;\n\nimport \"@openzeppelin/contracts/token/ERC721/IERC721.sol\";\nimport \"@openzeppelin/contracts/token/ERC1155/IERC1155.sol\";\n\ncontract MerkleValidator {\n\n    function matchERC721UsingCriteria(\n        address from,\n        address to,\n        IERC721 token,\n        uint256 tokenId,\n        bytes32 root,\n        bytes32[] calldata proof\n    ) external returns (bool) {\n        token.transferFrom(from, to, tokenId);\n        return true;\n    }\n\n    function matchERC721WithSafeTransferUsingCriteria(\n        address from,\n        address to,\n        IERC721 token,\n        uint256 tokenId,\n        bytes32 root,\n        bytes32[] calldata proof\n    ) external returns (bool) {\n        token.safeTransferFrom(from, to, tokenId);\n        return true;\n    }\n\n    function matchERC1155UsingCriteria(\n        address from,\n        address to,\n        IERC1155 token,\n        uint256 tokenId,\n        uint256 amount,\n        bytes32 root,\n        bytes32[] calldata proof\n    ) external returns (bool) {\n        token.safeTransferFrom(from, to, tokenId, amount, \"\");\n        return true;\n    }\n}",
  "sourcePath": "/Users/eugene/Projects/rarible/protocol-contracts/exchange-v2/contracts/MerkleValidator.sol",
  "compiler": {
    "name": "solc",
    "version": "0.7.6+commit.7338295f.Emscripten.clang"
  },
  "schemaVersion": "3.4.4",
  "updatedAt": "2022-02-17T05:58:57.758Z",
  "devdoc": {
    "kind": "dev",
    "methods": {},
    "version": 1
  },
  "userdoc": {
    "kind": "user",
    "methods": {},
    "version": 1
  }
}