{
  "contractName": "AuctionHouse1155",
  "abi": [
    {
      "anonymous": false,
      "inputs": [
        {
          "indexed": true,
          "internalType": "uint256",
          "name": "auctionId",
          "type": "uint256"
        },
        {
          "indexed": false,
          "internalType": "address",
          "name": "buyer",
          "type": "address"
        }
      ],
      "name": "AuctionBuyOut",
      "type": "event"
    },
    {
      "anonymous": false,
      "inputs": [
        {
          "indexed": true,
          "internalType": "uint256",
          "name": "auctionId",
          "type": "uint256"
        }
      ],
      "name": "AuctionCancelled",
      "type": "event"
    },
    {
      "anonymous": false,
      "inputs": [
        {
          "indexed": true,
          "internalType": "uint256",
          "name": "auctionId",
          "type": "uint256"
        },
        {
          "indexed": false,
          "internalType": "address",
          "name": "seller",
          "type": "address"
        },
        {
          "indexed": false,
          "internalType": "uint128",
          "name": "endTime",
          "type": "uint128"
        }
      ],
      "name": "AuctionCreated",
      "type": "event"
    },
    {
      "anonymous": false,
      "inputs": [
        {
          "indexed": true,
          "internalType": "uint256",
          "name": "auctionId",
          "type": "uint256"
        }
      ],
      "name": "AuctionFinished",
      "type": "event"
    },
    {
      "anonymous": false,
      "inputs": [
        {
          "indexed": true,
          "internalType": "address",
          "name": "owner",
          "type": "address"
        },
        {
          "indexed": false,
          "internalType": "uint256",
          "name": "added",
          "type": "uint256"
        },
        {
          "indexed": false,
          "internalType": "uint256",
          "name": "total",
          "type": "uint256"
        }
      ],
      "name": "AvailableToWithdraw",
      "type": "event"
    },
    {
      "anonymous": false,
      "inputs": [
        {
          "indexed": true,
          "internalType": "uint256",
          "name": "auctionId",
          "type": "uint256"
        },
        {
          "indexed": false,
          "internalType": "address",
          "name": "buyer",
          "type": "address"
        },
        {
          "indexed": false,
          "internalType": "uint256",
          "name": "endTime",
          "type": "uint256"
        }
      ],
      "name": "BidPlaced",
      "type": "event"
    },
    {
      "anonymous": false,
      "inputs": [
        {
          "indexed": false,
          "internalType": "uint256",
          "name": "oldValue",
          "type": "uint256"
        },
        {
          "indexed": false,
          "internalType": "uint256",
          "name": "newValue",
          "type": "uint256"
        }
      ],
      "name": "MinimalDurationChanged",
      "type": "event"
    },
    {
      "anonymous": false,
      "inputs": [
        {
          "indexed": false,
          "internalType": "uint256",
          "name": "oldValue",
          "type": "uint256"
        },
        {
          "indexed": false,
          "internalType": "uint256",
          "name": "newValue",
          "type": "uint256"
        }
      ],
      "name": "MinimalStepChanged",
      "type": "event"
    },
    {
      "anonymous": false,
      "inputs": [
        {
          "indexed": true,
          "internalType": "address",
          "name": "previousOwner",
          "type": "address"
        },
        {
          "indexed": true,
          "internalType": "address",
          "name": "newOwner",
          "type": "address"
        }
      ],
      "name": "OwnershipTransferred",
      "type": "event"
    },
    {
      "anonymous": false,
      "inputs": [
        {
          "indexed": false,
          "internalType": "uint256",
          "name": "oldValue",
          "type": "uint256"
        },
        {
          "indexed": false,
          "internalType": "uint256",
          "name": "newValue",
          "type": "uint256"
        }
      ],
      "name": "ProtocolFeeChanged",
      "type": "event"
    },
    {
      "anonymous": false,
      "inputs": [
        {
          "indexed": true,
          "internalType": "bytes4",
          "name": "assetType",
          "type": "bytes4"
        },
        {
          "indexed": false,
          "internalType": "address",
          "name": "proxy",
          "type": "address"
        }
      ],
      "name": "ProxyChange",
      "type": "event"
    },
    {
      "inputs": [],
      "name": "auctionId",
      "outputs": [
        {
          "internalType": "uint256",
          "name": "",
          "type": "uint256"
        }
      ],
      "stateMutability": "view",
      "type": "function"
    },
    {
      "inputs": [
        {
          "internalType": "uint96",
          "name": "newValue",
          "type": "uint96"
        }
      ],
      "name": "changeMinimalDuration",
      "outputs": [],
      "stateMutability": "nonpayable",
      "type": "function"
    },
    {
      "inputs": [
        {
          "internalType": "uint96",
          "name": "newValue",
          "type": "uint96"
        }
      ],
      "name": "changeMinimalStep",
      "outputs": [],
      "stateMutability": "nonpayable",
      "type": "function"
    },
    {
      "inputs": [],
      "name": "defaultFeeReceiver",
      "outputs": [
        {
          "internalType": "address",
          "name": "",
          "type": "address"
        }
      ],
      "stateMutability": "view",
      "type": "function"
    },
    {
      "inputs": [
        {
          "internalType": "address",
          "name": "",
          "type": "address"
        }
      ],
      "name": "feeReceivers",
      "outputs": [
        {
          "internalType": "address",
          "name": "",
          "type": "address"
        }
      ],
      "stateMutability": "view",
      "type": "function"
    },
    {
      "inputs": [],
      "name": "minimalDuration",
      "outputs": [
        {
          "internalType": "uint96",
          "name": "",
          "type": "uint96"
        }
      ],
      "stateMutability": "view",
      "type": "function"
    },
    {
      "inputs": [],
      "name": "minimalStepBasePoint",
      "outputs": [
        {
          "internalType": "uint96",
          "name": "",
          "type": "uint96"
        }
      ],
      "stateMutability": "view",
      "type": "function"
    },
    {
      "inputs": [
        {
          "internalType": "address",
          "name": "",
          "type": "address"
        },
        {
          "internalType": "address",
          "name": "",
          "type": "address"
        },
        {
          "internalType": "uint256[]",
          "name": "",
          "type": "uint256[]"
        },
        {
          "internalType": "uint256[]",
          "name": "",
          "type": "uint256[]"
        },
        {
          "internalType": "bytes",
          "name": "",
          "type": "bytes"
        }
      ],
      "name": "onERC1155BatchReceived",
      "outputs": [
        {
          "internalType": "bytes4",
          "name": "",
          "type": "bytes4"
        }
      ],
      "stateMutability": "nonpayable",
      "type": "function"
    },
    {
      "inputs": [
        {
          "internalType": "address",
          "name": "",
          "type": "address"
        },
        {
          "internalType": "address",
          "name": "",
          "type": "address"
        },
        {
          "internalType": "uint256",
          "name": "",
          "type": "uint256"
        },
        {
          "internalType": "uint256",
          "name": "",
          "type": "uint256"
        },
        {
          "internalType": "bytes",
          "name": "",
          "type": "bytes"
        }
      ],
      "name": "onERC1155Received",
      "outputs": [
        {
          "internalType": "bytes4",
          "name": "",
          "type": "bytes4"
        }
      ],
      "stateMutability": "nonpayable",
      "type": "function"
    },
    {
      "inputs": [],
      "name": "owner",
      "outputs": [
        {
          "internalType": "address",
          "name": "",
          "type": "address"
        }
      ],
      "stateMutability": "view",
      "type": "function"
    },
    {
      "inputs": [],
      "name": "protocolFee",
      "outputs": [
        {
          "internalType": "uint256",
          "name": "",
          "type": "uint256"
        }
      ],
      "stateMutability": "view",
      "type": "function"
    },
    {
      "inputs": [],
      "name": "renounceOwnership",
      "outputs": [],
      "stateMutability": "nonpayable",
      "type": "function"
    },
    {
      "inputs": [],
      "name": "royaltiesRegistry",
      "outputs": [
        {
          "internalType": "contract IRoyaltiesProvider",
          "name": "",
          "type": "address"
        }
      ],
      "stateMutability": "view",
      "type": "function"
    },
    {
      "inputs": [
        {
          "internalType": "address payable",
          "name": "newDefaultFeeReceiver",
          "type": "address"
        }
      ],
      "name": "setDefaultFeeReceiver",
      "outputs": [],
      "stateMutability": "nonpayable",
      "type": "function"
    },
    {
      "inputs": [
        {
          "internalType": "address",
          "name": "token",
          "type": "address"
        },
        {
          "internalType": "address",
          "name": "wallet",
          "type": "address"
        }
      ],
      "name": "setFeeReceiver",
      "outputs": [],
      "stateMutability": "nonpayable",
      "type": "function"
    },
    {
      "inputs": [
        {
          "internalType": "uint64",
          "name": "_protocolFee",
          "type": "uint64"
        }
      ],
      "name": "setProtocolFee",
      "outputs": [],
      "stateMutability": "nonpayable",
      "type": "function"
    },
    {
      "inputs": [
        {
          "internalType": "contract IRoyaltiesProvider",
          "name": "newRoyaltiesRegistry",
          "type": "address"
        }
      ],
      "name": "setRoyaltiesRegistry",
      "outputs": [],
      "stateMutability": "nonpayable",
      "type": "function"
    },
    {
      "inputs": [
        {
          "internalType": "bytes4",
          "name": "assetType",
          "type": "bytes4"
        },
        {
          "internalType": "address",
          "name": "proxy",
          "type": "address"
        }
      ],
      "name": "setTransferProxy",
      "outputs": [],
      "stateMutability": "nonpayable",
      "type": "function"
    },
    {
      "inputs": [
        {
          "internalType": "address",
          "name": "newOwner",
          "type": "address"
        }
      ],
      "name": "transferOwnership",
      "outputs": [],
      "stateMutability": "nonpayable",
      "type": "function"
    },
    {
      "inputs": [
        {
          "internalType": "address",
          "name": "newDefaultFeeReceiver",
          "type": "address"
        },
        {
          "internalType": "contract IRoyaltiesProvider",
          "name": "newRoyaltiesProvider",
          "type": "address"
        },
        {
          "internalType": "address",
          "name": "_transferProxy",
          "type": "address"
        },
        {
          "internalType": "address",
          "name": "_erc20TransferProxy",
          "type": "address"
        },
        {
          "internalType": "uint64",
          "name": "newProtocolFee",
          "type": "uint64"
        },
        {
          "internalType": "uint96",
          "name": "_minimalStepBasePoint",
          "type": "uint96"
        }
      ],
      "name": "__AuctionHouse1155_init",
      "outputs": [],
      "stateMutability": "nonpayable",
      "type": "function"
    },
    {
      "inputs": [
        {
          "internalType": "address",
          "name": "_sellToken",
          "type": "address"
        },
        {
          "internalType": "uint96",
          "name": "_sellTokenValue",
          "type": "uint96"
        },
        {
          "internalType": "uint256",
          "name": "_sellTokenId",
          "type": "uint256"
        },
        {
          "internalType": "address",
          "name": "_buyAsset",
          "type": "address"
        },
        {
          "internalType": "uint96",
          "name": "minimalPrice",
          "type": "uint96"
        },
        {
          "internalType": "bytes4",
          "name": "dataType",
          "type": "bytes4"
        },
        {
          "internalType": "bytes",
          "name": "data",
          "type": "bytes"
        }
      ],
      "name": "startAuction",
      "outputs": [],
      "stateMutability": "nonpayable",
      "type": "function"
    },
    {
      "inputs": [
        {
          "internalType": "uint256",
          "name": "_auctionId",
          "type": "uint256"
        },
        {
          "components": [
            {
              "internalType": "uint256",
              "name": "amount",
              "type": "uint256"
            },
            {
              "internalType": "bytes4",
              "name": "dataType",
              "type": "bytes4"
            },
            {
              "internalType": "bytes",
              "name": "data",
              "type": "bytes"
            }
          ],
          "internalType": "struct AuctionHouseStruct1155.Bid",
          "name": "bid",
          "type": "tuple"
        }
      ],
      "name": "putBid",
      "outputs": [],
      "stateMutability": "payable",
      "type": "function"
    },
    {
      "inputs": [
        {
          "internalType": "uint256",
          "name": "_auctionId",
          "type": "uint256"
        }
      ],
      "name": "getMinimalNextBid",
      "outputs": [
        {
          "internalType": "uint256",
          "name": "minBid",
          "type": "uint256"
        }
      ],
      "stateMutability": "view",
      "type": "function"
    },
    {
      "inputs": [
        {
          "internalType": "uint256",
          "name": "_auctionId",
          "type": "uint256"
        }
      ],
      "name": "checkAuctionExistence",
      "outputs": [
        {
          "internalType": "bool",
          "name": "",
          "type": "bool"
        }
      ],
      "stateMutability": "view",
      "type": "function"
    },
    {
      "inputs": [
        {
          "internalType": "uint256",
          "name": "_auctionId",
          "type": "uint256"
        }
      ],
      "name": "finishAuction",
      "outputs": [],
      "stateMutability": "nonpayable",
      "type": "function"
    },
    {
      "inputs": [
        {
          "internalType": "uint256",
          "name": "_auctionId",
          "type": "uint256"
        }
      ],
      "name": "checkAuctionRangeTime",
      "outputs": [
        {
          "internalType": "bool",
          "name": "",
          "type": "bool"
        }
      ],
      "stateMutability": "view",
      "type": "function"
    },
    {
      "inputs": [
        {
          "internalType": "uint256",
          "name": "_auctionId",
          "type": "uint256"
        }
      ],
      "name": "cancel",
      "outputs": [],
      "stateMutability": "nonpayable",
      "type": "function"
    },
    {
      "inputs": [
        {
          "internalType": "uint256",
          "name": "_auctionId",
          "type": "uint256"
        },
        {
          "components": [
            {
              "internalType": "uint256",
              "name": "amount",
              "type": "uint256"
            },
            {
              "internalType": "bytes4",
              "name": "dataType",
              "type": "bytes4"
            },
            {
              "internalType": "bytes",
              "name": "data",
              "type": "bytes"
            }
          ],
          "internalType": "struct AuctionHouseStruct1155.Bid",
          "name": "bid",
          "type": "tuple"
        }
      ],
      "name": "buyOut",
      "outputs": [],
      "stateMutability": "payable",
      "type": "function"
    },
    {
      "inputs": [
        {
          "internalType": "uint256",
          "name": "_auctionId",
          "type": "uint256"
        }
      ],
      "name": "getCurrentBuyer",
      "outputs": [
        {
          "internalType": "address",
          "name": "",
          "type": "address"
        }
      ],
      "stateMutability": "view",
      "type": "function"
    },
    {
      "inputs": [
        {
          "internalType": "uint256",
          "name": "_auctionId",
          "type": "uint256"
        }
      ],
      "name": "putBidWrapper",
      "outputs": [],
      "stateMutability": "payable",
      "type": "function"
    },
    {
      "inputs": [
        {
          "internalType": "address",
          "name": "_to",
          "type": "address"
        }
      ],
      "name": "withdrawFaultyBid",
      "outputs": [],
      "stateMutability": "nonpayable",
      "type": "function"
    },
    {
      "inputs": [
        {
          "internalType": "bytes4",
          "name": "interfaceId",
          "type": "bytes4"
        }
      ],
      "name": "supportsInterface",
      "outputs": [
        {
          "internalType": "bool",
          "name": "",
          "type": "bool"
        }
      ],
      "stateMutability": "view",
      "type": "function"
    }
  ],
  "bytecode": "0x608060405234801561001057600080fd5b506159f380620000216000396000f3fe6080604052600436106101e35760003560e01c80636eeb69db11610102578063bc197c8111610095578063e68aceae11610064578063e68aceae14610535578063ec57834814610555578063f23a6e6114610575578063f2fde38b14610595576101e3565b8063bc197c81146104a8578063bd9d21bd146104d5578063cf266ed0146104f5578063e66db25e14610515576101e3565b8063914bf5f9116100d1578063914bf5f91461044b578063a2a106b814610460578063a6f4a3e014610480578063b0e21e8a14610493576101e3565b80636eeb69db146103e1578063715018a61461040157806374d0d4f9146104165780638da5cb5b14610436576101e3565b8063363188151161017a57806343bc42d31161014957806343bc42d314610379578063506a90e7146103995780635f4a436e146103ac5780636d8f0694146103cc576101e3565b806336318815146103045780633abf6fd4146103245780633be899221461033957806340e58ee514610359576101e3565b80631cdfe3d8116101b65780631cdfe3d81461028d5780632a6bf6a8146102af5780632f572336146102c257806330c642f1146102e4576101e3565b806301ffc9a7146101e857806302097ab11461021e5780630d6079641461024b57806310782f8f14610278575b600080fd5b3480156101f457600080fd5b50610208610203366004615037565b6105b5565b60405161021591906152b5565b60405180910390f35b34801561022a57600080fd5b5061023e610239366004614b23565b610633565b604051610215919061520a565b34801561025757600080fd5b5061026b61026636600461511a565b61064f565b60405161021591906157d5565b34801561028457600080fd5b5061026b61088d565b34801561029957600080fd5b506102ad6102a8366004614b23565b610894565b005b6102ad6102bd36600461511a565b610919565b3480156102ce57600080fd5b506102d76109ba565b6040516102159190615803565b3480156102f057600080fd5b506102ad6102ff366004615051565b6109ca565b34801561031057600080fd5b506102ad61031f3660046151eb565b610a9b565b34801561033057600080fd5b5061023e610b6d565b34801561034557600080fd5b506102ad610354366004614b23565b610b7d565b34801561036557600080fd5b506102ad61037436600461511a565b610c02565b34801561038557600080fd5b506102ad6103943660046151d1565b610f78565b6102ad6103a7366004615132565b611025565b3480156103b857600080fd5b506102ad6103c73660046151eb565b611610565b3480156103d857600080fd5b5061023e6116f3565b3480156103ed57600080fd5b5061023e6103fc36600461511a565b611703565b34801561040d57600080fd5b506102ad611721565b34801561042257600080fd5b506102ad610431366004614ebf565b6117cd565b34801561044257600080fd5b5061023e6118c4565b34801561045757600080fd5b506102d76118d3565b34801561046c57600080fd5b5061020861047b36600461511a565b6118ea565b6102ad61048e366004615132565b61190a565b34801561049f57600080fd5b5061026b611c52565b3480156104b457600080fd5b506104c86104c3366004614db0565b611c59565b60405161021591906152c0565b3480156104e157600080fd5b506102ad6104f0366004614b23565b611c6a565b34801561050157600080fd5b506102ad61051036600461511a565b611cda565b34801561052157600080fd5b506102ad610530366004614d78565b61214c565b34801561054157600080fd5b506102ad610550366004614f3e565b6121dd565b34801561056157600080fd5b5061020861057036600461511a565b612621565b34801561058157600080fd5b506104c8610590366004614e59565b61276c565b3480156105a157600080fd5b506102ad6105b0366004614b23565b61277d565b6040516301ffc9a760e01b815260009030906301ffc9a7906105db9085906004016152c0565b60206040518083038186803b1580156105f357600080fd5b505afa158015610607573d6000803e3d6000fd5b505050506040513d601f19601f8201168201806040525081019061062b9190615017565b90505b919050565b610131602052600090815260409020546001600160a01b031681565b600081815260976020908152604080832081516101808101835281546001600160a01b038082168352600160a01b918290046001600160601b039081168488015260018086015485880152600280870154938416606080880191909152949093049091166080850152855192830186526003850180548452600486015460e01b6001600160e01b0319168489015260058601805488516101009482161594909402600019011693909304601f810189900489028301890188528083528998959760a08901969294908601939290919083018282801561076f5780601f106107445761010080835404028352916020019161076f565b820191906000526020600020905b81548152906001019060200180831161075257829003601f168201915b50505091909252505050815260068201546001600160a01b03808216602080850191909152600160a01b928390046001600160601b0316604080860191909152600786015492831660608601529282046001600160401b03166080850152600160e01b90910460e01b6001600160e01b03191660a0840152600884018054835160026101006001841615026000190190921691909104601f810184900484028201840190945283815260c0909401939290918301828280156108725780601f1061084757610100808354040283529160200191610872565b820191906000526020600020905b81548152906001019060200180831161085557829003601f168201915b505050505081525050905061088681612880565b9392505050565b6101935481565b61089c6128de565b6001600160a01b03166108ad6118c4565b6001600160a01b0316146108f6576040805162461bcd60e51b8152602060048201819052602482015260008051602061599e833981519152604482015290519081900360640190fd5b61013080546001600160a01b0319166001600160a01b0392909216919091179055565b6000818152609760205260409020600201546001600160a01b03161561095a5760405162461bcd60e51b815260040161095190615379565b60405180910390fd5b6109b78160405180606001604052803481526020017f4c23426613a5dc69e08fbd2787e6210aa679d4522e95a89d4dd88c4fd13a22836001600160e01b031916815260200160405180602001604052806000815250815250611025565b50565b610194546001600160601b031681565b6109d26128de565b6001600160a01b03166109e36118c4565b6001600160a01b031614610a2c576040805162461bcd60e51b8152602060048201819052602482015260008051602061599e833981519152604482015290519081900360640190fd5b6001600160e01b03198216600081815261016060205260409081902080546001600160a01b0319166001600160a01b038516179055517f4b5aced933c0c9a88aeac3f0b3b72c5aaf75df8ebaf53225773248c4c315359390610a8f90849061520a565b60405180910390a25050565b610aa36128de565b6001600160a01b0316610ab46118c4565b6001600160a01b031614610afd576040805162461bcd60e51b8152602060048201819052602482015260008051602061599e833981519152604482015290519081900360640190fd5b610194546040517fa13d21133118bfdffd1e4dc724faaadc5860dcb38ac5836e06f183ac5306b27991610b3d916001600160601b03909116908490615817565b60405180910390a161019480546bffffffffffffffffffffffff19166001600160601b0392909216919091179055565b610130546001600160a01b031681565b610b856128de565b6001600160a01b0316610b966118c4565b6001600160a01b031614610bdf576040805162461bcd60e51b8152602060048201819052602482015260008051602061599e833981519152604482015290519081900360640190fd5b61012f80546001600160a01b0319166001600160a01b0392909216919091179055565b600260fc541415610c48576040805162461bcd60e51b815260206004820152601f60248201526000805160206158e9833981519152604482015290519081900360640190fd5b600260fc819055600082815260976020908152604080832081516101808101835281546001600160a01b038082168352600160a01b918290046001600160601b039081168488015260018086015485880152858a015492831660608087019190915293909204166080840152845191820185526003840180548352600485015460e01b6001600160e01b0319168388015260058501805487516101009482161594909402600019011699909904601f8101889004880283018801875280835297989397949660a089019693959194938601939190830182828015610d6d5780601f10610d4257610100808354040283529160200191610d6d565b820191906000526020600020905b815481529060010190602001808311610d5057829003601f168201915b50505091909252505050815260068201546001600160a01b03808216602080850191909152600160a01b928390046001600160601b0316604080860191909152600786015492831660608601529282046001600160401b03166080850152600160e01b90910460e01b6001600160e01b03191660a0840152600884018054835160026101006001841615026000190190921691909104601f810184900484028201840190945283815260c090940193929091830182828015610e705780601f10610e4557610100808354040283529160200191610e70565b820191906000526020600020905b815481529060010190602001808311610e5357829003601f168201915b5050505050815250509050610e84816128e2565b610ea05760405162461bcd60e51b8152600401610951906153df565b60c0810151610ead6128de565b6001600160a01b0316816001600160a01b031614610edd5760405162461bcd60e51b8152600401610951906154a9565b6101008201516001600160a01b031615610f095760405162461bcd60e51b8152600401610951906155b8565b610f3a8260000151836040015184602001516001600160601b031660008051602061597e83398151915230866128f4565b610f4383612938565b60405183907f2809c7e17bf978fbc7194c0a694b638c4215e9140cacc6c38ca36010b45697df90600090a25050600160fc5550565b610f806128de565b6001600160a01b0316610f916118c4565b6001600160a01b031614610fda576040805162461bcd60e51b8152602060048201819052602482015260008051602061599e833981519152604482015290519081900360640190fd5b7fb51bef650ff5ad43303dbe2e500a74d4fd1bdc9ae05f046bece330e82ae0ba8761012e548260405161100e9291906157ec565b60405180910390a16001600160401b031661012e55565b600260fc54141561106b576040805162461bcd60e51b815260206004820152601f60248201526000805160206158e9833981519152604482015290519081900360640190fd5b600260fc55600061107a6128de565b8251600085815260976020908152604080832081516101808101835281546001600160a01b038082168352600160a01b918290046001600160601b039081168488015260018086015485880152600280870154938416606080880191909152949093049091166080850152855192830186526003850180548452600486015460e01b6001600160e01b0319168489015260058601805488516101009482161594909402600019011693909304601f810189900489028301890188528083529a9b50989997989397949660a0890196939593860193919291908301828280156111a35780601f10611178576101008083540402835291602001916111a3565b820191906000526020600020905b81548152906001019060200180831161118657829003601f168201915b50505091909252505050815260068201546001600160a01b03808216602080850191909152600160a01b928390046001600160601b0316604080860191909152600786015492831660608601529282046001600160401b03166080850152600160e01b90910460e01b6001600160e01b03191660a0840152600884018054835160026101006001841615026000190190921691909104601f810184900484028201840190945283815260c0909401939290918301828280156112a65780601f1061127b576101008083540402835291602001916112a6565b820191906000526020600020905b81548152906001019060200180831161128957829003601f168201915b505050505081525050905060008160800151905060006112d08361016001518461014001516129c9565b905060006112e687604001518860200151612a2b565b600001519050600061131388600001518661012001516001600160401b031661130e85612a7f565b612b1c565b60608601519091506001600160a01b0316611332576113328188612b8f565b61133c8584612bdd565b6113468387612c31565b15611365576113598589858c868c612c72565b50505050505050611607565b61010085015142906001600160a01b03166114145760808601516001600160601b03166113e25760208401516113a5906001600160601b03831690612e34565b60008b815260976020526040902060020180546001600160a01b0316600160a01b6001600160601b03841690810291909117909155608088015294505b8560e001516001600160601b031687101561140f5760405162461bcd60e51b8152600401610951906154e0565b61147a565b876001600160a01b03168661010001516001600160a01b0316141561144b5760405162461bcd60e51b8152600401610951906155ef565b600061145687612880565b9050808810156114785760405162461bcd60e51b815260040161095190615414565b505b60006114898760600151612e9a565b90506114b587606001518861012001516001600160401b03168961010001518c8b60a001518689612eee565b60008b8152609760209081526040918290208c51600382019081558d83015160048301805463ffffffff191660e09290921c919091179055928d015180518e949361150593600501920190614765565b50505060008b815260976020526040812060070180546001600160a01b0319166001600160a01b038c16179055610194546001600160601b031690610384821061155157610384611553565b815b90506001600160601b038082169061156d908a1686612f08565b6001600160601b031610156115c15761158f6001600160601b03851682612e34565b60008e815260976020526040902060020180546001600160a01b0316600160a01b6001600160601b0384160217905597505b8c7f0e54eff26401bf69b81b26f60bd85ef47f5d85275c1d268d84f68d6897431c478c8a6040516115f392919061521e565b60405180910390a250505050505050505050505b5050600160fc55565b6116186128de565b6001600160a01b03166116296118c4565b6001600160a01b031614611672576040805162461bcd60e51b8152602060048201819052602482015260008051602061599e833981519152604482015290519081900360640190fd5b7f30bd79db520376a437e44c44c2b3ec63f6730f4df0a95f56ea39765f1420cab7610194600c9054906101000a90046001600160601b0316826040516116b9929190615817565b60405180910390a161019480546001600160601b03909216600160601b026bffffffffffffffffffffffff60601b19909216919091179055565b61012f546001600160a01b031681565b6000908152609760205260409020600701546001600160a01b031690565b6117296128de565b6001600160a01b031661173a6118c4565b6001600160a01b031614611783576040805162461bcd60e51b8152602060048201819052602482015260008051602061599e833981519152604482015290519081900360640190fd5b60ca546040516000916001600160a01b0316907f8be0079c531659141344cd1fd0a4f28419497f9722a3daafe3b4186f6b6457e0908390a360ca80546001600160a01b0319169055565b600054610100900460ff16806117e657506117e6612f77565b806117f4575060005460ff16155b61182f5760405162461bcd60e51b815260040180806020018281038252602e81526020018061592f602e913960400191505060405180910390fd5b600054610100900460ff1615801561185a576000805460ff1961ff0019909116610100171660011790555b611862612f88565b61186a613029565b611872613122565b61187a6131bf565b61188382613265565b61188d858561334c565b6118a1836001600160401b031688886133f7565b6118a9612f88565b80156118bb576000805461ff00191690555b50505050505050565b60ca546001600160a01b031690565b61019454600160601b90046001600160601b031681565b6000908152609760205260409020600601546001600160a01b0316151590565b600260fc541415611950576040805162461bcd60e51b815260206004820152601f60248201526000805160206158e9833981519152604482015290519081900360640190fd5b600260fc819055600083815260976020908152604080832081516101808101835281546001600160a01b038082168352600160a01b918290046001600160601b039081168488015260018086015485880152858a015492831660608087019190915293909204166080840152845191820185526003840180548352600485015460e01b6001600160e01b0319168388015260058501805487516101009482161594909402600019011699909904601f8101889004880283018801875280835297989397949660a089019693959194938601939190830182828015611a755780601f10611a4a57610100808354040283529160200191611a75565b820191906000526020600020905b815481529060010190602001808311611a5857829003601f168201915b50505091909252505050815260068201546001600160a01b03808216602080850191909152600160a01b928390046001600160601b0316604080860191909152600786015492831660608601529282046001600160401b03166080850152600160e01b90910460e01b6001600160e01b03191660a0840152600884018054835160026101006001841615026000190190921691909104601f810184900484028201840190945283815260c090940193929091830182828015611b785780601f10611b4d57610100808354040283529160200191611b78565b820191906000526020600020905b815481529060010190602001808311611b5b57829003601f168201915b50505050508152505090506000611b998261016001518361014001516129c9565b9050611ba58282612bdd565b611bb3818460000151612c31565b611bcf5760405162461bcd60e51b815260040161095190615589565b6000611be384604001518560200151612a2b565b6000015190506000611c0b85600001518561012001516001600160401b031661130e85612a7f565b90506000611c176128de565b60608601519091506001600160a01b0316611c3657611c368282612b8f565b611c448587868a8786612c72565b5050600160fc555050505050565b61012e5481565b63bc197c8160e01b95945050505050565b6000611c746128de565b6001600160a01b0381166000908152610192602052604090205490915080611cae5760405162461bcd60e51b815260040161095190615680565b6001600160a01b0380831660009081526101926020526040812055611cd5908416826134d3565b505050565b600260fc541415611d20576040805162461bcd60e51b815260206004820152601f60248201526000805160206158e9833981519152604482015290519081900360640190fd5b600260fc819055600082815260976020908152604080832081516101808101835281546001600160a01b038082168352600160a01b918290046001600160601b039081168488015260018086015485880152858a015492831660608087019190915293909204166080840152845191820185526003840180548352600485015460e01b6001600160e01b0319168388015260058501805487516101009482161594909402600019011699909904601f8101889004880283018801875280835297989397949660a089019693959194938601939190830182828015611e455780601f10611e1a57610100808354040283529160200191611e45565b820191906000526020600020905b815481529060010190602001808311611e2857829003601f168201915b50505091909252505050815260068201546001600160a01b03808216602080850191909152600160a01b928390046001600160601b0316604080860191909152600786015492831660608601529282046001600160401b03166080850152600160e01b90910460e01b6001600160e01b03191660a0840152600884018054835160026101006001841615026000190190921691909104601f810184900484028201840190945283815260c090940193929091830182828015611f485780601f10611f1d57610100808354040283529160200191611f48565b820191906000526020600020905b815481529060010190602001808311611f2b57829003601f168201915b5050505050815250509050611f5c816128e2565b611f785760405162461bcd60e51b8152600401610951906153df565b6000611f8e8261016001518361014001516129c9565b9050611fb482608001516001600160601b031682604001516001600160601b031661356b565b158015611fce57506101008201516001600160a01b031615155b611fea5760405162461bcd60e51b8152600401610951906156dd565b60006120068360a00151604001518460a0015160200151612a2b565b6000015190506121366040518060a001604052806120498660000151876040015188602001516001600160601b031660008051602061597e8339815191526135b4565b815260200161205b8660c00151613602565b815260200161206d8560000151612a7f565b815263025ceed960e61b60005261016060209081527ff87b4bee0c38b7733cf6e6ae6e9ff68e97be771feb4d52f12144e922b7be163a546001600160a01b03169082015230604091820152805160a080820190925260608701519187015151909182916120da919061367c565b81526020016120ed876101000151613602565b81526020016120fb85612a7f565b815260200161210d8760600151612e9a565b6001600160a01b03168152306020909101526101208601516002906001600160401b03166136e3565b505061214184612938565b5050600160fc555050565b6121546128de565b6001600160a01b03166121656118c4565b6001600160a01b0316146121ae576040805162461bcd60e51b8152602060048201819052602482015260008051602061599e833981519152604482015290519081900360640190fd5b6001600160a01b0391821660009081526101316020526040902080546001600160a01b03191691909216179055565b60006121e982846129c9565b6101945460208201519192506001600160601b0390811691161080159061222a57506305265c006001600160801b031681602001516001600160601b031611155b6122465760405162461bcd60e51b81526004016109519061547d565b6000876001600160601b03161161226f5760405162461bcd60e51b815260040161095190615342565b60408101516000906001600160601b0316156122d9574282604001516001600160601b031610156122b25760405162461bcd60e51b81526004016109519061552f565b6122d6826020015183604001516001600160601b0316612e3490919063ffffffff16565b90505b60006122e36137d9565b905060006122ef6128de565b905060006040518061018001604052808d6001600160a01b031681526020018c6001600160601b031681526020018b81526020018a6001600160a01b03168152602001856001600160601b0316815260200160405180606001604052806000815260200160006001600160e01b0319168152602001604051806020016040528060008152508152508152602001836001600160a01b03168152602001896001600160601b0316815260200160006001600160a01b0316815260200161012e546001600160401b03168152602001886001600160e01b0319168152602001878152509050806097600085815260200190815260200160002060008201518160000160006101000a8154816001600160a01b0302191690836001600160a01b0316021790555060208201518160000160146101000a8154816001600160601b0302191690836001600160601b031602179055506040820151816001015560608201518160020160006101000a8154816001600160a01b0302191690836001600160a01b0316021790555060808201518160020160146101000a8154816001600160601b0302191690836001600160601b0316021790555060a0820151816003016000820151816000015560208201518160010160006101000a81548163ffffffff021916908360e01c021790555060408201518160020190805190602001906124f7929190614765565b50505060c082015160068201805460e0808601516001600160601b0316600160a01b9081026001600160a01b039586166001600160a01b0319948516178616179093556101008601516007860180546101208901516101408a015190941c600160e01b026001600160e01b036001600160401b0390951690960267ffffffffffffffff60a01b199390971694169390931716939093179290921617905561016082015180516125b0916008840191602090910190614765565b509050506125d98c8b8d6001600160601b031660008051602061597e83398151915286306128f4565b827f651452447442638a9395d6ab7f472421a3c164ffea75651cbc2d0be20f444987838660405161260b92919061521e565b60405180910390a2505050505050505050505050565b60008181526097602090815260408083206008018054825160026001831615610100026000190190921691909104601f8101859004850282018501909352828152429385936126e493918301828280156126bc5780601f10612691576101008083540402835291602001916126bc565b820191906000526020600020905b81548152906001019060200180831161269f57829003601f168201915b505050600088815260976020526040902060070154600160e01b900460e01b91506129c99050565b9050600081604001516001600160601b031611801561270f57508181604001516001600160601b0316115b1561271f5760009250505061062e565b600084815260976020526040902060020154600160a01b90046001600160601b031680158015906127505750828111155b15612761576000935050505061062e565b506001949350505050565b63f23a6e6160e01b95945050505050565b6127856128de565b6001600160a01b03166127966118c4565b6001600160a01b0316146127df576040805162461bcd60e51b8152602060048201819052602482015260008051602061599e833981519152604482015290519081900360640190fd5b6001600160a01b0381166128245760405162461bcd60e51b81526004018080602001828103825260268152602001806159096026913960400191505060405180910390fd5b60ca546040516001600160a01b038084169216907f8be0079c531659141344cd1fd0a4f28419497f9722a3daafe3b4186f6b6457e090600090a360ca80546001600160a01b0319166001600160a01b0392909216919091179055565b6101008101516000906001600160a01b03166128aa575060e08101516001600160601b031661062e565b6101945460a08301515161062b916128d29190600160601b90046001600160601b03166137e8565b60a08401515190613800565b3390565b60c001516001600160a01b0316151590565b612930612903878787876135b4565b6001600160e01b0319851660009081526101606020526040902054849084906001600160a01b031661385a565b505050505050565b60405181907f53ab6823c4ae8c865033f94ee16313a21c6ade19520d884dc804d622a43bc67490600090a2600081815260976020526040812081815560018101829055600281018290556003810182815560048201805463ffffffff19169055909190816129a960058501826147f1565b505060006006830181905560078301819055611cd59060088401906147f1565b6129d1614835565b6001600160e01b03198216632611a13360e11b1415612a0d57825115612a085782806020019051810190612a05919061506c565b90505b612a25565b60405162461bcd60e51b8152600401610951906156ad565b92915050565b612a3361485c565b6001600160e01b03198216632611a13360e11b1415612a6757825115612a085782806020019051810190612a0591906150e0565b60405162461bcd60e51b815260040161095190615728565b60408051600180825281830190925260609160009190816020015b612aa261486f565b815260200190600190039081612a9a5790505090508281600081518110612ac557fe5b6020026020010151600001906001600160a01b031690816001600160a01b03168152505060a083901c81600081518110612afb57fe5b6020908102919091018101516001600160601b039092169101529050919050565b6000612b32612b2b85856137e8565b8590613800565b905060005b8251811015612b8757612b7d612b76848381518110612b5257fe5b6020026020010151602001516001600160601b0316876137e890919063ffffffff16565b8390613800565b9150600101612b37565b509392505050565b3482811015612bb05760405162461bcd60e51b815260040161095190615507565b6000612bbc3485613c51565b90508015612bd757612bd76001600160a01b038416826134d3565b50505050565b612be6826128e2565b8015612c115750612c1182608001516001600160601b031682604001516001600160601b031661356b565b612c2d5760405162461bcd60e51b81526004016109519061561c565b5050565b60008083606001516001600160601b0316118015612c5c57508183606001516001600160601b031611155b15612c6957506001612a25565b50600092915050565b6000612c818760600151612e9a565b9050612cab8760a0015188606001518961010001518a61012001516001600160401b031685613ca8565b60608701516000906001600160a01b0316612cc7575030612cca565b50815b612de46040518060a00160405280612d078b600001518c604001518d602001516001600160601b031660008051602061597e8339815191526135b4565b8152602001612d198b60c00151613602565b8152602001612d2b8960000151612a7f565b815263025ceed960e61b60005261016060209081527ff87b4bee0c38b7733cf6e6ae6e9ff68e97be771feb4d52f12144e922b7be163a546001600160a01b03169082015230604091820152805160a0810190915260608b01518a518291612d919161367c565b8152602001612d9f87613602565b8152602001612dad88612a7f565b8152602001856001600160a01b03168152602001846001600160a01b031681525060028b61012001516001600160401b03166136e3565b5050612def85612938565b610193547f10373d853b64ae416c332eacb659de0f9bfc4fa3601556194abce1991061efbe84604051612e22919061520a565b60405180910390a25050505050505050565b60008282016001600160601b038085169082161015610886576040805162461bcd60e51b815260206004820152601b60248201527f536166654d6174683a206164646974696f6e206f766572666c6f770000000000604482015290519081900360640190fd5b6000806001600160a01b0383161561062b5750506322ba176160e21b600052506101606020527fcc3321aeb8b7a2c9f2c5853bad52161a9b2c32ac951264909c8eb671f5e8a2fe546001600160a01b031690565b612efb8388878986613ca8565b6118bb8188863086613df9565b6000826001600160601b0316826001600160601b03161115612f71576040805162461bcd60e51b815260206004820152601e60248201527f536166654d6174683a207375627472616374696f6e206f766572666c6f770000604482015290519081900360640190fd5b50900390565b6000612f8230613e0e565b15905090565b600054610100900460ff1680612fa15750612fa1612f77565b80612faf575060005460ff16155b612fea5760405162461bcd60e51b815260040180806020018281038252602e81526020018061592f602e913960400191505060405180910390fd5b600054610100900460ff16158015613015576000805460ff1961ff0019909116610100171660011790555b80156109b7576000805461ff001916905550565b600054610100900460ff16806130425750613042612f77565b80613050575060005460ff16155b61308b5760405162461bcd60e51b815260040180806020018281038252602e81526020018061592f602e913960400191505060405180910390fd5b600054610100900460ff161580156130b6576000805460ff1961ff0019909116610100171660011790555b60006130c06128de565b60ca80546001600160a01b0319166001600160a01b038316908117909155604051919250906000907f8be0079c531659141344cd1fd0a4f28419497f9722a3daafe3b4186f6b6457e0908290a35080156109b7576000805461ff001916905550565b600054610100900460ff168061313b575061313b612f77565b80613149575060005460ff16155b6131845760405162461bcd60e51b815260040180806020018281038252602e81526020018061592f602e913960400191505060405180910390fd5b600054610100900460ff161580156131af576000805460ff1961ff0019909116610100171660011790555b613015630271189760e51b613e14565b600054610100900460ff16806131d857506131d8612f77565b806131e6575060005460ff16155b6132215760405162461bcd60e51b815260040180806020018281038252602e81526020018061592f602e913960400191505060405180910390fd5b600054610100900460ff1615801561324c576000805460ff1961ff0019909116610100171660011790555b600160fc5580156109b7576000805461ff001916905550565b600054610100900460ff168061327e575061327e612f77565b8061328c575060005460ff16155b6132c75760405162461bcd60e51b815260040180806020018281038252602e81526020018061592f602e913960400191505060405180910390fd5b600054610100900460ff161580156132f2576000805460ff1961ff0019909116610100171660011790555b60016101935561019480546103846bffffffffffffffffffffffff19909116176bffffffffffffffffffffffff60601b1916600160601b6001600160601b038516021790558015612c2d576000805461ff00191690555050565b6101606020527fcc3321aeb8b7a2c9f2c5853bad52161a9b2c32ac951264909c8eb671f5e8a2fe80546001600160a01b039283166001600160a01b0319918216179091557ff8438ac3c894ac02e07302d6095daf9b1a70971d1492bf1049af2509a4a09ca3805493909216928116831790915563025ceed960e61b6000527ff87b4bee0c38b7733cf6e6ae6e9ff68e97be771feb4d52f12144e922b7be163a80549091169091179055565b600054610100900460ff16806134105750613410612f77565b8061341e575060005460ff16155b6134595760405162461bcd60e51b815260040180806020018281038252602e81526020018061592f602e913960400191505060405180910390fd5b600054610100900460ff16158015613484576000805460ff1961ff0019909116610100171660011790555b61012e84905561013080546001600160a01b038086166001600160a01b03199283161790925561012f8054928516929091169190911790558015612bd7576000805461ff001916905550505050565b6040516000906001600160a01b0384169083908381818185875af1925050503d806000811461351e576040519150601f19603f3d011682016040523d82523d6000602084013e613523565b606091505b5050905080611cd5576040805162461bcd60e51b815260206004820152600f60248201526e1d1c985b9cd9995c8819985a5b1959608a1b604482015290519081900360640190fd5b600042821580159061357c57508083115b1561358b576000915050612a25565b60008411801561359b5750808411155b156135aa576000915050612a25565b5060019392505050565b6135bc614886565b602080820184905281516001600160e01b0319841690526040516135e491879187910161529c565b60408051601f19818403018152919052815160200152949350505050565b60408051600180825281830190925260609160009190816020015b61362561486f565b81526020019060019003908161361d579050509050828160008151811061364857fe5b6020026020010151600001906001600160a01b031690816001600160a01b03168152505061271081600081518110612afb57fe5b613684614886565b602081018290526001600160a01b0383166136aa5780516355575f5d60e11b9052612a25565b80516322ba176160e21b90526040516136c790849060200161520a565b60408051601f1981840301815291905281516020015292915050565b835160209081015184519091015160018460028111156136ff57fe5b141561374057613710868685613e9b565b915061373b85600001516000015186600001516020015187608001518960200151896060015161408e565b6137d0565b600284600281111561374e57fe5b141561378a5761375f858785613e9b565b905061373b866000015160000151876000015160200151886080015188602001518a6060015161408e565b8551805160209182015160808901519288015160608a01516137ad94919061408e565b8451805160209182015160808801519289015160608901516137d094919061408e565b94509492505050565b61019380546001810190915590565b60006108866127106137fa8585614208565b90614261565b600082820183811015610886576040805162461bcd60e51b815260206004820152601b60248201527f536166654d6174683a206164646974696f6e206f766572666c6f770000000000604482015290519081900360640190fd5b8351516001600160e01b0319166339d690a360e11b14156139a0576000808560000151602001518060200190518101906138949190614d4b565b9150915085602001516001146138bc5760405162461bcd60e51b81526004016109519061555d565b6001600160a01b03851630141561393457604051632142170760e11b81526001600160a01b038316906342842e0e906138fd90309088908690600401615240565b600060405180830381600087803b15801561391757600080fd5b505af115801561392b573d6000803e3d6000fd5b50505050613999565b604051637b84dc8360e11b81526001600160a01b0384169063f709b90690613966908590899089908790600401615318565b600060405180830381600087803b15801561398057600080fd5b505af1158015613994573d6000803e3d6000fd5b505050505b5050612bd7565b8351516001600160e01b0319166322ba176160e21b1415613ae35760008460000151602001518060200190518101906139d99190614b3f565b90506001600160a01b038416301415613a7557602085015160405163a9059cbb60e01b81526001600160a01b0383169163a9059cbb91613a1d91879160040161529c565b602060405180830381600087803b158015613a3757600080fd5b505af1158015613a4b573d6000803e3d6000fd5b505050506040513d601f19601f82011682018060405250810190613a6f9190615017565b50613add565b602085015160405163776062c360e01b81526001600160a01b0384169163776062c391613aaa91859189918991600401615318565b600060405180830381600087803b158015613ac457600080fd5b505af1158015613ad8573d6000803e3d6000fd5b505050505b50612bd7565b8351516001600160e01b03191663025ceed960e61b1415613ba057600080856000015160200151806020019051810190613b1d9190614d4b565b90925090506001600160a01b038516301415613b68576020860151604051637921219560e11b81526001600160a01b0384169163f242432a916138fd91309189918791600401615264565b6020860151604051639c1c2ee960e01b81526001600160a01b03851691639c1c2ee9916139669186918a918a918891906004016152d5565b8351516001600160e01b0319166355575f5d60e11b1415613be9576001600160a01b0382163014613be4576020840151613be4906001600160a01b038416906134d3565b612bd7565b6040516354bc0cf160e01b81526001600160a01b038216906354bc0cf190613c1990879087908790600401615754565b600060405180830381600087803b158015613c3357600080fd5b505af1158015613c47573d6000803e3d6000fd5b5050505050505050565b600082821115612f71576040805162461bcd60e51b815260206004820152601e60248201527f536166654d6174683a207375627472616374696f6e206f766572666c6f770000604482015290519081900360640190fd5b6001600160a01b038316613cbb57613df2565b6000613cea8660000151846001600160801b031661130e613ce48a604001518b60200151612a2b565b51612a7f565b90506001600160a01b038516613de5576000846001600160a01b031682604051613d1390615207565b60006040518083038185875af1925050503d8060008114613d50576040519150601f19603f3d011682016040523d82523d6000602084013e613d55565b606091505b5050905080613ddf576001600160a01b0385166000908152610192602052604081205490613d838483613800565b6001600160a01b038816600081815261019260205260409081902083905551919250907e13bff06d622c14d54757ee0547a817dc3e491fb8da534f108a531b016dee3c90613dd490879085906157de565b60405180910390a250505b50612930565b6129308186308786613df9565b5050505050565b613df2613e06858761367c565b84848461385a565b3b151590565b6001600160e01b03198082161415613e73576040805162461bcd60e51b815260206004820152601c60248201527f4552433136353a20696e76616c696420696e7465726661636520696400000000604482015290519081900360640190fd5b6001600160e01b0319166000908152600160208190526040909120805460ff19169091179055565b6000613eb4846000015160200151838660400151612b1c565b90506000613edf82866000015160200151876080015186878a60000151600001518b606001516142c8565b8551805186515160208089015193015160808a015160608b0151959650613f0d959394929387929190614393565b90508460400151516001148015613f2957508360400151516001145b8015613f7e57508460400151600081518110613f4157fe5b6020026020010151600001516001600160a01b03168460400151600081518110613f6757fe5b6020026020010151600001516001600160a01b0316145b1561401857604080516001808252818301909252600091816020015b613fa261486f565b815260200190600190039081613f9a5790505090508460400151600081518110613fc857fe5b602002602001015181600081518110613fdd57fe5b602002602001018190525061400e86600001516000015183886000015160200151848a608001518b60600151614496565b5091506140719050565b61404285600001516000015182876000015160200151886040015189608001518a60600151614496565b50855180516020909101516040870151608089015160608a015194955061406d948693929190614496565b5090505b612b87856000015160000151828760800151876020015189606001515b60008251116140af5760405162461bcd60e51b815260040161095190615439565b600084815b600185510381101561417e5760006140f58683815181106140d157fe5b6020026020010151602001516001600160601b0316896137e890919063ffffffff16565b905061412a86838151811061410657fe5b6020026020010151602001516001600160601b03168561380090919063ffffffff16565b935080156141755761413c8382613c51565b925061417560405180604001604052808b8152602001838152508888858151811061416357fe5b6020026020010151600001518861385a565b506001016140b4565b5060008460018651038151811061419157fe5b602002602001015190506141bb81602001516001600160601b03168461380090919063ffffffff16565b925082612710146141de5760405162461bcd60e51b815260040161095190615649565b8115613c4757613c4760405180604001604052808a8152602001848152508783600001518761385a565b60008261421757506000612a25565b8282028284828161422457fe5b04146108865760405162461bcd60e51b815260040180806020018281038252602181526020018061595d6021913960400191505060405180910390fd5b60008082116142b7576040805162461bcd60e51b815260206004820152601a60248201527f536166654d6174683a206469766973696f6e206279207a65726f000000000000604482015290519081900360640190fd5b8183816142c057fe5b049392505050565b60008060006142da8a8a888a01614562565b909250905080156143845784516000906001600160e01b0319166322ba176160e21b141561432157856020015180602001905181019061431a9190614b3f565b905061435a565b85516001600160e01b03191663025ceed960e61b141561435a57600086602001518060200190518101906143559190614d4b565b509150505b6143826040518060400160405280888152602001848152508a61437c84614584565b8861385a565b505b5090505b979650505050505050565b60008061439f886145c3565b9050805160011480156143b3575086516001145b80156144005750866000815181106143c757fe5b6020026020010151600001516001600160a01b0316816000815181106143e957fe5b6020026020010151600001516001600160a01b0316145b15614451576113888160008151811061441557fe5b6020026020010151602001516001600160601b031611156144485760405162461bcd60e51b8152600401610951906153a8565b85915050614388565b6000806144628b8989868a8a614496565b915091506113888111156144885760405162461bcd60e51b8152600401610951906153a8565b509998505050505050505050565b846000805b8551811015614556576144d78682815181106144b357fe5b6020026020010151602001516001600160601b03168361380090919063ffffffff16565b9150600080614507858a8a86815181106144ed57fe5b6020026020010151602001516001600160601b0316614562565b9095508592509050801561454c5761454c60405180604001604052808d815260200183815250888a868151811061453a57fe5b6020026020010151600001518961385a565b505060010161449b565b50965096945050505050565b6000806145788561457386866137e8565b614738565b91509150935093915050565b6001600160a01b038082166000908152610131602052604081205490911680156145af57905061062e565b5050610130546001600160a01b0316919050565b80516060906001600160e01b03191663025ceed960e61b14806145f7575081516001600160e01b0319166339d690a360e11b145b156146ad5760008083602001518060200190518101906146179190614d4b565b61012f54604051634e53ee3d60e11b81529294509092506001600160a01b031690639ca7dc7a9061464e908590859060040161529c565b600060405180830381600087803b15801561466857600080fd5b505af115801561467c573d6000803e3d6000fd5b505050506040513d6000823e601f3d908101601f191682016040526146a49190810190614fdd565b9250505061062e565b81516001600160e01b03191662737ea960e61b14156146ee57600082602001518060200190518101906146e09190614b5b565b60800151925061062e915050565b81516001600160e01b03191663d8f960c160e01b141561473057600082602001518060200190518101906147229190614c58565b60600151925061062e915050565b506060919050565b600080828411156147575761474d8484613c51565b915082905061475e565b5060009050825b9250929050565b828054600181600116156101000203166002900490600052602060002090601f01602090048101928261479b57600085556147e1565b82601f106147b457805160ff19168380011785556147e1565b828001600101855582156147e1579182015b828111156147e15782518255916020019190600101906147c6565b506147ed9291506148a6565b5090565b50805460018160011615610100020316600290046000825580601f1061481757506109b7565b601f0160209004906000526020600020908101906109b791906148a6565b60408051608081018252600080825260208201819052918101829052606081019190915290565b6040518060200160405280600081525090565b604080518082019091526000808252602082015290565b60405180604001604052806148996148bb565b8152602001600081525090565b5b808211156147ed57600081556001016148a7565b60408051808201909152600081526060602082015290565b60006148e66148e184615871565b615831565b90508281528383830111156148fa57600080fd5b610886836020830184615892565b600082601f830112614918578081fd5b815160206149286148e183615854565b82815281810190858301855b85811015614972578151880189603f82011261494e578788fd5b61495f8a87830151604084016148d3565b8552509284019290840190600101614934565b5090979650505050505050565b600082601f83011261498f578081fd5b8151602061499f6148e183615854565b828152818101908583016040808602880185018910156149bd578687fd5b865b86811015614a215781838b0312156149d5578788fd5b81518281018181106001600160401b03821117156149ef57fe5b835283516149fc816158be565b815283870151614a0b816158d3565b81880152855293850193918101916001016149bf565b509198975050505050505050565b600082601f830112614a3f578081fd5b81356020614a4f6148e183615854565b8281528181019085830183850287018401881015614a6b578586fd5b855b8581101561497257813584529284019290840190600101614a6d565b80356001600160e01b03198116811461062e57600080fd5b600082601f830112614ab1578081fd5b8135614abf6148e182615871565b818152846020838601011115614ad3578283fd5b816020850160208301379081016020019190915292915050565b600082601f830112614afd578081fd5b610886838351602085016148d3565b80356001600160401b038116811461062e57600080fd5b600060208284031215614b34578081fd5b8135610886816158be565b600060208284031215614b50578081fd5b8151610886816158be565b60008060408385031215614b6d578081fd5b8251614b78816158be565b60208401519092506001600160401b0380821115614b94578283fd5b9084019060c08287031215614ba7578283fd5b614bb160c0615831565b82518152602083015182811115614bc6578485fd5b614bd288828601614aed565b60208301525060408301516040820152606083015182811115614bf3578485fd5b614bff8882860161497f565b606083015250608083015182811115614c16578485fd5b614c228882860161497f565b60808301525060a083015182811115614c39578485fd5b614c4588828601614908565b60a0830152508093505050509250929050565b60008060408385031215614c6a578182fd5b8251614c75816158be565b60208401519092506001600160401b0380821115614c91578283fd5b9084019060a08287031215614ca4578283fd5b614cae60a0615831565b82518152602083015182811115614cc3578485fd5b614ccf88828601614aed565b602083015250604083015182811115614ce6578485fd5b614cf28882860161497f565b604083015250606083015182811115614d09578485fd5b614d158882860161497f565b606083015250608083015182811115614d2c578485fd5b614d3888828601614908565b6080830152508093505050509250929050565b60008060408385031215614d5d578182fd5b8251614d68816158be565b6020939093015192949293505050565b60008060408385031215614d8a578182fd5b8235614d95816158be565b91506020830135614da5816158be565b809150509250929050565b600080600080600060a08688031215614dc7578081fd5b8535614dd2816158be565b94506020860135614de2816158be565b935060408601356001600160401b0380821115614dfd578283fd5b614e0989838a01614a2f565b94506060880135915080821115614e1e578283fd5b614e2a89838a01614a2f565b93506080880135915080821115614e3f578283fd5b50614e4c88828901614aa1565b9150509295509295909350565b600080600080600060a08688031215614e70578283fd5b8535614e7b816158be565b94506020860135614e8b816158be565b9350604086013592506060860135915060808601356001600160401b03811115614eb3578182fd5b614e4c88828901614aa1565b60008060008060008060c08789031215614ed7578384fd5b8635614ee2816158be565b95506020870135614ef2816158be565b94506040870135614f02816158be565b93506060870135614f12816158be565b9250614f2060808801614b0c565b915060a0870135614f30816158d3565b809150509295509295509295565b600080600080600080600060e0888a031215614f58578485fd5b8735614f63816158be565b96506020880135614f73816158d3565b9550604088013594506060880135614f8a816158be565b93506080880135614f9a816158d3565b9250614fa860a08901614a89565b915060c08801356001600160401b03811115614fc2578182fd5b614fce8a828b01614aa1565b91505092959891949750929550565b600060208284031215614fee578081fd5b81516001600160401b03811115615003578182fd5b61500f8482850161497f565b949350505050565b600060208284031215615028578081fd5b81518015158114610886578182fd5b600060208284031215615048578081fd5b61088682614a89565b60008060408385031215615063578182fd5b614d9583614a89565b60006080828403121561507d578081fd5b604051608081018181106001600160401b038211171561509957fe5b6040528251815260208301516150ae816158d3565b602082015260408301516150c1816158d3565b604082015260608301516150d4816158d3565b60608201529392505050565b6000602082840312156150f1578081fd5b604051602081018181106001600160401b038211171561510d57fe5b6040529151825250919050565b60006020828403121561512b578081fd5b5035919050565b60008060408385031215615144578182fd5b8235915060208301356001600160401b0380821115615161578283fd5b9084019060608287031215615174578283fd5b60405160608101818110838211171561518957fe5b6040528235815261519c60208401614a89565b60208201526040830135828111156151b2578485fd5b6151be88828601614aa1565b6040830152508093505050509250929050565b6000602082840312156151e2578081fd5b61088682614b0c565b6000602082840312156151fc578081fd5b8135610886816158d3565b90565b6001600160a01b0391909116815260200190565b6001600160a01b039290921682526001600160601b0316602082015260400190565b6001600160a01b039384168152919092166020820152604081019190915260600190565b6001600160a01b0394851681529290931660208301526040820152606081019190915260a06080820181905260009082015260c00190565b6001600160a01b03929092168252602082015260400190565b901515815260200190565b6001600160e01b031991909116815260200190565b6001600160a01b03958616815293851660208501529190931660408301526060820192909252608081019190915260c060a0820181905260009082015260e00190565b6001600160a01b039485168152928416602084015292166040820152606081019190915260800190565b60208082526019908201527f696e636f7272656374205f73656c6c546f6b656e56616c756500000000000000604082015260600190565b6020808252601590820152741bdb9b1e4811551208189a591cc8185b1b1bddd959605a1b604082015260600190565b6020808252601d908201527f526f79616c746965732061726520746f6f206869676820283e35302529000000604082015260600190565b6020808252818101527f7468657265206973206e6f2061756374696f6e20776974682074686973206964604082015260600190565b6020808252600b908201526a62696420746f6f206c6f7760a81b604082015260600190565b60208082526024908201527f7472616e736665725061796f7574733a206e6f7468696e6720746f207472616e60408201526339b332b960e11b606082015260800190565b60208082526012908201527134b731b7b93932b1ba10323ab930ba34b7b760711b604082015260600190565b6020808252601a908201527f61756374696f6e206f776e6572206e6f74206465746563746564000000000000604082015260600190565b6020808252600d908201526c189a59081d1bdbc81cdb585b1b609a1b604082015260600190565b6020808252600e908201526d0dcdee840cadcdeeaced0408aa8960931b604082015260600190565b602080825260149082015273696e636f72726563742073746172742074696d6560601b604082015260600190565b60208082526012908201527132b9319b9918903b30b63ab29032b93937b960711b604082015260600190565b6020808252601590820152741b9bdd08195b9bdd59da08199bdc88189d5e5bdd5d605a1b604082015260600190565b6020808252601d908201527f63616e27742063616e63656c2061756374696f6e207769746820626964000000604082015260600190565b602080825260139082015272185b1c9958591e481dda5b9b9a5b99c8189a59606a1b604082015260600190565b60208082526013908201527261756374696f6e20697320696e61637469766560681b604082015260600190565b6020808252601e908201527f53756d207061796f75747320427073206e6f7420657175616c20313030250000604082015260600190565b6020808252601390820152726e6f7468696e6720746f20776974686472617760681b604082015260600190565b60208082526016908201527577726f6e672061756374696f6e20646174615479706560501b604082015260600190565b6020808252602b908201527f6f6e6c7920656e6465642061756374696f6e2077697468206269642063616e2060408201526a189948199a5b9a5cda195960aa1b606082015260800190565b60208082526012908201527177726f6e672062696420646174615479706560701b604082015260600190565b60006060825284516040606084015263ffffffff60e01b81511660a084015260208101519050604060c084015280518060e085015261010061579c8282870160208601615892565b60209788015160808601526001600160a01b039687169785019790975293909416604083015250601f909101601f191601909101919050565b90815260200190565b918252602082015260400190565b9182526001600160401b0316602082015260400190565b6001600160601b0391909116815260200190565b6001600160601b0392831681529116602082015260400190565b6040518181016001600160401b038111828210171561584c57fe5b604052919050565b60006001600160401b0382111561586757fe5b5060209081020190565b60006001600160401b0382111561588457fe5b50601f01601f191660200190565b60005b838110156158ad578181015183820152602001615895565b83811115612bd75750506000910152565b6001600160a01b03811681146109b757600080fd5b6001600160601b03811681146109b757600080fdfe5265656e7472616e637947756172643a207265656e7472616e742063616c6c004f776e61626c653a206e6577206f776e657220697320746865207a65726f2061646472657373496e697469616c697a61626c653a20636f6e747261637420697320616c726561647920696e697469616c697a6564536166654d6174683a206d756c7469706c69636174696f6e206f766572666c6f77973bb64086f173ec8099b7ed3d43da984f4a332e4417a08bc6a286e6402b05864f776e61626c653a2063616c6c6572206973206e6f7420746865206f776e6572a2646970667358221220df2838ec7f98c327c0c94f0ef89ba582af4b5659d6c3f9c74675e3705f939a3d64736f6c63430007060033",
  "immutableReferences": {},
  "source": "// SPDX-License-Identifier: MIT\n\npragma solidity 0.7.6;\npragma abicoder v2;\n\nimport \"./AuctionHouseStruct1155.sol\";\nimport \"../AuctionHouseBase.sol\";\n\nimport \"@openzeppelin/contracts-upgradeable/token/ERC1155/ERC1155HolderUpgradeable.sol\";\n\n/// @dev contract to create and interact with auctions\ncontract AuctionHouse1155 is ERC1155HolderUpgradeable, AuctionHouseStruct1155, AuctionHouseBase {\n    using LibTransfer for address;\n    using BpLibrary for uint;\n    using SafeMathUpgradeable96 for uint96;\n    using SafeMathUpgradeable for uint;\n\n    function __AuctionHouse1155_init(\n        address newDefaultFeeReceiver,\n        IRoyaltiesProvider newRoyaltiesProvider,\n        address _transferProxy,\n        address _erc20TransferProxy,\n        uint64 newProtocolFee,\n        uint96 _minimalStepBasePoint\n    ) external initializer {\n        __Context_init_unchained();\n        __Ownable_init_unchained();\n        __ERC1155Receiver_init_unchained();\n        __ReentrancyGuard_init_unchained();\n        __AuctionHouseBase_init_unchained(_minimalStepBasePoint);\n        __TransferExecutor_init_unchained(_transferProxy, _erc20TransferProxy);\n        __RaribleTransferManager_init_unchained(newProtocolFee, newDefaultFeeReceiver, newRoyaltiesProvider);        \n        __AuctionHouse1155_init_unchained();\n    }\n\n    function __AuctionHouse1155_init_unchained() internal initializer {  \n    }\n\n    /// @dev creates an auction and locks sell asset\n    function startAuction(\n        address _sellToken,\n        uint96 _sellTokenValue,\n        uint _sellTokenId,\n        address _buyAsset,\n        uint96 minimalPrice,\n        bytes4 dataType,\n        bytes memory data\n    ) external {\n        //todo: check if token contract supports ERC1155 interface?\n    \n        LibAucDataV1.DataV1 memory aucData = LibAucDataV1.parse(data, dataType);\n        require(aucData.duration >= minimalDuration && aucData.duration <= MAX_DURATION, \"incorrect duration\");\n        require(_sellTokenValue > 0, \"incorrect _sellTokenValue\");\n\n        uint96 endTime = 0;\n        if (aucData.startTime > 0){\n            require (aucData.startTime >= block.timestamp, \"incorrect start time\");\n            endTime = aucData.startTime.add(aucData.duration);\n        }\n\n        uint currentAuctionId = getNextAndIncrementAuctionId();\n        address payable sender = _msgSender();\n        Auction memory auc = Auction(\n            _sellToken,\n            _sellTokenValue,\n            _sellTokenId,\n            _buyAsset,\n            endTime,\n            Bid(0, \"\", \"\"),\n            sender,\n            minimalPrice,\n            payable(address(0)),\n            uint64(protocolFee),\n            dataType,\n            data\n        );\n        auctions[currentAuctionId] = auc;\n\n        transferNFT(\n            _sellToken, \n            _sellTokenId, \n            _sellTokenValue, \n            LibAsset.ERC1155_ASSET_CLASS,\n            sender,\n            address(this)\n        );\n        \n        emit AuctionCreated(currentAuctionId, sender, endTime);\n    }\n\n    /// @dev put a bid and return locked assets for the last bid\n    function putBid(uint _auctionId, Bid memory bid) payable public nonReentrant {\n        address payable newBuyer = _msgSender();\n        uint newAmount = bid.amount;\n        Auction memory currentAuction = auctions[_auctionId];\n        uint96 endTime = currentAuction.endTime;\n        LibAucDataV1.DataV1 memory aucData = LibAucDataV1.parse(currentAuction.data, currentAuction.dataType);\n        uint bidOriginFee = LibBidDataV1.parse(bid.data, bid.dataType).originFee;\n        uint totalAmount = calculateTotalAmount(\n            bid.amount, \n            currentAuction.protocolFee, \n            getOriginFee(bidOriginFee)\n        );\n        if (currentAuction.buyAsset == address(0)) {\n            checkEthReturnChange(totalAmount, newBuyer);\n        }\n        checkAuctionInProgress(currentAuction, aucData);\n        if (buyOutVerify(aucData, newAmount)) {\n            _buyOut(\n                currentAuction,\n                bid,\n                aucData,\n                _auctionId,\n                bidOriginFee,\n                newBuyer\n            );\n            return;\n        }\n        \n        uint96 currentTime = uint96(block.timestamp);\n        //start action if minimal price is met\n        if (currentAuction.buyer == address(0x0)) {//no bid at all\n            // set endTime if it's not set\n            if (currentAuction.endTime == 0){\n                endTime = currentTime.add(aucData.duration);\n                auctions[_auctionId].endTime = endTime;\n                currentAuction.endTime = endTime;\n                \n            }\n            require(newAmount >= currentAuction.minimalPrice, \"bid too small\");\n        } else {//there is bid in auction\n            require(currentAuction.buyer != newBuyer, \"already winning bid\");\n            uint256 minAmount = _getMinimalNextBid(currentAuction);\n            require(newAmount >= minAmount, \"bid too low\");\n        }\n\n        address proxy = _getProxy(currentAuction.buyAsset);\n        reserveBid(\n            currentAuction.buyAsset,\n            currentAuction.protocolFee,\n            currentAuction.buyer,\n            newBuyer,\n            currentAuction.lastBid,\n            proxy,\n            totalAmount\n        );\n        auctions[_auctionId].lastBid = bid;\n        auctions[_auctionId].buyer = newBuyer;\n\n        // auction is extended for EXTENSION_DURATION or minimalDuration if (minimalDuration < EXTENSION_DURATION)\n        uint96 minDur = minimalDuration;\n        uint96 extension = (minDur < EXTENSION_DURATION) ? minDur : EXTENSION_DURATION;\n\n        // extends auction time if it's about to end\n        if (endTime.sub(currentTime) < extension) {\n            endTime = currentTime.add(extension);\n            auctions[_auctionId].endTime = endTime;\n        }\n        emit BidPlaced(_auctionId, newBuyer, endTime);\n    }\n\n    /// @dev reserves new bid and returns the last one if it exists\n    function reserveBid(\n        address buyAsset,\n        uint128 curProtocolFee,\n        address oldBuyer,\n        address newBuyer,\n        Bid memory oldBid,\n        address proxy,\n        uint newTotalAmount\n    ) internal {\n        // return old bid if theres any\n        _returnBid(\n            oldBid,\n            buyAsset,\n            oldBuyer,\n            curProtocolFee,\n            proxy\n        );\n        \n        //lock new bid\n        transferBid(\n            newTotalAmount,\n            buyAsset,\n            newBuyer,\n            address(this),\n            proxy\n        );\n    }\n\n    /// @dev returns the minimal amount of the next bid (without fees)\n    function getMinimalNextBid(uint _auctionId) external view returns (uint minBid){\n        Auction memory currentAuction = auctions[_auctionId];\n        return _getMinimalNextBid(currentAuction);\n    }\n\n    /// @dev returns the minimal amount of the next bid (without fees)\n    function _getMinimalNextBid(Auction memory currentAuction) internal view returns (uint minBid){\n        if (currentAuction.buyer == address(0x0)) {\n            minBid = currentAuction.minimalPrice;\n        } else {\n            minBid = currentAuction.lastBid.amount.add(currentAuction.lastBid.amount.bp(minimalStepBasePoint));\n        }\n    }\n\n    /// @dev returns true if auction exists, false otherwise\n    function checkAuctionExistence(uint _auctionId) external view returns (bool){\n        return auctions[_auctionId].seller != address(0);\n    }\n\n    /// @dev returns true if auction exists, false otherwise\n    function _checkAuctionExistence(Auction memory currentAuction) internal pure returns (bool){\n        return currentAuction.seller != address(0);\n    }\n\n    /// @dev returns true if newAmount is enough for buyOut\n    function buyOutVerify(LibAucDataV1.DataV1 memory aucData, uint newAmount) internal pure returns (bool) {\n        if (aucData.buyOutPrice > 0 && aucData.buyOutPrice <= newAmount) {\n            return true;\n        }\n        return false;\n    }\n\n    /// @dev finishes, deletes and transfers all assets for an auction if it's ended (it exists, it has at least one bid, now > endTme)\n    function finishAuction(uint _auctionId) external nonReentrant {\n        Auction memory currentAuction = auctions[_auctionId];\n        require(_checkAuctionExistence(currentAuction), \"there is no auction with this id\");\n        LibAucDataV1.DataV1 memory aucData = LibAucDataV1.parse(currentAuction.data, currentAuction.dataType);\n        require(\n            !_checkAuctionRangeTime(currentAuction.endTime, aucData.startTime) &&\n            currentAuction.buyer != address(0),\n            \"only ended auction with bid can be finished\"\n        );\n        uint bidOriginFee = LibBidDataV1.parse(currentAuction.lastBid.data, currentAuction.lastBid.dataType).originFee;\n\n        doTransfers(\n            LibDeal.DealSide(\n                getSellAsset(\n                    currentAuction.sellToken, \n                    currentAuction.sellTokenId,\n                    currentAuction.sellTokenValue,\n                    LibAsset.ERC1155_ASSET_CLASS\n                ),\n                getPayouts(currentAuction.seller),\n                getOriginFee(aucData.originFee),\n                proxies[LibAsset.ERC1155_ASSET_CLASS],\n                address(this)\n            ), \n            LibDeal.DealSide(\n                getBuyAsset(\n                    currentAuction.buyAsset,\n                    currentAuction.lastBid.amount\n                ),\n                getPayouts(currentAuction.buyer),\n                getOriginFee(bidOriginFee),\n                _getProxy(currentAuction.buyAsset),\n                address(this)\n            ), \n            LibFeeSide.FeeSide.RIGHT, \n            currentAuction.protocolFee\n        );\n        deactivateAuction(_auctionId);\n    }\n\n    /// @dev returns true if auction started and hasn't finished yet, false otherwise\n    function checkAuctionRangeTime(uint _auctionId) external view returns (bool){\n        uint currentTime = block.timestamp;\n        LibAucDataV1.DataV1 memory aucData = LibAucDataV1.parse(auctions[_auctionId].data, auctions[_auctionId].dataType);\n        if (aucData.startTime > 0 && aucData.startTime > currentTime) {\n            return false;\n        }\n        uint endTime = auctions[_auctionId].endTime;\n        if (endTime > 0 && endTime <= currentTime){\n            return false;\n        }\n\n        return true;\n    }\n\n    function _checkAuctionRangeTime(uint endTime, uint startTime) internal view returns (bool){\n        uint currentTime = block.timestamp;\n        if (startTime > 0 && startTime > currentTime) {\n            return false;\n        }\n        if (endTime > 0 && endTime <= currentTime){\n            return false;\n        }\n\n        return true;\n    }\n\n    /// @dev deletes auction after finalizing\n    function deactivateAuction(uint _auctionId) internal {\n        emit AuctionFinished(_auctionId);\n        delete auctions[_auctionId];\n    }\n\n    /// @dev cancels existing auction without bid\n    function cancel(uint _auctionId) external nonReentrant {\n        Auction memory currentAuction = auctions[_auctionId];\n        require(_checkAuctionExistence(currentAuction), \"there is no auction with this id\");\n        address seller = currentAuction.seller;\n        require(seller == _msgSender(), \"auction owner not detected\");\n        require(currentAuction.buyer == address(0), \"can't cancel auction with bid\");\n        transferNFT(\n            currentAuction.sellToken, \n            currentAuction.sellTokenId, \n            currentAuction.sellTokenValue, \n            LibAsset.ERC1155_ASSET_CLASS,\n            address(this),\n            seller\n        );\n        deactivateAuction(_auctionId);\n        emit AuctionCancelled(_auctionId);\n    }\n\n    // todo will there be a problem if buyer is last bidder?\n    /// @dev buyout auction if bid satisfies buyout condition\n    function buyOut(uint _auctionId, Bid memory bid) external payable nonReentrant {\n        Auction memory currentAuction = auctions[_auctionId];\n        LibAucDataV1.DataV1 memory aucData = LibAucDataV1.parse(currentAuction.data, currentAuction.dataType);\n        checkAuctionInProgress(currentAuction, aucData);\n        require(buyOutVerify(aucData, bid.amount), \"not enough for buyout\");\n        uint bidOriginFee = LibBidDataV1.parse(bid.data, bid.dataType).originFee;\n        uint totalAmount = calculateTotalAmount(\n            bid.amount, \n            currentAuction.protocolFee, \n            getOriginFee(bidOriginFee)\n        );\n        address sender = _msgSender();\n        if (currentAuction.buyAsset == address(0)) {\n            checkEthReturnChange(totalAmount, sender);\n        }\n        _buyOut(\n            currentAuction,\n            bid,\n            aucData,\n            _auctionId,\n            bidOriginFee,\n            sender\n        );\n    }\n\n    function _buyOut(\n        Auction memory currentAuction,\n        Bid memory bid,\n        LibAucDataV1.DataV1 memory aucData,\n        uint _auctionId,\n        uint newBidOriginFee,\n        address sender\n    ) internal {\n        address proxy = _getProxy(currentAuction.buyAsset);\n\n        _returnBid(\n            currentAuction.lastBid,\n            currentAuction.buyAsset,\n            currentAuction.buyer,\n            currentAuction.protocolFee,\n            proxy\n        );\n\n        address from;\n        if (currentAuction.buyAsset == address(0)) {\n            // if buyAsset = ETH\n            from = address(this);\n        } else {\n            // if buyAsset = ERC20\n            from = sender;\n        }\n        doTransfers(\n            LibDeal.DealSide(\n                getSellAsset(\n                    currentAuction.sellToken, \n                    currentAuction.sellTokenId,\n                    currentAuction.sellTokenValue,\n                    LibAsset.ERC1155_ASSET_CLASS\n                ),\n                getPayouts(currentAuction.seller),\n                getOriginFee(aucData.originFee),\n                proxies[LibAsset.ERC1155_ASSET_CLASS],\n                address(this)\n            ), \n            LibDeal.DealSide(\n                getBuyAsset(\n                    currentAuction.buyAsset,\n                    bid.amount\n                ),\n                getPayouts(sender),\n                getOriginFee(newBidOriginFee),\n                proxy,\n                from\n            ), \n            LibFeeSide.FeeSide.RIGHT, \n            currentAuction.protocolFee\n        );\n        \n        deactivateAuction(_auctionId);\n        emit AuctionBuyOut(auctionId, sender);\n    }\n\n    /// @dev returns current highest bidder for an auction\n    function getCurrentBuyer(uint _auctionId) public view returns(address) {\n        return auctions[_auctionId].buyer;\n    }\n\n    /// @dev returns true if auction in progress, false otherwise\n    function checkAuctionInProgress(Auction memory currentAuction, LibAucDataV1.DataV1 memory aucData) internal view{\n        require(_checkAuctionExistence(currentAuction) && _checkAuctionRangeTime(currentAuction.endTime, aucData.startTime), \"auction is inactive\");\n    }\n\n    /// @dev function to call from wrapper to put bid\n    function putBidWrapper(uint256 _auctionId) external payable {\n        require(auctions[_auctionId].buyAsset == address(0), \"only ETH bids allowed\");\n        putBid(_auctionId, Bid(msg.value, LibBidDataV1.V1, \"\"));\n    }\n\n    /// @dev Used to withdraw faulty bids (bids that failed to return after out-bidding)\n    function withdrawFaultyBid(address _to) external {\n        address sender = _msgSender();\n        uint amount = readyToWithdraw[sender];\n        require( amount > 0, \"nothing to withdraw\");\n        readyToWithdraw[sender] = 0;\n        _to.transferEth(amount);\n    }\n\n    function _returnBid(\n        Bid memory oldBid,\n        address buyAsset,\n        address oldBuyer,\n        uint128 curProtocolFee,\n        address proxy\n    ) internal {\n        // nothing to return\n        if (oldBuyer == address(0)) {\n            return;\n        }\n        uint oldTotalAmount = calculateTotalAmount(oldBid.amount, curProtocolFee, getOriginFee(LibBidDataV1.parse(oldBid.data, oldBid.dataType).originFee));\n        if (buyAsset == address(0)) {\n            (bool success,) = oldBuyer.call{ value: oldTotalAmount }(\"\");\n            if (!success) {\n                uint currentValueToWithdraw = readyToWithdraw[oldBuyer];\n                uint newValueToWithdraw = oldTotalAmount.add(currentValueToWithdraw);\n                readyToWithdraw[oldBuyer] = newValueToWithdraw;\n                emit AvailableToWithdraw(oldBuyer, oldTotalAmount, newValueToWithdraw);\n            }\n        } else {\n            transferBid(\n                oldTotalAmount,\n                buyAsset,\n                address(this),\n                oldBuyer,\n                proxy\n            );\n        }\n    }\n\n    function _getProxy(address buyAsset) internal view returns(address){\n        address proxy;\n        if (buyAsset != address(0)){\n            proxy = proxies[LibAsset.ERC20_ASSET_CLASS];\n        }\n        return proxy;\n    }\n\n    /// @dev check that msg.value more than bid amount with fees and return change\n    function checkEthReturnChange(uint totalAmount, address buyer) internal {\n        uint msgValue = msg.value;\n        require(msgValue >= totalAmount, \"not enough ETH\");\n        uint256 change = msg.value.sub(totalAmount);\n        if (change > 0) {\n            buyer.transferEth(change);\n        }\n    }\n\n    function supportsInterface(bytes4 interfaceId) public view virtual override returns (bool) {\n        return this.supportsInterface(interfaceId);\n    }\n\n}",
  "sourcePath": "/Users/ds/Documents/rarible/protocol-contracts/auction/contracts/1155/AuctionHouse1155.sol",
  "compiler": {
    "name": "solc",
    "version": "0.7.6+commit.7338295f.Emscripten.clang"
  },
  "schemaVersion": "3.4.3",
  "updatedAt": "2022-03-16T09:01:23.834Z",
  "devdoc": {
    "details": "contract to create and interact with auctions",
    "kind": "dev",
    "methods": {
      "buyOut(uint256,(uint256,bytes4,bytes))": {
        "details": "buyout auction if bid satisfies buyout condition"
      },
      "cancel(uint256)": {
        "details": "cancels existing auction without bid"
      },
      "checkAuctionExistence(uint256)": {
        "details": "returns true if auction exists, false otherwise"
      },
      "checkAuctionRangeTime(uint256)": {
        "details": "returns true if auction started and hasn't finished yet, false otherwise"
      },
      "finishAuction(uint256)": {
        "details": "finishes, deletes and transfers all assets for an auction if it's ended (it exists, it has at least one bid, now > endTme)"
      },
      "getCurrentBuyer(uint256)": {
        "details": "returns current highest bidder for an auction"
      },
      "getMinimalNextBid(uint256)": {
        "details": "returns the minimal amount of the next bid (without fees)"
      },
      "owner()": {
        "details": "Returns the address of the current owner."
      },
      "putBid(uint256,(uint256,bytes4,bytes))": {
        "details": "put a bid and return locked assets for the last bid"
      },
      "putBidWrapper(uint256)": {
        "details": "function to call from wrapper to put bid"
      },
      "renounceOwnership()": {
        "details": "Leaves the contract without owner. It will not be possible to call `onlyOwner` functions anymore. Can only be called by the current owner. NOTE: Renouncing ownership will leave the contract without an owner, thereby removing any functionality that is only available to the owner."
      },
      "startAuction(address,uint96,uint256,address,uint96,bytes4,bytes)": {
        "details": "creates an auction and locks sell asset"
      },
      "supportsInterface(bytes4)": {
        "details": "See {IERC165-supportsInterface}. Time complexity O(1), guaranteed to always use less than 30 000 gas."
      },
      "transferOwnership(address)": {
        "details": "Transfers ownership of the contract to a new account (`newOwner`). Can only be called by the current owner."
      },
      "withdrawFaultyBid(address)": {
        "details": "Used to withdraw faulty bids (bids that failed to return after out-bidding)"
      }
    },
    "version": 1
  },
  "userdoc": {
    "kind": "user",
    "methods": {},
    "version": 1
  }
}