{
  "contractName": "ExchangeV2",
  "abi": [
    {
      "anonymous": false,
      "inputs": [
        {
          "indexed": false,
          "internalType": "uint256",
          "name": "oldValue",
          "type": "uint256"
        },
        {
          "indexed": false,
          "internalType": "uint256",
          "name": "newValue",
          "type": "uint256"
        }
      ],
      "name": "BuyerFeeAmountChanged",
      "type": "event"
    },
    {
      "anonymous": false,
      "inputs": [
        {
          "indexed": false,
          "internalType": "bytes32",
          "name": "hash",
          "type": "bytes32"
        }
      ],
      "name": "Cancel",
      "type": "event"
    },
    {
      "anonymous": false,
      "inputs": [
        {
          "indexed": false,
          "internalType": "address",
          "name": "oldValue",
          "type": "address"
        },
        {
          "indexed": false,
          "internalType": "address",
          "name": "newValue",
          "type": "address"
        }
      ],
      "name": "FeeReceiverChanged",
      "type": "event"
    },
    {
      "anonymous": false,
      "inputs": [
        {
          "indexed": false,
          "internalType": "bytes32",
          "name": "leftHash",
          "type": "bytes32"
        },
        {
          "indexed": false,
          "internalType": "bytes32",
          "name": "rightHash",
          "type": "bytes32"
        },
        {
          "indexed": false,
          "internalType": "uint256",
          "name": "newLeftFill",
          "type": "uint256"
        },
        {
          "indexed": false,
          "internalType": "uint256",
          "name": "newRightFill",
          "type": "uint256"
        }
      ],
      "name": "Match",
      "type": "event"
    },
    {
      "anonymous": false,
      "inputs": [
        {
          "indexed": true,
          "internalType": "bytes4",
          "name": "assetType",
          "type": "bytes4"
        },
        {
          "indexed": false,
          "internalType": "address",
          "name": "matcher",
          "type": "address"
        }
      ],
      "name": "MatcherChange",
      "type": "event"
    },
    {
      "anonymous": false,
      "inputs": [
        {
          "indexed": true,
          "internalType": "address",
          "name": "previousOwner",
          "type": "address"
        },
        {
          "indexed": true,
          "internalType": "address",
          "name": "newOwner",
          "type": "address"
        }
      ],
      "name": "OwnershipTransferred",
      "type": "event"
    },
    {
      "anonymous": false,
      "inputs": [
        {
          "indexed": true,
          "internalType": "bytes4",
          "name": "assetType",
          "type": "bytes4"
        },
        {
          "indexed": false,
          "internalType": "address",
          "name": "proxy",
          "type": "address"
        }
      ],
      "name": "ProxyChange",
      "type": "event"
    },
    {
      "anonymous": false,
      "inputs": [
        {
          "indexed": false,
          "internalType": "uint256",
          "name": "oldValue",
          "type": "uint256"
        },
        {
          "indexed": false,
          "internalType": "uint256",
          "name": "newValue",
          "type": "uint256"
        }
      ],
      "name": "SellerFeeAmountChanged",
      "type": "event"
    },
    {
      "anonymous": false,
      "inputs": [
        {
          "indexed": false,
          "internalType": "bytes32",
          "name": "value",
          "type": "bytes32"
        }
      ],
      "name": "Test1",
      "type": "event"
    },
    {
      "anonymous": false,
      "inputs": [
        {
          "indexed": false,
          "internalType": "bool",
          "name": "value",
          "type": "bool"
        }
      ],
      "name": "Test2",
      "type": "event"
    },
    {
      "anonymous": false,
      "inputs": [
        {
          "indexed": false,
          "internalType": "uint256",
          "name": "value",
          "type": "uint256"
        }
      ],
      "name": "Test3",
      "type": "event"
    },
    {
      "inputs": [
        {
          "components": [
            {
              "internalType": "address",
              "name": "maker",
              "type": "address"
            },
            {
              "components": [
                {
                  "components": [
                    {
                      "internalType": "bytes4",
                      "name": "assetClass",
                      "type": "bytes4"
                    },
                    {
                      "internalType": "bytes",
                      "name": "data",
                      "type": "bytes"
                    }
                  ],
                  "internalType": "struct LibAsset.AssetType",
                  "name": "assetType",
                  "type": "tuple"
                },
                {
                  "internalType": "uint256",
                  "name": "value",
                  "type": "uint256"
                }
              ],
              "internalType": "struct LibAsset.Asset",
              "name": "makeAsset",
              "type": "tuple"
            },
            {
              "internalType": "address",
              "name": "taker",
              "type": "address"
            },
            {
              "components": [
                {
                  "components": [
                    {
                      "internalType": "bytes4",
                      "name": "assetClass",
                      "type": "bytes4"
                    },
                    {
                      "internalType": "bytes",
                      "name": "data",
                      "type": "bytes"
                    }
                  ],
                  "internalType": "struct LibAsset.AssetType",
                  "name": "assetType",
                  "type": "tuple"
                },
                {
                  "internalType": "uint256",
                  "name": "value",
                  "type": "uint256"
                }
              ],
              "internalType": "struct LibAsset.Asset",
              "name": "takeAsset",
              "type": "tuple"
            },
            {
              "internalType": "uint256",
              "name": "salt",
              "type": "uint256"
            },
            {
              "internalType": "uint256",
              "name": "start",
              "type": "uint256"
            },
            {
              "internalType": "uint256",
              "name": "end",
              "type": "uint256"
            },
            {
              "internalType": "bytes4",
              "name": "dataType",
              "type": "bytes4"
            },
            {
              "internalType": "bytes",
              "name": "data",
              "type": "bytes"
            }
          ],
          "internalType": "struct LibOrder.Order",
          "name": "order",
          "type": "tuple"
        }
      ],
      "name": "cancel",
      "outputs": [],
      "stateMutability": "nonpayable",
      "type": "function"
    },
    {
      "inputs": [
        {
          "components": [
            {
              "internalType": "address",
              "name": "bidMaker",
              "type": "address"
            },
            {
              "internalType": "uint256",
              "name": "bidNftAmount",
              "type": "uint256"
            },
            {
              "internalType": "bytes4",
              "name": "nftAssetClass",
              "type": "bytes4"
            },
            {
              "internalType": "bytes",
              "name": "nftData",
              "type": "bytes"
            },
            {
              "internalType": "uint256",
              "name": "bidPaymentAmount",
              "type": "uint256"
            },
            {
              "internalType": "address",
              "name": "paymentToken",
              "type": "address"
            },
            {
              "internalType": "uint256",
              "name": "bidSalt",
              "type": "uint256"
            },
            {
              "internalType": "uint256",
              "name": "bidStart",
              "type": "uint256"
            },
            {
              "internalType": "uint256",
              "name": "bidEnd",
              "type": "uint256"
            },
            {
              "internalType": "bytes4",
              "name": "bidDataType",
              "type": "bytes4"
            },
            {
              "internalType": "bytes",
              "name": "bidData",
              "type": "bytes"
            },
            {
              "internalType": "bytes",
              "name": "bidSignature",
              "type": "bytes"
            },
            {
              "internalType": "uint256",
              "name": "sellOrderPaymentAmount",
              "type": "uint256"
            },
            {
              "internalType": "uint256",
              "name": "sellOrderNftAmount",
              "type": "uint256"
            },
            {
              "internalType": "bytes",
              "name": "sellOrderData",
              "type": "bytes"
            }
          ],
          "internalType": "struct LibDirectTransfer.AcceptBid",
          "name": "direct",
          "type": "tuple"
        }
      ],
      "name": "directAcceptBid",
      "outputs": [],
      "stateMutability": "payable",
      "type": "function"
    },
    {
      "inputs": [
        {
          "components": [
            {
              "internalType": "address",
              "name": "sellOrderMaker",
              "type": "address"
            },
            {
              "internalType": "uint256",
              "name": "sellOrderNftAmount",
              "type": "uint256"
            },
            {
              "internalType": "bytes4",
              "name": "nftAssetClass",
              "type": "bytes4"
            },
            {
              "internalType": "bytes",
              "name": "nftData",
              "type": "bytes"
            },
            {
              "internalType": "uint256",
              "name": "sellOrderPaymentAmount",
              "type": "uint256"
            },
            {
              "internalType": "address",
              "name": "paymentToken",
              "type": "address"
            },
            {
              "internalType": "uint256",
              "name": "sellOrderSalt",
              "type": "uint256"
            },
            {
              "internalType": "uint256",
              "name": "sellOrderStart",
              "type": "uint256"
            },
            {
              "internalType": "uint256",
              "name": "sellOrderEnd",
              "type": "uint256"
            },
            {
              "internalType": "bytes4",
              "name": "sellOrderDataType",
              "type": "bytes4"
            },
            {
              "internalType": "bytes",
              "name": "sellOrderData",
              "type": "bytes"
            },
            {
              "internalType": "bytes",
              "name": "sellOrderSignature",
              "type": "bytes"
            },
            {
              "internalType": "uint256",
              "name": "buyOrderPaymentAmount",
              "type": "uint256"
            },
            {
              "internalType": "uint256",
              "name": "buyOrderNftAmount",
              "type": "uint256"
            },
            {
              "internalType": "bytes",
              "name": "buyOrderData",
              "type": "bytes"
            }
          ],
          "internalType": "struct LibDirectTransfer.Purchase",
          "name": "direct",
          "type": "tuple"
        }
      ],
      "name": "directPurchase",
      "outputs": [],
      "stateMutability": "payable",
      "type": "function"
    },
    {
      "inputs": [
        {
          "internalType": "bytes32",
          "name": "",
          "type": "bytes32"
        }
      ],
      "name": "fills",
      "outputs": [
        {
          "internalType": "uint256",
          "name": "",
          "type": "uint256"
        }
      ],
      "stateMutability": "view",
      "type": "function"
    },
    {
      "inputs": [
        {
          "components": [
            {
              "internalType": "address",
              "name": "maker",
              "type": "address"
            },
            {
              "components": [
                {
                  "components": [
                    {
                      "internalType": "bytes4",
                      "name": "assetClass",
                      "type": "bytes4"
                    },
                    {
                      "internalType": "bytes",
                      "name": "data",
                      "type": "bytes"
                    }
                  ],
                  "internalType": "struct LibAsset.AssetType",
                  "name": "assetType",
                  "type": "tuple"
                },
                {
                  "internalType": "uint256",
                  "name": "value",
                  "type": "uint256"
                }
              ],
              "internalType": "struct LibAsset.Asset",
              "name": "makeAsset",
              "type": "tuple"
            },
            {
              "internalType": "address",
              "name": "taker",
              "type": "address"
            },
            {
              "components": [
                {
                  "components": [
                    {
                      "internalType": "bytes4",
                      "name": "assetClass",
                      "type": "bytes4"
                    },
                    {
                      "internalType": "bytes",
                      "name": "data",
                      "type": "bytes"
                    }
                  ],
                  "internalType": "struct LibAsset.AssetType",
                  "name": "assetType",
                  "type": "tuple"
                },
                {
                  "internalType": "uint256",
                  "name": "value",
                  "type": "uint256"
                }
              ],
              "internalType": "struct LibAsset.Asset",
              "name": "takeAsset",
              "type": "tuple"
            },
            {
              "internalType": "uint256",
              "name": "salt",
              "type": "uint256"
            },
            {
              "internalType": "uint256",
              "name": "start",
              "type": "uint256"
            },
            {
              "internalType": "uint256",
              "name": "end",
              "type": "uint256"
            },
            {
              "internalType": "bytes4",
              "name": "dataType",
              "type": "bytes4"
            },
            {
              "internalType": "bytes",
              "name": "data",
              "type": "bytes"
            }
          ],
          "internalType": "struct LibOrder.Order",
          "name": "orderLeft",
          "type": "tuple"
        },
        {
          "internalType": "bytes",
          "name": "signatureLeft",
          "type": "bytes"
        },
        {
          "components": [
            {
              "internalType": "address",
              "name": "maker",
              "type": "address"
            },
            {
              "components": [
                {
                  "components": [
                    {
                      "internalType": "bytes4",
                      "name": "assetClass",
                      "type": "bytes4"
                    },
                    {
                      "internalType": "bytes",
                      "name": "data",
                      "type": "bytes"
                    }
                  ],
                  "internalType": "struct LibAsset.AssetType",
                  "name": "assetType",
                  "type": "tuple"
                },
                {
                  "internalType": "uint256",
                  "name": "value",
                  "type": "uint256"
                }
              ],
              "internalType": "struct LibAsset.Asset",
              "name": "makeAsset",
              "type": "tuple"
            },
            {
              "internalType": "address",
              "name": "taker",
              "type": "address"
            },
            {
              "components": [
                {
                  "components": [
                    {
                      "internalType": "bytes4",
                      "name": "assetClass",
                      "type": "bytes4"
                    },
                    {
                      "internalType": "bytes",
                      "name": "data",
                      "type": "bytes"
                    }
                  ],
                  "internalType": "struct LibAsset.AssetType",
                  "name": "assetType",
                  "type": "tuple"
                },
                {
                  "internalType": "uint256",
                  "name": "value",
                  "type": "uint256"
                }
              ],
              "internalType": "struct LibAsset.Asset",
              "name": "takeAsset",
              "type": "tuple"
            },
            {
              "internalType": "uint256",
              "name": "salt",
              "type": "uint256"
            },
            {
              "internalType": "uint256",
              "name": "start",
              "type": "uint256"
            },
            {
              "internalType": "uint256",
              "name": "end",
              "type": "uint256"
            },
            {
              "internalType": "bytes4",
              "name": "dataType",
              "type": "bytes4"
            },
            {
              "internalType": "bytes",
              "name": "data",
              "type": "bytes"
            }
          ],
          "internalType": "struct LibOrder.Order",
          "name": "orderRight",
          "type": "tuple"
        },
        {
          "internalType": "bytes",
          "name": "signatureRight",
          "type": "bytes"
        }
      ],
      "name": "matchOrders",
      "outputs": [],
      "stateMutability": "payable",
      "type": "function"
    },
    {
      "inputs": [],
      "name": "owner",
      "outputs": [
        {
          "internalType": "address",
          "name": "",
          "type": "address"
        }
      ],
      "stateMutability": "view",
      "type": "function"
    },
    {
      "inputs": [],
      "name": "protocolFee",
      "outputs": [
        {
          "internalType": "address",
          "name": "receiver",
          "type": "address"
        },
        {
          "internalType": "uint48",
          "name": "buyerAmount",
          "type": "uint48"
        },
        {
          "internalType": "uint48",
          "name": "sellerAmount",
          "type": "uint48"
        }
      ],
      "stateMutability": "view",
      "type": "function"
    },
    {
      "inputs": [],
      "name": "renounceOwnership",
      "outputs": [],
      "stateMutability": "nonpayable",
      "type": "function"
    },
    {
      "inputs": [],
      "name": "royaltiesRegistry",
      "outputs": [
        {
          "internalType": "contract IRoyaltiesProvider",
          "name": "",
          "type": "address"
        }
      ],
      "stateMutability": "view",
      "type": "function"
    },
    {
      "inputs": [
        {
          "internalType": "address",
          "name": "_receiver",
          "type": "address"
        },
        {
          "internalType": "uint48",
          "name": "_buyerAmount",
          "type": "uint48"
        },
        {
          "internalType": "uint48",
          "name": "_sellerAmount",
          "type": "uint48"
        }
      ],
      "name": "setAllProtocolFeeData",
      "outputs": [],
      "stateMutability": "nonpayable",
      "type": "function"
    },
    {
      "inputs": [
        {
          "internalType": "bytes4",
          "name": "assetType",
          "type": "bytes4"
        },
        {
          "internalType": "address",
          "name": "matcher",
          "type": "address"
        }
      ],
      "name": "setAssetMatcher",
      "outputs": [],
      "stateMutability": "nonpayable",
      "type": "function"
    },
    {
      "inputs": [
        {
          "internalType": "uint48",
          "name": "_buyerAmount",
          "type": "uint48"
        }
      ],
      "name": "setPrtocolFeeBuyerAmount",
      "outputs": [],
      "stateMutability": "nonpayable",
      "type": "function"
    },
    {
      "inputs": [
        {
          "internalType": "address",
          "name": "_receiver",
          "type": "address"
        }
      ],
      "name": "setPrtocolFeeReceiver",
      "outputs": [],
      "stateMutability": "nonpayable",
      "type": "function"
    },
    {
      "inputs": [
        {
          "internalType": "uint48",
          "name": "_sellerAmount",
          "type": "uint48"
        }
      ],
      "name": "setPrtocolFeeSellerAmount",
      "outputs": [],
      "stateMutability": "nonpayable",
      "type": "function"
    },
    {
      "inputs": [
        {
          "internalType": "contract IRoyaltiesProvider",
          "name": "newRoyaltiesRegistry",
          "type": "address"
        }
      ],
      "name": "setRoyaltiesRegistry",
      "outputs": [],
      "stateMutability": "nonpayable",
      "type": "function"
    },
    {
      "inputs": [
        {
          "internalType": "bytes4",
          "name": "assetType",
          "type": "bytes4"
        },
        {
          "internalType": "address",
          "name": "proxy",
          "type": "address"
        }
      ],
      "name": "setTransferProxy",
      "outputs": [],
      "stateMutability": "nonpayable",
      "type": "function"
    },
    {
      "inputs": [
        {
          "internalType": "address",
          "name": "newOwner",
          "type": "address"
        }
      ],
      "name": "transferOwnership",
      "outputs": [],
      "stateMutability": "nonpayable",
      "type": "function"
    },
    {
      "inputs": [
        {
          "internalType": "address",
          "name": "_transferProxy",
          "type": "address"
        },
        {
          "internalType": "address",
          "name": "_erc20TransferProxy",
          "type": "address"
        },
        {
          "internalType": "uint256",
          "name": "newProtocolFee",
          "type": "uint256"
        },
        {
          "internalType": "address",
          "name": "newDefaultFeeReceiver",
          "type": "address"
        },
        {
          "internalType": "contract IRoyaltiesProvider",
          "name": "newRoyaltiesProvider",
          "type": "address"
        }
      ],
      "name": "__ExchangeV2_init",
      "outputs": [],
      "stateMutability": "nonpayable",
      "type": "function"
    }
  ],
  "bytecode": "0x608060405234801561001057600080fd5b50615496806100206000396000f3fe6080604052600436106101095760003560e01c8063b0e21e8a11610095578063d6ca6ab711610064578063d6ca6ab71461029c578063e2864fe3146102bc578063e99a3f80146102dc578063eae3ad6f146102ef578063f2fde38b1461030f57610109565b8063b0e21e8a14610218578063b39deb461461023c578063b74c8e9a1461025c578063bc158c2d1461027c57610109565b80633be89922116100dc5780633be899221461019957806367d49a3b146101b95780636d8f0694146101cc578063715018a6146101ee5780638da5cb5b1461020357610109565b80630d5f7d351461010e5780631372a6251461012357806320158c441461014357806330c642f114610179575b600080fd5b61012161011c366004614a9a565b61032f565b005b34801561012f57600080fd5b5061012161013e366004614937565b61064c565b34801561014f57600080fd5b5061016361015e366004614a2e565b610720565b6040516101709190614e28565b60405180910390f35b34801561018557600080fd5b50610121610194366004614a62565b610733565b3480156101a557600080fd5b506101216101b43660046146e2565b610803565b6101216101c7366004614a9a565b610888565b3480156101d857600080fd5b506101e1610b68565b6040516101709190614d51565b3480156101fa57600080fd5b50610121610b78565b34801561020f57600080fd5b506101e1610c24565b34801561022457600080fd5b5061022d610c33565b60405161017093929190614df4565b34801561024857600080fd5b50610121610257366004614a62565b610c5e565b34801561026857600080fd5b5061012161027736600461499e565b610d22565b34801561028857600080fd5b506101216102973660046146e2565b610da4565b3480156102a857600080fd5b506101216102b7366004614cee565b610e71565b3480156102c857600080fd5b506101216102d7366004614c15565b610f4b565b6101216102ea366004614c47565b61100c565b3480156102fb57600080fd5b5061012161030a366004614cee565b611022565b34801561031b57600080fd5b5061012161032a3660046146e2565b6110f9565b600061034961034460c0840160a085016146e2565b6111fc565b6040805161012081019091529091506000908061036960208601866146e2565b6001600160a01b03168152602001604051806040016040528060405180604001604052808860400160208101906103a09190614a46565b6001600160e01b03191681526020016103bc60608a018a61523e565b8080601f0160208091040260200160405190810160405280939291908181526020018383808284376000920182905250939094525050918352506020888101359281019290925291835282810191909152604080518082018252868152608080890135938201939093529083015260c080870135606084015260e08701359183019190915261010086013560a08301520161045f61014086016101208701614a46565b6001600160e01b031916815260200161047c61014086018661523e565b8080601f01602080910402602001604051908101604052809392919081815260200183838082843760009201829052509390945250506040805161012081018252828152815180830183528781526101808901356020828101919091528201528082018390528151608081018352949550919391925060608084019291829182820191829161051091908c01908c01614a46565b6001600160e01b031916815260200161052c60608b018b61523e565b8080601f0160208091040260200160405190810160405280939291908181526020018383808284376000920182905250939094525050918352506101a0890135602092830152918352820181905260408201819052606082015260800161059b61014087016101208801614a46565b6001600160e01b03191681526020016105b86101c087018761523e565b8080601f0160208091040260200160405190810160405280939291908181526020018383808284376000920191909152505050915250905061063c8261060261016087018761523e565b8080601f01602080910402602001604051908101604052809392919081815260200183838082843760009201919091525061126292505050565b6106468282611279565b50505050565b600054610100900460ff168061066557506106656114e3565b80610673575060005460ff16155b6106ae5760405162461bcd60e51b815260040180806020018281038252602e8152602001806153d0602e913960400191505060405180910390fd5b600054610100900460ff161580156106d9576000805460ff1961ff0019909116610100171660011790555b6106e16114f4565b6106e9611596565b6106f3868661168f565b6106fe848484611739565b6107066117f9565b8015610718576000805461ff00191690555b505050505050565b61012f6020526000908152604090205481565b61073b6118c9565b6001600160a01b031661074c610c24565b6001600160a01b031614610795576040805162461bcd60e51b81526020600482018190526024820152600080516020615441833981519152604482015290519081900360640190fd5b6001600160e01b031982166000818152609760205260409081902080546001600160a01b0319166001600160a01b038516179055517f4b5aced933c0c9a88aeac3f0b3b72c5aaf75df8ebaf53225773248c4c3153593906107f7908490614d51565b60405180910390a25050565b61080b6118c9565b6001600160a01b031661081c610c24565b6001600160a01b031614610865576040805162461bcd60e51b81526020600482018190526024820152600080516020615441833981519152604482015290519081900360640190fd5b61016280546001600160a01b0319166001600160a01b0392909216919091179055565b600061089d61034460c0840160a085016146e2565b604080516101208101909152909150600090806108bd60208601866146e2565b6001600160a01b0316815260200160405180604001604052808581526020018660800135815250815260200160006001600160a01b03168152602001604051806040016040528060405180604001604052808860400160208101906109229190614a46565b6001600160e01b031916815260200161093e60608a018a61523e565b8080601f016020809104026020016040519081016040528093929190818152602001838380828437600092019190915250505091525081526020878101359181019190915290825260c08601359082015260e0850135604082015261010085013560608201526080016109b961014086016101208701614a46565b6001600160e01b03191681526020016109d661014086018661523e565b8080601f01602080910402602001604051908101604052809392919081815260200183838082843760009201829052509390945250506040805161012081018252828152815160808101835294955091939192506020830191908190818101908190610a489060608c01908c01614a46565b6001600160e01b0319168152602001610a6460608b018b61523e565b8080601f0160208091040260200160405190810160405280939291908181526020018383808284376000920182905250939094525050918352506101a08901356020928301529183528281018290526040805180820182528881526101808a013592810192909252830152606082018190526080820181905260a082015260c001610af761014087016101208801614a46565b6001600160e01b0319168152602001610b146101c087018761523e565b8080601f01602080910402602001604051908101604052809392919081815260200183838082843760009201919091525050509152509050610b5e8261060261016087018761523e565b6106468183611279565b610162546001600160a01b031681565b610b806118c9565b6001600160a01b0316610b91610c24565b6001600160a01b031614610bda576040805162461bcd60e51b81526020600482018190526024820152600080516020615441833981519152604482015290519081900360640190fd5b6033546040516000916001600160a01b0316907f8be0079c531659141344cd1fd0a4f28419497f9722a3daafe3b4186f6b6457e0908390a3603380546001600160a01b0319169055565b6033546001600160a01b031690565b610161546001600160a01b0381169065ffffffffffff600160a01b8204811691600160d01b90041683565b610c666118c9565b6001600160a01b0316610c77610c24565b6001600160a01b031614610cc0576040805162461bcd60e51b81526020600482018190526024820152600080516020615441833981519152604482015290519081900360640190fd5b6001600160e01b031982166000818152606560205260409081902080546001600160a01b0319166001600160a01b038516179055517fd2bf91075f105d0fd80328da28e20ebdad1c1261839711183bc29a44cbe6c72f906107f7908490614d51565b610d2a6118c9565b6001600160a01b0316610d3b610c24565b6001600160a01b031614610d84576040805162461bcd60e51b81526020600482018190526024820152600080516020615441833981519152604482015290519081900360640190fd5b610d8d83610da4565b610d9682610e71565b610d9f81611022565b505050565b610dac6118c9565b6001600160a01b0316610dbd610c24565b6001600160a01b031614610e06576040805162461bcd60e51b81526020600482018190526024820152600080516020615441833981519152604482015290519081900360640190fd5b610161546040517fa4b009cc442411b602eaf94bc0579b6abdb8fd90b4ef5b9426e270038906bd0391610e46916001600160a01b03909116908490614d65565b60405180910390a161016180546001600160a01b0319166001600160a01b0392909216919091179055565b610e796118c9565b6001600160a01b0316610e8a610c24565b6001600160a01b031614610ed3576040805162461bcd60e51b81526020600482018190526024820152600080516020615441833981519152604482015290519081900360640190fd5b610161546040517f70bba4f904a93ba5c1af3a1bb602bc9c058551dbe963dfe0b6cb5bc11c5fea9e91610f1891600160a01b90910465ffffffffffff16908490615225565b60405180910390a1610161805465ffffffffffff909216600160a01b0265ffffffffffff60a01b19909216919091179055565b80516001600160a01b0316610f5e6118c9565b6001600160a01b031614610f8d5760405162461bcd60e51b8152600401610f8490615195565b60405180910390fd5b6080810151610fae5760405162461bcd60e51b8152600401610f8490614f27565b6000610fb9826118cd565b600081815261012f6020526040908190206000199055519091507fe8d9861dbc9c663ed3accd261bbe2fe01e0d3d9e5f51fa38523b265c7757a93a90611000908390614e28565b60405180910390a15050565b61101884848484611a55565b6106468483611279565b61102a6118c9565b6001600160a01b031661103b610c24565b6001600160a01b031614611084576040805162461bcd60e51b81526020600482018190526024820152600080516020615441833981519152604482015290519081900360640190fd5b610161546040517fa8af9093caa9beb61d20432227c66258ceef926f21879b80f3adf22a4d19f131916110c991600160d01b90910465ffffffffffff16908490615225565b60405180910390a1610161805465ffffffffffff909216600160d01b026001600160d01b03909216919091179055565b6111016118c9565b6001600160a01b0316611112610c24565b6001600160a01b03161461115b576040805162461bcd60e51b81526020600482018190526024820152600080516020615441833981519152604482015290519081900360640190fd5b6001600160a01b0381166111a05760405162461bcd60e51b815260040180806020018281038252602681526020018061533b6026913960400191505060405180910390fd5b6033546040516001600160a01b038084169216907f8be0079c531659141344cd1fd0a4f28419497f9722a3daafe3b4186f6b6457e090600090a3603380546001600160a01b0319166001600160a01b0392909216919091179055565b61120461423b565b61120c61423b565b6001600160a01b038316611229576355575f5d60e11b815261125a565b6322ba176160e21b8152604051611244908490602001614d51565b60408051601f1981840301815291905260208201525b90505b919050565b61126b82611b21565b6112758282611beb565b5050565b6000806112868484611e9a565b9150915060008060006112998787611f33565b92509250925060008061140a6040518060c0016040528060405180604001604052808b8152602001876000015181525081526020018760000151815260200187602001518152602001609760008b600001516001600160e01b0319166001600160e01b031916815260200190815260200160002060009054906101000a90046001600160a01b03166001600160a01b031681526020018b600001516001600160a01b03168152602001876060015115158152506040518060c0016040528060405180604001604052808b8152602001886020015181525081526020018760000151815260200187602001518152602001609760008b600001516001600160e01b0319166001600160e01b031916815260200190815260200160002060009054906101000a90046001600160a01b03166001600160a01b031681526020018b600001516001600160a01b03168152602001876060015115158152506114058a600001518a60000151612054565b612126565b885191935091506001600160e01b0319166355575f5d60e11b14156114895785516001600160e01b0319166355575f5d60e11b141561144857600080fd5b813410156114685760405162461bcd60e51b8152600401610f849061516d565b813411156114845761148461147d348461229d565b33906122fa565b6114d8565b85516001600160e01b0319166355575f5d60e11b14156114d857803410156114c35760405162461bcd60e51b8152600401610f849061516d565b803411156114d8576114d861147d348361229d565b505050505050505050565b60006114ee30612392565b15905090565b600054610100900460ff168061150d575061150d6114e3565b8061151b575060005460ff16155b6115565760405162461bcd60e51b815260040180806020018281038252602e8152602001806153d0602e913960400191505060405180910390fd5b600054610100900460ff16158015611581576000805460ff1961ff0019909116610100171660011790555b8015611593576000805461ff00191690555b50565b600054610100900460ff16806115af57506115af6114e3565b806115bd575060005460ff16155b6115f85760405162461bcd60e51b815260040180806020018281038252602e8152602001806153d0602e913960400191505060405180910390fd5b600054610100900460ff16158015611623576000805460ff1961ff0019909116610100171660011790555b600061162d6118c9565b603380546001600160a01b0319166001600160a01b038316908117909155604051919250906000907f8be0079c531659141344cd1fd0a4f28419497f9722a3daafe3b4186f6b6457e0908290a3508015611593576000805461ff001916905550565b60976020527f4532fa16f071d6234e30e1a1e69b9806f04095edf37a1ca7a25c8d6af7861cc080546001600160a01b039283166001600160a01b0319918216179091557f30a684095c937b5aa064dcf94f9903a7d808e3efb22d8389dbd43080ad4ed3d5805493909216928116831790915563025ceed960e61b6000527f4b5822151ea34b7c8d9e37c3e466bcecb631efe6a9f26a4a4054110a93dd316f80549091169091179055565b600054610100900460ff168061175257506117526114e3565b80611760575060005460ff16155b61179b5760405162461bcd60e51b815260040180806020018281038252602e8152602001806153d0602e913960400191505060405180910390fd5b600054610100900460ff161580156117c6576000805460ff1961ff0019909116610100171660011790555b61016280546001600160a01b0319166001600160a01b0384161790558015610646576000805461ff001916905550505050565b600054610100900460ff168061181257506118126114e3565b80611820575060005460ff16155b61185b5760405162461bcd60e51b815260040180806020018281038252602e8152602001806153d0602e913960400191505060405180910390fd5b600054610100900460ff16158015611886576000805460ff1961ff0019909116610100171660011790555b6115816040518060400160405280600881526020016745786368616e676560c01b815250604051806040016040528060018152602001601960f91b815250612398565b3390565b60e08101516000906001600160e01b031916632611a13360e11b1480611901575060e08201516001600160e01b0319908116145b1561197657815160208301515161191790612458565b60608401515161192690612458565b846080015160405160200180856001600160a01b0316815260200184815260200183815260200182815260200194505050505060405160208183030381529060405280519060200120905061125d565b815160208301515161198790612458565b60608401515161199690612458565b846080015185610100015160405160200180866001600160a01b0316815260200185815260200184815260200183815260200180602001828103825283818151815260200191508051906020019080838360005b83811015611a025781810151838201526020016119ea565b50505050905090810190601f168015611a2f5780820380516001836020036101000a031916815260200191505b50965050505050505060405160208183030381529060405280519060200120905061125d565b611a5f8484611262565b611a698282611262565b60408401516001600160a01b031615611ac55781516001600160a01b031615611ac55783604001516001600160a01b031682600001516001600160a01b031614611ac55760405162461bcd60e51b8152600401610f849061512a565b60408201516001600160a01b0316156106465783516001600160a01b0316156106465783600001516001600160a01b031682604001516001600160a01b0316146106465760405162461bcd60e51b8152600401610f8490614f99565b60a08101511580611b355750428160a00151105b611b86576040805162461bcd60e51b815260206004820152601d60248201527f4f726465722073746172742076616c69646174696f6e206661696c6564000000604482015290519081900360640190fd5b60c08101511580611b9a5750428160c00151115b611593576040805162461bcd60e51b815260206004820152601b60248201527f4f7264657220656e642076616c69646174696f6e206661696c65640000000000604482015290519081900360640190fd5b6080820151611c705781516001600160a01b031615611c6b5781516001600160a01b0316611c176118c9565b6001600160a01b031614611c6b576040805162461bcd60e51b815260206004820152601660248201527536b0b5b2b91034b9903737ba103a3c1039b2b73232b960511b604482015290519081900360640190fd5b611275565b81516001600160a01b0316611c836118c9565b6001600160a01b031614611275576000611c9c836124c2565b9050611cb483600001516001600160a01b0316612392565b15611df0578251630b135d3f60e11b906001600160a01b0316631626ba7e611cdb846125b2565b856040518363ffffffff1660e01b81526004018083815260200180602001828103825283818151815260200191508051906020019080838360005b83811015611d2e578181015183820152602001611d16565b50505050905090810190601f168015611d5b5780820380516001836020036101000a031916815260200191505b50935050505060206040518083038186803b158015611d7957600080fd5b505afa158015611d8d573d6000803e3d6000fd5b505050506040513d6020811015611da357600080fd5b50516001600160e01b03191614611deb5760405162461bcd60e51b815260040180806020018281038252602b8152602001806153a5602b913960400191505060405180910390fd5b610d9f565b82516001600160a01b0316611e0e83611e08846125b2565b906125fe565b6001600160a01b031614611e535760405162461bcd60e51b81526004018080602001828103825260228152602001806153836022913960400191505060405180910390fd5b82516001600160a01b0316610d9f576040805162461bcd60e51b815260206004820152600860248201526737379036b0b5b2b960c11b604482015290519081900360640190fd5b611ea261423b565b611eaa61423b565b602084015151606084015151611ec0919061267e565b80519092506001600160e01b031916611eeb5760405162461bcd60e51b8152600401610f84906150fe565b606084015151602084015151611f01919061267e565b80519091506001600160e01b031916611f2c5760405162461bcd60e51b8152600401610f84906150fe565b9250929050565b611f3b614253565b611f43614253565b611f4b61427f565b6000611f56866118cd565b90506000611f63866118cd565b90506000611f6f6118c9565b88519091506001600160a01b0316611f8e576001600160a01b03811688525b86516001600160a01b0316611faa576001600160a01b03811687525b611fb3886126be565b9550611fbe876126be565b94507fe05601c9efedd6ff4b4f45924b70bcdef96c9c0296b1cbe7a6397ac295e4c13d82604051611fef9190614e28565b60405180910390a17fb0c9de9a4db69eccf9473f3a058572d0a6c641ae46b892f1da66fa03f81af339856040015160405161202a9190614e1d565b60405180910390a1612048888885858a604001518a6040015161281d565b93505050509250925092565b60006001600160e01b031983166355575f5d60e11b141561207757506001612120565b6001600160e01b031982166355575f5d60e11b141561209857506002612120565b6001600160e01b031983166322ba176160e21b14156120b957506001612120565b6001600160e01b031982166322ba176160e21b14156120da57506002612120565b6001600160e01b0319831663025ceed960e61b14156120fb57506001612120565b6001600160e01b0319821663025ceed960e61b141561211c57506002612120565b5060005b92915050565b8251602090810151835190910151600183600281111561214257fe5b14156121c45760408051606081018252610161546001600160a01b038116825265ffffffffffff600160a01b820481166020840152600160d01b90910416918101919091526121949086908690612a4b565b91506121bf846000015160000151856000015160200151866080015188602001518860600151612d0c565b612295565b60028360028111156121d257fe5b141561224f5760408051606081018252610161546001600160a01b038116825265ffffffffffff600160a01b820481166020840152600160d01b90910416918101919091526122249085908790612a4b565b90506121bf856000015160000151866000015160200151876080015187602001518960600151612d0c565b845180516020918201516080880151928701516060890151612272949190612d0c565b835180516020918201516080870151928801516060880151612295949190612d0c565b935093915050565b6000828211156122f4576040805162461bcd60e51b815260206004820152601e60248201527f536166654d6174683a207375627472616374696f6e206f766572666c6f770000604482015290519081900360640190fd5b50900390565b6040516000906001600160a01b0384169083908381818185875af1925050503d8060008114612345576040519150601f19603f3d011682016040523d82523d6000602084013e61234a565b606091505b5050905080610d9f576040805162461bcd60e51b815260206004820152600f60248201526e1d1c985b9cd9995c8819985a5b1959608a1b604482015290519081900360640190fd5b3b151590565b600054610100900460ff16806123b157506123b16114e3565b806123bf575060005460ff16155b6123fa5760405162461bcd60e51b815260040180806020018281038252602e8152602001806153d0602e913960400191505060405180910390fd5b600054610100900460ff16158015612425576000805460ff1961ff0019909116610100171660011790555b825160208085019190912083519184019190912060c99190915560ca558015610d9f576000805461ff0019169055505050565b8051602091820151805190830120604080517f452a0dc408cb0d27ffc3b3caff933a5208040a53a9dbecd8d89cad2c0d40e00c818601526001600160e01b031990931683820152606080840192909252805180840390920182526080909201909152805191012090565b60007f477ed43b8020849b755512278536c3766a3b4ab547519949a75f483372493f8d82600001516124f78460200151612e90565b84604001516125098660600151612e90565b86608001518760a001518860c001518960e001518a610100015180519060200120604051602001808b81526020018a6001600160a01b03168152602001898152602001886001600160a01b03168152602001878152602001868152602001858152602001848152602001836001600160e01b03191681526020018281526020019a5050505050505050505050604051602081830303815290604052805190602001209050919050565b60006125bc612f00565b82604051602001808061190160f01b81525060020183815260200182815260200192505050604051602081830303815290604052805190602001209050919050565b60008151604114612656576040805162461bcd60e51b815260206004820152601f60248201527f45434453413a20696e76616c6964207369676e6174757265206c656e67746800604482015290519081900360640190fd5b60208201516040830151606084015160001a61267486828585612f40565b9695505050505050565b61268661423b565b60006126928484613196565b80519091506001600160e01b0319166126b7576126af8385613196565b915050612120565b9050612120565b6126c6614253565b6000606082015260e08201516001600160e01b031916632611a13360e11b14156127195760008261010001518060200190518101906127059190614b57565b805183526020908101519083015250612804565b60e08201516001600160e01b0319166323d235ef60e01b14156127715760008261010001518060200190518101906127519190614be3565b805183526020808201519084015260409081015115159083015250612804565b60e08201516001600160e01b03191663256f2a6560e11b14156127d05760008261010001518060200190518101906127a99190614be3565b80518352602080820151908401526040908101511515908301525060016060820152612804565b60e08201516001600160e01b031990811614156127ec57612804565b60405162461bcd60e51b8152600401610f8490615090565b80515161125d578151612816906133b2565b8152919050565b61282561427f565b600061283588608001518761344d565b9050600061284788608001518761344d565b905060006128598a8a85858a8a613472565b9050896020015160200151600014158061287a575060608901516020015115155b1561289d57805161289d5760405162461bcd60e51b8152600401610f8490615009565b60608a0151602001511515806128b957506020808a0151015115155b156128e25760008160200151116128e25760405162461bcd60e51b8152600401610f8490615009565b60808a0151156129355785156129145780516128ff90849061350b565b600089815261012f6020526040902055612935565b602081015161292490849061350b565b600089815261012f60205260409020555b60808901511561298857841561296a57602081015161295590839061350b565b600088815261012f6020526040902055612988565b805161297790839061350b565b600088815261012f60205260409020555b7fcb2d9007efc38681c03451b620f402ce31ee213cfbd6d832693c96294784d7d981602001516040516129bb9190614e28565b60405180910390a180516040517fcb2d9007efc38681c03451b620f402ce31ee213cfbd6d832693c96294784d7d9916129f391614e28565b60405180910390a1602081015181516040517f956cd63ee4cdcd81fda5f0ec7c6c36dceda99e1b412f4a650a5d26055dc3c45092612a36928c928c929190614e31565b60405180910390a19998505050505050505050565b6000808460a00151612a5e576000612a64565b82602001515b65ffffffffffff16905060008460a00151612a80576000612a86565b83604001515b65ffffffffffff169050612aa786600001516020015183886040015161356c565b8651602081015160808901518751925160608b0151949750600094612ad3948994939289890192613601565b875180518851516020808b015193015160808c015160608d0151959650612b0195939492938792919061364b565b90508660400151516001148015612b1d57508560400151516001145b8015612b7257508660400151600081518110612b3557fe5b6020026020010151600001516001600160a01b03168660400151600081518110612b5b57fe5b6020026020010151600001516001600160a01b0316145b15612c8857604080516001808252818301909252600091816020015b612b96614299565b815260200190600190039081612b8e5790505090508660400151600081518110612bbc57fe5b60200260200101516000015181600081518110612bd557fe5b60209081029190910101516001600160a01b03909116905260408801518051600090612bfd57fe5b6020026020010151602001518760400151600081518110612c1a57fe5b6020026020010151602001510181600081518110612c3457fe5b6020026020010151602001906001600160601b031690816001600160601b031681525050612c7e886000015160000151838a6000015160200151848c608001518d6060015161374e565b509150612ce19050565b612cb2876000015160000151828960000151602001518a604001518b608001518c6060015161374e565b5087518051602090910151604089015160808b015160608c0151949550612cdd94869392919061374e565b5090505b612d0287600001516000015182896080015189602001518b60600151612d0c565b5050509392505050565b6000825111612d2d5760405162461bcd60e51b8152600401610f8490614f55565b600084815b6001855103811015612dfc576000612d73868381518110612d4f57fe5b6020026020010151602001516001600160601b03168961380390919063ffffffff16565b9050612da8868381518110612d8457fe5b6020026020010151602001516001600160601b03168561350b90919063ffffffff16565b93508015612df357612dba838261229d565b9250612df360405180604001604052808b81526020018381525088888581518110612de157fe5b6020026020010151600001518861381b565b50600101612d32565b50600084600186510381518110612e0f57fe5b60200260200101519050612e3981602001516001600160601b03168461350b90919063ffffffff16565b92508261271014612e5c5760405162461bcd60e51b8152600401610f84906150c7565b8115612e8657612e8660405180604001604052808a8152602001848152508783600001518761381b565b5050505050505050565b60007fdb6f72e915676cfc289da13bc4ece054fd17b1df6d77ffc4a60510718c236b08612ec08360000151612458565b8360200151604051602001808481526020018381526020018281526020019350505050604051602081830303815290604052805190602001209050919050565b6000612f3b7f8b73c3c69bb8fe3d512ecc4cf759cc79239f7b179b0ffacaa9a75d522b39400f612f2e613c23565b612f36613c29565b613c2f565b905090565b60007f7fffffffffffffffffffffffffffffff5d576e7357a4501ddfe92f46681b20a0821115612fa15760405162461bcd60e51b81526004018080602001828103825260228152602001806153616022913960400191505060405180910390fd5b6000601e8560ff16111561307b576004850360ff16601b1480612fca57506004850360ff16601c145b6130055760405162461bcd60e51b81526004018080602001828103825260228152602001806153fe6022913960400191505060405180910390fd5b600161301087613c91565b60048703868660405160008152602001604052604051808581526020018460ff1681526020018381526020018281526020019450505050506020604051602081039080840390855afa15801561306a573d6000803e3d6000fd5b505050602060405103519050613132565b8460ff16601b148061309057508460ff16601c145b6130cb5760405162461bcd60e51b81526004018080602001828103825260228152602001806153fe6022913960400191505060405180910390fd5b60018686868660405160008152602001604052604051808581526020018460ff1681526020018381526020018281526020019450505050506020604051602081039080840390855afa158015613125573d6000803e3d6000fd5b5050506020604051035190505b6001600160a01b03811661318d576040805162461bcd60e51b815260206004820152601860248201527f45434453413a20696e76616c6964207369676e61747572650000000000000000604482015290519081900360640190fd5b95945050505050565b61319e61423b565b825182516001600160e01b031982166355575f5d60e11b1415613209576001600160e01b031981166355575f5d60e11b14156131de578492505050612120565b5050604080518082018252600080825282516020818101909452908152918101919091529050612120565b6001600160e01b031982166322ba176160e21b141561324e576001600160e01b031981166322ba176160e21b14156131de576132458585613ce2565b92505050612120565b6001600160e01b031982166339d690a360e11b141561328a576001600160e01b031981166339d690a360e11b14156131de576132458585613ce2565b6001600160e01b0319821663025ceed960e61b14156132c6576001600160e01b0319811663025ceed960e61b14156131de576132458585613ce2565b6001600160e01b031982166000908152606560205260409020546001600160a01b0316801561337b576040516306d3f7cb60e41b81526001600160a01b03821690636d3f7cb09061331d90899089906004016151ba565b60006040518083038186803b15801561333557600080fd5b505afa158015613349573d6000803e3d6000fd5b505050506040513d6000823e601f3d908101601f191682016040526133719190810190614acc565b9350505050612120565b6001600160e01b0319838116908316141561339a576133718686613ce2565b60405162461bcd60e51b8152600401610f8490614eb9565b60408051600180825281830190925260609160009190816020015b6133d5614299565b8152602001906001900390816133cd57905050905082816000815181106133f857fe5b6020026020010151600001906001600160a01b031690816001600160a01b0316815250506127108160008151811061342c57fe5b6020908102919091018101516001600160601b039092169101529050919050565b60008261345c57506000612120565b50600090815261012f6020526040902054919050565b61347a61427f565b600080613488898887613d3f565b9150915060008061349a8a8988613d3f565b91509150838111806134b4575083811480156134b4575083155b156134e0576134d584848c60200151602001518d6060015160200151613db8565b945050505050612674565b6134fc8b60200151602001518c60600151602001518484613e3d565b9b9a5050505050505050505050565b600082820183811015613565576040805162461bcd60e51b815260206004820152601b60248201527f536166654d6174683a206164646974696f6e206f766572666c6f770000000000604482015290519081900360640190fd5b9392505050565b600082815b83518110156135ec5761271084828151811061358957fe5b6020026020010151602001516001600160601b031611156135bc5760405162461bcd60e51b8152600401610f8490615061565b8381815181106135c857fe5b6020026020010151602001516001600160601b031682019150806001019050613571565b5061318d6135fa8683613803565b869061350b565b60008060006136118a8a89613ec3565b9092509050801561363c5761363c60405180604001604052808781526020018381525089888761381b565b5090505b979650505050505050565b60008061365788613ee5565b90508051600114801561366b575086516001145b80156136b857508660008151811061367f57fe5b6020026020010151600001516001600160a01b0316816000815181106136a157fe5b6020026020010151600001516001600160a01b0316145b1561370957611388816000815181106136cd57fe5b6020026020010151602001516001600160601b031611156137005760405162461bcd60e51b8152600401610f8490614ef0565b85915050613640565b60008061371a8b8989868a8a61374e565b915091506113888111156137405760405162461bcd60e51b8152600401610f8490614ef0565b509998505050505050505050565b846000805b85518110156137f75761378f86828151811061376b57fe5b6020026020010151602001516001600160601b03168361350b90919063ffffffff16565b915060006137be84898985815181106137a457fe5b6020026020010151602001516001600160601b0316613ec3565b909450905080156137ee576137ee60405180604001604052808c81526020018381525087898581518110612de157fe5b50600101613753565b50965096945050505050565b6000613565612710613815858561405a565b906140b3565b8351516001600160e01b0319166339d690a360e11b141561396157600080856000015160200151806020019051810190613855919061490a565b91509150856020015160011461387d5760405162461bcd60e51b8152600401610f8490614fdd565b6001600160a01b0385163014156138f557604051632142170760e11b81526001600160a01b038316906342842e0e906138be90309088908690600401614d7f565b600060405180830381600087803b1580156138d857600080fd5b505af11580156138ec573d6000803e3d6000fd5b5050505061395a565b604051637b84dc8360e11b81526001600160a01b0384169063f709b90690613927908590899089908790600401614e8f565b600060405180830381600087803b15801561394157600080fd5b505af1158015613955573d6000803e3d6000fd5b505050505b5050610646565b8351516001600160e01b0319166322ba176160e21b1415613abf57600084600001516020015180602001905181019061399a91906146fe565b90506001600160a01b038416301415613a5157602085015160405163a9059cbb60e01b81526001600160a01b0383169163a9059cbb916139de918791600401614ddb565b602060405180830381600087803b1580156139f857600080fd5b505af1158015613a0c573d6000803e3d6000fd5b505050506040513d601f19601f82011682018060405250810190613a309190614a14565b613a4c5760405162461bcd60e51b8152600401610f8490615032565b613ab9565b602085015160405163776062c360e01b81526001600160a01b0384169163776062c391613a8691859189918991600401614e8f565b600060405180830381600087803b158015613aa057600080fd5b505af1158015613ab4573d6000803e3d6000fd5b505050505b50610646565b8351516001600160e01b03191663025ceed960e61b1415613b7c57600080856000015160200151806020019051810190613af9919061490a565b90925090506001600160a01b038516301415613b44576020860151604051637921219560e11b81526001600160a01b0384169163f242432a916138be91309189918791600401614da3565b6020860151604051639c1c2ee960e01b81526001600160a01b03851691639c1c2ee9916139279186918a918a91889190600401614e4c565b8351516001600160e01b0319166355575f5d60e11b1415613bc5576001600160a01b0382163014613bc0576020840151613bc0906001600160a01b038416906122fa565b610646565b6040516354bc0cf160e01b81526001600160a01b038216906354bc0cf190613bf5908790879087906004016151df565b600060405180830381600087803b158015613c0f57600080fd5b505af1158015612e86573d6000803e3d6000fd5b60c95490565b60ca5490565b6000838383613c3c61411a565b3060405160200180868152602001858152602001848152602001838152602001826001600160a01b03168152602001955050505050506040516020818303038152906040528051906020012090509392505050565b604080517f19457468657265756d205369676e6564204d6573736167653a0a333200000000602080830191909152603c8083019490945282518083039094018452605c909101909152815191012090565b613cea61423b565b60208084015180519082012083820151805192019190912080821415613d14578492505050612120565b5050604080518082018252600080825282516020808201909452908152918101919091529392505050565b6000808215613d7e576020808601510151613d5a908561229d565b9150613d778560600151602001518660200151602001518461411e565b9050612295565b606085015160200151613d91908561229d565b9050613dae8560200151602001518660600151602001518361411e565b9150935093915050565b613dc061427f565b6000613dcd85858561411e565b905085811115613e24576040805162461bcd60e51b815260206004820152601860248201527f66696c6c4c6566743a20756e61626c6520746f2066696c6c0000000000000000604482015290519081900360640190fd5b5050604080518082019091529384525050602082015290565b613e4561427f565b6000613e5283878761411e565b905083811115613ea9576040805162461bcd60e51b815260206004820152601960248201527f66696c6c52696768743a20756e61626c6520746f2066696c6c00000000000000604482015290519081900360640190fd5b604080518082019091529283526020830152509392505050565b600080613ed985613ed48686613803565b614184565b91509150935093915050565b80516060906001600160e01b03191663025ceed960e61b1480613f19575081516001600160e01b0319166339d690a360e11b145b15613fcf576000808360200151806020019051810190613f39919061490a565b61016254604051634e53ee3d60e11b81529294509092506001600160a01b031690639ca7dc7a90613f709085908590600401614ddb565b600060405180830381600087803b158015613f8a57600080fd5b505af1158015613f9e573d6000803e3d6000fd5b505050506040513d6000823e601f3d908101601f19168201604052613fc691908101906149e2565b9250505061125d565b81516001600160e01b03191662737ea960e61b14156140105760008260200151806020019051810190614002919061471a565b60800151925061125d915050565b81516001600160e01b03191663d8f960c160e01b141561405257600082602001518060200190518101906140449190614817565b60600151925061125d915050565b506060919050565b60008261406957506000612120565b8282028284828161407657fe5b04146135655760405162461bcd60e51b81526004018080602001828103825260218152602001806154206021913960400191505060405180910390fd5b6000808211614109576040805162461bcd60e51b815260206004820152601a60248201527f536166654d6174683a206469766973696f6e206279207a65726f000000000000604482015290519081900360640190fd5b81838161411257fe5b049392505050565b4690565b600061412b8484846141ac565b1561416e576040805162461bcd60e51b815260206004820152600e60248201526d3937bab73234b7339032b93937b960911b604482015290519081900360640190fd5b61417c83613815868561405a565b949350505050565b600080828411156141a357614199848461229d565b9150829050611f2c565b50600093915050565b6000826141f3576040805162461bcd60e51b815260206004820152601060248201526f6469766973696f6e206279207a65726f60801b604482015290519081900360640190fd5b8115806141fe575083155b1561420b57506000613565565b6000838061421557fe5b8584099050614224858461405a565b614230826103e861405a565b101595945050505050565b60408051808201909152600081526060602082015290565b604051806080016040528060608152602001606081526020016000151581526020016000151581525090565b604051806040016040528060008152602001600081525090565b604080518082019091526000808252602082015290565b803561125d8161530f565b600082601f8301126142cb578081fd5b815160206142e06142db836152a5565b615282565b82815281810190858301855b8581101561431557614303898684518b0101614444565b845292840192908401906001016142ec565b5090979650505050505050565b600082601f830112614332578081fd5b815160206143426142db836152a5565b82815281810190858301604080860288018501891015614360578687fd5b865b868110156143cf5781838b031215614378578788fd5b81518281018181106001600160401b038211171561439257fe5b8352835161439f8161530f565b8152838701516001600160601b03811681146143b957898afd5b8188015285529385019391810191600101614362565b509198975050505050505050565b8051801515811461125d57600080fd5b803561125d81615324565b600082601f830112614408578081fd5b81356144166142db826152c2565b81815284602083860101111561442a578283fd5b816020850160208301379081016020019190915292915050565b600082601f830112614454578081fd5b81516144626142db826152c2565b818152846020838601011115614476578283fd5b61417c8260208301602087016152e3565b60006101e08284031215614499578081fd5b50919050565b600060408083850312156144b1578182fd5b80518181016001600160401b0382821081831117156144cc57fe5b8184528294508535818111156144e157600080fd5b86018088038513156144f257600080fd5b60808401838110838211171561450457fe5b90945283359361451385615324565b9382526020840135938185111561452957600080fd5b614535888683016143f8565b60608501525050815260209384013593019290925292915050565b600060608284031215614561578081fd5b604051606081016001600160401b03828210818311171561457e57fe5b81604052829350845191508082111561459657600080fd5b6145a286838701614322565b835260208501519150808211156145b857600080fd5b506145c585828601614322565b6020830152506145d7604084016143dd565b60408201525092915050565b60006101208083850312156145f6578182fd5b6145ff81615282565b91505061460b826142b0565b815260208201356001600160401b038082111561462757600080fd5b6146338583860161449f565b6020840152614644604085016142b0565b6040840152606084013591508082111561465d57600080fd5b6146698583860161449f565b60608401526080840135608084015260a084013560a084015260c084013560c084015261469860e085016143ed565b60e0840152610100915081840135818111156146b357600080fd5b6146bf868287016143f8565b8385015250505092915050565b803565ffffffffffff8116811461125d57600080fd5b6000602082840312156146f3578081fd5b81356135658161530f565b60006020828403121561470f578081fd5b81516135658161530f565b6000806040838503121561472c578081fd5b82516147378161530f565b60208401519092506001600160401b0380821115614753578283fd5b9084019060c08287031215614766578283fd5b61477060c0615282565b82518152602083015182811115614785578485fd5b61479188828601614444565b602083015250604083015160408201526060830151828111156147b2578485fd5b6147be88828601614322565b6060830152506080830151828111156147d5578485fd5b6147e188828601614322565b60808301525060a0830151828111156147f8578485fd5b614804888286016142bb565b60a0830152508093505050509250929050565b60008060408385031215614829578182fd5b82516148348161530f565b60208401519092506001600160401b0380821115614850578283fd5b9084019060a08287031215614863578283fd5b61486d60a0615282565b82518152602083015182811115614882578485fd5b61488e88828601614444565b6020830152506040830151828111156148a5578485fd5b6148b188828601614322565b6040830152506060830151828111156148c8578485fd5b6148d488828601614322565b6060830152506080830151828111156148eb578485fd5b6148f7888286016142bb565b6080830152508093505050509250929050565b6000806040838503121561491c578182fd5b82516149278161530f565b6020939093015192949293505050565b600080600080600060a0868803121561494e578081fd5b85356149598161530f565b945060208601356149698161530f565b93506040860135925060608601356149808161530f565b915060808601356149908161530f565b809150509295509295909350565b6000806000606084860312156149b2578081fd5b83356149bd8161530f565b92506149cb602085016146cc565b91506149d9604085016146cc565b90509250925092565b6000602082840312156149f3578081fd5b81516001600160401b03811115614a08578182fd5b61417c84828501614322565b600060208284031215614a25578081fd5b613565826143dd565b600060208284031215614a3f578081fd5b5035919050565b600060208284031215614a57578081fd5b813561356581615324565b60008060408385031215614a74578182fd5b8235614a7f81615324565b91506020830135614a8f8161530f565b809150509250929050565b600060208284031215614aab578081fd5b81356001600160401b03811115614ac0578182fd5b61417c84828501614487565b600060208284031215614add578081fd5b81516001600160401b0380821115614af3578283fd5b9083019060408286031215614b06578283fd5b604051604081018181108382111715614b1b57fe5b6040528251614b2981615324565b8152602083015182811115614b3c578485fd5b614b4887828601614444565b60208301525095945050505050565b600060208284031215614b68578081fd5b81516001600160401b0380821115614b7e578283fd5b9083019060408286031215614b91578283fd5b604051604081018181108382111715614ba657fe5b604052825182811115614bb7578485fd5b614bc387828601614322565b825250602083015182811115614bd7578485fd5b614b4887828601614322565b600060208284031215614bf4578081fd5b81516001600160401b03811115614c09578182fd5b61417c84828501614550565b600060208284031215614c26578081fd5b81356001600160401b03811115614c3b578182fd5b61417c848285016145e3565b60008060008060808587031215614c5c578182fd5b84356001600160401b0380821115614c72578384fd5b614c7e888389016145e3565b95506020870135915080821115614c93578384fd5b614c9f888389016143f8565b94506040870135915080821115614cb4578384fd5b614cc0888389016145e3565b93506060870135915080821115614cd5578283fd5b50614ce2878288016143f8565b91505092959194509250565b600060208284031215614cff578081fd5b613565826146cc565b600063ffffffff60e01b82511683526020820151604060208501528051806040860152614d3c8160608701602085016152e3565b601f01601f1916939093016060019392505050565b6001600160a01b0391909116815260200190565b6001600160a01b0392831681529116602082015260400190565b6001600160a01b039384168152919092166020820152604081019190915260600190565b6001600160a01b0394851681529290931660208301526040820152606081019190915260a06080820181905260009082015260c00190565b6001600160a01b03929092168252602082015260400190565b6001600160a01b0393909316835265ffffffffffff918216602084015216604082015260600190565b901515815260200190565b90815260200190565b93845260208401929092526040830152606082015260800190565b6001600160a01b03958616815293851660208501529190931660408301526060820192909252608081019190915260c060a0820181905260009082015260e00190565b6001600160a01b039485168152928416602084015292166040820152606081019190915260800190565b60208082526017908201527f6e6f7420666f756e64204941737365744d617463686572000000000000000000604082015260600190565b6020808252601d908201527f526f79616c746965732061726520746f6f206869676820283e35302529000000604082015260600190565b6020808252601490820152730c081cd85b1d0818d85b89dd081899481d5cd95960621b604082015260600190565b60208082526024908201527f7472616e736665725061796f7574733a206e6f7468696e6720746f207472616e60408201526339b332b960e11b606082015260800190565b60208082526024908201527f72696768744f726465722e74616b657220766572696669636174696f6e2066616040820152631a5b195960e21b606082015260800190565b60208082526012908201527132b9319b9918903b30b63ab29032b93937b960711b604082015260600190565b6020808252600f908201526e1b9bdd1a1a5b99c81d1bc8199a5b1b608a1b604082015260600190565b602080825260159082015274195c98cc8c081d1c985b9cd9995c8819985a5b1959605a1b604082015260600190565b6020808252601590820152746f726967696e2066656520697320746f6f2062696760581b604082015260600190565b60208082526017908201527f556e6b6e6f776e204f7264657220646174612074797065000000000000000000604082015260600190565b6020808252601e908201527f53756d207061796f75747320427073206e6f7420657175616c20313030250000604082015260600190565b6020808252601290820152710c2e6e6cae8e640c8dedc4ee840dac2e8c6d60731b604082015260600190565b60208082526023908201527f6c6566744f726465722e74616b657220766572696669636174696f6e206661696040820152621b195960ea1b606082015260800190565b6020808252600e908201526d0dcdee840cadcdeeaced040cae8d60931b604082015260600190565b6020808252600b908201526a3737ba10309036b0b5b2b960a91b604082015260600190565b6000604082526151cd6040830185614d08565b828103602084015261318d8185614d08565b6000606082528451604060608401526151fb60a0840182614d08565b60209687015160808501526001600160a01b03958616968401969096525050911660409091015290565b65ffffffffffff92831681529116602082015260400190565b6000808335601e19843603018112615254578283fd5b8301803591506001600160401b0382111561526d578283fd5b602001915036819003821315611f2c57600080fd5b6040518181016001600160401b038111828210171561529d57fe5b604052919050565b60006001600160401b038211156152b857fe5b5060209081020190565b60006001600160401b038211156152d557fe5b50601f01601f191660200190565b60005b838110156152fe5781810151838201526020016152e6565b838111156106465750506000910152565b6001600160a01b038116811461159357600080fd5b6001600160e01b03198116811461159357600080fdfe4f776e61626c653a206e6577206f776e657220697320746865207a65726f206164647265737345434453413a20696e76616c6964207369676e6174757265202773272076616c75656f72646572207369676e617475726520766572696669636174696f6e206572726f72636f6e7472616374206f72646572207369676e617475726520766572696669636174696f6e206572726f72496e697469616c697a61626c653a20636f6e747261637420697320616c726561647920696e697469616c697a656445434453413a20696e76616c6964207369676e6174757265202776272076616c7565536166654d6174683a206d756c7469706c69636174696f6e206f766572666c6f774f776e61626c653a2063616c6c6572206973206e6f7420746865206f776e6572a2646970667358221220c56f370a3789ce486d9b1865140cf69157cbb90e3d36e1ee5d1e2906f8cf438764736f6c63430007060033",
  "immutableReferences": {},
  "source": "// SPDX-License-Identifier: MIT\n\npragma solidity 0.7.6;\npragma abicoder v2;\n\nimport \"./ExchangeV2Core.sol\";\nimport \"@rarible/transfer-manager/contracts/RaribleTransferManager.sol\";\n\ncontract ExchangeV2 is ExchangeV2Core, RaribleTransferManager {\n    function __ExchangeV2_init(\n        address _transferProxy,\n        address _erc20TransferProxy,\n        uint newProtocolFee,\n        address newDefaultFeeReceiver,\n        IRoyaltiesProvider newRoyaltiesProvider\n    ) external initializer {\n        __Context_init_unchained();\n        __Ownable_init_unchained();\n        __TransferExecutor_init_unchained(_transferProxy, _erc20TransferProxy);\n        __RaribleTransferManager_init_unchained(newProtocolFee, newDefaultFeeReceiver, newRoyaltiesProvider);\n        __OrderValidator_init_unchained();\n    }\n\n}\n",
  "sourcePath": "/Users/eugene/Projects/rarible/protocol-contracts-new/projects/exchange-v2/contracts/ExchangeV2.sol",
  "compiler": {
    "name": "solc",
    "version": "0.7.6+commit.7338295f.Emscripten.clang"
  },
  "schemaVersion": "3.4.16",
  "updatedAt": "2024-06-06T14:04:29.631Z",
  "devdoc": {
    "kind": "dev",
    "methods": {
      "directAcceptBid((address,uint256,bytes4,bytes,uint256,address,uint256,uint256,uint256,bytes4,bytes,bytes,uint256,uint256,bytes))": {
        "details": "function, generate sellOrder and buyOrder from parameters and call validateAndMatch() for accept bid transaction",
        "params": {
          "direct": "struct with parameters for accept bid operation"
        }
      },
      "directPurchase((address,uint256,bytes4,bytes,uint256,address,uint256,uint256,uint256,bytes4,bytes,bytes,uint256,uint256,bytes))": {
        "details": "function, generate sellOrder and buyOrder from parameters and call validateAndMatch() for purchase transaction"
      },
      "owner()": {
        "details": "Returns the address of the current owner."
      },
      "renounceOwnership()": {
        "details": "Leaves the contract without owner. It will not be possible to call `onlyOwner` functions anymore. Can only be called by the current owner. NOTE: Renouncing ownership will leave the contract without an owner, thereby removing any functionality that is only available to the owner."
      },
      "transferOwnership(address)": {
        "details": "Transfers ownership of the contract to a new account (`newOwner`). Can only be called by the current owner."
      }
    },
    "version": 1
  },
  "userdoc": {
    "kind": "user",
    "methods": {},
    "version": 1
  }
}