{
  "contractName": "ZeroExFeeWrapper",
  "abi": [
    {
      "inputs": [
        {
          "internalType": "address",
          "name": "exchange",
          "type": "address"
        }
      ],
      "stateMutability": "nonpayable",
      "type": "constructor"
    },
    {
      "inputs": [
        {
          "internalType": "address",
          "name": "owner",
          "type": "address"
        },
        {
          "internalType": "bool",
          "name": "isOwner",
          "type": "bool"
        }
      ],
      "name": "setOwner",
      "outputs": [],
      "stateMutability": "nonpayable",
      "type": "function"
    },
    {
      "inputs": [
        {
          "internalType": "address",
          "name": "owner",
          "type": "address"
        }
      ],
      "name": "isOwner",
      "outputs": [
        {
          "internalType": "bool",
          "name": "",
          "type": "bool"
        }
      ],
      "stateMutability": "view",
      "type": "function"
    },
    {
      "inputs": [
        {
          "internalType": "address",
          "name": "exchange",
          "type": "address"
        }
      ],
      "name": "setExchange",
      "outputs": [],
      "stateMutability": "nonpayable",
      "type": "function"
    },
    {
      "inputs": [],
      "name": "getExchange",
      "outputs": [
        {
          "internalType": "address",
          "name": "",
          "type": "address"
        }
      ],
      "stateMutability": "view",
      "type": "function"
    },
    {
      "inputs": [
        {
          "internalType": "address",
          "name": "target",
          "type": "address"
        },
        {
          "internalType": "bytes",
          "name": "callData",
          "type": "bytes"
        }
      ],
      "name": "proxyCall",
      "outputs": [
        {
          "internalType": "bytes",
          "name": "",
          "type": "bytes"
        }
      ],
      "stateMutability": "payable",
      "type": "function"
    },
    {
      "inputs": [
        {
          "components": [
            {
              "internalType": "address",
              "name": "makerAddress",
              "type": "address"
            },
            {
              "internalType": "address",
              "name": "takerAddress",
              "type": "address"
            },
            {
              "internalType": "address",
              "name": "feeRecipientAddress",
              "type": "address"
            },
            {
              "internalType": "address",
              "name": "senderAddress",
              "type": "address"
            },
            {
              "internalType": "uint256",
              "name": "makerAssetAmount",
              "type": "uint256"
            },
            {
              "internalType": "uint256",
              "name": "takerAssetAmount",
              "type": "uint256"
            },
            {
              "internalType": "uint256",
              "name": "makerFee",
              "type": "uint256"
            },
            {
              "internalType": "uint256",
              "name": "takerFee",
              "type": "uint256"
            },
            {
              "internalType": "uint256",
              "name": "expirationTimeSeconds",
              "type": "uint256"
            },
            {
              "internalType": "uint256",
              "name": "salt",
              "type": "uint256"
            },
            {
              "internalType": "bytes",
              "name": "makerAssetData",
              "type": "bytes"
            },
            {
              "internalType": "bytes",
              "name": "takerAssetData",
              "type": "bytes"
            },
            {
              "internalType": "bytes",
              "name": "makerFeeAssetData",
              "type": "bytes"
            },
            {
              "internalType": "bytes",
              "name": "takerFeeAssetData",
              "type": "bytes"
            }
          ],
          "internalType": "struct LibOrder.Order",
          "name": "leftOrder",
          "type": "tuple"
        },
        {
          "components": [
            {
              "internalType": "address",
              "name": "makerAddress",
              "type": "address"
            },
            {
              "internalType": "address",
              "name": "takerAddress",
              "type": "address"
            },
            {
              "internalType": "address",
              "name": "feeRecipientAddress",
              "type": "address"
            },
            {
              "internalType": "address",
              "name": "senderAddress",
              "type": "address"
            },
            {
              "internalType": "uint256",
              "name": "makerAssetAmount",
              "type": "uint256"
            },
            {
              "internalType": "uint256",
              "name": "takerAssetAmount",
              "type": "uint256"
            },
            {
              "internalType": "uint256",
              "name": "makerFee",
              "type": "uint256"
            },
            {
              "internalType": "uint256",
              "name": "takerFee",
              "type": "uint256"
            },
            {
              "internalType": "uint256",
              "name": "expirationTimeSeconds",
              "type": "uint256"
            },
            {
              "internalType": "uint256",
              "name": "salt",
              "type": "uint256"
            },
            {
              "internalType": "bytes",
              "name": "makerAssetData",
              "type": "bytes"
            },
            {
              "internalType": "bytes",
              "name": "takerAssetData",
              "type": "bytes"
            },
            {
              "internalType": "bytes",
              "name": "makerFeeAssetData",
              "type": "bytes"
            },
            {
              "internalType": "bytes",
              "name": "takerFeeAssetData",
              "type": "bytes"
            }
          ],
          "internalType": "struct LibOrder.Order",
          "name": "rightOrder",
          "type": "tuple"
        },
        {
          "internalType": "bytes",
          "name": "leftSignature",
          "type": "bytes"
        },
        {
          "internalType": "bytes",
          "name": "rightSignature",
          "type": "bytes"
        },
        {
          "components": [
            {
              "internalType": "address",
              "name": "recipient",
              "type": "address"
            },
            {
              "internalType": "uint256",
              "name": "paymentTokenAmount",
              "type": "uint256"
            }
          ],
          "internalType": "struct ZeroExFeeWrapper.FeeData[]",
          "name": "feeData",
          "type": "tuple[]"
        },
        {
          "internalType": "address",
          "name": "paymentTokenAddress",
          "type": "address"
        }
      ],
      "name": "matchOrders",
      "outputs": [
        {
          "internalType": "bytes",
          "name": "",
          "type": "bytes"
        }
      ],
      "stateMutability": "payable",
      "type": "function"
    }
  ],
  "bytecode": "0x60806040526000805460ff1916905534801561001a57600080fd5b5060405161132f38038061132f8339810160408190526100399161007b565b336000908152600160208190526040909120805460ff19169091179055600280546001600160a01b0319166001600160a01b03929092169190911790556100a9565b60006020828403121561008c578081fd5b81516001600160a01b03811681146100a2578182fd5b9392505050565b611277806100b86000396000f3fe6080604052600436106100555760003560e01c80632a31f6b41461005a5780632f54bf6e14610083578063516c731c146100b057806367b1f5df146100d2578063bbbfa60c146100f2578063f807cd2214610105575b600080fd5b61006d610068366004610b84565b610127565b60405161007a9190610ead565b60405180910390f35b34801561008f57600080fd5b506100a361009e366004610b34565b6101d0565b60405161007a9190610ea2565b3480156100bc57600080fd5b506100d06100cb366004610b4e565b6101f2565b005b3480156100de57600080fd5b506100d06100ed366004610b34565b61024c565b61006d610100366004610c1e565b61029d565b34801561011157600080fd5b5061011a610699565b60405161007a9190610e75565b3360009081526001602052604090205460609060ff166101625760405162461bcd60e51b81526004016101599061104a565b60405180910390fd5b600080856001600160a01b0316348686604051610180929190610e49565b60006040518083038185875af1925050503d80600081146101bd576040519150601f19603f3d011682016040523d82523d6000602084013e6101c2565b606091505b5093505050505b9392505050565b6001600160a01b03811660009081526001602052604090205460ff165b919050565b3360009081526001602052604090205460ff166102215760405162461bcd60e51b81526004016101599061104a565b6001600160a01b03919091166000908152600160205260409020805460ff1916911515919091179055565b3360009081526001602052604090205460ff1661027b5760405162461bcd60e51b81526004016101599061104a565b600280546001600160a01b0319166001600160a01b0392909216919091179055565b3360009081526001602052604090205460609060ff166102cf5760405162461bcd60e51b81526004016101599061104a565b60005460ff16156102f25760405162461bcd60e51b815260040161015990610ec0565b6000805460ff1916600117905560608701516001600160a01b03161561033e5760608701516001600160a01b0316301461033e5760405162461bcd60e51b81526004016101599061106e565b60608601516001600160a01b03161561037d5760608601516001600160a01b0316301461037d5760405162461bcd60e51b815260040161015990610fed565b60006001600160a01b03831615801590610398575060008451115b9050600081156104645760408901516001600160a01b03163014806103c9575060408801516001600160a01b031630145b6103e55760405162461bcd60e51b815260040161015990610f3a565b6040516370a0823160e01b81526001600160a01b038516906370a0823190610411903090600401610e75565b60206040518083038186803b15801561042957600080fd5b505afa15801561043d573d6000803e3d6000fd5b505050506040513d601f19601f820116820180604052508101906104619190610cf9565b90505b60025460405160009182916001600160a01b03909116903490610491908e908e908e908e9060240161114c565b60408051601f198184030181529181526020820180516001600160e01b03166388ec79fb60e01b179052516104c69190610e59565b60006040518083038185875af1925050503d8060008114610503576040519150601f19603f3d011682016040523d82523d6000602084013e610508565b606091505b50915091508161052a5760405162461bcd60e51b815260040161015990610fc1565b83156106495760005b87518110156105ad5761059d8789838151811061056057634e487b7160e01b600052603260045260246000fd5b6020026020010151600001518a848151811061058c57634e487b7160e01b600052603260045260246000fd5b6020026020010151602001516106a8565b6105a6816111f3565b9050610533565b506040516370a0823160e01b815283906001600160a01b038816906370a08231906105dc903090600401610e75565b60206040518083038186803b1580156105f457600080fd5b505afa158015610608573d6000803e3d6000fd5b505050506040513d601f19601f8201168201806040525081019061062c9190610cf9565b146106495760405162461bcd60e51b815260040161015990610eed565b935050505047801561068457604051339082156108fc029083906000818181858888f19350505050158015610682573d6000803e3d6000fd5b505b506000805460ff191690559695505050505050565b6002546001600160a01b031690565b6106fe8363a9059cbb60e01b84846040516024016106c7929190610e89565b60408051601f198184030181529190526020810180516001600160e01b03166001600160e01b031990931692909217909152610703565b505050565b6000610758826040518060400160405280602081526020017f5361666545524332303a206c6f772d6c6576656c2063616c6c206661696c6564815250856001600160a01b03166107929092919063ffffffff16565b8051909150156106fe57808060200190518101906107769190610c02565b6106fe5760405162461bcd60e51b815260040161015990611102565b60606107a184846000856107a9565b949350505050565b6060824710156107cb5760405162461bcd60e51b815260040161015990610f7b565b6107d485610869565b6107f05760405162461bcd60e51b8152600401610159906110cb565b600080866001600160a01b0316858760405161080c9190610e59565b60006040518083038185875af1925050503d8060008114610849576040519150601f19603f3d011682016040523d82523d6000602084013e61084e565b606091505b509150915061085e82828661086f565b979650505050505050565b3b151590565b6060831561087e5750816101c9565b82511561088e5782518084602001fd5b8160405162461bcd60e51b81526004016101599190610ead565b80356001600160a01b03811681146101ed57600080fd5b600082601f8301126108cf578081fd5b8135602067ffffffffffffffff808311156108ec576108ec61121a565b6108f98283850201611199565b838152828101908684016040808702890186018a1015610917578788fd5b875b8781101561096f5781838c03121561092f578889fd5b815182810181811088821117156109485761094861121a565b8352610953846108a8565b8152838801358882015285529386019391810191600101610919565b50919998505050505050505050565b600082601f83011261098e578081fd5b813567ffffffffffffffff8111156109a8576109a861121a565b6109bb601f8201601f1916602001611199565b8181528460208386010111156109cf578283fd5b816020850160208301379081016020019190915292915050565b60006101c08083850312156109fc578182fd5b610a0581611199565b915050610a11826108a8565b8152610a1f602083016108a8565b6020820152610a30604083016108a8565b6040820152610a41606083016108a8565b60608201526080820135608082015260a082013560a082015260c082013560c082015260e082013560e08201526101008083013581830152506101208083013581830152506101408083013567ffffffffffffffff80821115610aa357600080fd5b610aaf8683870161097e565b83850152610160925082850135915080821115610acb57600080fd5b610ad78683870161097e565b83850152610180925082850135915080821115610af357600080fd5b610aff8683870161097e565b838501526101a0925082850135915080821115610b1b57600080fd5b50610b288582860161097e565b82840152505092915050565b600060208284031215610b45578081fd5b6101c9826108a8565b60008060408385031215610b60578081fd5b610b69836108a8565b91506020830135610b7981611230565b809150509250929050565b600080600060408486031215610b98578081fd5b610ba1846108a8565b9250602084013567ffffffffffffffff80821115610bbd578283fd5b818601915086601f830112610bd0578283fd5b813581811115610bde578384fd5b876020828501011115610bef578384fd5b6020830194508093505050509250925092565b600060208284031215610c13578081fd5b81516101c981611230565b60008060008060008060c08789031215610c36578182fd5b863567ffffffffffffffff80821115610c4d578384fd5b610c598a838b016109e9565b97506020890135915080821115610c6e578384fd5b610c7a8a838b016109e9565b96506040890135915080821115610c8f578384fd5b610c9b8a838b0161097e565b95506060890135915080821115610cb0578384fd5b610cbc8a838b0161097e565b94506080890135915080821115610cd1578384fd5b50610cde89828a016108bf565b925050610ced60a088016108a8565b90509295509295509295565b600060208284031215610d0a578081fd5b5051919050565b6001600160a01b03169052565b60008151808452610d368160208601602086016111c3565b601f01601f19169290920160200192915050565b60006101c0610d5a848451610d11565b6020830151610d6c6020860182610d11565b506040830151610d7f6040860182610d11565b506060830151610d926060860182610d11565b506080830151608085015260a083015160a085015260c083015160c085015260e083015160e0850152610100808401518186015250610120808401518186015250610140808401518282870152610deb83870182610d1e565b925050506101608084015185830382870152610e078382610d1e565b925050506101808084015185830382870152610e238382610d1e565b925050506101a08084015185830382870152610e3f8382610d1e565b9695505050505050565b6000828483379101908152919050565b60008251610e6b8184602087016111c3565b9190910192915050565b6001600160a01b0391909116815260200190565b6001600160a01b03929092168252602082015260400190565b901515815260200190565b6000602082526101c96020830184610d1e565b6020808252601390820152721499595b9d1c985b98de4819195d1958dd1959606a1b604082015260600190565b6020808252602d908201527f446964206e6f74207472616e7366657220746865206578616374207061796d6560408201526c1b9d0819995948185b5bdd5b9d609a1b606082015260800190565b60208082526021908201527f4e656974686572206f726465722068617320612066656520726563697069656e6040820152601d60fa1b606082015260800190565b60208082526026908201527f416464726573733a20696e73756666696369656e742062616c616e636520666f6040820152651c8818d85b1b60d21b606082015260800190565b6020808252601290820152711b585d18da13dc99195c9cc819985a5b195960721b604082015260600190565b6020808252603d908201527f72696768744f726465722e73656e646572416464726573732068617320746f2060408201527f626520307830206f722074686520777261707065722061646472657373000000606082015260800190565b6020808252600a90820152694f776e6572206f6e6c7960b01b604082015260600190565b6020808252603c908201527f6c6566744f726465722e73656e646572416464726573732068617320746f206260408201527f6520307830206f72207468652077726170706572206164647265737300000000606082015260800190565b6020808252601d908201527f416464726573733a2063616c6c20746f206e6f6e2d636f6e7472616374000000604082015260600190565b6020808252602a908201527f5361666545524332303a204552433230206f7065726174696f6e20646964206e6040820152691bdd081cdd58d8d9595960b21b606082015260800190565b60006080825261115f6080830187610d4a565b82810360208401526111718187610d4a565b905082810360408401526111858186610d1e565b9050828103606084015261085e8185610d1e565b60405181810167ffffffffffffffff811182821017156111bb576111bb61121a565b604052919050565b60005b838110156111de5781810151838201526020016111c6565b838111156111ed576000848401525b50505050565b600060001982141561121357634e487b7160e01b81526011600452602481fd5b5060010190565b634e487b7160e01b600052604160045260246000fd5b801515811461123e57600080fd5b5056fea2646970667358221220bc126b79738a5300923fcc339a0ed423e7547587b6278488516c934967e0cc0664736f6c63430008000033",
  "immutableReferences": {},
  "source": "/**\n *Submitted for verification at polygonscan.com on 2021-06-28\n*/\n\n// File: @openzeppelin/contracts/token/ERC20/IERC20.sol\n\n// SPDX-License-Identifier: MIT\n\npragma solidity ^0.8.0;\n\n/**\n * @dev Interface of the ERC20 standard as defined in the EIP.\n */\ninterface IERC20 {\n    /**\n     * @dev Returns the amount of tokens in existence.\n     */\n    function totalSupply() external view returns (uint256);\n\n    /**\n     * @dev Returns the amount of tokens owned by `account`.\n     */\n    function balanceOf(address account) external view returns (uint256);\n\n    /**\n     * @dev Moves `amount` tokens from the caller's account to `recipient`.\n     *\n     * Returns a boolean value indicating whether the operation succeeded.\n     *\n     * Emits a {Transfer} event.\n     */\n    function transfer(address recipient, uint256 amount) external returns (bool);\n\n    /**\n     * @dev Returns the remaining number of tokens that `spender` will be\n     * allowed to spend on behalf of `owner` through {transferFrom}. This is\n     * zero by default.\n     *\n     * This value changes when {approve} or {transferFrom} are called.\n     */\n    function allowance(address owner, address spender) external view returns (uint256);\n\n    /**\n     * @dev Sets `amount` as the allowance of `spender` over the caller's tokens.\n     *\n     * Returns a boolean value indicating whether the operation succeeded.\n     *\n     * IMPORTANT: Beware that changing an allowance with this method brings the risk\n     * that someone may use both the old and the new allowance by unfortunate\n     * transaction ordering. One possible solution to mitigate this race\n     * condition is to first reduce the spender's allowance to 0 and set the\n     * desired value afterwards:\n     * https://github.com/ethereum/EIPs/issues/20#issuecomment-263524729\n     *\n     * Emits an {Approval} event.\n     */\n    function approve(address spender, uint256 amount) external returns (bool);\n\n    /**\n     * @dev Moves `amount` tokens from `sender` to `recipient` using the\n     * allowance mechanism. `amount` is then deducted from the caller's\n     * allowance.\n     *\n     * Returns a boolean value indicating whether the operation succeeded.\n     *\n     * Emits a {Transfer} event.\n     */\n    function transferFrom(address sender, address recipient, uint256 amount) external returns (bool);\n\n    /**\n     * @dev Emitted when `value` tokens are moved from one account (`from`) to\n     * another (`to`).\n     *\n     * Note that `value` may be zero.\n     */\n    event Transfer(address indexed from, address indexed to, uint256 value);\n\n    /**\n     * @dev Emitted when the allowance of a `spender` for an `owner` is set by\n     * a call to {approve}. `value` is the new allowance.\n     */\n    event Approval(address indexed owner, address indexed spender, uint256 value);\n}\n\n// File: @openzeppelin/contracts/token/ERC20/extensions/IERC20Metadata.sol\n\npragma solidity ^0.8.0;\n\n\n/**\n * @dev Interface for the optional metadata functions from the ERC20 standard.\n *\n * _Available since v4.1._\n */\ninterface IERC20Metadata is IERC20 {\n    /**\n     * @dev Returns the name of the token.\n     */\n    function name() external view returns (string memory);\n\n    /**\n     * @dev Returns the symbol of the token.\n     */\n    function symbol() external view returns (string memory);\n\n    /**\n     * @dev Returns the decimals places of the token.\n     */\n    function decimals() external view returns (uint8);\n}\n\n// File: @openzeppelin/contracts/utils/Context.sol\n\npragma solidity ^0.8.0;\n\n/*\n * @dev Provides information about the current execution context, including the\n * sender of the transaction and its data. While these are generally available\n * via msg.sender and msg.data, they should not be accessed in such a direct\n * manner, since when dealing with meta-transactions the account sending and\n * paying for execution may not be the actual sender (as far as an application\n * is concerned).\n *\n * This contract is only required for intermediate, library-like contracts.\n */\nabstract contract Context {\n    function _msgSender() internal view virtual returns (address) {\n        return msg.sender;\n    }\n\n    function _msgData() internal view virtual returns (bytes calldata) {\n        this; // silence state mutability warning without generating bytecode - see https://github.com/ethereum/solidity/issues/2691\n        return msg.data;\n    }\n}\n\n// File: @openzeppelin/contracts/token/ERC20/ERC20.sol\n\npragma solidity ^0.8.0;\n\n\n\n\n/**\n * @dev Implementation of the {IERC20} interface.\n *\n * This implementation is agnostic to the way tokens are created. This means\n * that a supply mechanism has to be added in a derived contract using {_mint}.\n * For a generic mechanism see {ERC20PresetMinterPauser}.\n *\n * TIP: For a detailed writeup see our guide\n * https://forum.zeppelin.solutions/t/how-to-implement-erc20-supply-mechanisms/226[How\n * to implement supply mechanisms].\n *\n * We have followed general OpenZeppelin guidelines: functions revert instead\n * of returning `false` on failure. This behavior is nonetheless conventional\n * and does not conflict with the expectations of ERC20 applications.\n *\n * Additionally, an {Approval} event is emitted on calls to {transferFrom}.\n * This allows applications to reconstruct the allowance for all accounts just\n * by listening to said events. Other implementations of the EIP may not emit\n * these events, as it isn't required by the specification.\n *\n * Finally, the non-standard {decreaseAllowance} and {increaseAllowance}\n * functions have been added to mitigate the well-known issues around setting\n * allowances. See {IERC20-approve}.\n */\ncontract ERC20 is Context, IERC20, IERC20Metadata {\n    mapping (address => uint256) private _balances;\n\n    mapping (address => mapping (address => uint256)) private _allowances;\n\n    uint256 private _totalSupply;\n\n    string private _name;\n    string private _symbol;\n\n    /**\n     * @dev Sets the values for {name} and {symbol}.\n     *\n     * The defaut value of {decimals} is 18. To select a different value for\n     * {decimals} you should overload it.\n     *\n     * All two of these values are immutable: they can only be set once during\n     * construction.\n     */\n    constructor (string memory name_, string memory symbol_) {\n        _name = name_;\n        _symbol = symbol_;\n    }\n\n    /**\n     * @dev Returns the name of the token.\n     */\n    function name() public view virtual override returns (string memory) {\n        return _name;\n    }\n\n    /**\n     * @dev Returns the symbol of the token, usually a shorter version of the\n     * name.\n     */\n    function symbol() public view virtual override returns (string memory) {\n        return _symbol;\n    }\n\n    /**\n     * @dev Returns the number of decimals used to get its user representation.\n     * For example, if `decimals` equals `2`, a balance of `505` tokens should\n     * be displayed to a user as `5,05` (`505 / 10 ** 2`).\n     *\n     * Tokens usually opt for a value of 18, imitating the relationship between\n     * Ether and Wei. This is the value {ERC20} uses, unless this function is\n     * overridden;\n     *\n     * NOTE: This information is only used for _display_ purposes: it in\n     * no way affects any of the arithmetic of the contract, including\n     * {IERC20-balanceOf} and {IERC20-transfer}.\n     */\n    function decimals() public view virtual override returns (uint8) {\n        return 18;\n    }\n\n    /**\n     * @dev See {IERC20-totalSupply}.\n     */\n    function totalSupply() public view virtual override returns (uint256) {\n        return _totalSupply;\n    }\n\n    /**\n     * @dev See {IERC20-balanceOf}.\n     */\n    function balanceOf(address account) public view virtual override returns (uint256) {\n        return _balances[account];\n    }\n\n    /**\n     * @dev See {IERC20-transfer}.\n     *\n     * Requirements:\n     *\n     * - `recipient` cannot be the zero address.\n     * - the caller must have a balance of at least `amount`.\n     */\n    function transfer(address recipient, uint256 amount) public virtual override returns (bool) {\n        _transfer(_msgSender(), recipient, amount);\n        return true;\n    }\n\n    /**\n     * @dev See {IERC20-allowance}.\n     */\n    function allowance(address owner, address spender) public view virtual override returns (uint256) {\n        return _allowances[owner][spender];\n    }\n\n    /**\n     * @dev See {IERC20-approve}.\n     *\n     * Requirements:\n     *\n     * - `spender` cannot be the zero address.\n     */\n    function approve(address spender, uint256 amount) public virtual override returns (bool) {\n        _approve(_msgSender(), spender, amount);\n        return true;\n    }\n\n    /**\n     * @dev See {IERC20-transferFrom}.\n     *\n     * Emits an {Approval} event indicating the updated allowance. This is not\n     * required by the EIP. See the note at the beginning of {ERC20}.\n     *\n     * Requirements:\n     *\n     * - `sender` and `recipient` cannot be the zero address.\n     * - `sender` must have a balance of at least `amount`.\n     * - the caller must have allowance for ``sender``'s tokens of at least\n     * `amount`.\n     */\n    function transferFrom(address sender, address recipient, uint256 amount) public virtual override returns (bool) {\n        _transfer(sender, recipient, amount);\n\n        uint256 currentAllowance = _allowances[sender][_msgSender()];\n        require(currentAllowance >= amount, \"ERC20: transfer amount exceeds allowance\");\n        _approve(sender, _msgSender(), currentAllowance - amount);\n\n        return true;\n    }\n\n    /**\n     * @dev Atomically increases the allowance granted to `spender` by the caller.\n     *\n     * This is an alternative to {approve} that can be used as a mitigation for\n     * problems described in {IERC20-approve}.\n     *\n     * Emits an {Approval} event indicating the updated allowance.\n     *\n     * Requirements:\n     *\n     * - `spender` cannot be the zero address.\n     */\n    function increaseAllowance(address spender, uint256 addedValue) public virtual returns (bool) {\n        _approve(_msgSender(), spender, _allowances[_msgSender()][spender] + addedValue);\n        return true;\n    }\n\n    /**\n     * @dev Atomically decreases the allowance granted to `spender` by the caller.\n     *\n     * This is an alternative to {approve} that can be used as a mitigation for\n     * problems described in {IERC20-approve}.\n     *\n     * Emits an {Approval} event indicating the updated allowance.\n     *\n     * Requirements:\n     *\n     * - `spender` cannot be the zero address.\n     * - `spender` must have allowance for the caller of at least\n     * `subtractedValue`.\n     */\n    function decreaseAllowance(address spender, uint256 subtractedValue) public virtual returns (bool) {\n        uint256 currentAllowance = _allowances[_msgSender()][spender];\n        require(currentAllowance >= subtractedValue, \"ERC20: decreased allowance below zero\");\n        _approve(_msgSender(), spender, currentAllowance - subtractedValue);\n\n        return true;\n    }\n\n    /**\n     * @dev Moves tokens `amount` from `sender` to `recipient`.\n     *\n     * This is internal function is equivalent to {transfer}, and can be used to\n     * e.g. implement automatic token fees, slashing mechanisms, etc.\n     *\n     * Emits a {Transfer} event.\n     *\n     * Requirements:\n     *\n     * - `sender` cannot be the zero address.\n     * - `recipient` cannot be the zero address.\n     * - `sender` must have a balance of at least `amount`.\n     */\n    function _transfer(address sender, address recipient, uint256 amount) internal virtual {\n        require(sender != address(0), \"ERC20: transfer from the zero address\");\n        require(recipient != address(0), \"ERC20: transfer to the zero address\");\n\n        _beforeTokenTransfer(sender, recipient, amount);\n\n        uint256 senderBalance = _balances[sender];\n        require(senderBalance >= amount, \"ERC20: transfer amount exceeds balance\");\n        _balances[sender] = senderBalance - amount;\n        _balances[recipient] += amount;\n\n        emit Transfer(sender, recipient, amount);\n    }\n\n    /** @dev Creates `amount` tokens and assigns them to `account`, increasing\n     * the total supply.\n     *\n     * Emits a {Transfer} event with `from` set to the zero address.\n     *\n     * Requirements:\n     *\n     * - `to` cannot be the zero address.\n     */\n    function _mint(address account, uint256 amount) internal virtual {\n        require(account != address(0), \"ERC20: mint to the zero address\");\n\n        _beforeTokenTransfer(address(0), account, amount);\n\n        _totalSupply += amount;\n        _balances[account] += amount;\n        emit Transfer(address(0), account, amount);\n    }\n\n    /**\n     * @dev Destroys `amount` tokens from `account`, reducing the\n     * total supply.\n     *\n     * Emits a {Transfer} event with `to` set to the zero address.\n     *\n     * Requirements:\n     *\n     * - `account` cannot be the zero address.\n     * - `account` must have at least `amount` tokens.\n     */\n    function _burn(address account, uint256 amount) internal virtual {\n        require(account != address(0), \"ERC20: burn from the zero address\");\n\n        _beforeTokenTransfer(account, address(0), amount);\n\n        uint256 accountBalance = _balances[account];\n        require(accountBalance >= amount, \"ERC20: burn amount exceeds balance\");\n        _balances[account] = accountBalance - amount;\n        _totalSupply -= amount;\n\n        emit Transfer(account, address(0), amount);\n    }\n\n    /**\n     * @dev Sets `amount` as the allowance of `spender` over the `owner` s tokens.\n     *\n     * This internal function is equivalent to `approve`, and can be used to\n     * e.g. set automatic allowances for certain subsystems, etc.\n     *\n     * Emits an {Approval} event.\n     *\n     * Requirements:\n     *\n     * - `owner` cannot be the zero address.\n     * - `spender` cannot be the zero address.\n     */\n    function _approve(address owner, address spender, uint256 amount) internal virtual {\n        require(owner != address(0), \"ERC20: approve from the zero address\");\n        require(spender != address(0), \"ERC20: approve to the zero address\");\n\n        _allowances[owner][spender] = amount;\n        emit Approval(owner, spender, amount);\n    }\n\n    /**\n     * @dev Hook that is called before any transfer of tokens. This includes\n     * minting and burning.\n     *\n     * Calling conditions:\n     *\n     * - when `from` and `to` are both non-zero, `amount` of ``from``'s tokens\n     * will be to transferred to `to`.\n     * - when `from` is zero, `amount` tokens will be minted for `to`.\n     * - when `to` is zero, `amount` of ``from``'s tokens will be burned.\n     * - `from` and `to` are never both zero.\n     *\n     * To learn more about hooks, head to xref:ROOT:extending-contracts.adoc#using-hooks[Using Hooks].\n     */\n    function _beforeTokenTransfer(address from, address to, uint256 amount) internal virtual { }\n}\n\n// File: @openzeppelin/contracts/utils/Address.sol\n\npragma solidity ^0.8.0;\n\n/**\n * @dev Collection of functions related to the address type\n */\nlibrary Address {\n    /**\n     * @dev Returns true if `account` is a contract.\n     *\n     * [IMPORTANT]\n     * ====\n     * It is unsafe to assume that an address for which this function returns\n     * false is an externally-owned account (EOA) and not a contract.\n     *\n     * Among others, `isContract` will return false for the following\n     * types of addresses:\n     *\n     *  - an externally-owned account\n     *  - a contract in construction\n     *  - an address where a contract will be created\n     *  - an address where a contract lived, but was destroyed\n     * ====\n     */\n    function isContract(address account) internal view returns (bool) {\n        // This method relies on extcodesize, which returns 0 for contracts in\n        // construction, since the code is only stored at the end of the\n        // constructor execution.\n\n        uint256 size;\n        // solhint-disable-next-line no-inline-assembly\n        assembly { size := extcodesize(account) }\n        return size > 0;\n    }\n\n    /**\n     * @dev Replacement for Solidity's `transfer`: sends `amount` wei to\n     * `recipient`, forwarding all available gas and reverting on errors.\n     *\n     * https://eips.ethereum.org/EIPS/eip-1884[EIP1884] increases the gas cost\n     * of certain opcodes, possibly making contracts go over the 2300 gas limit\n     * imposed by `transfer`, making them unable to receive funds via\n     * `transfer`. {sendValue} removes this limitation.\n     *\n     * https://diligence.consensys.net/posts/2019/09/stop-using-soliditys-transfer-now/[Learn more].\n     *\n     * IMPORTANT: because control is transferred to `recipient`, care must be\n     * taken to not create reentrancy vulnerabilities. Consider using\n     * {ReentrancyGuard} or the\n     * https://solidity.readthedocs.io/en/v0.5.11/security-considerations.html#use-the-checks-effects-interactions-pattern[checks-effects-interactions pattern].\n     */\n    function sendValue(address payable recipient, uint256 amount) internal {\n        require(address(this).balance >= amount, \"Address: insufficient balance\");\n\n        // solhint-disable-next-line avoid-low-level-calls, avoid-call-value\n        (bool success, ) = recipient.call{ value: amount }(\"\");\n        require(success, \"Address: unable to send value, recipient may have reverted\");\n    }\n\n    /**\n     * @dev Performs a Solidity function call using a low level `call`. A\n     * plain`call` is an unsafe replacement for a function call: use this\n     * function instead.\n     *\n     * If `target` reverts with a revert reason, it is bubbled up by this\n     * function (like regular Solidity function calls).\n     *\n     * Returns the raw returned data. To convert to the expected return value,\n     * use https://solidity.readthedocs.io/en/latest/units-and-global-variables.html?highlight=abi.decode#abi-encoding-and-decoding-functions[`abi.decode`].\n     *\n     * Requirements:\n     *\n     * - `target` must be a contract.\n     * - calling `target` with `data` must not revert.\n     *\n     * _Available since v3.1._\n     */\n    function functionCall(address target, bytes memory data) internal returns (bytes memory) {\n      return functionCall(target, data, \"Address: low-level call failed\");\n    }\n\n    /**\n     * @dev Same as {xref-Address-functionCall-address-bytes-}[`functionCall`], but with\n     * `errorMessage` as a fallback revert reason when `target` reverts.\n     *\n     * _Available since v3.1._\n     */\n    function functionCall(address target, bytes memory data, string memory errorMessage) internal returns (bytes memory) {\n        return functionCallWithValue(target, data, 0, errorMessage);\n    }\n\n    /**\n     * @dev Same as {xref-Address-functionCall-address-bytes-}[`functionCall`],\n     * but also transferring `value` wei to `target`.\n     *\n     * Requirements:\n     *\n     * - the calling contract must have an ETH balance of at least `value`.\n     * - the called Solidity function must be `payable`.\n     *\n     * _Available since v3.1._\n     */\n    function functionCallWithValue(address target, bytes memory data, uint256 value) internal returns (bytes memory) {\n        return functionCallWithValue(target, data, value, \"Address: low-level call with value failed\");\n    }\n\n    /**\n     * @dev Same as {xref-Address-functionCallWithValue-address-bytes-uint256-}[`functionCallWithValue`], but\n     * with `errorMessage` as a fallback revert reason when `target` reverts.\n     *\n     * _Available since v3.1._\n     */\n    function functionCallWithValue(address target, bytes memory data, uint256 value, string memory errorMessage) internal returns (bytes memory) {\n        require(address(this).balance >= value, \"Address: insufficient balance for call\");\n        require(isContract(target), \"Address: call to non-contract\");\n\n        // solhint-disable-next-line avoid-low-level-calls\n        (bool success, bytes memory returndata) = target.call{ value: value }(data);\n        return _verifyCallResult(success, returndata, errorMessage);\n    }\n\n    /**\n     * @dev Same as {xref-Address-functionCall-address-bytes-}[`functionCall`],\n     * but performing a static call.\n     *\n     * _Available since v3.3._\n     */\n    function functionStaticCall(address target, bytes memory data) internal view returns (bytes memory) {\n        return functionStaticCall(target, data, \"Address: low-level static call failed\");\n    }\n\n    /**\n     * @dev Same as {xref-Address-functionCall-address-bytes-string-}[`functionCall`],\n     * but performing a static call.\n     *\n     * _Available since v3.3._\n     */\n    function functionStaticCall(address target, bytes memory data, string memory errorMessage) internal view returns (bytes memory) {\n        require(isContract(target), \"Address: static call to non-contract\");\n\n        // solhint-disable-next-line avoid-low-level-calls\n        (bool success, bytes memory returndata) = target.staticcall(data);\n        return _verifyCallResult(success, returndata, errorMessage);\n    }\n\n    /**\n     * @dev Same as {xref-Address-functionCall-address-bytes-}[`functionCall`],\n     * but performing a delegate call.\n     *\n     * _Available since v3.4._\n     */\n    function functionDelegateCall(address target, bytes memory data) internal returns (bytes memory) {\n        return functionDelegateCall(target, data, \"Address: low-level delegate call failed\");\n    }\n\n    /**\n     * @dev Same as {xref-Address-functionCall-address-bytes-string-}[`functionCall`],\n     * but performing a delegate call.\n     *\n     * _Available since v3.4._\n     */\n    function functionDelegateCall(address target, bytes memory data, string memory errorMessage) internal returns (bytes memory) {\n        require(isContract(target), \"Address: delegate call to non-contract\");\n\n        // solhint-disable-next-line avoid-low-level-calls\n        (bool success, bytes memory returndata) = target.delegatecall(data);\n        return _verifyCallResult(success, returndata, errorMessage);\n    }\n\n    function _verifyCallResult(bool success, bytes memory returndata, string memory errorMessage) private pure returns(bytes memory) {\n        if (success) {\n            return returndata;\n        } else {\n            // Look for revert reason and bubble it up if present\n            if (returndata.length > 0) {\n                // The easiest way to bubble the revert reason is using memory via assembly\n\n                // solhint-disable-next-line no-inline-assembly\n                assembly {\n                    let returndata_size := mload(returndata)\n                    revert(add(32, returndata), returndata_size)\n                }\n            } else {\n                revert(errorMessage);\n            }\n        }\n    }\n}\n\n// File: @openzeppelin/contracts/token/ERC20/utils/SafeERC20.sol\n\npragma solidity ^0.8.0;\n\n\n\n/**\n * @title SafeERC20\n * @dev Wrappers around ERC20 operations that throw on failure (when the token\n * contract returns false). Tokens that return no value (and instead revert or\n * throw on failure) are also supported, non-reverting calls are assumed to be\n * successful.\n * To use this library you can add a `using SafeERC20 for IERC20;` statement to your contract,\n * which allows you to call the safe operations as `token.safeTransfer(...)`, etc.\n */\nlibrary SafeERC20 {\n    using Address for address;\n\n    function safeTransfer(IERC20 token, address to, uint256 value) internal {\n        _callOptionalReturn(token, abi.encodeWithSelector(token.transfer.selector, to, value));\n    }\n\n    function safeTransferFrom(IERC20 token, address from, address to, uint256 value) internal {\n        _callOptionalReturn(token, abi.encodeWithSelector(token.transferFrom.selector, from, to, value));\n    }\n\n    /**\n     * @dev Deprecated. This function has issues similar to the ones found in\n     * {IERC20-approve}, and its usage is discouraged.\n     *\n     * Whenever possible, use {safeIncreaseAllowance} and\n     * {safeDecreaseAllowance} instead.\n     */\n    function safeApprove(IERC20 token, address spender, uint256 value) internal {\n        // safeApprove should only be called when setting an initial allowance,\n        // or when resetting it to zero. To increase and decrease it, use\n        // 'safeIncreaseAllowance' and 'safeDecreaseAllowance'\n        // solhint-disable-next-line max-line-length\n        require((value == 0) || (token.allowance(address(this), spender) == 0),\n            \"SafeERC20: approve from non-zero to non-zero allowance\"\n        );\n        _callOptionalReturn(token, abi.encodeWithSelector(token.approve.selector, spender, value));\n    }\n\n    function safeIncreaseAllowance(IERC20 token, address spender, uint256 value) internal {\n        uint256 newAllowance = token.allowance(address(this), spender) + value;\n        _callOptionalReturn(token, abi.encodeWithSelector(token.approve.selector, spender, newAllowance));\n    }\n\n    function safeDecreaseAllowance(IERC20 token, address spender, uint256 value) internal {\n        unchecked {\n            uint256 oldAllowance = token.allowance(address(this), spender);\n            require(oldAllowance >= value, \"SafeERC20: decreased allowance below zero\");\n            uint256 newAllowance = oldAllowance - value;\n            _callOptionalReturn(token, abi.encodeWithSelector(token.approve.selector, spender, newAllowance));\n        }\n    }\n\n    /**\n     * @dev Imitates a Solidity high-level call (i.e. a regular function call to a contract), relaxing the requirement\n     * on the return value: the return value is optional (but if data is returned, it must not be false).\n     * @param token The token targeted by the call.\n     * @param data The call data (encoded using abi.encode or one of its variants).\n     */\n    function _callOptionalReturn(IERC20 token, bytes memory data) private {\n        // We need to perform a low level call here, to bypass Solidity's return data size checking mechanism, since\n        // we're implementing it ourselves. We use {Address.functionCall} to perform this call, which verifies that\n        // the target address contains contract code and also asserts for success in the low-level call.\n\n        bytes memory returndata = address(token).functionCall(data, \"SafeERC20: low-level call failed\");\n        if (returndata.length > 0) { // Return data is optional\n            // solhint-disable-next-line max-line-length\n            require(abi.decode(returndata, (bool)), \"SafeERC20: ERC20 operation did not succeed\");\n        }\n    }\n}\n\n// File: contracts/lib/ReentrancyGuard.sol\n\npragma solidity 0.8.0;\n\ncontract ReentrancyGuard {\n\tbool reentrancyLock = false;\n\n\tmodifier reentrancyGuard {\n\t\trequire(!reentrancyLock, \"Reentrancy detected\");\n\t\treentrancyLock = true;\n\t\t_;\n\t\treentrancyLock = false;\n\t}\n}\n\n// File: contracts/lib/LibOrder.sol\n\n/*\n\n  Copyright 2019 ZeroEx Intl.\n\n  Licensed under the Apache License, Version 2.0 (the \"License\");\n  you may not use this file except in compliance with the License.\n  You may obtain a copy of the License at\n\n    http://www.apache.org/licenses/LICENSE-2.0\n\n  Unless required by applicable law or agreed to in writing, software\n  distributed under the License is distributed on an \"AS IS\" BASIS,\n  WITHOUT WARRANTIES OR CONDITIONS OF ANY KIND, either express or implied.\n  See the License for the specific language governing permissions and\n  limitations under the License.\n\n*/\n\n// Extracted from from https://github.com/0xProject/0x-monorepo/blob/development/contracts/exchange-libs/contracts/src/LibOrder.sol\n\npragma solidity 0.8.0;\n\nlibrary LibOrder {\n\n    using LibOrder for Order;\n\n    // A valid order remains fillable until it is expired, fully filled, or cancelled.\n    // An order's status is unaffected by external factors, like account balances.\n    enum OrderStatus {\n        INVALID,                     // Default value\n        INVALID_MAKER_ASSET_AMOUNT,  // Order does not have a valid maker asset amount\n        INVALID_TAKER_ASSET_AMOUNT,  // Order does not have a valid taker asset amount\n        FILLABLE,                    // Order is fillable\n        EXPIRED,                     // Order has already expired\n        FULLY_FILLED,                // Order is fully filled\n        CANCELLED                    // Order has been cancelled\n    }\n\n    // solhint-disable max-line-length\n    /// @dev Canonical order structure.\n    struct Order {\n        address makerAddress;           // Address that created the order.\n        address takerAddress;           // Address that is allowed to fill the order. If set to 0, any address is allowed to fill the order.\n        address feeRecipientAddress;    // Address that will recieve fees when order is filled.\n        address senderAddress;          // Address that is allowed to call Exchange contract methods that affect this order. If set to 0, any address is allowed to call these methods.\n        uint256 makerAssetAmount;       // Amount of makerAsset being offered by maker. Must be greater than 0.\n        uint256 takerAssetAmount;       // Amount of takerAsset being bid on by maker. Must be greater than 0.\n        uint256 makerFee;               // Fee paid to feeRecipient by maker when order is filled.\n        uint256 takerFee;               // Fee paid to feeRecipient by taker when order is filled.\n        uint256 expirationTimeSeconds;  // Timestamp in seconds at which order expires.\n        uint256 salt;                   // Arbitrary number to facilitate uniqueness of the order's hash.\n        bytes makerAssetData;           // Encoded data that can be decoded by a specified proxy contract when transferring makerAsset. The leading bytes4 references the id of the asset proxy.\n        bytes takerAssetData;           // Encoded data that can be decoded by a specified proxy contract when transferring takerAsset. The leading bytes4 references the id of the asset proxy.\n        bytes makerFeeAssetData;        // Encoded data that can be decoded by a specified proxy contract when transferring makerFeeAsset. The leading bytes4 references the id of the asset proxy.\n        bytes takerFeeAssetData;        // Encoded data that can be decoded by a specified proxy contract when transferring takerFeeAsset. The leading bytes4 references the id of the asset proxy.\n    }\n    // solhint-enable max-line-length\n\n}\n\n// File: contracts/ZeroExFeeWrapper.sol\n\npragma solidity 0.8.0;\npragma abicoder v2;\n\n\n\n\n\ncontract ZeroExFeeWrapper is ReentrancyGuard {\n\n\tmapping(address => bool) _owners;\n\taddress _exchange;\n\n\tstruct FeeData {\n\t\taddress recipient;\n\t\tuint256 paymentTokenAmount;\n\t}\n\n\tconstructor(address exchange)\n\t{\n\t\t_owners[msg.sender] = true;\n\t\t_exchange = exchange;\n\t}\n\n\tmodifier ownerOnly()\n\t{\n\t\trequire(_owners[msg.sender],\"Owner only\");\n\t\t_;\n\t}\n\n\tmodifier refundRemainingBalance()\n\t{\n\t\t_;\n\t\tuint256 balance = address(this).balance;\n\t\tif (balance > 0) {\n\t\t\tpayable(msg.sender).transfer(balance);\n\t\t}\n\t}\n\n\tfunction setOwner(address owner,bool isOwner)\n\t\texternal\n\t\townerOnly\n\t{\n\t\t_owners[owner] = isOwner;\n\t}\n\n\tfunction isOwner(address owner)\n\t\texternal\n\t\tview\n\t\treturns (bool)\n\t{\n\t\treturn _owners[owner];\n\t}\n\n\tfunction setExchange(address exchange)\n\t\texternal\n\t\townerOnly\n\t{\n\t\t_exchange = exchange;\n\t}\n\n\tfunction getExchange()\n\t\texternal\n\t\tview\n\t\treturns (address)\n\t{\n\t\treturn _exchange;\n\t}\n\n\tfunction proxyCall(address target,bytes calldata callData)\n\t\texternal\n\t\tpayable\n\t\townerOnly\n\t\treturns (bytes memory)\n\t{\n\t\t(bool success, bytes memory result) = target.call{value: msg.value}(callData);\n\t\treturn result;\n\t}\n\n\tfunction matchOrders(\n\t\tLibOrder.Order memory leftOrder,\n\t\tLibOrder.Order memory rightOrder,\n\t\tbytes memory leftSignature,\n\t\tbytes memory rightSignature,\n\t\tFeeData[] memory feeData,\n\t\taddress paymentTokenAddress\n\t\t)\n\t\texternal\n\t\tpayable\n\t\townerOnly\n\t\treentrancyGuard\n\t\trefundRemainingBalance\n\t\treturns (bytes memory)\n\t{\n\t\tif (leftOrder.senderAddress != address(0x0)) {\n\t\t\trequire(leftOrder.senderAddress == address(this),\"leftOrder.senderAddress has to be 0x0 or the wrapper address\");\n\t\t}\n\t\tif (rightOrder.senderAddress != address(0x0)) {\n\t\t\trequire(rightOrder.senderAddress == address(this),\"rightOrder.senderAddress has to be 0x0 or the wrapper address\");\n\t\t}\n\t\tbool transferFees = paymentTokenAddress != address(0x0) && feeData.length > 0;\n\t\tuint256 currentFeeBalance;\n\t\tif (transferFees) {\n\t\t\trequire(leftOrder.feeRecipientAddress == address(this) || rightOrder.feeRecipientAddress == address(this),\"Neither order has a fee recipient\");\n\t\t\tcurrentFeeBalance = ERC20(paymentTokenAddress).balanceOf(address(this));\n\t\t}\n\t\t(bool success, bytes memory result) = _exchange.call{value: msg.value}(abi.encodeWithSignature(\"matchOrders((address,address,address,address,uint256,uint256,uint256,uint256,uint256,uint256,bytes,bytes,bytes,bytes),(address,address,address,address,uint256,uint256,uint256,uint256,uint256,uint256,bytes,bytes,bytes,bytes),bytes,bytes)\",leftOrder,rightOrder,leftSignature,rightSignature));\n\t\trequire(success,\"matchOrders failed\");\n\t\tif (transferFees) {\n\t\t\tfor (uint index = 0 ; index < feeData.length ; ++index) {\n\t\t\t\tSafeERC20.safeTransfer(ERC20(paymentTokenAddress),feeData[index].recipient, feeData[index].paymentTokenAmount);\n\t\t\t}\n\t\t\trequire(ERC20(paymentTokenAddress).balanceOf(address(this)) == currentFeeBalance,\"Did not transfer the exact payment fee amount\");\n\t\t}\n\t\treturn result;\n\t}\n}",
  "sourcePath": "/Users/ds/Documents/rarible/scripts/contracts/asd.sol",
  "compiler": {
    "name": "solc",
    "version": "0.8.0+commit.c7dfd78e.Emscripten.clang"
  },
  "schemaVersion": "3.4.3",
  "updatedAt": "2022-04-08T07:43:01.914Z",
  "devdoc": {
    "kind": "dev",
    "methods": {},
    "version": 1
  },
  "userdoc": {
    "kind": "user",
    "methods": {},
    "version": 1
  }
}