{
  "contractName": "Exchange",
  "abi": [
    {
      "constant": true,
      "inputs": [
        {
          "name": "",
          "type": "bytes32"
        }
      ],
      "name": "transactionsExecuted",
      "outputs": [
        {
          "name": "",
          "type": "bool"
        }
      ],
      "payable": false,
      "stateMutability": "view",
      "type": "function"
    },
    {
      "constant": false,
      "inputs": [],
      "name": "detachProtocolFeeCollector",
      "outputs": [],
      "payable": false,
      "stateMutability": "nonpayable",
      "type": "function"
    },
    {
      "constant": true,
      "inputs": [],
      "name": "protocolFeeMultiplier",
      "outputs": [
        {
          "name": "",
          "type": "uint256"
        }
      ],
      "payable": false,
      "stateMutability": "view",
      "type": "function"
    },
    {
      "constant": false,
      "inputs": [
        {
          "components": [
            {
              "name": "salt",
              "type": "uint256"
            },
            {
              "name": "expirationTimeSeconds",
              "type": "uint256"
            },
            {
              "name": "gasPrice",
              "type": "uint256"
            },
            {
              "name": "signerAddress",
              "type": "address"
            },
            {
              "name": "data",
              "type": "bytes"
            }
          ],
          "name": "transaction",
          "type": "tuple"
        },
        {
          "name": "signature",
          "type": "bytes"
        }
      ],
      "name": "executeTransaction",
      "outputs": [
        {
          "name": "",
          "type": "bytes"
        }
      ],
      "payable": true,
      "stateMutability": "payable",
      "type": "function"
    },
    {
      "constant": true,
      "inputs": [
        {
          "name": "",
          "type": "bytes32"
        }
      ],
      "name": "filled",
      "outputs": [
        {
          "name": "",
          "type": "uint256"
        }
      ],
      "payable": false,
      "stateMutability": "view",
      "type": "function"
    },
    {
      "constant": true,
      "inputs": [
        {
          "name": "",
          "type": "bytes32"
        }
      ],
      "name": "cancelled",
      "outputs": [
        {
          "name": "",
          "type": "bool"
        }
      ],
      "payable": false,
      "stateMutability": "view",
      "type": "function"
    },
    {
      "constant": false,
      "inputs": [
        {
          "components": [
            {
              "name": "makerAddress",
              "type": "address"
            },
            {
              "name": "takerAddress",
              "type": "address"
            },
            {
              "name": "feeRecipientAddress",
              "type": "address"
            },
            {
              "name": "senderAddress",
              "type": "address"
            },
            {
              "name": "makerAssetAmount",
              "type": "uint256"
            },
            {
              "name": "takerAssetAmount",
              "type": "uint256"
            },
            {
              "name": "makerFee",
              "type": "uint256"
            },
            {
              "name": "takerFee",
              "type": "uint256"
            },
            {
              "name": "expirationTimeSeconds",
              "type": "uint256"
            },
            {
              "name": "salt",
              "type": "uint256"
            },
            {
              "name": "makerAssetData",
              "type": "bytes"
            },
            {
              "name": "takerAssetData",
              "type": "bytes"
            },
            {
              "name": "makerFeeAssetData",
              "type": "bytes"
            },
            {
              "name": "takerFeeAssetData",
              "type": "bytes"
            }
          ],
          "name": "order",
          "type": "tuple"
        }
      ],
      "name": "cancelOrder",
      "outputs": [],
      "payable": true,
      "stateMutability": "payable",
      "type": "function"
    },
    {
      "constant": false,
      "inputs": [
        {
          "components": [
            {
              "name": "makerAddress",
              "type": "address"
            },
            {
              "name": "takerAddress",
              "type": "address"
            },
            {
              "name": "feeRecipientAddress",
              "type": "address"
            },
            {
              "name": "senderAddress",
              "type": "address"
            },
            {
              "name": "makerAssetAmount",
              "type": "uint256"
            },
            {
              "name": "takerAssetAmount",
              "type": "uint256"
            },
            {
              "name": "makerFee",
              "type": "uint256"
            },
            {
              "name": "takerFee",
              "type": "uint256"
            },
            {
              "name": "expirationTimeSeconds",
              "type": "uint256"
            },
            {
              "name": "salt",
              "type": "uint256"
            },
            {
              "name": "makerAssetData",
              "type": "bytes"
            },
            {
              "name": "takerAssetData",
              "type": "bytes"
            },
            {
              "name": "makerFeeAssetData",
              "type": "bytes"
            },
            {
              "name": "takerFeeAssetData",
              "type": "bytes"
            }
          ],
          "name": "orders",
          "type": "tuple[]"
        },
        {
          "name": "takerAssetFillAmount",
          "type": "uint256"
        },
        {
          "name": "signatures",
          "type": "bytes[]"
        }
      ],
      "name": "marketSellOrdersNoThrow",
      "outputs": [
        {
          "components": [
            {
              "name": "makerAssetFilledAmount",
              "type": "uint256"
            },
            {
              "name": "takerAssetFilledAmount",
              "type": "uint256"
            },
            {
              "name": "makerFeePaid",
              "type": "uint256"
            },
            {
              "name": "takerFeePaid",
              "type": "uint256"
            },
            {
              "name": "protocolFeePaid",
              "type": "uint256"
            }
          ],
          "name": "fillResults",
          "type": "tuple"
        }
      ],
      "payable": true,
      "stateMutability": "payable",
      "type": "function"
    },
    {
      "constant": false,
      "inputs": [
        {
          "name": "hash",
          "type": "bytes32"
        }
      ],
      "name": "preSign",
      "outputs": [],
      "payable": true,
      "stateMutability": "payable",
      "type": "function"
    },
    {
      "constant": false,
      "inputs": [
        {
          "name": "targetOrderEpoch",
          "type": "uint256"
        }
      ],
      "name": "cancelOrdersUpTo",
      "outputs": [],
      "payable": true,
      "stateMutability": "payable",
      "type": "function"
    },
    {
      "constant": true,
      "inputs": [
        {
          "name": "assetProxyId",
          "type": "bytes4"
        }
      ],
      "name": "getAssetProxy",
      "outputs": [
        {
          "name": "assetProxy",
          "type": "address"
        }
      ],
      "payable": false,
      "stateMutability": "view",
      "type": "function"
    },
    {
      "constant": false,
      "inputs": [
        {
          "components": [
            {
              "name": "makerAddress",
              "type": "address"
            },
            {
              "name": "takerAddress",
              "type": "address"
            },
            {
              "name": "feeRecipientAddress",
              "type": "address"
            },
            {
              "name": "senderAddress",
              "type": "address"
            },
            {
              "name": "makerAssetAmount",
              "type": "uint256"
            },
            {
              "name": "takerAssetAmount",
              "type": "uint256"
            },
            {
              "name": "makerFee",
              "type": "uint256"
            },
            {
              "name": "takerFee",
              "type": "uint256"
            },
            {
              "name": "expirationTimeSeconds",
              "type": "uint256"
            },
            {
              "name": "salt",
              "type": "uint256"
            },
            {
              "name": "makerAssetData",
              "type": "bytes"
            },
            {
              "name": "takerAssetData",
              "type": "bytes"
            },
            {
              "name": "makerFeeAssetData",
              "type": "bytes"
            },
            {
              "name": "takerFeeAssetData",
              "type": "bytes"
            }
          ],
          "name": "leftOrders",
          "type": "tuple[]"
        },
        {
          "components": [
            {
              "name": "makerAddress",
              "type": "address"
            },
            {
              "name": "takerAddress",
              "type": "address"
            },
            {
              "name": "feeRecipientAddress",
              "type": "address"
            },
            {
              "name": "senderAddress",
              "type": "address"
            },
            {
              "name": "makerAssetAmount",
              "type": "uint256"
            },
            {
              "name": "takerAssetAmount",
              "type": "uint256"
            },
            {
              "name": "makerFee",
              "type": "uint256"
            },
            {
              "name": "takerFee",
              "type": "uint256"
            },
            {
              "name": "expirationTimeSeconds",
              "type": "uint256"
            },
            {
              "name": "salt",
              "type": "uint256"
            },
            {
              "name": "makerAssetData",
              "type": "bytes"
            },
            {
              "name": "takerAssetData",
              "type": "bytes"
            },
            {
              "name": "makerFeeAssetData",
              "type": "bytes"
            },
            {
              "name": "takerFeeAssetData",
              "type": "bytes"
            }
          ],
          "name": "rightOrders",
          "type": "tuple[]"
        },
        {
          "name": "leftSignatures",
          "type": "bytes[]"
        },
        {
          "name": "rightSignatures",
          "type": "bytes[]"
        }
      ],
      "name": "batchMatchOrdersWithMaximalFill",
      "outputs": [
        {
          "components": [
            {
              "components": [
                {
                  "name": "makerAssetFilledAmount",
                  "type": "uint256"
                },
                {
                  "name": "takerAssetFilledAmount",
                  "type": "uint256"
                },
                {
                  "name": "makerFeePaid",
                  "type": "uint256"
                },
                {
                  "name": "takerFeePaid",
                  "type": "uint256"
                },
                {
                  "name": "protocolFeePaid",
                  "type": "uint256"
                }
              ],
              "name": "left",
              "type": "tuple[]"
            },
            {
              "components": [
                {
                  "name": "makerAssetFilledAmount",
                  "type": "uint256"
                },
                {
                  "name": "takerAssetFilledAmount",
                  "type": "uint256"
                },
                {
                  "name": "makerFeePaid",
                  "type": "uint256"
                },
                {
                  "name": "takerFeePaid",
                  "type": "uint256"
                },
                {
                  "name": "protocolFeePaid",
                  "type": "uint256"
                }
              ],
              "name": "right",
              "type": "tuple[]"
            },
            {
              "name": "profitInLeftMakerAsset",
              "type": "uint256"
            },
            {
              "name": "profitInRightMakerAsset",
              "type": "uint256"
            }
          ],
          "name": "batchMatchedFillResults",
          "type": "tuple"
        }
      ],
      "payable": true,
      "stateMutability": "payable",
      "type": "function"
    },
    {
      "constant": false,
      "inputs": [
        {
          "components": [
            {
              "name": "makerAddress",
              "type": "address"
            },
            {
              "name": "takerAddress",
              "type": "address"
            },
            {
              "name": "feeRecipientAddress",
              "type": "address"
            },
            {
              "name": "senderAddress",
              "type": "address"
            },
            {
              "name": "makerAssetAmount",
              "type": "uint256"
            },
            {
              "name": "takerAssetAmount",
              "type": "uint256"
            },
            {
              "name": "makerFee",
              "type": "uint256"
            },
            {
              "name": "takerFee",
              "type": "uint256"
            },
            {
              "name": "expirationTimeSeconds",
              "type": "uint256"
            },
            {
              "name": "salt",
              "type": "uint256"
            },
            {
              "name": "makerAssetData",
              "type": "bytes"
            },
            {
              "name": "takerAssetData",
              "type": "bytes"
            },
            {
              "name": "makerFeeAssetData",
              "type": "bytes"
            },
            {
              "name": "takerFeeAssetData",
              "type": "bytes"
            }
          ],
          "name": "leftOrders",
          "type": "tuple[]"
        },
        {
          "components": [
            {
              "name": "makerAddress",
              "type": "address"
            },
            {
              "name": "takerAddress",
              "type": "address"
            },
            {
              "name": "feeRecipientAddress",
              "type": "address"
            },
            {
              "name": "senderAddress",
              "type": "address"
            },
            {
              "name": "makerAssetAmount",
              "type": "uint256"
            },
            {
              "name": "takerAssetAmount",
              "type": "uint256"
            },
            {
              "name": "makerFee",
              "type": "uint256"
            },
            {
              "name": "takerFee",
              "type": "uint256"
            },
            {
              "name": "expirationTimeSeconds",
              "type": "uint256"
            },
            {
              "name": "salt",
              "type": "uint256"
            },
            {
              "name": "makerAssetData",
              "type": "bytes"
            },
            {
              "name": "takerAssetData",
              "type": "bytes"
            },
            {
              "name": "makerFeeAssetData",
              "type": "bytes"
            },
            {
              "name": "takerFeeAssetData",
              "type": "bytes"
            }
          ],
          "name": "rightOrders",
          "type": "tuple[]"
        },
        {
          "name": "leftSignatures",
          "type": "bytes[]"
        },
        {
          "name": "rightSignatures",
          "type": "bytes[]"
        }
      ],
      "name": "batchMatchOrders",
      "outputs": [
        {
          "components": [
            {
              "components": [
                {
                  "name": "makerAssetFilledAmount",
                  "type": "uint256"
                },
                {
                  "name": "takerAssetFilledAmount",
                  "type": "uint256"
                },
                {
                  "name": "makerFeePaid",
                  "type": "uint256"
                },
                {
                  "name": "takerFeePaid",
                  "type": "uint256"
                },
                {
                  "name": "protocolFeePaid",
                  "type": "uint256"
                }
              ],
              "name": "left",
              "type": "tuple[]"
            },
            {
              "components": [
                {
                  "name": "makerAssetFilledAmount",
                  "type": "uint256"
                },
                {
                  "name": "takerAssetFilledAmount",
                  "type": "uint256"
                },
                {
                  "name": "makerFeePaid",
                  "type": "uint256"
                },
                {
                  "name": "takerFeePaid",
                  "type": "uint256"
                },
                {
                  "name": "protocolFeePaid",
                  "type": "uint256"
                }
              ],
              "name": "right",
              "type": "tuple[]"
            },
            {
              "name": "profitInLeftMakerAsset",
              "type": "uint256"
            },
            {
              "name": "profitInRightMakerAsset",
              "type": "uint256"
            }
          ],
          "name": "batchMatchedFillResults",
          "type": "tuple"
        }
      ],
      "payable": true,
      "stateMutability": "payable",
      "type": "function"
    },
    {
      "constant": false,
      "inputs": [
        {
          "name": "validatorAddress",
          "type": "address"
        },
        {
          "name": "approval",
          "type": "bool"
        }
      ],
      "name": "setSignatureValidatorApproval",
      "outputs": [],
      "payable": true,
      "stateMutability": "payable",
      "type": "function"
    },
    {
      "constant": false,
      "inputs": [
        {
          "components": [
            {
              "name": "makerAddress",
              "type": "address"
            },
            {
              "name": "takerAddress",
              "type": "address"
            },
            {
              "name": "feeRecipientAddress",
              "type": "address"
            },
            {
              "name": "senderAddress",
              "type": "address"
            },
            {
              "name": "makerAssetAmount",
              "type": "uint256"
            },
            {
              "name": "takerAssetAmount",
              "type": "uint256"
            },
            {
              "name": "makerFee",
              "type": "uint256"
            },
            {
              "name": "takerFee",
              "type": "uint256"
            },
            {
              "name": "expirationTimeSeconds",
              "type": "uint256"
            },
            {
              "name": "salt",
              "type": "uint256"
            },
            {
              "name": "makerAssetData",
              "type": "bytes"
            },
            {
              "name": "takerAssetData",
              "type": "bytes"
            },
            {
              "name": "makerFeeAssetData",
              "type": "bytes"
            },
            {
              "name": "takerFeeAssetData",
              "type": "bytes"
            }
          ],
          "name": "orders",
          "type": "tuple[]"
        },
        {
          "name": "makerAssetFillAmount",
          "type": "uint256"
        },
        {
          "name": "signatures",
          "type": "bytes[]"
        }
      ],
      "name": "marketBuyOrdersNoThrow",
      "outputs": [
        {
          "components": [
            {
              "name": "makerAssetFilledAmount",
              "type": "uint256"
            },
            {
              "name": "takerAssetFilledAmount",
              "type": "uint256"
            },
            {
              "name": "makerFeePaid",
              "type": "uint256"
            },
            {
              "name": "takerFeePaid",
              "type": "uint256"
            },
            {
              "name": "protocolFeePaid",
              "type": "uint256"
            }
          ],
          "name": "fillResults",
          "type": "tuple"
        }
      ],
      "payable": true,
      "stateMutability": "payable",
      "type": "function"
    },
    {
      "constant": true,
      "inputs": [
        {
          "name": "",
          "type": "address"
        },
        {
          "name": "",
          "type": "address"
        }
      ],
      "name": "allowedValidators",
      "outputs": [
        {
          "name": "",
          "type": "bool"
        }
      ],
      "payable": false,
      "stateMutability": "view",
      "type": "function"
    },
    {
      "constant": true,
      "inputs": [
        {
          "name": "hash",
          "type": "bytes32"
        },
        {
          "name": "signerAddress",
          "type": "address"
        },
        {
          "name": "signature",
          "type": "bytes"
        }
      ],
      "name": "isValidHashSignature",
      "outputs": [
        {
          "name": "isValid",
          "type": "bool"
        }
      ],
      "payable": false,
      "stateMutability": "view",
      "type": "function"
    },
    {
      "constant": true,
      "inputs": [
        {
          "name": "",
          "type": "bytes32"
        },
        {
          "name": "",
          "type": "address"
        }
      ],
      "name": "preSigned",
      "outputs": [
        {
          "name": "",
          "type": "bool"
        }
      ],
      "payable": false,
      "stateMutability": "view",
      "type": "function"
    },
    {
      "constant": true,
      "inputs": [],
      "name": "protocolFeeCollector",
      "outputs": [
        {
          "name": "",
          "type": "address"
        }
      ],
      "payable": false,
      "stateMutability": "view",
      "type": "function"
    },
    {
      "constant": false,
      "inputs": [
        {
          "components": [
            {
              "name": "makerAddress",
              "type": "address"
            },
            {
              "name": "takerAddress",
              "type": "address"
            },
            {
              "name": "feeRecipientAddress",
              "type": "address"
            },
            {
              "name": "senderAddress",
              "type": "address"
            },
            {
              "name": "makerAssetAmount",
              "type": "uint256"
            },
            {
              "name": "takerAssetAmount",
              "type": "uint256"
            },
            {
              "name": "makerFee",
              "type": "uint256"
            },
            {
              "name": "takerFee",
              "type": "uint256"
            },
            {
              "name": "expirationTimeSeconds",
              "type": "uint256"
            },
            {
              "name": "salt",
              "type": "uint256"
            },
            {
              "name": "makerAssetData",
              "type": "bytes"
            },
            {
              "name": "takerAssetData",
              "type": "bytes"
            },
            {
              "name": "makerFeeAssetData",
              "type": "bytes"
            },
            {
              "name": "takerFeeAssetData",
              "type": "bytes"
            }
          ],
          "name": "leftOrder",
          "type": "tuple"
        },
        {
          "components": [
            {
              "name": "makerAddress",
              "type": "address"
            },
            {
              "name": "takerAddress",
              "type": "address"
            },
            {
              "name": "feeRecipientAddress",
              "type": "address"
            },
            {
              "name": "senderAddress",
              "type": "address"
            },
            {
              "name": "makerAssetAmount",
              "type": "uint256"
            },
            {
              "name": "takerAssetAmount",
              "type": "uint256"
            },
            {
              "name": "makerFee",
              "type": "uint256"
            },
            {
              "name": "takerFee",
              "type": "uint256"
            },
            {
              "name": "expirationTimeSeconds",
              "type": "uint256"
            },
            {
              "name": "salt",
              "type": "uint256"
            },
            {
              "name": "makerAssetData",
              "type": "bytes"
            },
            {
              "name": "takerAssetData",
              "type": "bytes"
            },
            {
              "name": "makerFeeAssetData",
              "type": "bytes"
            },
            {
              "name": "takerFeeAssetData",
              "type": "bytes"
            }
          ],
          "name": "rightOrder",
          "type": "tuple"
        },
        {
          "name": "leftSignature",
          "type": "bytes"
        },
        {
          "name": "rightSignature",
          "type": "bytes"
        }
      ],
      "name": "matchOrders",
      "outputs": [
        {
          "components": [
            {
              "components": [
                {
                  "name": "makerAssetFilledAmount",
                  "type": "uint256"
                },
                {
                  "name": "takerAssetFilledAmount",
                  "type": "uint256"
                },
                {
                  "name": "makerFeePaid",
                  "type": "uint256"
                },
                {
                  "name": "takerFeePaid",
                  "type": "uint256"
                },
                {
                  "name": "protocolFeePaid",
                  "type": "uint256"
                }
              ],
              "name": "left",
              "type": "tuple"
            },
            {
              "components": [
                {
                  "name": "makerAssetFilledAmount",
                  "type": "uint256"
                },
                {
                  "name": "takerAssetFilledAmount",
                  "type": "uint256"
                },
                {
                  "name": "makerFeePaid",
                  "type": "uint256"
                },
                {
                  "name": "takerFeePaid",
                  "type": "uint256"
                },
                {
                  "name": "protocolFeePaid",
                  "type": "uint256"
                }
              ],
              "name": "right",
              "type": "tuple"
            },
            {
              "name": "profitInLeftMakerAsset",
              "type": "uint256"
            },
            {
              "name": "profitInRightMakerAsset",
              "type": "uint256"
            }
          ],
          "name": "matchedFillResults",
          "type": "tuple"
        }
      ],
      "payable": true,
      "stateMutability": "payable",
      "type": "function"
    },
    {
      "constant": false,
      "inputs": [
        {
          "components": [
            {
              "name": "makerAddress",
              "type": "address"
            },
            {
              "name": "takerAddress",
              "type": "address"
            },
            {
              "name": "feeRecipientAddress",
              "type": "address"
            },
            {
              "name": "senderAddress",
              "type": "address"
            },
            {
              "name": "makerAssetAmount",
              "type": "uint256"
            },
            {
              "name": "takerAssetAmount",
              "type": "uint256"
            },
            {
              "name": "makerFee",
              "type": "uint256"
            },
            {
              "name": "takerFee",
              "type": "uint256"
            },
            {
              "name": "expirationTimeSeconds",
              "type": "uint256"
            },
            {
              "name": "salt",
              "type": "uint256"
            },
            {
              "name": "makerAssetData",
              "type": "bytes"
            },
            {
              "name": "takerAssetData",
              "type": "bytes"
            },
            {
              "name": "makerFeeAssetData",
              "type": "bytes"
            },
            {
              "name": "takerFeeAssetData",
              "type": "bytes"
            }
          ],
          "name": "orders",
          "type": "tuple[]"
        },
        {
          "name": "makerAssetFillAmount",
          "type": "uint256"
        },
        {
          "name": "signatures",
          "type": "bytes[]"
        }
      ],
      "name": "marketBuyOrdersFillOrKill",
      "outputs": [
        {
          "components": [
            {
              "name": "makerAssetFilledAmount",
              "type": "uint256"
            },
            {
              "name": "takerAssetFilledAmount",
              "type": "uint256"
            },
            {
              "name": "makerFeePaid",
              "type": "uint256"
            },
            {
              "name": "takerFeePaid",
              "type": "uint256"
            },
            {
              "name": "protocolFeePaid",
              "type": "uint256"
            }
          ],
          "name": "fillResults",
          "type": "tuple"
        }
      ],
      "payable": true,
      "stateMutability": "payable",
      "type": "function"
    },
    {
      "constant": true,
      "inputs": [
        {
          "components": [
            {
              "name": "salt",
              "type": "uint256"
            },
            {
              "name": "expirationTimeSeconds",
              "type": "uint256"
            },
            {
              "name": "gasPrice",
              "type": "uint256"
            },
            {
              "name": "signerAddress",
              "type": "address"
            },
            {
              "name": "data",
              "type": "bytes"
            }
          ],
          "name": "transaction",
          "type": "tuple"
        },
        {
          "name": "signature",
          "type": "bytes"
        }
      ],
      "name": "isValidTransactionSignature",
      "outputs": [
        {
          "name": "isValid",
          "type": "bool"
        }
      ],
      "payable": false,
      "stateMutability": "view",
      "type": "function"
    },
    {
      "constant": true,
      "inputs": [],
      "name": "owner",
      "outputs": [
        {
          "name": "",
          "type": "address"
        }
      ],
      "payable": false,
      "stateMutability": "view",
      "type": "function"
    },
    {
      "constant": false,
      "inputs": [
        {
          "components": [
            {
              "name": "makerAddress",
              "type": "address"
            },
            {
              "name": "takerAddress",
              "type": "address"
            },
            {
              "name": "feeRecipientAddress",
              "type": "address"
            },
            {
              "name": "senderAddress",
              "type": "address"
            },
            {
              "name": "makerAssetAmount",
              "type": "uint256"
            },
            {
              "name": "takerAssetAmount",
              "type": "uint256"
            },
            {
              "name": "makerFee",
              "type": "uint256"
            },
            {
              "name": "takerFee",
              "type": "uint256"
            },
            {
              "name": "expirationTimeSeconds",
              "type": "uint256"
            },
            {
              "name": "salt",
              "type": "uint256"
            },
            {
              "name": "makerAssetData",
              "type": "bytes"
            },
            {
              "name": "takerAssetData",
              "type": "bytes"
            },
            {
              "name": "makerFeeAssetData",
              "type": "bytes"
            },
            {
              "name": "takerFeeAssetData",
              "type": "bytes"
            }
          ],
          "name": "orders",
          "type": "tuple[]"
        },
        {
          "name": "takerAssetFillAmounts",
          "type": "uint256[]"
        },
        {
          "name": "signatures",
          "type": "bytes[]"
        }
      ],
      "name": "batchFillOrdersNoThrow",
      "outputs": [
        {
          "components": [
            {
              "name": "makerAssetFilledAmount",
              "type": "uint256"
            },
            {
              "name": "takerAssetFilledAmount",
              "type": "uint256"
            },
            {
              "name": "makerFeePaid",
              "type": "uint256"
            },
            {
              "name": "takerFeePaid",
              "type": "uint256"
            },
            {
              "name": "protocolFeePaid",
              "type": "uint256"
            }
          ],
          "name": "fillResults",
          "type": "tuple[]"
        }
      ],
      "payable": true,
      "stateMutability": "payable",
      "type": "function"
    },
    {
      "constant": false,
      "inputs": [
        {
          "name": "updatedProtocolFeeMultiplier",
          "type": "uint256"
        }
      ],
      "name": "setProtocolFeeMultiplier",
      "outputs": [],
      "payable": false,
      "stateMutability": "nonpayable",
      "type": "function"
    },
    {
      "constant": false,
      "inputs": [
        {
          "components": [
            {
              "name": "makerAddress",
              "type": "address"
            },
            {
              "name": "takerAddress",
              "type": "address"
            },
            {
              "name": "feeRecipientAddress",
              "type": "address"
            },
            {
              "name": "senderAddress",
              "type": "address"
            },
            {
              "name": "makerAssetAmount",
              "type": "uint256"
            },
            {
              "name": "takerAssetAmount",
              "type": "uint256"
            },
            {
              "name": "makerFee",
              "type": "uint256"
            },
            {
              "name": "takerFee",
              "type": "uint256"
            },
            {
              "name": "expirationTimeSeconds",
              "type": "uint256"
            },
            {
              "name": "salt",
              "type": "uint256"
            },
            {
              "name": "makerAssetData",
              "type": "bytes"
            },
            {
              "name": "takerAssetData",
              "type": "bytes"
            },
            {
              "name": "makerFeeAssetData",
              "type": "bytes"
            },
            {
              "name": "takerFeeAssetData",
              "type": "bytes"
            }
          ],
          "name": "orders",
          "type": "tuple[]"
        },
        {
          "name": "takerAssetFillAmounts",
          "type": "uint256[]"
        },
        {
          "name": "signatures",
          "type": "bytes[]"
        }
      ],
      "name": "batchFillOrders",
      "outputs": [
        {
          "components": [
            {
              "name": "makerAssetFilledAmount",
              "type": "uint256"
            },
            {
              "name": "takerAssetFilledAmount",
              "type": "uint256"
            },
            {
              "name": "makerFeePaid",
              "type": "uint256"
            },
            {
              "name": "takerFeePaid",
              "type": "uint256"
            },
            {
              "name": "protocolFeePaid",
              "type": "uint256"
            }
          ],
          "name": "fillResults",
          "type": "tuple[]"
        }
      ],
      "payable": true,
      "stateMutability": "payable",
      "type": "function"
    },
    {
      "constant": false,
      "inputs": [
        {
          "components": [
            {
              "name": "makerAddress",
              "type": "address"
            },
            {
              "name": "takerAddress",
              "type": "address"
            },
            {
              "name": "feeRecipientAddress",
              "type": "address"
            },
            {
              "name": "senderAddress",
              "type": "address"
            },
            {
              "name": "makerAssetAmount",
              "type": "uint256"
            },
            {
              "name": "takerAssetAmount",
              "type": "uint256"
            },
            {
              "name": "makerFee",
              "type": "uint256"
            },
            {
              "name": "takerFee",
              "type": "uint256"
            },
            {
              "name": "expirationTimeSeconds",
              "type": "uint256"
            },
            {
              "name": "salt",
              "type": "uint256"
            },
            {
              "name": "makerAssetData",
              "type": "bytes"
            },
            {
              "name": "takerAssetData",
              "type": "bytes"
            },
            {
              "name": "makerFeeAssetData",
              "type": "bytes"
            },
            {
              "name": "takerFeeAssetData",
              "type": "bytes"
            }
          ],
          "name": "order",
          "type": "tuple"
        },
        {
          "name": "takerAssetFillAmount",
          "type": "uint256"
        },
        {
          "name": "signature",
          "type": "bytes"
        }
      ],
      "name": "fillOrder",
      "outputs": [
        {
          "components": [
            {
              "name": "makerAssetFilledAmount",
              "type": "uint256"
            },
            {
              "name": "takerAssetFilledAmount",
              "type": "uint256"
            },
            {
              "name": "makerFeePaid",
              "type": "uint256"
            },
            {
              "name": "takerFeePaid",
              "type": "uint256"
            },
            {
              "name": "protocolFeePaid",
              "type": "uint256"
            }
          ],
          "name": "fillResults",
          "type": "tuple"
        }
      ],
      "payable": true,
      "stateMutability": "payable",
      "type": "function"
    },
    {
      "constant": true,
      "inputs": [
        {
          "components": [
            {
              "name": "makerAddress",
              "type": "address"
            },
            {
              "name": "takerAddress",
              "type": "address"
            },
            {
              "name": "feeRecipientAddress",
              "type": "address"
            },
            {
              "name": "senderAddress",
              "type": "address"
            },
            {
              "name": "makerAssetAmount",
              "type": "uint256"
            },
            {
              "name": "takerAssetAmount",
              "type": "uint256"
            },
            {
              "name": "makerFee",
              "type": "uint256"
            },
            {
              "name": "takerFee",
              "type": "uint256"
            },
            {
              "name": "expirationTimeSeconds",
              "type": "uint256"
            },
            {
              "name": "salt",
              "type": "uint256"
            },
            {
              "name": "makerAssetData",
              "type": "bytes"
            },
            {
              "name": "takerAssetData",
              "type": "bytes"
            },
            {
              "name": "makerFeeAssetData",
              "type": "bytes"
            },
            {
              "name": "takerFeeAssetData",
              "type": "bytes"
            }
          ],
          "name": "order",
          "type": "tuple"
        }
      ],
      "name": "getOrderInfo",
      "outputs": [
        {
          "components": [
            {
              "name": "orderStatus",
              "type": "uint8"
            },
            {
              "name": "orderHash",
              "type": "bytes32"
            },
            {
              "name": "orderTakerAssetFilledAmount",
              "type": "uint256"
            }
          ],
          "name": "orderInfo",
          "type": "tuple"
        }
      ],
      "payable": false,
      "stateMutability": "view",
      "type": "function"
    },
    {
      "constant": true,
      "inputs": [
        {
          "components": [
            {
              "name": "makerAddress",
              "type": "address"
            },
            {
              "name": "takerAddress",
              "type": "address"
            },
            {
              "name": "feeRecipientAddress",
              "type": "address"
            },
            {
              "name": "senderAddress",
              "type": "address"
            },
            {
              "name": "makerAssetAmount",
              "type": "uint256"
            },
            {
              "name": "takerAssetAmount",
              "type": "uint256"
            },
            {
              "name": "makerFee",
              "type": "uint256"
            },
            {
              "name": "takerFee",
              "type": "uint256"
            },
            {
              "name": "expirationTimeSeconds",
              "type": "uint256"
            },
            {
              "name": "salt",
              "type": "uint256"
            },
            {
              "name": "makerAssetData",
              "type": "bytes"
            },
            {
              "name": "takerAssetData",
              "type": "bytes"
            },
            {
              "name": "makerFeeAssetData",
              "type": "bytes"
            },
            {
              "name": "takerFeeAssetData",
              "type": "bytes"
            }
          ],
          "name": "order",
          "type": "tuple"
        },
        {
          "name": "signature",
          "type": "bytes"
        }
      ],
      "name": "isValidOrderSignature",
      "outputs": [
        {
          "name": "isValid",
          "type": "bool"
        }
      ],
      "payable": false,
      "stateMutability": "view",
      "type": "function"
    },
    {
      "constant": false,
      "inputs": [
        {
          "components": [
            {
              "name": "makerAddress",
              "type": "address"
            },
            {
              "name": "takerAddress",
              "type": "address"
            },
            {
              "name": "feeRecipientAddress",
              "type": "address"
            },
            {
              "name": "senderAddress",
              "type": "address"
            },
            {
              "name": "makerAssetAmount",
              "type": "uint256"
            },
            {
              "name": "takerAssetAmount",
              "type": "uint256"
            },
            {
              "name": "makerFee",
              "type": "uint256"
            },
            {
              "name": "takerFee",
              "type": "uint256"
            },
            {
              "name": "expirationTimeSeconds",
              "type": "uint256"
            },
            {
              "name": "salt",
              "type": "uint256"
            },
            {
              "name": "makerAssetData",
              "type": "bytes"
            },
            {
              "name": "takerAssetData",
              "type": "bytes"
            },
            {
              "name": "makerFeeAssetData",
              "type": "bytes"
            },
            {
              "name": "takerFeeAssetData",
              "type": "bytes"
            }
          ],
          "name": "orders",
          "type": "tuple[]"
        },
        {
          "name": "takerAssetFillAmount",
          "type": "uint256"
        },
        {
          "name": "signatures",
          "type": "bytes[]"
        }
      ],
      "name": "marketSellOrdersFillOrKill",
      "outputs": [
        {
          "components": [
            {
              "name": "makerAssetFilledAmount",
              "type": "uint256"
            },
            {
              "name": "takerAssetFilledAmount",
              "type": "uint256"
            },
            {
              "name": "makerFeePaid",
              "type": "uint256"
            },
            {
              "name": "takerFeePaid",
              "type": "uint256"
            },
            {
              "name": "protocolFeePaid",
              "type": "uint256"
            }
          ],
          "name": "fillResults",
          "type": "tuple"
        }
      ],
      "payable": true,
      "stateMutability": "payable",
      "type": "function"
    },
    {
      "constant": false,
      "inputs": [
        {
          "name": "assetData",
          "type": "bytes[]"
        },
        {
          "name": "fromAddresses",
          "type": "address[]"
        },
        {
          "name": "toAddresses",
          "type": "address[]"
        },
        {
          "name": "amounts",
          "type": "uint256[]"
        }
      ],
      "name": "simulateDispatchTransferFromCalls",
      "outputs": [],
      "payable": false,
      "stateMutability": "nonpayable",
      "type": "function"
    },
    {
      "constant": false,
      "inputs": [
        {
          "components": [
            {
              "name": "makerAddress",
              "type": "address"
            },
            {
              "name": "takerAddress",
              "type": "address"
            },
            {
              "name": "feeRecipientAddress",
              "type": "address"
            },
            {
              "name": "senderAddress",
              "type": "address"
            },
            {
              "name": "makerAssetAmount",
              "type": "uint256"
            },
            {
              "name": "takerAssetAmount",
              "type": "uint256"
            },
            {
              "name": "makerFee",
              "type": "uint256"
            },
            {
              "name": "takerFee",
              "type": "uint256"
            },
            {
              "name": "expirationTimeSeconds",
              "type": "uint256"
            },
            {
              "name": "salt",
              "type": "uint256"
            },
            {
              "name": "makerAssetData",
              "type": "bytes"
            },
            {
              "name": "takerAssetData",
              "type": "bytes"
            },
            {
              "name": "makerFeeAssetData",
              "type": "bytes"
            },
            {
              "name": "takerFeeAssetData",
              "type": "bytes"
            }
          ],
          "name": "leftOrder",
          "type": "tuple"
        },
        {
          "components": [
            {
              "name": "makerAddress",
              "type": "address"
            },
            {
              "name": "takerAddress",
              "type": "address"
            },
            {
              "name": "feeRecipientAddress",
              "type": "address"
            },
            {
              "name": "senderAddress",
              "type": "address"
            },
            {
              "name": "makerAssetAmount",
              "type": "uint256"
            },
            {
              "name": "takerAssetAmount",
              "type": "uint256"
            },
            {
              "name": "makerFee",
              "type": "uint256"
            },
            {
              "name": "takerFee",
              "type": "uint256"
            },
            {
              "name": "expirationTimeSeconds",
              "type": "uint256"
            },
            {
              "name": "salt",
              "type": "uint256"
            },
            {
              "name": "makerAssetData",
              "type": "bytes"
            },
            {
              "name": "takerAssetData",
              "type": "bytes"
            },
            {
              "name": "makerFeeAssetData",
              "type": "bytes"
            },
            {
              "name": "takerFeeAssetData",
              "type": "bytes"
            }
          ],
          "name": "rightOrder",
          "type": "tuple"
        },
        {
          "name": "leftSignature",
          "type": "bytes"
        },
        {
          "name": "rightSignature",
          "type": "bytes"
        }
      ],
      "name": "matchOrdersWithMaximalFill",
      "outputs": [
        {
          "components": [
            {
              "components": [
                {
                  "name": "makerAssetFilledAmount",
                  "type": "uint256"
                },
                {
                  "name": "takerAssetFilledAmount",
                  "type": "uint256"
                },
                {
                  "name": "makerFeePaid",
                  "type": "uint256"
                },
                {
                  "name": "takerFeePaid",
                  "type": "uint256"
                },
                {
                  "name": "protocolFeePaid",
                  "type": "uint256"
                }
              ],
              "name": "left",
              "type": "tuple"
            },
            {
              "components": [
                {
                  "name": "makerAssetFilledAmount",
                  "type": "uint256"
                },
                {
                  "name": "takerAssetFilledAmount",
                  "type": "uint256"
                },
                {
                  "name": "makerFeePaid",
                  "type": "uint256"
                },
                {
                  "name": "takerFeePaid",
                  "type": "uint256"
                },
                {
                  "name": "protocolFeePaid",
                  "type": "uint256"
                }
              ],
              "name": "right",
              "type": "tuple"
            },
            {
              "name": "profitInLeftMakerAsset",
              "type": "uint256"
            },
            {
              "name": "profitInRightMakerAsset",
              "type": "uint256"
            }
          ],
          "name": "matchedFillResults",
          "type": "tuple"
        }
      ],
      "payable": true,
      "stateMutability": "payable",
      "type": "function"
    },
    {
      "constant": false,
      "inputs": [
        {
          "components": [
            {
              "name": "makerAddress",
              "type": "address"
            },
            {
              "name": "takerAddress",
              "type": "address"
            },
            {
              "name": "feeRecipientAddress",
              "type": "address"
            },
            {
              "name": "senderAddress",
              "type": "address"
            },
            {
              "name": "makerAssetAmount",
              "type": "uint256"
            },
            {
              "name": "takerAssetAmount",
              "type": "uint256"
            },
            {
              "name": "makerFee",
              "type": "uint256"
            },
            {
              "name": "takerFee",
              "type": "uint256"
            },
            {
              "name": "expirationTimeSeconds",
              "type": "uint256"
            },
            {
              "name": "salt",
              "type": "uint256"
            },
            {
              "name": "makerAssetData",
              "type": "bytes"
            },
            {
              "name": "takerAssetData",
              "type": "bytes"
            },
            {
              "name": "makerFeeAssetData",
              "type": "bytes"
            },
            {
              "name": "takerFeeAssetData",
              "type": "bytes"
            }
          ],
          "name": "orders",
          "type": "tuple[]"
        },
        {
          "name": "takerAssetFillAmounts",
          "type": "uint256[]"
        },
        {
          "name": "signatures",
          "type": "bytes[]"
        }
      ],
      "name": "batchFillOrKillOrders",
      "outputs": [
        {
          "components": [
            {
              "name": "makerAssetFilledAmount",
              "type": "uint256"
            },
            {
              "name": "takerAssetFilledAmount",
              "type": "uint256"
            },
            {
              "name": "makerFeePaid",
              "type": "uint256"
            },
            {
              "name": "takerFeePaid",
              "type": "uint256"
            },
            {
              "name": "protocolFeePaid",
              "type": "uint256"
            }
          ],
          "name": "fillResults",
          "type": "tuple[]"
        }
      ],
      "payable": true,
      "stateMutability": "payable",
      "type": "function"
    },
    {
      "constant": false,
      "inputs": [
        {
          "name": "updatedProtocolFeeCollector",
          "type": "address"
        }
      ],
      "name": "setProtocolFeeCollectorAddress",
      "outputs": [],
      "payable": false,
      "stateMutability": "nonpayable",
      "type": "function"
    },
    {
      "constant": true,
      "inputs": [],
      "name": "EIP712_EXCHANGE_DOMAIN_HASH",
      "outputs": [
        {
          "name": "",
          "type": "bytes32"
        }
      ],
      "payable": false,
      "stateMutability": "view",
      "type": "function"
    },
    {
      "constant": false,
      "inputs": [
        {
          "name": "assetProxy",
          "type": "address"
        }
      ],
      "name": "registerAssetProxy",
      "outputs": [],
      "payable": false,
      "stateMutability": "nonpayable",
      "type": "function"
    },
    {
      "constant": true,
      "inputs": [
        {
          "name": "",
          "type": "address"
        },
        {
          "name": "",
          "type": "address"
        }
      ],
      "name": "orderEpoch",
      "outputs": [
        {
          "name": "",
          "type": "uint256"
        }
      ],
      "payable": false,
      "stateMutability": "view",
      "type": "function"
    },
    {
      "constant": true,
      "inputs": [],
      "name": "EIP1271_MAGIC_VALUE",
      "outputs": [
        {
          "name": "",
          "type": "bytes4"
        }
      ],
      "payable": false,
      "stateMutability": "view",
      "type": "function"
    },
    {
      "constant": false,
      "inputs": [
        {
          "components": [
            {
              "name": "makerAddress",
              "type": "address"
            },
            {
              "name": "takerAddress",
              "type": "address"
            },
            {
              "name": "feeRecipientAddress",
              "type": "address"
            },
            {
              "name": "senderAddress",
              "type": "address"
            },
            {
              "name": "makerAssetAmount",
              "type": "uint256"
            },
            {
              "name": "takerAssetAmount",
              "type": "uint256"
            },
            {
              "name": "makerFee",
              "type": "uint256"
            },
            {
              "name": "takerFee",
              "type": "uint256"
            },
            {
              "name": "expirationTimeSeconds",
              "type": "uint256"
            },
            {
              "name": "salt",
              "type": "uint256"
            },
            {
              "name": "makerAssetData",
              "type": "bytes"
            },
            {
              "name": "takerAssetData",
              "type": "bytes"
            },
            {
              "name": "makerFeeAssetData",
              "type": "bytes"
            },
            {
              "name": "takerFeeAssetData",
              "type": "bytes"
            }
          ],
          "name": "orders",
          "type": "tuple[]"
        }
      ],
      "name": "batchCancelOrders",
      "outputs": [],
      "payable": true,
      "stateMutability": "payable",
      "type": "function"
    },
    {
      "constant": false,
      "inputs": [
        {
          "components": [
            {
              "name": "makerAddress",
              "type": "address"
            },
            {
              "name": "takerAddress",
              "type": "address"
            },
            {
              "name": "feeRecipientAddress",
              "type": "address"
            },
            {
              "name": "senderAddress",
              "type": "address"
            },
            {
              "name": "makerAssetAmount",
              "type": "uint256"
            },
            {
              "name": "takerAssetAmount",
              "type": "uint256"
            },
            {
              "name": "makerFee",
              "type": "uint256"
            },
            {
              "name": "takerFee",
              "type": "uint256"
            },
            {
              "name": "expirationTimeSeconds",
              "type": "uint256"
            },
            {
              "name": "salt",
              "type": "uint256"
            },
            {
              "name": "makerAssetData",
              "type": "bytes"
            },
            {
              "name": "takerAssetData",
              "type": "bytes"
            },
            {
              "name": "makerFeeAssetData",
              "type": "bytes"
            },
            {
              "name": "takerFeeAssetData",
              "type": "bytes"
            }
          ],
          "name": "order",
          "type": "tuple"
        },
        {
          "name": "takerAssetFillAmount",
          "type": "uint256"
        },
        {
          "name": "signature",
          "type": "bytes"
        }
      ],
      "name": "fillOrKillOrder",
      "outputs": [
        {
          "components": [
            {
              "name": "makerAssetFilledAmount",
              "type": "uint256"
            },
            {
              "name": "takerAssetFilledAmount",
              "type": "uint256"
            },
            {
              "name": "makerFeePaid",
              "type": "uint256"
            },
            {
              "name": "takerFeePaid",
              "type": "uint256"
            },
            {
              "name": "protocolFeePaid",
              "type": "uint256"
            }
          ],
          "name": "fillResults",
          "type": "tuple"
        }
      ],
      "payable": true,
      "stateMutability": "payable",
      "type": "function"
    },
    {
      "constant": true,
      "inputs": [],
      "name": "currentContextAddress",
      "outputs": [
        {
          "name": "",
          "type": "address"
        }
      ],
      "payable": false,
      "stateMutability": "view",
      "type": "function"
    },
    {
      "constant": false,
      "inputs": [
        {
          "name": "newOwner",
          "type": "address"
        }
      ],
      "name": "transferOwnership",
      "outputs": [],
      "payable": false,
      "stateMutability": "nonpayable",
      "type": "function"
    },
    {
      "constant": false,
      "inputs": [
        {
          "components": [
            {
              "name": "salt",
              "type": "uint256"
            },
            {
              "name": "expirationTimeSeconds",
              "type": "uint256"
            },
            {
              "name": "gasPrice",
              "type": "uint256"
            },
            {
              "name": "signerAddress",
              "type": "address"
            },
            {
              "name": "data",
              "type": "bytes"
            }
          ],
          "name": "transactions",
          "type": "tuple[]"
        },
        {
          "name": "signatures",
          "type": "bytes[]"
        }
      ],
      "name": "batchExecuteTransactions",
      "outputs": [
        {
          "name": "returnData",
          "type": "bytes[]"
        }
      ],
      "payable": true,
      "stateMutability": "payable",
      "type": "function"
    },
    {
      "inputs": [
        {
          "name": "chainId",
          "type": "uint256"
        }
      ],
      "payable": false,
      "stateMutability": "nonpayable",
      "type": "constructor"
    },
    {
      "anonymous": false,
      "inputs": [
        {
          "indexed": true,
          "name": "transactionHash",
          "type": "bytes32"
        }
      ],
      "name": "TransactionExecution",
      "type": "event"
    },
    {
      "anonymous": false,
      "inputs": [
        {
          "indexed": true,
          "name": "signerAddress",
          "type": "address"
        },
        {
          "indexed": true,
          "name": "validatorAddress",
          "type": "address"
        },
        {
          "indexed": false,
          "name": "isApproved",
          "type": "bool"
        }
      ],
      "name": "SignatureValidatorApproval",
      "type": "event"
    },
    {
      "anonymous": false,
      "inputs": [
        {
          "indexed": false,
          "name": "eventId",
          "type": "bytes4"
        },
        {
          "indexed": false,
          "name": "assetProxy",
          "type": "address"
        }
      ],
      "name": "AssetProxyRegistered",
      "type": "event"
    },
    {
      "anonymous": false,
      "inputs": [
        {
          "indexed": true,
          "name": "previousOwner",
          "type": "address"
        },
        {
          "indexed": true,
          "name": "newOwner",
          "type": "address"
        }
      ],
      "name": "OwnershipTransferred",
      "type": "event"
    },
    {
      "anonymous": false,
      "inputs": [
        {
          "indexed": false,
          "name": "oldProtocolFeeMultiplier",
          "type": "uint256"
        },
        {
          "indexed": false,
          "name": "updatedProtocolFeeMultiplier",
          "type": "uint256"
        }
      ],
      "name": "ProtocolFeeMultiplier",
      "type": "event"
    },
    {
      "anonymous": false,
      "inputs": [
        {
          "indexed": false,
          "name": "oldProtocolFeeCollector",
          "type": "address"
        },
        {
          "indexed": false,
          "name": "updatedProtocolFeeCollector",
          "type": "address"
        }
      ],
      "name": "ProtocolFeeCollectorAddress",
      "type": "event"
    },
    {
      "anonymous": false,
      "inputs": [
        {
          "indexed": true,
          "name": "makerAddress",
          "type": "address"
        },
        {
          "indexed": true,
          "name": "feeRecipientAddress",
          "type": "address"
        },
        {
          "indexed": false,
          "name": "makerAssetData",
          "type": "bytes"
        },
        {
          "indexed": false,
          "name": "takerAssetData",
          "type": "bytes"
        },
        {
          "indexed": false,
          "name": "makerFeeAssetData",
          "type": "bytes"
        },
        {
          "indexed": false,
          "name": "takerFeeAssetData",
          "type": "bytes"
        },
        {
          "indexed": true,
          "name": "orderHash",
          "type": "bytes32"
        },
        {
          "indexed": false,
          "name": "takerAddress",
          "type": "address"
        },
        {
          "indexed": false,
          "name": "senderAddress",
          "type": "address"
        },
        {
          "indexed": false,
          "name": "makerAssetFilledAmount",
          "type": "uint256"
        },
        {
          "indexed": false,
          "name": "takerAssetFilledAmount",
          "type": "uint256"
        },
        {
          "indexed": false,
          "name": "makerFeePaid",
          "type": "uint256"
        },
        {
          "indexed": false,
          "name": "takerFeePaid",
          "type": "uint256"
        },
        {
          "indexed": false,
          "name": "protocolFeePaid",
          "type": "uint256"
        }
      ],
      "name": "Fill",
      "type": "event"
    },
    {
      "anonymous": false,
      "inputs": [
        {
          "indexed": true,
          "name": "makerAddress",
          "type": "address"
        },
        {
          "indexed": true,
          "name": "feeRecipientAddress",
          "type": "address"
        },
        {
          "indexed": false,
          "name": "makerAssetData",
          "type": "bytes"
        },
        {
          "indexed": false,
          "name": "takerAssetData",
          "type": "bytes"
        },
        {
          "indexed": false,
          "name": "senderAddress",
          "type": "address"
        },
        {
          "indexed": true,
          "name": "orderHash",
          "type": "bytes32"
        }
      ],
      "name": "Cancel",
      "type": "event"
    },
    {
      "anonymous": false,
      "inputs": [
        {
          "indexed": true,
          "name": "makerAddress",
          "type": "address"
        },
        {
          "indexed": true,
          "name": "orderSenderAddress",
          "type": "address"
        },
        {
          "indexed": false,
          "name": "orderEpoch",
          "type": "uint256"
        }
      ],
      "name": "CancelUpTo",
      "type": "event"
    }
  ],
  "bytecode": "0x60806040526000805460ff60a01b191690553480156200001e57600080fd5b5060405162005e0938038062005e09833981016040819052620000419162000141565b600080546001600160a01b03191633178155819080309050620000dc6040518060400160405280600b81526020017f30782050726f746f636f6c0000000000000000000000000000000000000000008152506040518060400160405280600581526020017f332e302e300000000000000000000000000000000000000000000000000000008152508584620000ea60201b62005c041760201c565b600155506200015b92505050565b8351602094850120835193850193909320604080517f8b73c3c69bb8fe3d512ecc4cf759cc79239f7b179b0ffacaa9a75d522b39400f815295860194909452928401929092526060830152608082015260a0902090565b6000602082840312156200015457600080fd5b5051919050565b615c9e806200016b6000396000f3fe6080604052600436106102dc5760003560e01c80638d45cd2311610184578063beee2e14116100d6578063dd885e2d1161008a578063eea086ba11610064578063eea086ba14610735578063f2fde38b1461074a578063fc74896d1461076a576102dc565b8063dd885e2d146106ed578063dedfc1f11461070f578063e14b58c414610722576102dc565b8063c26cfecd116100bb578063c26cfecd14610698578063c585bb93146106ad578063d9bfa73e146106cd576102dc565b8063beee2e1414610665578063c0fa16cc14610678576102dc565b80639b44d55611610138578063a6c3bf3311610112578063a6c3bf331461061f578063b04fbddd14610632578063b718e29214610652576102dc565b80639b44d556146105bf5780639d3fa4b9146105d2578063a12dcc6f146105ff576102dc565b80638ea8dfe4116101695780638ea8dfe41461056c5780639331c7421461058c5780639694a402146105ac576102dc565b80638d45cd23146105375780638da5cb5b14610557576102dc565b8063607041081161023d5780637b8e3514116101f1578063850a1501116101cb578063850a1501146104ef57806388ec79fb146105045780638bc8efb314610524576102dc565b80637b8e35141461048f5780638171c407146104af57806382c174d0146104cf576102dc565b80636fcf3e9e116102225780636fcf3e9e1461045657806377fcce681461046957806378d29ac11461047c576102dc565b806360704108146104095780636a1a80fd14610436576102dc565b80632ac1262211610294578063369da09911610279578063369da099146103c357806346c02d7a146103e35780634f9559b1146103f6576102dc565b80632ac12622146103905780632da62987146103b0576102dc565b80631ce4c78b116102c55780631ce4c78b1461032e5780632280c91014610350578063288cdc9114610370576102dc565b80630228e168146102e15780630efca18514610317575b600080fd5b3480156102ed57600080fd5b506103016102fc366004614e7b565b61078a565b60405161030e91906154ed565b60405180910390f35b34801561032357600080fd5b5061032c61079f565b005b34801561033a57600080fd5b506103436107b3565b60405161030e91906154f8565b61036361035e36600461512d565b6107b9565b60405161030e91906156c9565b34801561037c57600080fd5b5061034361038b366004614e7b565b6107fb565b34801561039c57600080fd5b506103016103ab366004614e7b565b61080d565b61032c6103be366004614fa1565b610822565b6103d66103d1366004614d76565b610846565b60405161030e91906159ed565b61032c6103f1366004614e7b565b61096d565b61032c610404366004614e7b565b6109e0565b34801561041557600080fd5b50610429610424366004614f08565b610aed565b60405161030e9190615383565b610449610444366004614c55565b610b3b565b60405161030e9190615976565b610449610464366004614c55565b610b73565b61032c610477366004614b3a565b610b91565b6103d661048a366004614d76565b610c54565b34801561049b57600080fd5b506103016104aa366004614b05565b610da4565b3480156104bb57600080fd5b506103016104ca366004614eb9565b610dc4565b3480156104db57600080fd5b506103016104ea366004614e94565b610e23565b3480156104fb57600080fd5b50610429610e43565b610517610512366004615030565b610e5f565b60405161030e91906159fb565b6103d6610532366004614d76565b610e7d565b34801561054357600080fd5b5061030161055236600461512d565b610eb1565b34801561056357600080fd5b50610429610ed6565b61057f61057a366004614cf2565b610ef2565b60405161030e91906154da565b34801561059857600080fd5b5061032c6105a7366004614e7b565b61101d565b61057f6105ba366004614cf2565b611065565b6103d66105cd3660046150cd565b61112c565b3480156105de57600080fd5b506105f26105ed366004614fa1565b611151565b60405161030e9190615a3d565b34801561060b57600080fd5b5061030161061a366004614fd6565b611246565b6103d661062d366004614d76565b61126b565b34801561063e57600080fd5b5061032c61064d366004614b77565b61129f565b610517610660366004615030565b61134b565b61057f610673366004614cf2565b611369565b34801561068457600080fd5b5061032c610693366004614ae9565b61141e565b3480156106a457600080fd5b5061034361142f565b3480156106b957600080fd5b5061032c6106c8366004614ae9565b611435565b3480156106d957600080fd5b506103436106e8366004614b05565b6115c9565b3480156106f957600080fd5b506107026115e6565b60405161030e9190615654565b61032c61071d366004614c20565b61160a565b6103d66107303660046150cd565b61164c565b34801561074157600080fd5b50610429611667565b34801561075657600080fd5b5061032c610765366004614ae9565b611683565b61077d610778366004614dc9565b611726565b60405161030e919061545b565b60056020526000908152604090205460ff1681565b6107a761184f565b6107b16000611896565b565b60035481565b60606107c3611931565b156107d9576107d28383611953565b90506107f5565b6107e1611a6d565b6107eb8383611953565b90506107f5611aaf565b92915050565b60096020526000908152604090205481565b600a6020526000908152604090205460ff1681565b61082a611adf565b61083381611b4e565b61083b611b93565b610843611ba7565b50565b61084e61456d565b610856611931565b156108ec57835160005b8181146108e5576000610880846020015187611bd190919063ffffffff16565b905061088a61456d565b6108bb88848151811061089957fe5b6020026020010151838886815181106108ae57fe5b6020026020010151611bf0565b90506108c78582611d31565b9450868560200151106108db5750506108e5565b5050600101610860565b5050610966565b6108f4611a6d565b835160005b81811461095c576000610919846020015187611bd190919063ffffffff16565b905061092361456d565b61093288848151811061089957fe5b905061093e8582611d31565b94508685602001511061095257505061095c565b50506001016108f9565b5050610966611aaf565b9392505050565b610975611adf565b600061097f611dcc565b600083815260076020908152604080832073ffffffffffffffffffffffffffffffffffffffff90941683529290522080547fffffffffffffffffffffffffffffffffffffffffffffffffffffffffffffff001660011790555061083b611b93565b6109e8611adf565b60006109f2611dcc565b9050600073ffffffffffffffffffffffffffffffffffffffff82163314610a195733610a1c565b60005b73ffffffffffffffffffffffffffffffffffffffff8084166000908152600b60209081526040808320938516835292905220549091506001840190808211610a7157610a71610a6c858584611dfe565b611ea3565b73ffffffffffffffffffffffffffffffffffffffff8085166000818152600b602090815260408083209488168084529490915290819020859055517f82af639571738f4ebd4268fb0363d8957ebe1bbb9e78dba5ebd69eed39b154f090610ad99086906154f8565b60405180910390a35050505061083b611b93565b7fffffffff00000000000000000000000000000000000000000000000000000000811660009081526002602052604090205473ffffffffffffffffffffffffffffffffffffffff165b919050565b610b4361459c565b610b4b611adf565b610b59858585856001611eab565b9050610b63611b93565b610b6b611ba7565b949350505050565b610b7b61459c565b610b83611adf565b610b59858585856000611eab565b610b99611adf565b6000610ba3611dcc565b73ffffffffffffffffffffffffffffffffffffffff8181166000818152600860209081526040808320948916808452949091529081902080547fffffffffffffffffffffffffffffffffffffffffffffffffffffffffffffff00168715151790555192935090917fa8656e308026eeabce8f0bc18048433252318ab80ac79da0b3d3d8697dfba89190610c379086906154ed565b60405180910390a350610c48611b93565b610c50611ba7565b5050565b610c5c61456d565b610c64611931565b15610d2257835160005b8181146108e5578251600090610c8b90879063ffffffff611bd116565b90506000610cc8888481518110610c9e57fe5b602002602001015160a00151898581518110610cb657fe5b60200260200101516080015184612218565b9050610cd261456d565b610cf6898581518110610ce157fe5b6020026020010151838987815181106108ae57fe5b9050610d028682611d31565b955087866000015110610d17575050506108e5565b505050600101610c6e565b610d2a611a6d565b835160005b81811461095c578251600090610d4c90879063ffffffff611bd116565b90506000610d5f888481518110610c9e57fe5b9050610d6961456d565b610d78898581518110610ce157fe5b9050610d848682611d31565b955087866000015110610d995750505061095c565b505050600101610d2f565b600860209081526000928352604080842090915290825290205460ff1681565b600080610dd285858561225a565b90506005816008811115610de257fe5b1480610df957506007816008811115610df757fe5b145b15610e0e57610e0e610a6c60058787876122d9565b610e1a81868686612381565b95945050505050565b600760209081526000928352604080842090915290825290205460ff1681565b60045473ffffffffffffffffffffffffffffffffffffffff1681565b610e676145c4565b610e6f611adf565b610b598585858560006125f1565b610e8561456d565b610e90848484610c54565b9050828160000151101561096657610966610a6c60008584600001516126de565b600080610ec9600154856126fd90919063ffffffff16565b9050610b6b848285612711565b60005473ffffffffffffffffffffffffffffffffffffffff1681565b6060610efc611931565b15610f9f578351604080518281526020808402820101909152818015610f3c57816020015b610f2961456d565b815260200190600190039081610f215790505b50915060005b8181146108e557610f80868281518110610f5857fe5b6020026020010151868381518110610f6c57fe5b60200260200101518684815181106108ae57fe5b838281518110610f8c57fe5b6020908102919091010152600101610f42565b610fa7611a6d565b8351604080518281526020808402820101909152818015610fe257816020015b610fcf61456d565b815260200190600190039081610fc75790505b50915060005b81811461095c57610ffe868281518110610f5857fe5b83828151811061100a57fe5b6020908102919091010152600101610fe8565b61102561184f565b7f3a3e76d7a75e198aef1f53137e4f2a8a2ec74e2e9526db8404d08ccc9f1e621d6003548260405161105892919061556c565b60405180910390a1600355565b606061106f611adf565b83516040805182815260208084028201019091528180156110aa57816020015b61109761456d565b81526020019060019003908161108f5790505b50915060005b81811461111a576110fb8682815181106110c657fe5b60200260200101518683815181106110da57fe5b60200260200101518684815181106110ee57fe5b6020026020010151612797565b83828151811061110757fe5b60209081029190910101526001016110b0565b5050611124611b93565b610966611ba7565b61113461456d565b61113c611adf565b611147848484612797565b9050611124611b93565b6111596145f9565b61116282612839565b60408301526020820152608082015161118e578060015b9081600681111561118657fe5b905250610b36565b60a082015161119f57806002611179565b8160a001518160400151106111b657806005611179565b81610100015142106111ca57806004611179565b6020808201516000908152600a909152604090205460ff16156111ef57806006611179565b610120820151825173ffffffffffffffffffffffffffffffffffffffff9081166000908152600b60209081526040808320606088015190941683529290522054111561123d57806006611179565b60038152919050565b60008061125e6001548561286a90919063ffffffff16565b9050610b6b848285612879565b61127361456d565b61127e848484610846565b9050828160200151101561096657610966610a6c60018584602001516126de565b835160005b81811461130f576113078160001b8783815181106112be57fe5b60200260200101518784815181106112d257fe5b60200260200101518785815181106112e657fe5b60200260200101518786815181106112fa57fe5b60200260200101516128ce565b6001016112a4565b506040517f08c379a00000000000000000000000000000000000000000000000000000000081526004016113429061593f565b60405180910390fd5b6113536145c4565b61135b611adf565b610b598585858560016125f1565b6060611373611adf565b83516040805182815260208084028201019091528180156113ae57816020015b61139b61456d565b8152602001906001900390816113935790505b50915060005b81811461111a576113ff8682815181106113ca57fe5b60200260200101518683815181106113de57fe5b60200260200101518684815181106113f257fe5b6020026020010151612a92565b83828151811061140b57fe5b60209081029190910101526001016113b4565b61142661184f565b61084381611896565b60015481565b61143d61184f565b60008173ffffffffffffffffffffffffffffffffffffffff1663ae25532e6040518163ffffffff1660e01b815260040160206040518083038186803b15801561148557600080fd5b505afa158015611499573d6000803e3d6000fd5b505050506040513d601f19601f820116820180604052506114bd9190810190614f25565b7fffffffff00000000000000000000000000000000000000000000000000000000811660009081526002602052604090205490915073ffffffffffffffffffffffffffffffffffffffff16801561151b5761151b610a6c8383612ac5565b7fffffffff0000000000000000000000000000000000000000000000000000000082166000908152600260205260409081902080547fffffffffffffffffffffffff00000000000000000000000000000000000000001673ffffffffffffffffffffffffffffffffffffffff8616179055517fd2c6b762299c609bdb96520b58a49bfb80186934d4f71a86a367571a15c03194906115bc9084908690615681565b60405180910390a1505050565b600b60209081526000928352604080842090915290825290205481565b7f20c13b0b0000000000000000000000000000000000000000000000000000000081565b611612611adf565b805160005b8181146116425761163a83828151811061162d57fe5b6020026020010151611b4e565b600101611617565b505061083b611b93565b61165461456d565b61165c611adf565b611147848484612a92565b60065473ffffffffffffffffffffffffffffffffffffffff1681565b61168b61184f565b73ffffffffffffffffffffffffffffffffffffffff81166116b6576116b1610a6c612b67565b610843565b600080547fffffffffffffffffffffffff00000000000000000000000000000000000000001673ffffffffffffffffffffffffffffffffffffffff83169081178255604051909133917f8be0079c531659141344cd1fd0a4f28419497f9722a3daafe3b4186f6b6457e09190a350565b6060611730611931565b156117cd57825160408051828152602080840282010190915281801561176a57816020015b60608152602001906001900390816117555790505b50915060005b8181146117c6576117a785828151811061178657fe5b602002602001015185838151811061179a57fe5b6020026020010151611953565b8382815181106117b357fe5b6020908102919091010152600101611770565b50506107f5565b6117d5611a6d565b825160408051828152602080840282010190915281801561180a57816020015b60608152602001906001900390816117f55790505b50915060005b8181146118455761182685828151811061178657fe5b83828151811061183257fe5b6020908102919091010152600101611810565b50506107f5611aaf565b60005473ffffffffffffffffffffffffffffffffffffffff1633146107b1576000546107b190610a6c90339073ffffffffffffffffffffffffffffffffffffffff16612b9e565b6004546040517fe1a5430ebec577336427f40f15822f1f36c5e3509ff209d6db9e6c9e6941cb0b916118e29173ffffffffffffffffffffffffffffffffffffffff9091169084906153a4565b60405180910390a1600480547fffffffffffffffffffffffff00000000000000000000000000000000000000001673ffffffffffffffffffffffffffffffffffffffff92909216919091179055565b6000547501000000000000000000000000000000000000000000900460ff1690565b6060600061196c600154856126fd90919063ffffffff16565b9050611979848483612bbb565b60608401516119888180612c8f565b60008281526005602052604080822080547fffffffffffffffffffffffffffffffffffffffffffffffffffffffffffffff001660011790556080870151905160609130916119d69190615336565b600060405180830381855af49150503d8060008114611a11576040519150601f19603f3d011682016040523d82523d6000602084013e611a16565b606091505b509150915081611a2d57611a2d610a6c8583612cf2565b611a38836000612c8f565b60405184907fa4a7329f1dd821363067e07d359e347b4af9b1efe4b6cccf13240228af3c800d90600090a29695505050505050565b600080547fffffffffffffffffffff00ffffffffffffffffffffffffffffffffffffffffff167501000000000000000000000000000000000000000000179055565b600080547fffffffffffffffffffff00ffffffffffffffffffffffffffffffffffffffffff1690556107b1612d0f565b60005474010000000000000000000000000000000000000000900460ff1615611b0d57611b0d610a6c612d44565b600080547fffffffffffffffffffffff00ffffffffffffffffffffffffffffffffffffffff1674010000000000000000000000000000000000000000179055565b611b566145f9565b611b5f82611151565b9050611b6b8282612d7b565b600381516006811115611b7a57fe5b14611b855750610843565b610c50828260200151612e2a565b611b9b611931565b6107b1576107b1612d0f565b600080547fffffffffffffffffffffff00ffffffffffffffffffffffffffffffffffffffff169055565b600082821115611bea57611bea610a6c60028585612ed3565b50900390565b611bf861456d565b6040516060907f9b44d5560000000000000000000000000000000000000000000000000000000090611c3290879087908790602401615a8d565b604051602081830303815290604052907bffffffffffffffffffffffffffffffffffffffffffffffffffffffff19166020820180517bffffffffffffffffffffffffffffffffffffffffffffffffffffffff83818316178352505050509050600060603073ffffffffffffffffffffffffffffffffffffffff1683604051611cba9190615336565b600060405180830381855af49150503d8060008114611cf5576040519150601f19603f3d011682016040523d82523d6000602084013e611cfa565b606091505b50915091508115611d2757805160a014611d1057fe5b80806020019051611d249190810190614f42565b93505b5050509392505050565b611d3961456d565b81518351611d4c9163ffffffff612ef216565b815260208083015190840151611d679163ffffffff612ef216565b602082015260408083015190840151611d859163ffffffff612ef216565b604082015260608083015190840151611da39163ffffffff612ef216565b606082015260808083015190840151611dc19163ffffffff612ef216565b608082015292915050565b60065460009073ffffffffffffffffffffffffffffffffffffffff16818115611df55781611df7565b335b9250505090565b6060634ad3127560e01b848484604051602401611e1d939291906153cb565b604080517fffffffffffffffffffffffffffffffffffffffffffffffffffffffffffffffe08184030181529190526020810180517bffffffffffffffffffffffffffffffffffffffffffffffffffffffff167fffffffff000000000000000000000000000000000000000000000000000000009093169290921790915290509392505050565b805160208201fd5b611eb361459c565b8551611ec657611ec6610a6c6000612f0e565b8451611ed957611ed9610a6c6001612f0e565b8351865114611eef57611eef610a6c6002612f0e565b8251855114611f0557611f05610a6c6003612f0e565b8551604051908082528060200260200182016040528015611f4057816020015b611f2d61456d565b815260200190600190039081611f255790505b5081528451604080518281526020808402820101909152908015611f7e57816020015b611f6b61456d565b815260200190600190039081611f635790505b506020820152600080611f8f61461b565b88600081518110611f9c57fe5b60200260200101519050611fae61461b565b88600081518110611fbb57fe5b602002602001015190506000611fd083612839565b9150506000611fde83612839565b915050611fe961456d565b611ff161456d565b611ff96145c4565b61202c87878f8c8151811061200a57fe5b60200260200101518f8c8151811061201e57fe5b60200260200101518f6125f1565b80516020015190915061204690869063ffffffff612ef216565b945061206381602001516020015185612ef290919063ffffffff16565b9350612073838260000151611d31565b9250612083828260200151611d31565b91506120a081604001518b60400151612ef290919063ffffffff16565b60408b0152606080820151908b01516120be9163ffffffff612ef216565b60608b015260a08701518510612169578951805160018b019a85929181106120e257fe5b60200260200101819052506040518060a0016040528060008152602001600081526020016000815260200160008152602001600081525092508e5189141561214657818a60200151898151811061213557fe5b602002602001018190525050612207565b8e898151811061215257fe5b6020026020010151965061216587612839565b9550505b8560a00151841061220157818a6020015189806001019a508151811061218b57fe5b60200260200101819052506040518060a0016040528060008152602001600081526020016000815260200160008152602001600081525091508d518814156121de57828a600001518a8151811061213557fe5b8d88815181106121ea57fe5b602002602001015195506121fd86612839565b9450505b50611ff1565b505050505050505095945050505050565b6000610b6b8361224e61223282600163ffffffff611bd116565b612242888763ffffffff612fad16565b9063ffffffff612ef216565b9063ffffffff612fde16565b6000612267848484613008565b905073ffffffffffffffffffffffffffffffffffffffff831661229457612294610a6c60068686866122d9565b600881818111156122a157fe5b60ff16106122b9576122b9610a6c60038686866122d9565b60008160088111156122c757fe5b141561096657610966610a6c60048686865b6060637e5a231860e01b858585856040516024016122fa94939291906158e3565b604080517fffffffffffffffffffffffffffffffffffffffffffffffffffffffffffffffe08184030181529190526020810180517bffffffffffffffffffffffffffffffffffffffffffffffffffffffff167fffffffff00000000000000000000000000000000000000000000000000000000909316929092179091529050949350505050565b6000600185600881111561239157fe5b14156123b85781516001146123b0576123b0610a6c60028686866122d9565b506000610b6b565b60028560088111156123c657fe5b14156124bf5781516042146123e5576123e5610a6c60028686866122d9565b6000826000815181106123f457fe5b016020015160f81c9050600061241184600163ffffffff61304716565b9050600061242685602163ffffffff61304716565b905060006001888585856040516000815260200160405260405161244d9493929190615636565b6020604051602081039080840390855afa15801561246f573d6000803e3d6000fd5b50506040517fffffffffffffffffffffffffffffffffffffffffffffffffffffffffffffffe0015173ffffffffffffffffffffffffffffffffffffffff8981169116149550610b6b945050505050565b60038560088111156124cd57fe5b141561257a5781516042146124ec576124ec610a6c60028686866122d9565b6000826000815181106124fb57fe5b016020015160f81c9050600061251884600163ffffffff61304716565b9050600061252d85602163ffffffff61304716565b905060006001886040516020016125449190615352565b604051602081830303815290604052805190602001208585856040516000815260200160405260405161244d9493929190615636565b600485600881111561258857fe5b14156125a057612599848484613071565b9050610b6b565b60068560088111156125ae57fe5b146125b557fe5b50600083815260076020908152604080832073ffffffffffffffffffffffffffffffffffffffff8616845290915290205460ff16949350505050565b6125f96145c4565b6101608087015161014080880191909152870151908601526126196145f9565b61262287611151565b905061262c6145f9565b61263587611151565b90506000612641611dcc565b905061264f8984838a613267565b61265b88838389613267565b61266f89898560200151856020015161337f565b6126888989856040015185604001516003543a8b6133c4565b93506126a38982856020015186604001518860000151613519565b6126bc8882846020015185604001518860200151613519565b6126d2836020015183602001518b8b85896135f7565b50505095945050505050565b60606318e4b14160e01b848484604051602401611e1d939291906158c8565b60006109668261270c8561379e565b613826565b60608301516000908161272585838661225a565b9050600581600881111561273557fe5b1415612757576127506127488787613860565b868487613898565b925061278e565b600781600881111561276557fe5b141561277f576127506127788787613860565b838661394c565b61278b81868487612381565b92505b50509392505050565b61279f61456d565b6127a76145f9565b6127b085611151565b905060006127bc611dcc565b90506127ca86838387613267565b60006127e783604001518860a00151611bd190919063ffffffff16565b905060006127f5878361395b565b905061280588826003543a613971565b945060008460200151905061282189858388604001518a613519565b61282d818a86896139e8565b50505050509392505050565b6000806128516001548461286a90919063ffffffff16565b6000818152600960205260409020549092509050915091565b60006109668261270c85613a7f565b82516000908161288a85838661225a565b9050600581600881111561289a57fe5b14156128ad576127506127488787613b56565b60078160088111156128bb57fe5b141561277f576127506127788787613b56565b8015612a8b5760208451816128df57fe5b066004146128f6576128f6610a6c60008787613b8e565b6000612908858263ffffffff613bad16565b7fffffffff00000000000000000000000000000000000000000000000000000000811660009081526002602052604090205490915073ffffffffffffffffffffffffffffffffffffffff168061296757612967610a6c60018989613b8e565b6040516060907fa85e59e400000000000000000000000000000000000000000000000000000000906129a39089908990899089906024016156dc565b604051602081830303815290604052907bffffffffffffffffffffffffffffffffffffffffffffffffffffffff19166020820180517bffffffffffffffffffffffffffffffffffffffffffffffffffffffff83818316178352505050509050600060608373ffffffffffffffffffffffffffffffffffffffff1683604051612a2b9190615336565b6000604051808303816000865af19150503d8060008114612a68576040519150601f19603f3d011682016040523d82523d6000602084013e612a6d565b606091505b509150915081612a8557612a85610a6c8b8b84613bf9565b50505050505b5050505050565b612a9a61456d565b612aa5848484612797565b90508281602001511461096657610966610a6c60028584602001516126de565b60606311c7b72060e01b8383604051602401612ae2929190615681565b604080517fffffffffffffffffffffffffffffffffffffffffffffffffffffffffffffffe08184030181529190526020810180517bffffffffffffffffffffffffffffffffffffffffffffffffffffffff167fffffffff0000000000000000000000000000000000000000000000000000000090931692909217909152905092915050565b60408051808201909152600481527fe69edc3e00000000000000000000000000000000000000000000000000000000602082015290565b6060631de45ad160e01b8383604051602401612ae29291906153a4565b82602001514210612bd457612bd4610a6c600183613c18565b60408301513a8114612bee57612bee610a6c833a84613c35565b60065473ffffffffffffffffffffffffffffffffffffffff168015612c1a57612c1a610a6c8483613c54565b60008381526005602052604090205460ff1615612c3f57612c3f610a6c600085613c18565b606085015173ffffffffffffffffffffffffffffffffffffffff81163314801590612c725750612c70868587612711565b155b15612c8757612c87610a6c60018684896122d9565b505050505050565b73ffffffffffffffffffffffffffffffffffffffff82163314610c50576006805473ffffffffffffffffffffffffffffffffffffffff83167fffffffffffffffffffffffff00000000000000000000000000000000000000009091161790555050565b60606320d11f6160e01b8383604051602401612ae292919061557a565b3031801561084357604051339082156108fc029083906000818181858888f19350505050158015610c50573d6000803e3d6000fd5b60408051808201909152600481527f0c3b823f00000000000000000000000000000000000000000000000000000000602082015290565b606082015173ffffffffffffffffffffffffffffffffffffffff1615612dcf57606082015173ffffffffffffffffffffffffffffffffffffffff163314612dcf57612dcf610a6c6002836020015133613c71565b6000612dd9611dcc565b90508073ffffffffffffffffffffffffffffffffffffffff16836000015173ffffffffffffffffffffffffffffffffffffffff1614612e2557612e25610a6c6000846020015184613c71565b505050565b6000818152600a60205260409081902080547fffffffffffffffffffffffffffffffffffffffffffffffffffffffffffffff001660011790558281015183516101408501516101608601519351859473ffffffffffffffffffffffffffffffffffffffff9485169493909316927f02c310a9a43963ff31a754a4099cc435ed498049687539d72d7818d9b093415c92612ec7929091903390615744565b60405180910390a45050565b606063e946c1bb60e01b848484604051602401611e1d93929190615870565b60008282018381101561096657610966610a6c60008686612ed3565b606063d4092f4f60e01b82604051602401612f29919061585d565b604080517fffffffffffffffffffffffffffffffffffffffffffffffffffffffffffffffe08184030181529190526020810180517bffffffffffffffffffffffffffffffffffffffffffffffffffffffff167fffffffff00000000000000000000000000000000000000000000000000000000909316929092179091529050919050565b600082612fbc575060006107f5565b82820282848281612fc957fe5b041461096657610966610a6c60018686612ed3565b600081612ff457612ff4610a6c60038585612ed3565b6000828481612fff57fe5b04949350505050565b600081516000141561302457613024610a6c60028686866122d9565b8160018351038151811061303457fe5b016020015160f81c6008811115610b6b57fe5b6000816020018351101561306857613068610a6c6005855185602001613c90565b50016020015190565b80516000906130a8837fffffffffffffffffffffffffffffffffffffffffffffffffffffffffffffffff830163ffffffff613caf16565b6040516060907f1626ba7e00000000000000000000000000000000000000000000000000000000906130e0908890879060240161557a565b604080517fffffffffffffffffffffffffffffffffffffffffffffffffffffffffffffffe08184030181529190526020810180517bffffffffffffffffffffffffffffffffffffffffffffffffffffffff167fffffffff0000000000000000000000000000000000000000000000000000000090931692909217909152905061316f848363ffffffff613caf16565b600060608673ffffffffffffffffffffffffffffffffffffffff16836040516131989190615336565b600060405180830381855afa9150503d80600081146131d3576040519150601f19603f3d011682016040523d82523d6000602084013e6131d8565b606091505b50915091508180156131eb575080516020145b1561324d577fb06713810000000000000000000000000000000000000000000000000000000061322282600063ffffffff613bad16565b7bffffffffffffffffffffffffffffffffffffffffffffffffffffffff191614945050505050610966565b61325c610a6c89898985613cb3565b505050509392505050565b60038351600681111561327657fe5b1461329057613290610a6c84602001518560000151613cd4565b606084015173ffffffffffffffffffffffffffffffffffffffff16156132e457606084015173ffffffffffffffffffffffffffffffffffffffff1633146132e4576132e4610a6c6002856020015133613c71565b602084015173ffffffffffffffffffffffffffffffffffffffff161561334e578173ffffffffffffffffffffffffffffffffffffffff16846020015173ffffffffffffffffffffffffffffffffffffffff161461334e5761334e610a6c6001856020015185613c71565b61335d84846020015183612879565b61337957613379610a6c600085602001518760000151856122d9565b50505050565b60a080840151908501516133989163ffffffff612fad16565b608080850151908601516133b19163ffffffff612fad16565b101561337957613379610a6c8383613cf1565b6133cc6145c4565b60a08801516000906133e4908863ffffffff611bd116565b905060006133fb8a608001518b60a0015184613d0e565b90506000613416888b60a00151611bd190919063ffffffff16565b9050600061342d8b608001518c60a0015184613d0e565b9050851561344a576134438c8c85878587613d42565b945061345b565b6134588c8c85878587613e14565b94505b84515160808d015160c08e0151613473929190613d0e565b85516040015284516020015160a08d015160e08e0151613494929190613d0e565b85516060015260208501515160808c015160c08d01516134b5929190613d0e565b856020015160400181815250506134dd8560200151602001518c60a001518d60e00151613d0e565b60208601516060015260006134f8888a63ffffffff612fad16565b86516080908101829052602088015101525050505050979650505050505050565b602081015161352f90839063ffffffff612ef216565b600960008581526020019081526020016000208190555082856040015173ffffffffffffffffffffffffffffffffffffffff16866000015173ffffffffffffffffffffffffffffffffffffffff167f6869791f0a34781b29882982cc39e882768cf2c96995c2a110c577c53bc932d58861014001518961016001518a61018001518b6101a001518b338a600001518b602001518c604001518d606001518e608001516040516135e89b9a99989796959493929190615790565b60405180910390a45050505050565b8351835160408087015190860151610140870151855160200151613620918b91869088906128ce565b61363a8a89610140015186868960200151602001516128ce565b6136548988610180015185848960200151604001516128ce565b61366e8a89610180015186858960000151604001516128ce565b6136848a896101400151868989604001516128ce565b61369a89886101400151858989606001516128ce565b60006136b28b8b88600001516080015188888c613ead565b9050806136cf578551600060809182018190526020880151909101525b8173ffffffffffffffffffffffffffffffffffffffff168373ffffffffffffffffffffffffffffffffffffffff1614801561371f57506101a080890151908a015161371f9163ffffffff613f0a16565b1561375d576137588b8a6101a0015189866137538b60200151606001518c6000015160600151612ef290919063ffffffff16565b6128ce565b613791565b6137778a896101a0015189858a60200151606001516128ce565b6137918b8a6101a0015189868a60000151606001516128ce565b5050505050505050505050565b608081810151825160208085015160408087015160609788015186519685019690962082517fec69816980a3a3ca4554410e60253953e9ff375ba4536a98adfa15cc71541508815294850195909552908301919091529481019490945273ffffffffffffffffffffffffffffffffffffffff9091169183019190915260a082015260c0902090565b6040517f19010000000000000000000000000000000000000000000000000000000000008152600281019290925260228201526042902090565b6040516060907fde047db40000000000000000000000000000000000000000000000000000000090612ae29085908590602401615ab8565b805160009060158110156138b6576138b6610a6c60028787876122d9565b60006138ea847fffffffffffffffffffffffffffffffffffffffffffffffffffffffffffffffeb840163ffffffff613f2f16565b73ffffffffffffffffffffffffffffffffffffffff80871660009081526008602090815260408083209385168352929052205490915060ff1661393457613934610a6c8683613f6f565b6139418188866015613f8c565b979650505050505050565b6000610b6b8385846001613f8c565b600081831061396a5781610966565b5090919050565b61397961456d565b6020810184905260a08501516080860151613995918691613d0e565b815260a085015160c08601516139ac918691613d0e565b604082015260a085015160e08601516139c6918691613d0e565b60608201526139db828463ffffffff612fad16565b6080820152949350505050565b613a028484610160015184866000015185602001516128ce565b613a1c8484610140015185600001518585600001516128ce565b613a3684846101a0015184866040015185606001516128ce565b613a54848461018001518560000151866040015185604001516128ce565b6000613a6a858360800151866000015186614163565b905080612a8b57600060808301525050505050565b6101408101516101608201516101808301516101a08401516000937ff80322eb8376aafb64eadf8f0d7623f22130fd9491a221e902b713cb984a753493909290916020871015613acb57fe5b7fffffffffffffffffffffffffffffffffffffffffffffffffffffffffffffffe087018051610140890180516101608b0180516101808d0180516101a08f0180519d89528c5160209d8e012087528b519b8d019b909b2084528951998c01999099208152875197909a019690962088526101e085209390945290529190529252919091529050919050565b6040516060907f3efe50c80000000000000000000000000000000000000000000000000000000090612ae29085908590602401615a6b565b606063488219a660e01b848484604051602401611e1d93929190615834565b60008160040183511015613bce57613bce610a6c6003855185600401613c90565b5001602001517fffffffff000000000000000000000000000000000000000000000000000000001690565b6060634678472b60e01b848484604051602401611e1d93929190615593565b606063f598518460e01b8383604051602401612ae2929190615927565b606063a26dac0960e01b848484604051602401611e1d93929190615620565b606063dec4aedf60e01b8383604051602401612ae2929190615501565b606063e53c76c860e01b848484604051602401611e1d93929190615891565b6060632800659560e01b848484604051602401611e1d939291906158d5565b9052565b6060631b8388f760e01b858585856040516024016122fa9493929190615525565b606063fdb6ca8d60e01b8383604051602401612ae29291906155be565b606063b6555d6f60e01b8383604051602401612ae292919061556c565b6000613d1b8484846141a9565b15613d2e57613d2e610a6c85858561420f565b610b6b8361224e868563ffffffff612fad16565b613d4a6145c4565b81851184841184861115613d6a57613d6389868661422e565b9250613db9565b86841115613daa5782518790528251602001869052608088015160a0890151613d94919089613d0e565b6020808501805192909252905101879052613db9565b613db68787878761426b565b92505b8115613ddf576020808401510151835151613dd99163ffffffff611bd116565b60408401525b8015613e075782516020908101519084015151613e019163ffffffff611bd116565b60608401525b50505b9695505050505050565b613e1c6145c4565b82841115613e3657613e2f87848461422e565b9050613e84565b82841015613e755780518590528051602090810185905281015184905260a08601516080870151613e68919086614296565b6020808301510152613e84565b613e818585858561426b565b90505b6020808201510151815151613e9e9163ffffffff611bd116565b60408201529695505050505050565b60045460009073ffffffffffffffffffffffffffffffffffffffff168015613f005730316000613ee18a84848b8b8a6142ce565b9050613ef389848385038b8a8a6142ce565b5060019350505050613e0a565b6000915050613e0a565b6000815183511480156109665750508051602091820120825192909101919091201490565b60008160140183511015613f5057613f50610a6c6004855185601401613c90565b50016014015173ffffffffffffffffffffffffffffffffffffffff1690565b606063a15c0d0660e01b8383604051602401612ae29291906153a4565b8151600090613fa38484830363ffffffff613caf16565b6040516060907f20c13b0b0000000000000000000000000000000000000000000000000000000090613fdb908890889060240161571f565b604080517fffffffffffffffffffffffffffffffffffffffffffffffffffffffffffffffe08184030181529190526020810180517bffffffffffffffffffffffffffffffffffffffffffffffffffffffff167fffffffff0000000000000000000000000000000000000000000000000000000090931692909217909152905061406a858363ffffffff613caf16565b600060608873ffffffffffffffffffffffffffffffffffffffff16836040516140939190615336565b600060405180830381855afa9150503d80600081146140ce576040519150601f19603f3d011682016040523d82523d6000602084013e6140d3565b606091505b50915091508180156140e6575080516020145b15614148577f20c13b0b0000000000000000000000000000000000000000000000000000000061411d82600063ffffffff613bad16565b7bffffffffffffffffffffffffffffffffffffffffffffffffffffffff191614945050505050610b6b565b614157610a6c8a8a8a85614406565b50505050949350505050565b60045460009073ffffffffffffffffffffffffffffffffffffffff16801561419f57614194868230318888886142ce565b506001915050610b6b565b6000915050610b6b565b6000826141bb576141bb610a6c614427565b8115806141c6575083155b156141d357506000610966565b600083806141dd57fe5b85840990506141f2858463ffffffff612fad16565b614204826103e863ffffffff612fad16565b101595945050505050565b606063339f3de260e01b848484604051602401611e1d93929190615620565b6142366145c4565b60208082018051859052518101839052815101839052608084015160a0850151614261919085613d0e565b8151529392505050565b6142736145c4565b805194909452835160209081019390935282840180519290925290519091015290565b60006142a384848461445e565b156142b6576142b6610a6c85858561420f565b610b6b8361224e61223282600163ffffffff611bd116565b60008385106142da5750825b6040516060907fa3b4a3270000000000000000000000000000000000000000000000000000000090614314908690869089906024016153cb565b604051602081830303815290604052907bffffffffffffffffffffffffffffffffffffffffffffffffffffffff19166020820180517bffffffffffffffffffffffffffffffffffffffffffffffffffffffff83818316178352505050509050600060608873ffffffffffffffffffffffffffffffffffffffff16848460405161439d9190615336565b60006040518083038185875af1925050503d80600081146143da576040519150601f19603f3d011682016040523d82523d6000602084013e6143df565b606091505b5091509150816143f9576143f9610a6c8b898989866144c2565b5050509695505050505050565b6060635bd0428d60e01b858585856040516024016122fa94939291906153fc565b60408051808201909152600481527fa791837c00000000000000000000000000000000000000000000000000000000602082015290565b60008261447057614470610a6c614427565b81158061447b575083155b1561448857506000610966565b6000838061449257fe5b8584099050836144a8818363ffffffff611bd116565b816144af57fe5b0690506141f2858463ffffffff612fad16565b60606387cb1e7560e01b86868686866040516024016144e59594939291906155db565b604080517fffffffffffffffffffffffffffffffffffffffffffffffffffffffffffffffe08184030181529190526020810180517bffffffffffffffffffffffffffffffffffffffffffffffffffffffff167fffffffff0000000000000000000000000000000000000000000000000000000090931692909217909152905095945050505050565b6040518060a0016040528060008152602001600081526020016000815260200160008152602001600081525090565b6040518060800160405280606081526020016060815260200160008152602001600081525090565b6040518061018001604052806145d861456d565b81526020016145e561456d565b815260200160008152602001600081525090565b6040805160608101909152806000815260006020820181905260409091015290565b604051806101c00160405280600073ffffffffffffffffffffffffffffffffffffffff168152602001600073ffffffffffffffffffffffffffffffffffffffff168152602001600073ffffffffffffffffffffffffffffffffffffffff168152602001600073ffffffffffffffffffffffffffffffffffffffff168152602001600081526020016000815260200160008152602001600081526020016000815260200160008152602001606081526020016060815260200160608152602001606081525090565b803573ffffffffffffffffffffffffffffffffffffffff811681146107f557600080fd5b600082601f830112614716578081fd5b813561472961472482615b49565b615b22565b81815291506020808301908481018184028601820187101561474a57600080fd5b60005b848110156147715761475f88836146e2565b8452928201929082019060010161474d565b505050505092915050565b600082601f83011261478c578081fd5b813561479a61472482615b49565b8181529150602080830190840160005b838110156147d7576147c2876020843589010161489a565b835260209283019291909101906001016147aa565b5050505092915050565b600082601f8301126147f1578081fd5b81356147ff61472482615b49565b8181529150602080830190840160005b838110156147d7576148278760208435890101614921565b8352602092830192919091019060010161480f565b600082601f83011261484c578081fd5b813561485a61472482615b49565b81815291506020808301908481018184028601820187101561487b57600080fd5b60005b848110156147715781358452928201929082019060010161487e565b600082601f8301126148aa578081fd5b813567ffffffffffffffff8111156148c0578182fd5b6148f160207fffffffffffffffffffffffffffffffffffffffffffffffffffffffffffffffe0601f84011601615b22565b915080825283602082850101111561490857600080fd5b8060208401602084013760009082016020015292915050565b60006101c0808385031215614934578182fd5b61493d81615b22565b915050600061494c84846146e2565b825261495b84602085016146e2565b602083015261496d84604085016146e2565b604083015261497f84606085016146e2565b60608301526080830135608083015260a083013560a083015260c083013560c083015260e083013560e08301526101008084013581840152506101208084013581840152506101408084013567ffffffffffffffff808211156149e0578384fd5b6149ec8783880161489a565b83860152610160925082860135915080821115614a07578384fd5b614a138783880161489a565b83860152610180925082860135915080821115614a2e578384fd5b614a3a8783880161489a565b838601526101a0925082860135915080821115614a55578384fd5b50614a628682870161489a565b8285015250505092915050565b600060a08284031215614a80578081fd5b614a8a60a0615b22565b90508135815260208201356020820152604082013560408201526060820135614ab281615bb4565b6060820152608082013567ffffffffffffffff811115614ad157600080fd5b614add8482850161489a565b60808301525092915050565b600060208284031215614afb57600080fd5b61096683836146e2565b60008060408385031215614b1857600080fd5b614b2284846146e2565b9150614b3184602085016146e2565b90509250929050565b60008060408385031215614b4d57600080fd5b614b5784846146e2565b915060208301358015158114614b6c57600080fd5b809150509250929050565b60008060008060808587031215614b8c578182fd5b843567ffffffffffffffff80821115614ba3578384fd5b614baf8883890161477c565b95506020870135915080821115614bc4578384fd5b614bd088838901614706565b94506040870135915080821115614be5578384fd5b614bf188838901614706565b93506060870135915080821115614c0757600080fd5b50614c148782880161483c565b91505092959194509250565b600060208284031215614c3257600080fd5b813567ffffffffffffffff811115614c4957600080fd5b610b6b848285016147e1565b60008060008060808587031215614c6a578182fd5b843567ffffffffffffffff80821115614c81578384fd5b614c8d888389016147e1565b95506020870135915080821115614ca2578384fd5b614cae888389016147e1565b94506040870135915080821115614cc3578384fd5b614ccf8883890161477c565b93506060870135915080821115614ce557600080fd5b50614c148782880161477c565b600080600060608486031215614d06578081fd5b833567ffffffffffffffff80821115614d1d578283fd5b614d29878388016147e1565b94506020860135915080821115614d3e578283fd5b614d4a8783880161483c565b93506040860135915080821115614d5f578283fd5b50614d6c8682870161477c565b9150509250925092565b600080600060608486031215614d8a578081fd5b833567ffffffffffffffff80821115614da1578283fd5b614dad878388016147e1565b9450602086013593506040860135915080821115614d5f578283fd5b60008060408385031215614ddb578182fd5b823567ffffffffffffffff80821115614df2578384fd5b81850186601f820112614e03578485fd5b80359250614e1361472484615b49565b83815260208082019190838101885b87811015614e4b57614e398c848435890101614a6f565b85529382019390820190600101614e22565b50919750880135945050505080821115614e6457600080fd5b50614e718582860161477c565b9150509250929050565b600060208284031215614e8d57600080fd5b5035919050565b60008060408385031215614ea757600080fd5b823591506020830135614b6c81615bb4565b600080600060608486031215614ece57600080fd5b833592506020840135614ee081615bb4565b9150604084013567ffffffffffffffff811115614efc57600080fd5b614d6c8682870161489a565b600060208284031215614f1a57600080fd5b813561096681615bd6565b600060208284031215614f3757600080fd5b815161096681615bd6565b600060a0828403128015614f5557600080fd5b8015614f6057600080fd5b50614f6b60a0615b22565b82518152602083015160208201526040830151604082015260608301516060820152608083015160808201528091505092915050565b600060208284031215614fb357600080fd5b813567ffffffffffffffff811115614fca57600080fd5b610b6b84828501614921565b60008060408385031215614fe957600080fd5b823567ffffffffffffffff8082111561500157600080fd5b61500d86838701614921565b9350602085013591508082111561502357600080fd5b50614e718582860161489a565b60008060008060808587031215615045578182fd5b843567ffffffffffffffff8082111561505c578384fd5b61506888838901614921565b9550602087013591508082111561507d578384fd5b61508988838901614921565b9450604087013591508082111561509e578384fd5b6150aa8883890161489a565b935060608701359150808211156150c057600080fd5b50614c148782880161489a565b6000806000606084860312156150e1578081fd5b833567ffffffffffffffff808211156150f8578283fd5b61510487838801614921565b9450602086013593506040860135915080821115615120578283fd5b50614d6c8682870161489a565b6000806040838503121561514057600080fd5b823567ffffffffffffffff8082111561515857600080fd5b61500d86838701614a6f565b73ffffffffffffffffffffffffffffffffffffffff169052565b600081518084526020840193506020830160005b828110156151bb576151a586835161520f565b60a0959095019460209190910190600101615192565b5093949350505050565b600081518084526151dd816020860160208601615b6a565b601f017fffffffffffffffffffffffffffffffffffffffffffffffffffffffffffffffe0169290920160200192915050565b80518252602081015160208301526040810151604083015260608101516060830152608081015160808301525050565b60006101c061524f848451615164565b60208301516152616020860182615164565b5060408301516152746040860182615164565b5060608301516152876060860182615164565b506080830151608085015260a083015160a085015260c083015160c085015260e083015160e08501526101008084015181860152506101208084015181860152506101408084015182828701526152e0838701826151c5565b915050610160915081840151858203838701526152fd82826151c5565b92505050610180808401518583038287015261531983826151c5565b9150506101a091508184015185820383870152613e0a82826151c5565b60008251615348818460208701615b6a565b9190910192915050565b7f19457468657265756d205369676e6564204d6573736167653a0a3332000000008152601c810191909152603c0190565b73ffffffffffffffffffffffffffffffffffffffff91909116815260200190565b73ffffffffffffffffffffffffffffffffffffffff92831681529116602082015260400190565b73ffffffffffffffffffffffffffffffffffffffff9384168152919092166020820152604081019190915260600190565b600073ffffffffffffffffffffffffffffffffffffffff861682526080602083015261542b60808301866151c5565b828103604084015261543d81866151c5565b838103606085015261544f81866151c5565b98975050505050505050565b600060208083018184528085518083526040860191506040848202870101925083870160005b828110156154cd577fffffffffffffffffffffffffffffffffffffffffffffffffffffffffffffffc08886030184526154bb8583516151c5565b94509285019290850190600101615481565b5092979650505050505050565b600060208252610966602083018461517e565b901515815260200190565b90815260200190565b91825273ffffffffffffffffffffffffffffffffffffffff16602082015260400190565b600085825273ffffffffffffffffffffffffffffffffffffffff851660208301526080604083015261555a60808301856151c5565b828103606084015261394181856151c5565b918252602082015260400190565b600083825260406020830152610b6b60408301846151c5565b6000848252606060208301526155ac60608301856151c5565b8281036040840152613e0a81856151c5565b828152604081016155ce83615baa565b8260208301529392505050565b600086825285602083015273ffffffffffffffffffffffffffffffffffffffff808616604084015280851660608401525060a0608083015261394160a08301846151c5565b9283526020830191909152604082015260600190565b93845260ff9290921660208401526040830152606082015260800190565b7fffffffff0000000000000000000000000000000000000000000000000000000091909116815260200190565b7fffffffff0000000000000000000000000000000000000000000000000000000092909216825273ffffffffffffffffffffffffffffffffffffffff16602082015260400190565b60006020825261096660208301846151c5565b6000608082526156ef60808301876151c5565b73ffffffffffffffffffffffffffffffffffffffff95861660208401529390941660408201526060015292915050565b60006040825261573260408301856151c5565b8281036020840152610e1a81856151c5565b60006060825261575760608301866151c5565b828103602084015261576981866151c5565b91505073ffffffffffffffffffffffffffffffffffffffff83166040830152949350505050565b60006101608083526157a48184018f6151c5565b83810360208501526157b6818f6151c5565b91505082810360408401526157cb818d6151c5565b83810360608501526157dd818d6151c5565b73ffffffffffffffffffffffffffffffffffffffff9b8c16608086015299909a1660a0840152505060c081019590955260e08501939093526101008401919091526101208301526101409091015295945050505050565b60006002851061584057fe5b84825283602083015260606040830152610e1a60608301846151c5565b6020810161586a83615b96565b91905290565b6060810161587d85615b96565b938152602081019290925260409091015290565b6060810161589e85615ba0565b938152602081019290925273ffffffffffffffffffffffffffffffffffffffff1660409091015290565b6060810161587d85615ba0565b606081016008851061587d57fe5b60006158ee86615baa565b85825284602083015273ffffffffffffffffffffffffffffffffffffffff8416604083015260806060830152613e0a60808301846151c5565b604081016002841061593557fe5b9281526020015290565b60208082526014908201527f5452414e53464552535f5355434345535346554c000000000000000000000000604082015260600190565b60006020825282516080602084015261599260a084018261517e565b602085015191507fffffffffffffffffffffffffffffffffffffffffffffffffffffffffffffffe08482030160408501526159cd818361517e565b604086015160608601526060860151608086015280935050505092915050565b60a081016107f5828461520f565b600061018082019050615a0f82845161520f565b6020830151615a2160a084018261520f565b5060408301516101408301526060909201516101609091015290565b81516060820190615a4d81615baa565b80835250602083015160208301526040830151604083015292915050565b600060408252615a7e604083018561523f565b90508260208301529392505050565b600060608252615aa0606083018661523f565b8460208401528281036040840152613e0a81856151c5565b60006040825283516040830152602084015160608301526040840151608083015273ffffffffffffffffffffffffffffffffffffffff60608501511660a0830152608084015160a060c0840152615b1260e08401826151c5565b9150508260208301529392505050565b60405181810167ffffffffffffffff81118282101715615b4157600080fd5b604052919050565b600067ffffffffffffffff821115615b6057600080fd5b5060209081020190565b60005b83811015615b85578181015183820152602001615b6d565b838111156133795750506000910152565b6004811061084357fe5b6003811061084357fe5b6007811061084357fe5b73ffffffffffffffffffffffffffffffffffffffff8116811461084357600080fd5b7fffffffff000000000000000000000000000000000000000000000000000000008116811461084357600080fd5b8351602094850120835193850193909320604080517f8b73c3c69bb8fe3d512ecc4cf759cc79239f7b179b0ffacaa9a75d522b39400f815295860194909452928401929092526060830152608082015260a090209056fea365627a7a7230582057d12fa5c224be328233f736c1ac6836e417ad2994c0b2f8cbef90c0fb0b72f16c6578706572696d656e74616cf564736f6c63430005090040",
  "source": "/*\n\n  Copyright 2019 ZeroEx Intl.\n\n  Licensed under the Apache License, Version 2.0 (the \"License\");\n  you may not use this file except in compliance with the License.\n  You may obtain a copy of the License at\n\n    http://www.apache.org/licenses/LICENSE-2.0\n\n  Unless required by applicable law or agreed to in writing, software\n  distributed under the License is distributed on an \"AS IS\" BASIS,\n  WITHOUT WARRANTIES OR CONDITIONS OF ANY KIND, either express or implied.\n  See the License for the specific language governing permissions and\n  limitations under the License.\n\n*/\n\npragma solidity ^0.5.9;\npragma experimental ABIEncoderV2;\n\nimport \"@0x/contracts-exchange-libs/contracts/src/LibEIP712ExchangeDomain.sol\";\nimport \"./MixinMatchOrders.sol\";\nimport \"./MixinWrapperFunctions.sol\";\nimport \"./MixinTransferSimulator.sol\";\n\n\n// solhint-disable no-empty-blocks\n// MixinAssetProxyDispatcher, MixinExchangeCore, MixinSignatureValidator,\n// and MixinTransactions are all inherited via the other Mixins that are\n// used.\n/// @dev The 0x Exchange contract.\ncontract Exchange is\n    LibEIP712ExchangeDomain,\n    MixinMatchOrders,\n    MixinWrapperFunctions,\n    MixinTransferSimulator\n{\n    /// @dev Mixins are instantiated in the order they are inherited\n    /// @param chainId Chain ID of the network this contract is deployed on.\n    constructor (uint256 chainId)\n        public\n        LibEIP712ExchangeDomain(chainId, address(0))\n    {}\n}\n",
  "sourcePath": "/Users/ds/Documents/rarible/scripts/contracts/exchange/contracts/Exchange.sol",
  "compiler": {
    "name": "solc",
    "version": "0.5.9+commit.e560f70d.Emscripten.clang"
  },
  "schemaVersion": "3.4.3",
  "updatedAt": "2022-04-05T08:41:19.841Z",
  "devdoc": {
    "details": "The 0x Exchange contract.",
    "methods": {
      "batchCancelOrders((address,address,address,address,uint256,uint256,uint256,uint256,uint256,uint256,bytes,bytes,bytes,bytes)[])": {
        "details": "Executes multiple calls of cancelOrder.",
        "params": {
          "orders": "Array of order specifications."
        }
      },
      "batchExecuteTransactions((uint256,uint256,uint256,address,bytes)[],bytes[])": {
        "details": "Executes a batch of Exchange method calls in the context of signer(s).",
        "params": {
          "signatures": "Array of proofs that transactions have been signed by signer(s).",
          "transactions": "Array of 0x transaction structures."
        },
        "return": "returnData Array containing ABI encoded return data for each of the underlying Exchange function calls."
      },
      "batchFillOrKillOrders((address,address,address,address,uint256,uint256,uint256,uint256,uint256,uint256,bytes,bytes,bytes,bytes)[],uint256[],bytes[])": {
        "details": "Executes multiple calls of fillOrKillOrder.",
        "params": {
          "orders": "Array of order specifications.",
          "signatures": "Proofs that orders have been created by makers.",
          "takerAssetFillAmounts": "Array of desired amounts of takerAsset to sell in orders."
        },
        "return": "fillResults Array of amounts filled and fees paid by makers and taker."
      },
      "batchFillOrders((address,address,address,address,uint256,uint256,uint256,uint256,uint256,uint256,bytes,bytes,bytes,bytes)[],uint256[],bytes[])": {
        "details": "Executes multiple calls of fillOrder.",
        "params": {
          "orders": "Array of order specifications.",
          "signatures": "Proofs that orders have been created by makers.",
          "takerAssetFillAmounts": "Array of desired amounts of takerAsset to sell in orders."
        },
        "return": "fillResults Array of amounts filled and fees paid by makers and taker."
      },
      "batchFillOrdersNoThrow((address,address,address,address,uint256,uint256,uint256,uint256,uint256,uint256,bytes,bytes,bytes,bytes)[],uint256[],bytes[])": {
        "details": "Executes multiple calls of fillOrder. If any fill reverts, the error is caught and ignored.",
        "params": {
          "orders": "Array of order specifications.",
          "signatures": "Proofs that orders have been created by makers.",
          "takerAssetFillAmounts": "Array of desired amounts of takerAsset to sell in orders."
        },
        "return": "fillResults Array of amounts filled and fees paid by makers and taker."
      },
      "batchMatchOrders((address,address,address,address,uint256,uint256,uint256,uint256,uint256,uint256,bytes,bytes,bytes,bytes)[],(address,address,address,address,uint256,uint256,uint256,uint256,uint256,uint256,bytes,bytes,bytes,bytes)[],bytes[],bytes[])": {
        "details": "Match complementary orders that have a profitable spread.      Each order is filled at their respective price point, and      the matcher receives a profit denominated in the left maker asset.",
        "params": {
          "leftOrders": "Set of orders with the same maker / taker asset.",
          "leftSignatures": "Proof that left orders were created by the left makers.",
          "rightOrders": "Set of orders to match against `leftOrders`",
          "rightSignatures": "Proof that right orders were created by the right makers."
        },
        "return": "batchMatchedFillResults Amounts filled and profit generated."
      },
      "batchMatchOrdersWithMaximalFill((address,address,address,address,uint256,uint256,uint256,uint256,uint256,uint256,bytes,bytes,bytes,bytes)[],(address,address,address,address,uint256,uint256,uint256,uint256,uint256,uint256,bytes,bytes,bytes,bytes)[],bytes[],bytes[])": {
        "details": "Match complementary orders that have a profitable spread.      Each order is maximally filled at their respective price point, and      the matcher receives a profit denominated in either the left maker asset,      right maker asset, or a combination of both.",
        "params": {
          "leftOrders": "Set of orders with the same maker / taker asset.",
          "leftSignatures": "Proof that left orders were created by the left makers.",
          "rightOrders": "Set of orders to match against `leftOrders`",
          "rightSignatures": "Proof that right orders were created by the right makers."
        },
        "return": "batchMatchedFillResults Amounts filled and profit generated."
      },
      "cancelOrder((address,address,address,address,uint256,uint256,uint256,uint256,uint256,uint256,bytes,bytes,bytes,bytes))": {
        "details": "After calling, the order can not be filled anymore.",
        "params": {
          "order": "Order struct containing order specifications."
        }
      },
      "cancelOrdersUpTo(uint256)": {
        "details": "Cancels all orders created by makerAddress with a salt less than or equal to the targetOrderEpoch      and senderAddress equal to msg.sender (or null address if msg.sender == makerAddress).",
        "params": {
          "targetOrderEpoch": "Orders created with a salt less or equal to this value will be cancelled."
        }
      },
      "constructor": {
        "details": "Mixins are instantiated in the order they are inherited",
        "params": {
          "chainId": "Chain ID of the network this contract is deployed on."
        }
      },
      "detachProtocolFeeCollector()": {
        "details": "Sets the protocolFeeCollector contract address to 0.      Only callable by owner."
      },
      "executeTransaction((uint256,uint256,uint256,address,bytes),bytes)": {
        "details": "Executes an Exchange method call in the context of signer.",
        "params": {
          "signature": "Proof that transaction has been signed by signer.",
          "transaction": "0x transaction structure."
        },
        "return": "ABI encoded return data of the underlying Exchange function call."
      },
      "fillOrKillOrder((address,address,address,address,uint256,uint256,uint256,uint256,uint256,uint256,bytes,bytes,bytes,bytes),uint256,bytes)": {
        "details": "Fills the input order. Reverts if exact `takerAssetFillAmount` not filled.",
        "params": {
          "order": "Order struct containing order specifications.",
          "signature": "Proof that order has been created by maker.",
          "takerAssetFillAmount": "Desired amount of takerAsset to sell."
        },
        "return": "fillResults Amounts filled and fees paid."
      },
      "fillOrder((address,address,address,address,uint256,uint256,uint256,uint256,uint256,uint256,bytes,bytes,bytes,bytes),uint256,bytes)": {
        "details": "Fills the input order.",
        "params": {
          "order": "Order struct containing order specifications.",
          "signature": "Proof that order has been created by maker.",
          "takerAssetFillAmount": "Desired amount of takerAsset to sell."
        },
        "return": "fillResults Amounts filled and fees paid by maker and taker."
      },
      "getAssetProxy(bytes4)": {
        "details": "Gets an asset proxy.",
        "params": {
          "assetProxyId": "Id of the asset proxy."
        },
        "return": "assetProxy The asset proxy address registered to assetProxyId. Returns 0x0 if no proxy is registered."
      },
      "getOrderInfo((address,address,address,address,uint256,uint256,uint256,uint256,uint256,uint256,bytes,bytes,bytes,bytes))": {
        "details": "Gets information about an order: status, hash, and amount filled.",
        "params": {
          "order": "Order to gather information on."
        },
        "return": "orderInfo Information about the order and its state.         See LibOrder.OrderInfo for a complete description."
      },
      "isValidHashSignature(bytes32,address,bytes)": {
        "details": "Verifies that a hash has been signed by the given signer.",
        "params": {
          "hash": "Any 32-byte hash.",
          "signature": "Proof that the hash has been signed by signer.",
          "signerAddress": "Address that should have signed the given hash."
        },
        "return": "isValid `true` if the signature is valid for the given hash and signer."
      },
      "isValidOrderSignature((address,address,address,address,uint256,uint256,uint256,uint256,uint256,uint256,bytes,bytes,bytes,bytes),bytes)": {
        "details": "Verifies that a signature for an order is valid.",
        "params": {
          "order": "The order.",
          "signature": "Proof that the order has been signed by signer."
        },
        "return": "isValid `true` if the signature is valid for the given order and signer."
      },
      "isValidTransactionSignature((uint256,uint256,uint256,address,bytes),bytes)": {
        "details": "Verifies that a signature for a transaction is valid.",
        "params": {
          "signature": "Proof that the order has been signed by signer.",
          "transaction": "The transaction."
        },
        "return": "isValid `true` if the signature is valid for the given transaction and signer."
      },
      "marketBuyOrdersFillOrKill((address,address,address,address,uint256,uint256,uint256,uint256,uint256,uint256,bytes,bytes,bytes,bytes)[],uint256,bytes[])": {
        "details": "Calls marketBuyOrdersNoThrow then reverts if < makerAssetFillAmount has been bought.      NOTE: This function does not enforce that the makerAsset is the same for each order.",
        "params": {
          "makerAssetFillAmount": "Minimum amount of makerAsset to buy.",
          "orders": "Array of order specifications.",
          "signatures": "Proofs that orders have been signed by makers."
        },
        "return": "fillResults Amounts filled and fees paid by makers and taker."
      },
      "marketBuyOrdersNoThrow((address,address,address,address,uint256,uint256,uint256,uint256,uint256,uint256,bytes,bytes,bytes,bytes)[],uint256,bytes[])": {
        "details": "Executes multiple calls of fillOrder until total amount of makerAsset is bought by taker.      If any fill reverts, the error is caught and ignored.      NOTE: This function does not enforce that the makerAsset is the same for each order.",
        "params": {
          "makerAssetFillAmount": "Desired amount of makerAsset to buy.",
          "orders": "Array of order specifications.",
          "signatures": "Proofs that orders have been signed by makers."
        },
        "return": "fillResults Amounts filled and fees paid by makers and taker."
      },
      "marketSellOrdersFillOrKill((address,address,address,address,uint256,uint256,uint256,uint256,uint256,uint256,bytes,bytes,bytes,bytes)[],uint256,bytes[])": {
        "details": "Calls marketSellOrdersNoThrow then reverts if < takerAssetFillAmount has been sold.      NOTE: This function does not enforce that the takerAsset is the same for each order.",
        "params": {
          "orders": "Array of order specifications.",
          "signatures": "Proofs that orders have been signed by makers.",
          "takerAssetFillAmount": "Minimum amount of takerAsset to sell."
        },
        "return": "fillResults Amounts filled and fees paid by makers and taker."
      },
      "marketSellOrdersNoThrow((address,address,address,address,uint256,uint256,uint256,uint256,uint256,uint256,bytes,bytes,bytes,bytes)[],uint256,bytes[])": {
        "details": "Executes multiple calls of fillOrder until total amount of takerAsset is sold by taker.      If any fill reverts, the error is caught and ignored.      NOTE: This function does not enforce that the takerAsset is the same for each order.",
        "params": {
          "orders": "Array of order specifications.",
          "signatures": "Proofs that orders have been signed by makers.",
          "takerAssetFillAmount": "Desired amount of takerAsset to sell."
        },
        "return": "fillResults Amounts filled and fees paid by makers and taker."
      },
      "matchOrders((address,address,address,address,uint256,uint256,uint256,uint256,uint256,uint256,bytes,bytes,bytes,bytes),(address,address,address,address,uint256,uint256,uint256,uint256,uint256,uint256,bytes,bytes,bytes,bytes),bytes,bytes)": {
        "details": "Match two complementary orders that have a profitable spread.      Each order is filled at their respective price point. However, the calculations are      carried out as though the orders are both being filled at the right order's price point.      The profit made by the left order goes to the taker (who matched the two orders).",
        "params": {
          "leftOrder": "First order to match.",
          "leftSignature": "Proof that order was created by the left maker.",
          "rightOrder": "Second order to match.",
          "rightSignature": "Proof that order was created by the right maker."
        },
        "return": "matchedFillResults Amounts filled and fees paid by maker and taker of matched orders."
      },
      "matchOrdersWithMaximalFill((address,address,address,address,uint256,uint256,uint256,uint256,uint256,uint256,bytes,bytes,bytes,bytes),(address,address,address,address,uint256,uint256,uint256,uint256,uint256,uint256,bytes,bytes,bytes,bytes),bytes,bytes)": {
        "details": "Match two complementary orders that have a profitable spread.      Each order is maximally filled at their respective price point, and      the matcher receives a profit denominated in either the left maker asset,      right maker asset, or a combination of both.",
        "params": {
          "leftOrder": "First order to match.",
          "leftSignature": "Proof that order was created by the left maker.",
          "rightOrder": "Second order to match.",
          "rightSignature": "Proof that order was created by the right maker."
        },
        "return": "matchedFillResults Amounts filled by maker and taker of matched orders."
      },
      "preSign(bytes32)": {
        "details": "Approves a hash on-chain.      After presigning a hash, the preSign signature type will become valid for that hash and signer.",
        "params": {
          "hash": "Any 32-byte hash."
        }
      },
      "registerAssetProxy(address)": {
        "details": "Registers an asset proxy to its asset proxy id.      Once an asset proxy is registered, it cannot be unregistered.",
        "params": {
          "assetProxy": "Address of new asset proxy to register."
        }
      },
      "setProtocolFeeCollectorAddress(address)": {
        "details": "Allows the owner to update the protocolFeeCollector address.",
        "params": {
          "updatedProtocolFeeCollector": "The updated protocolFeeCollector contract address."
        }
      },
      "setProtocolFeeMultiplier(uint256)": {
        "details": "Allows the owner to update the protocol fee multiplier.",
        "params": {
          "updatedProtocolFeeMultiplier": "The updated protocol fee multiplier."
        }
      },
      "setSignatureValidatorApproval(address,bool)": {
        "details": "Approves/unnapproves a Validator contract to verify signatures on signer's behalf      using the `Validator` signature type.",
        "params": {
          "approval": "Approval or disapproval of  Validator contract.",
          "validatorAddress": "Address of Validator contract."
        }
      },
      "simulateDispatchTransferFromCalls(bytes[],address[],address[],uint256[])": {
        "details": "This function may be used to simulate any amount of transfers As they would occur through the Exchange contract. Note that this function will always revert, even if all transfers are successful. However, it may be used with eth_call or with a try/catch pattern in order to simulate the results of the transfers.",
        "params": {
          "amounts": "Array containing the amounts that correspond to each transfer.",
          "assetData": "Array of asset details, each encoded per the AssetProxy contract specification.",
          "fromAddresses": "Array containing the `from` addresses that correspond with each transfer.",
          "toAddresses": "Array containing the `to` addresses that correspond with each transfer."
        },
        "return": "This function does not return a value. However, it will always revert with `Error(\"TRANSFERS_SUCCESSFUL\")` if all of the transfers were successful."
      },
      "transferOwnership(address)": {
        "details": "Change the owner of this contract.",
        "params": {
          "newOwner": "New owner address."
        }
      }
    }
  },
  "userdoc": {
    "methods": {}
  }
}